{
	"contracts/9_Curso_Moneda.sol": {
		"CursoMoneda": {
			"abi": [
				{
					"inputs": [
						{
							"internalType": "uint256",
							"name": "saldoInicial",
							"type": "uint256"
						}
					],
					"stateMutability": "nonpayable",
					"type": "constructor"
				},
				{
					"anonymous": false,
					"inputs": [
						{
							"indexed": false,
							"internalType": "address",
							"name": "origen",
							"type": "address"
						},
						{
							"indexed": false,
							"internalType": "address",
							"name": "destino",
							"type": "address"
						},
						{
							"indexed": false,
							"internalType": "uint256",
							"name": "monto",
							"type": "uint256"
						}
					],
					"name": "EventoTransferencia",
					"type": "event"
				},
				{
					"inputs": [
						{
							"internalType": "address",
							"name": "cuenta",
							"type": "address"
						}
					],
					"name": "consultaSaldo",
					"outputs": [
						{
							"internalType": "uint256",
							"name": "",
							"type": "uint256"
						}
					],
					"stateMutability": "view",
					"type": "function"
				},
				{
					"inputs": [],
					"name": "crearCuenta",
					"outputs": [],
					"stateMutability": "nonpayable",
					"type": "function"
				},
				{
					"inputs": [
						{
							"internalType": "address",
							"name": "cuentaOrigen",
							"type": "address"
						},
						{
							"internalType": "address",
							"name": "cuentaDestino",
							"type": "address"
						},
						{
							"internalType": "uint256",
							"name": "monto",
							"type": "uint256"
						}
					],
					"name": "transferir",
					"outputs": [
						{
							"internalType": "bool",
							"name": "",
							"type": "bool"
						}
					],
					"stateMutability": "nonpayable",
					"type": "function"
				}
			],
			"devdoc": {
				"kind": "dev",
				"methods": {},
				"version": 1
			},
			"evm": {
				"assembly": "    /* \"contracts/9_Curso_Moneda.sol\":518:2003  contract CursoMoneda {\r... */\n  mstore(0x40, 0x80)\n    /* \"contracts/9_Curso_Moneda.sol\":580:622  0x0000000000000000000000000000000000000000 */\n  0x00\n    /* \"contracts/9_Curso_Moneda.sol\":552:622  address cuentaInexistente = 0x0000000000000000000000000000000000000000 */\n  dup1\n  exp(0x0100, 0x00)\n  dup2\n  sload\n  dup2\n  0xffffffffffffffffffffffffffffffffffffffff\n  mul\n  not\n  and\n  swap1\n  dup4\n  0xffffffffffffffffffffffffffffffffffffffff\n  and\n  mul\n  or\n  swap1\n  sstore\n  pop\n    /* \"contracts/9_Curso_Moneda.sol\":631:775  constructor(uint saldoInicial) {\r... */\n  callvalue\n  dup1\n  iszero\n  tag_1\n  jumpi\n  0x00\n  dup1\n  revert\ntag_1:\n  pop\n  mload(0x40)\n  sub(codesize, bytecodeSize)\n  dup1\n  bytecodeSize\n  dup4\n  codecopy\n  dup2\n  dup2\n  add\n  0x40\n  mstore\n  dup2\n  add\n  swap1\n  tag_2\n  swap2\n  swap1\n  tag_3\n  jump\t// in\ntag_2:\n    /* \"contracts/9_Curso_Moneda.sol\":705:715  msg.sender */\n  caller\n    /* \"contracts/9_Curso_Moneda.sol\":673:680  cuentas */\n  0x01\n    /* \"contracts/9_Curso_Moneda.sol\":673:692  cuentas[msg.sender] */\n  0x00\n    /* \"contracts/9_Curso_Moneda.sol\":681:691  msg.sender */\n  caller\n    /* \"contracts/9_Curso_Moneda.sol\":673:692  cuentas[msg.sender] */\n  0xffffffffffffffffffffffffffffffffffffffff\n  and\n  0xffffffffffffffffffffffffffffffffffffffff\n  and\n  dup2\n  mstore\n  0x20\n  add\n  swap1\n  dup2\n  mstore\n  0x20\n  add\n  0x00\n  keccak256\n    /* \"contracts/9_Curso_Moneda.sol\":673:702  cuentas[msg.sender].nroCuenta */\n  0x00\n  add\n  0x00\n    /* \"contracts/9_Curso_Moneda.sol\":673:715  cuentas[msg.sender].nroCuenta = msg.sender */\n  0x0100\n  exp\n  dup2\n  sload\n  dup2\n  0xffffffffffffffffffffffffffffffffffffffff\n  mul\n  not\n  and\n  swap1\n  dup4\n  0xffffffffffffffffffffffffffffffffffffffff\n  and\n  mul\n  or\n  swap1\n  sstore\n  pop\n    /* \"contracts/9_Curso_Moneda.sol\":755:767  saldoInicial */\n  dup1\n    /* \"contracts/9_Curso_Moneda.sol\":726:733  cuentas */\n  0x01\n    /* \"contracts/9_Curso_Moneda.sol\":726:745  cuentas[msg.sender] */\n  0x00\n    /* \"contracts/9_Curso_Moneda.sol\":734:744  msg.sender */\n  caller\n    /* \"contracts/9_Curso_Moneda.sol\":726:745  cuentas[msg.sender] */\n  0xffffffffffffffffffffffffffffffffffffffff\n  and\n  0xffffffffffffffffffffffffffffffffffffffff\n  and\n  dup2\n  mstore\n  0x20\n  add\n  swap1\n  dup2\n  mstore\n  0x20\n  add\n  0x00\n  keccak256\n    /* \"contracts/9_Curso_Moneda.sol\":726:751  cuentas[msg.sender].saldo */\n  0x01\n  add\n  0x00\n    /* \"contracts/9_Curso_Moneda.sol\":726:767  cuentas[msg.sender].saldo += saldoInicial */\n  dup3\n  dup3\n  sload\n  tag_6\n  swap2\n  swap1\n  tag_7\n  jump\t// in\ntag_6:\n  swap3\n  pop\n  pop\n  dup2\n  swap1\n  sstore\n  pop\n    /* \"contracts/9_Curso_Moneda.sol\":631:775  constructor(uint saldoInicial) {\r... */\n  pop\n    /* \"contracts/9_Curso_Moneda.sol\":518:2003  contract CursoMoneda {\r... */\n  jump(tag_8)\n    /* \"#utility.yul\":7:150   */\ntag_10:\n    /* \"#utility.yul\":64:69   */\n  0x00\n    /* \"#utility.yul\":95:101   */\n  dup2\n    /* \"#utility.yul\":89:102   */\n  mload\n    /* \"#utility.yul\":80:102   */\n  swap1\n  pop\n    /* \"#utility.yul\":111:144   */\n  tag_12\n    /* \"#utility.yul\":138:143   */\n  dup2\n    /* \"#utility.yul\":111:144   */\n  tag_13\n  jump\t// in\ntag_12:\n    /* \"#utility.yul\":7:150   */\n  swap3\n  swap2\n  pop\n  pop\n  jump\t// out\n    /* \"#utility.yul\":156:507   */\ntag_3:\n    /* \"#utility.yul\":226:232   */\n  0x00\n    /* \"#utility.yul\":275:277   */\n  0x20\n    /* \"#utility.yul\":263:272   */\n  dup3\n    /* \"#utility.yul\":254:261   */\n  dup5\n    /* \"#utility.yul\":250:273   */\n  sub\n    /* \"#utility.yul\":246:278   */\n  slt\n    /* \"#utility.yul\":243:362   */\n  iszero\n  tag_15\n  jumpi\n    /* \"#utility.yul\":281:360   */\n  tag_16\n  tag_17\n  jump\t// in\ntag_16:\n    /* \"#utility.yul\":243:362   */\ntag_15:\n    /* \"#utility.yul\":401:402   */\n  0x00\n    /* \"#utility.yul\":426:490   */\n  tag_18\n    /* \"#utility.yul\":482:489   */\n  dup5\n    /* \"#utility.yul\":473:479   */\n  dup3\n    /* \"#utility.yul\":462:471   */\n  dup6\n    /* \"#utility.yul\":458:480   */\n  add\n    /* \"#utility.yul\":426:490   */\n  tag_10\n  jump\t// in\ntag_18:\n    /* \"#utility.yul\":416:490   */\n  swap2\n  pop\n    /* \"#utility.yul\":372:500   */\n  pop\n    /* \"#utility.yul\":156:507   */\n  swap3\n  swap2\n  pop\n  pop\n  jump\t// out\n    /* \"#utility.yul\":594:899   */\ntag_7:\n    /* \"#utility.yul\":634:637   */\n  0x00\n    /* \"#utility.yul\":653:673   */\n  tag_22\n    /* \"#utility.yul\":671:672   */\n  dup3\n    /* \"#utility.yul\":653:673   */\n  tag_23\n  jump\t// in\ntag_22:\n    /* \"#utility.yul\":648:673   */\n  swap2\n  pop\n    /* \"#utility.yul\":687:707   */\n  tag_24\n    /* \"#utility.yul\":705:706   */\n  dup4\n    /* \"#utility.yul\":687:707   */\n  tag_23\n  jump\t// in\ntag_24:\n    /* \"#utility.yul\":682:707   */\n  swap3\n  pop\n    /* \"#utility.yul\":841:842   */\n  dup3\n    /* \"#utility.yul\":773:839   */\n  0xffffffffffffffffffffffffffffffffffffffffffffffffffffffffffffffff\n    /* \"#utility.yul\":769:843   */\n  sub\n    /* \"#utility.yul\":766:767   */\n  dup3\n    /* \"#utility.yul\":763:844   */\n  gt\n    /* \"#utility.yul\":760:867   */\n  iszero\n  tag_25\n  jumpi\n    /* \"#utility.yul\":847:865   */\n  tag_26\n  tag_27\n  jump\t// in\ntag_26:\n    /* \"#utility.yul\":760:867   */\ntag_25:\n    /* \"#utility.yul\":891:892   */\n  dup3\n    /* \"#utility.yul\":888:889   */\n  dup3\n    /* \"#utility.yul\":884:893   */\n  add\n    /* \"#utility.yul\":877:893   */\n  swap1\n  pop\n    /* \"#utility.yul\":594:899   */\n  swap3\n  swap2\n  pop\n  pop\n  jump\t// out\n    /* \"#utility.yul\":905:982   */\ntag_23:\n    /* \"#utility.yul\":942:949   */\n  0x00\n    /* \"#utility.yul\":971:976   */\n  dup2\n    /* \"#utility.yul\":960:976   */\n  swap1\n  pop\n    /* \"#utility.yul\":905:982   */\n  swap2\n  swap1\n  pop\n  jump\t// out\n    /* \"#utility.yul\":988:1168   */\ntag_27:\n    /* \"#utility.yul\":1036:1113   */\n  0x4e487b7100000000000000000000000000000000000000000000000000000000\n    /* \"#utility.yul\":1033:1034   */\n  0x00\n    /* \"#utility.yul\":1026:1114   */\n  mstore\n    /* \"#utility.yul\":1133:1137   */\n  0x11\n    /* \"#utility.yul\":1130:1131   */\n  0x04\n    /* \"#utility.yul\":1123:1138   */\n  mstore\n    /* \"#utility.yul\":1157:1161   */\n  0x24\n    /* \"#utility.yul\":1154:1155   */\n  0x00\n    /* \"#utility.yul\":1147:1162   */\n  revert\n    /* \"#utility.yul\":1297:1414   */\ntag_17:\n    /* \"#utility.yul\":1406:1407   */\n  0x00\n    /* \"#utility.yul\":1403:1404   */\n  dup1\n    /* \"#utility.yul\":1396:1408   */\n  revert\n    /* \"#utility.yul\":1420:1542   */\ntag_13:\n    /* \"#utility.yul\":1493:1517   */\n  tag_34\n    /* \"#utility.yul\":1511:1516   */\n  dup2\n    /* \"#utility.yul\":1493:1517   */\n  tag_23\n  jump\t// in\ntag_34:\n    /* \"#utility.yul\":1486:1491   */\n  dup2\n    /* \"#utility.yul\":1483:1518   */\n  eq\n    /* \"#utility.yul\":1473:1536   */\n  tag_35\n  jumpi\n    /* \"#utility.yul\":1532:1533   */\n  0x00\n    /* \"#utility.yul\":1529:1530   */\n  dup1\n    /* \"#utility.yul\":1522:1534   */\n  revert\n    /* \"#utility.yul\":1473:1536   */\ntag_35:\n    /* \"#utility.yul\":1420:1542   */\n  pop\n  jump\t// out\n    /* \"contracts/9_Curso_Moneda.sol\":518:2003  contract CursoMoneda {\r... */\ntag_8:\n  dataSize(sub_0)\n  dup1\n  dataOffset(sub_0)\n  0x00\n  codecopy\n  0x00\n  return\nstop\n\nsub_0: assembly {\n        /* \"contracts/9_Curso_Moneda.sol\":518:2003  contract CursoMoneda {\r... */\n      mstore(0x40, 0x80)\n      callvalue\n      dup1\n      iszero\n      tag_1\n      jumpi\n      0x00\n      dup1\n      revert\n    tag_1:\n      pop\n      jumpi(tag_2, lt(calldatasize, 0x04))\n      shr(0xe0, calldataload(0x00))\n      dup1\n      0x077d492e\n      eq\n      tag_3\n      jumpi\n      dup1\n      0x3760eec7\n      eq\n      tag_4\n      jumpi\n      dup1\n      0x4f48bf44\n      eq\n      tag_5\n      jumpi\n    tag_2:\n      0x00\n      dup1\n      revert\n        /* \"contracts/9_Curso_Moneda.sol\":942:1502  function transferir(address cuentaOrigen, address cuentaDestino, uint monto) external esTitular returns(bool) {\r... */\n    tag_3:\n      tag_6\n      0x04\n      dup1\n      calldatasize\n      sub\n      dup2\n      add\n      swap1\n      tag_7\n      swap2\n      swap1\n      tag_8\n      jump\t// in\n    tag_7:\n      tag_9\n      jump\t// in\n    tag_6:\n      mload(0x40)\n      tag_10\n      swap2\n      swap1\n      tag_11\n      jump\t// in\n    tag_10:\n      mload(0x40)\n      dup1\n      swap2\n      sub\n      swap1\n      return\n        /* \"contracts/9_Curso_Moneda.sol\":1510:1603  function crearCuenta() external {\r... */\n    tag_4:\n      tag_12\n      tag_13\n      jump\t// in\n    tag_12:\n      stop\n        /* \"contracts/9_Curso_Moneda.sol\":1611:1735  function consultaSaldo(address cuenta) external esTitular view returns(uint) {\r... */\n    tag_5:\n      tag_14\n      0x04\n      dup1\n      calldatasize\n      sub\n      dup2\n      add\n      swap1\n      tag_15\n      swap2\n      swap1\n      tag_16\n      jump\t// in\n    tag_15:\n      tag_17\n      jump\t// in\n    tag_14:\n      mload(0x40)\n      tag_18\n      swap2\n      swap1\n      tag_19\n      jump\t// in\n    tag_18:\n      mload(0x40)\n      dup1\n      swap2\n      sub\n      swap1\n      return\n        /* \"contracts/9_Curso_Moneda.sol\":942:1502  function transferir(address cuentaOrigen, address cuentaDestino, uint monto) external esTitular returns(bool) {\r... */\n    tag_9:\n        /* \"contracts/9_Curso_Moneda.sol\":1046:1050  bool */\n      0x00\n        /* \"contracts/9_Curso_Moneda.sol\":1106:1111  monto */\n      dup2\n        /* \"contracts/9_Curso_Moneda.sol\":1076:1083  cuentas */\n      0x01\n        /* \"contracts/9_Curso_Moneda.sol\":1076:1097  cuentas[cuentaOrigen] */\n      0x00\n        /* \"contracts/9_Curso_Moneda.sol\":1084:1096  cuentaOrigen */\n      dup7\n        /* \"contracts/9_Curso_Moneda.sol\":1076:1097  cuentas[cuentaOrigen] */\n      0xffffffffffffffffffffffffffffffffffffffff\n      and\n      0xffffffffffffffffffffffffffffffffffffffff\n      and\n      dup2\n      mstore\n      0x20\n      add\n      swap1\n      dup2\n      mstore\n      0x20\n      add\n      0x00\n      keccak256\n        /* \"contracts/9_Curso_Moneda.sol\":1076:1103  cuentas[cuentaOrigen].saldo */\n      0x01\n      add\n      sload\n        /* \"contracts/9_Curso_Moneda.sol\":1076:1111  cuentas[cuentaOrigen].saldo < monto */\n      lt\n        /* \"contracts/9_Curso_Moneda.sol\":1073:1168  if(cuentas[cuentaOrigen].saldo < monto){\r... */\n      iszero\n      tag_22\n      jumpi\n        /* \"contracts/9_Curso_Moneda.sol\":1127:1156  revert (\"Saldo insuficiente\") */\n      mload(0x40)\n      0x08c379a000000000000000000000000000000000000000000000000000000000\n      dup2\n      mstore\n      0x04\n      add\n      tag_23\n      swap1\n      tag_24\n      jump\t// in\n    tag_23:\n      mload(0x40)\n      dup1\n      swap2\n      sub\n      swap1\n      revert\n        /* \"contracts/9_Curso_Moneda.sol\":1073:1168  if(cuentas[cuentaOrigen].saldo < monto){\r... */\n    tag_22:\n        /* \"contracts/9_Curso_Moneda.sol\":1227:1244  cuentaInexistente */\n      0x00\n      dup1\n      sload\n      swap1\n      0x0100\n      exp\n      swap1\n      div\n      0xffffffffffffffffffffffffffffffffffffffff\n      and\n        /* \"contracts/9_Curso_Moneda.sol\":1191:1244  cuentas[cuentaDestino].nroCuenta == cuentaInexistente */\n      0xffffffffffffffffffffffffffffffffffffffff\n      and\n        /* \"contracts/9_Curso_Moneda.sol\":1191:1198  cuentas */\n      0x01\n        /* \"contracts/9_Curso_Moneda.sol\":1191:1213  cuentas[cuentaDestino] */\n      0x00\n        /* \"contracts/9_Curso_Moneda.sol\":1199:1212  cuentaDestino */\n      dup6\n        /* \"contracts/9_Curso_Moneda.sol\":1191:1213  cuentas[cuentaDestino] */\n      0xffffffffffffffffffffffffffffffffffffffff\n      and\n      0xffffffffffffffffffffffffffffffffffffffff\n      and\n      dup2\n      mstore\n      0x20\n      add\n      swap1\n      dup2\n      mstore\n      0x20\n      add\n      0x00\n      keccak256\n        /* \"contracts/9_Curso_Moneda.sol\":1191:1223  cuentas[cuentaDestino].nroCuenta */\n      0x00\n      add\n      0x00\n      swap1\n      sload\n      swap1\n      0x0100\n      exp\n      swap1\n      div\n      0xffffffffffffffffffffffffffffffffffffffff\n      and\n        /* \"contracts/9_Curso_Moneda.sol\":1191:1244  cuentas[cuentaDestino].nroCuenta == cuentaInexistente */\n      0xffffffffffffffffffffffffffffffffffffffff\n      and\n      eq\n        /* \"contracts/9_Curso_Moneda.sol\":1188:1303  if(cuentas[cuentaDestino].nroCuenta == cuentaInexistente){\r... */\n      iszero\n      tag_25\n      jumpi\n        /* \"contracts/9_Curso_Moneda.sol\":1261:1291  revert (\"La cuenta no existe\") */\n      mload(0x40)\n      0x08c379a000000000000000000000000000000000000000000000000000000000\n      dup2\n      mstore\n      0x04\n      add\n      tag_26\n      swap1\n      tag_27\n      jump\t// in\n    tag_26:\n      mload(0x40)\n      dup1\n      swap2\n      sub\n      swap1\n      revert\n        /* \"contracts/9_Curso_Moneda.sol\":1188:1303  if(cuentas[cuentaDestino].nroCuenta == cuentaInexistente){\r... */\n    tag_25:\n        /* \"contracts/9_Curso_Moneda.sol\":1347:1352  monto */\n      dup2\n        /* \"contracts/9_Curso_Moneda.sol\":1315:1322  cuentas */\n      0x01\n        /* \"contracts/9_Curso_Moneda.sol\":1315:1337  cuentas[cuentaDestino] */\n      0x00\n        /* \"contracts/9_Curso_Moneda.sol\":1323:1336  cuentaDestino */\n      dup6\n        /* \"contracts/9_Curso_Moneda.sol\":1315:1337  cuentas[cuentaDestino] */\n      0xffffffffffffffffffffffffffffffffffffffff\n      and\n      0xffffffffffffffffffffffffffffffffffffffff\n      and\n      dup2\n      mstore\n      0x20\n      add\n      swap1\n      dup2\n      mstore\n      0x20\n      add\n      0x00\n      keccak256\n        /* \"contracts/9_Curso_Moneda.sol\":1315:1343  cuentas[cuentaDestino].saldo */\n      0x01\n      add\n      0x00\n        /* \"contracts/9_Curso_Moneda.sol\":1315:1352  cuentas[cuentaDestino].saldo += monto */\n      dup3\n      dup3\n      sload\n      tag_28\n      swap2\n      swap1\n      tag_29\n      jump\t// in\n    tag_28:\n      swap3\n      pop\n      pop\n      dup2\n      swap1\n      sstore\n      pop\n        /* \"contracts/9_Curso_Moneda.sol\":1394:1399  monto */\n      dup2\n        /* \"contracts/9_Curso_Moneda.sol\":1363:1370  cuentas */\n      0x01\n        /* \"contracts/9_Curso_Moneda.sol\":1363:1384  cuentas[cuentaOrigen] */\n      0x00\n        /* \"contracts/9_Curso_Moneda.sol\":1371:1383  cuentaOrigen */\n      dup7\n        /* \"contracts/9_Curso_Moneda.sol\":1363:1384  cuentas[cuentaOrigen] */\n      0xffffffffffffffffffffffffffffffffffffffff\n      and\n      0xffffffffffffffffffffffffffffffffffffffff\n      and\n      dup2\n      mstore\n      0x20\n      add\n      swap1\n      dup2\n      mstore\n      0x20\n      add\n      0x00\n      keccak256\n        /* \"contracts/9_Curso_Moneda.sol\":1363:1390  cuentas[cuentaOrigen].saldo */\n      0x01\n      add\n      0x00\n        /* \"contracts/9_Curso_Moneda.sol\":1363:1399  cuentas[cuentaOrigen].saldo -= monto */\n      dup3\n      dup3\n      sload\n      tag_30\n      swap2\n      swap1\n      tag_31\n      jump\t// in\n    tag_30:\n      swap3\n      pop\n      pop\n      dup2\n      swap1\n      sstore\n      pop\n        /* \"contracts/9_Curso_Moneda.sol\":1417:1472  EventoTransferencia(cuentaOrigen, cuentaDestino, monto) */\n      0xd21f641f674e39dafd327aee336648cec891f42f9938356c1554c1a980ec0874\n        /* \"contracts/9_Curso_Moneda.sol\":1437:1449  cuentaOrigen */\n      dup5\n        /* \"contracts/9_Curso_Moneda.sol\":1451:1464  cuentaDestino */\n      dup5\n        /* \"contracts/9_Curso_Moneda.sol\":1466:1471  monto */\n      dup5\n        /* \"contracts/9_Curso_Moneda.sol\":1417:1472  EventoTransferencia(cuentaOrigen, cuentaDestino, monto) */\n      mload(0x40)\n      tag_32\n      swap4\n      swap3\n      swap2\n      swap1\n      tag_33\n      jump\t// in\n    tag_32:\n      mload(0x40)\n      dup1\n      swap2\n      sub\n      swap1\n      log1\n        /* \"contracts/9_Curso_Moneda.sol\":1490:1494  true */\n      0x01\n        /* \"contracts/9_Curso_Moneda.sol\":1483:1494  return true */\n      swap1\n      pop\n        /* \"contracts/9_Curso_Moneda.sol\":942:1502  function transferir(address cuentaOrigen, address cuentaDestino, uint monto) external esTitular returns(bool) {\r... */\n      swap4\n      swap3\n      pop\n      pop\n      pop\n      jump\t// out\n        /* \"contracts/9_Curso_Moneda.sol\":1510:1603  function crearCuenta() external {\r... */\n    tag_13:\n        /* \"contracts/9_Curso_Moneda.sol\":1585:1595  msg.sender */\n      caller\n        /* \"contracts/9_Curso_Moneda.sol\":1553:1560  cuentas */\n      0x01\n        /* \"contracts/9_Curso_Moneda.sol\":1553:1572  cuentas[msg.sender] */\n      0x00\n        /* \"contracts/9_Curso_Moneda.sol\":1561:1571  msg.sender */\n      caller\n        /* \"contracts/9_Curso_Moneda.sol\":1553:1572  cuentas[msg.sender] */\n      0xffffffffffffffffffffffffffffffffffffffff\n      and\n      0xffffffffffffffffffffffffffffffffffffffff\n      and\n      dup2\n      mstore\n      0x20\n      add\n      swap1\n      dup2\n      mstore\n      0x20\n      add\n      0x00\n      keccak256\n        /* \"contracts/9_Curso_Moneda.sol\":1553:1582  cuentas[msg.sender].nroCuenta */\n      0x00\n      add\n      0x00\n        /* \"contracts/9_Curso_Moneda.sol\":1553:1595  cuentas[msg.sender].nroCuenta = msg.sender */\n      0x0100\n      exp\n      dup2\n      sload\n      dup2\n      0xffffffffffffffffffffffffffffffffffffffff\n      mul\n      not\n      and\n      swap1\n      dup4\n      0xffffffffffffffffffffffffffffffffffffffff\n      and\n      mul\n      or\n      swap1\n      sstore\n      pop\n        /* \"contracts/9_Curso_Moneda.sol\":1510:1603  function crearCuenta() external {\r... */\n      jump\t// out\n        /* \"contracts/9_Curso_Moneda.sol\":1611:1735  function consultaSaldo(address cuenta) external esTitular view returns(uint) {\r... */\n    tag_17:\n        /* \"contracts/9_Curso_Moneda.sol\":1682:1686  uint */\n      0x00\n        /* \"contracts/9_Curso_Moneda.sol\":1706:1713  cuentas */\n      0x01\n        /* \"contracts/9_Curso_Moneda.sol\":1706:1721  cuentas[cuenta] */\n      0x00\n        /* \"contracts/9_Curso_Moneda.sol\":1714:1720  cuenta */\n      dup4\n        /* \"contracts/9_Curso_Moneda.sol\":1706:1721  cuentas[cuenta] */\n      0xffffffffffffffffffffffffffffffffffffffff\n      and\n      0xffffffffffffffffffffffffffffffffffffffff\n      and\n      dup2\n      mstore\n      0x20\n      add\n      swap1\n      dup2\n      mstore\n      0x20\n      add\n      0x00\n      keccak256\n        /* \"contracts/9_Curso_Moneda.sol\":1706:1727  cuentas[cuenta].saldo */\n      0x01\n      add\n      sload\n        /* \"contracts/9_Curso_Moneda.sol\":1699:1727  return cuentas[cuenta].saldo */\n      swap1\n      pop\n        /* \"contracts/9_Curso_Moneda.sol\":1611:1735  function consultaSaldo(address cuenta) external esTitular view returns(uint) {\r... */\n      swap2\n      swap1\n      pop\n      jump\t// out\n        /* \"#utility.yul\":7:146   */\n    tag_38:\n        /* \"#utility.yul\":53:58   */\n      0x00\n        /* \"#utility.yul\":91:97   */\n      dup2\n        /* \"#utility.yul\":78:98   */\n      calldataload\n        /* \"#utility.yul\":69:98   */\n      swap1\n      pop\n        /* \"#utility.yul\":107:140   */\n      tag_40\n        /* \"#utility.yul\":134:139   */\n      dup2\n        /* \"#utility.yul\":107:140   */\n      tag_41\n      jump\t// in\n    tag_40:\n        /* \"#utility.yul\":7:146   */\n      swap3\n      swap2\n      pop\n      pop\n      jump\t// out\n        /* \"#utility.yul\":152:291   */\n    tag_42:\n        /* \"#utility.yul\":198:203   */\n      0x00\n        /* \"#utility.yul\":236:242   */\n      dup2\n        /* \"#utility.yul\":223:243   */\n      calldataload\n        /* \"#utility.yul\":214:243   */\n      swap1\n      pop\n        /* \"#utility.yul\":252:285   */\n      tag_44\n        /* \"#utility.yul\":279:284   */\n      dup2\n        /* \"#utility.yul\":252:285   */\n      tag_45\n      jump\t// in\n    tag_44:\n        /* \"#utility.yul\":152:291   */\n      swap3\n      swap2\n      pop\n      pop\n      jump\t// out\n        /* \"#utility.yul\":297:626   */\n    tag_16:\n        /* \"#utility.yul\":356:362   */\n      0x00\n        /* \"#utility.yul\":405:407   */\n      0x20\n        /* \"#utility.yul\":393:402   */\n      dup3\n        /* \"#utility.yul\":384:391   */\n      dup5\n        /* \"#utility.yul\":380:403   */\n      sub\n        /* \"#utility.yul\":376:408   */\n      slt\n        /* \"#utility.yul\":373:492   */\n      iszero\n      tag_47\n      jumpi\n        /* \"#utility.yul\":411:490   */\n      tag_48\n      tag_49\n      jump\t// in\n    tag_48:\n        /* \"#utility.yul\":373:492   */\n    tag_47:\n        /* \"#utility.yul\":531:532   */\n      0x00\n        /* \"#utility.yul\":556:609   */\n      tag_50\n        /* \"#utility.yul\":601:608   */\n      dup5\n        /* \"#utility.yul\":592:598   */\n      dup3\n        /* \"#utility.yul\":581:590   */\n      dup6\n        /* \"#utility.yul\":577:599   */\n      add\n        /* \"#utility.yul\":556:609   */\n      tag_38\n      jump\t// in\n    tag_50:\n        /* \"#utility.yul\":546:609   */\n      swap2\n      pop\n        /* \"#utility.yul\":502:619   */\n      pop\n        /* \"#utility.yul\":297:626   */\n      swap3\n      swap2\n      pop\n      pop\n      jump\t// out\n        /* \"#utility.yul\":632:1251   */\n    tag_8:\n        /* \"#utility.yul\":709:715   */\n      0x00\n        /* \"#utility.yul\":717:723   */\n      dup1\n        /* \"#utility.yul\":725:731   */\n      0x00\n        /* \"#utility.yul\":774:776   */\n      0x60\n        /* \"#utility.yul\":762:771   */\n      dup5\n        /* \"#utility.yul\":753:760   */\n      dup7\n        /* \"#utility.yul\":749:772   */\n      sub\n        /* \"#utility.yul\":745:777   */\n      slt\n        /* \"#utility.yul\":742:861   */\n      iszero\n      tag_52\n      jumpi\n        /* \"#utility.yul\":780:859   */\n      tag_53\n      tag_49\n      jump\t// in\n    tag_53:\n        /* \"#utility.yul\":742:861   */\n    tag_52:\n        /* \"#utility.yul\":900:901   */\n      0x00\n        /* \"#utility.yul\":925:978   */\n      tag_54\n        /* \"#utility.yul\":970:977   */\n      dup7\n        /* \"#utility.yul\":961:967   */\n      dup3\n        /* \"#utility.yul\":950:959   */\n      dup8\n        /* \"#utility.yul\":946:968   */\n      add\n        /* \"#utility.yul\":925:978   */\n      tag_38\n      jump\t// in\n    tag_54:\n        /* \"#utility.yul\":915:978   */\n      swap4\n      pop\n        /* \"#utility.yul\":871:988   */\n      pop\n        /* \"#utility.yul\":1027:1029   */\n      0x20\n        /* \"#utility.yul\":1053:1106   */\n      tag_55\n        /* \"#utility.yul\":1098:1105   */\n      dup7\n        /* \"#utility.yul\":1089:1095   */\n      dup3\n        /* \"#utility.yul\":1078:1087   */\n      dup8\n        /* \"#utility.yul\":1074:1096   */\n      add\n        /* \"#utility.yul\":1053:1106   */\n      tag_38\n      jump\t// in\n    tag_55:\n        /* \"#utility.yul\":1043:1106   */\n      swap3\n      pop\n        /* \"#utility.yul\":998:1116   */\n      pop\n        /* \"#utility.yul\":1155:1157   */\n      0x40\n        /* \"#utility.yul\":1181:1234   */\n      tag_56\n        /* \"#utility.yul\":1226:1233   */\n      dup7\n        /* \"#utility.yul\":1217:1223   */\n      dup3\n        /* \"#utility.yul\":1206:1215   */\n      dup8\n        /* \"#utility.yul\":1202:1224   */\n      add\n        /* \"#utility.yul\":1181:1234   */\n      tag_42\n      jump\t// in\n    tag_56:\n        /* \"#utility.yul\":1171:1234   */\n      swap2\n      pop\n        /* \"#utility.yul\":1126:1244   */\n      pop\n        /* \"#utility.yul\":632:1251   */\n      swap3\n      pop\n      swap3\n      pop\n      swap3\n      jump\t// out\n        /* \"#utility.yul\":1257:1375   */\n    tag_57:\n        /* \"#utility.yul\":1344:1368   */\n      tag_59\n        /* \"#utility.yul\":1362:1367   */\n      dup2\n        /* \"#utility.yul\":1344:1368   */\n      tag_60\n      jump\t// in\n    tag_59:\n        /* \"#utility.yul\":1339:1342   */\n      dup3\n        /* \"#utility.yul\":1332:1369   */\n      mstore\n        /* \"#utility.yul\":1257:1375   */\n      pop\n      pop\n      jump\t// out\n        /* \"#utility.yul\":1381:1490   */\n    tag_61:\n        /* \"#utility.yul\":1462:1483   */\n      tag_63\n        /* \"#utility.yul\":1477:1482   */\n      dup2\n        /* \"#utility.yul\":1462:1483   */\n      tag_64\n      jump\t// in\n    tag_63:\n        /* \"#utility.yul\":1457:1460   */\n      dup3\n        /* \"#utility.yul\":1450:1484   */\n      mstore\n        /* \"#utility.yul\":1381:1490   */\n      pop\n      pop\n      jump\t// out\n        /* \"#utility.yul\":1496:1862   */\n    tag_65:\n        /* \"#utility.yul\":1638:1641   */\n      0x00\n        /* \"#utility.yul\":1659:1726   */\n      tag_67\n        /* \"#utility.yul\":1723:1725   */\n      0x13\n        /* \"#utility.yul\":1718:1721   */\n      dup4\n        /* \"#utility.yul\":1659:1726   */\n      tag_68\n      jump\t// in\n    tag_67:\n        /* \"#utility.yul\":1652:1726   */\n      swap2\n      pop\n        /* \"#utility.yul\":1735:1828   */\n      tag_69\n        /* \"#utility.yul\":1824:1827   */\n      dup3\n        /* \"#utility.yul\":1735:1828   */\n      tag_70\n      jump\t// in\n    tag_69:\n        /* \"#utility.yul\":1853:1855   */\n      0x20\n        /* \"#utility.yul\":1848:1851   */\n      dup3\n        /* \"#utility.yul\":1844:1856   */\n      add\n        /* \"#utility.yul\":1837:1856   */\n      swap1\n      pop\n        /* \"#utility.yul\":1496:1862   */\n      swap2\n      swap1\n      pop\n      jump\t// out\n        /* \"#utility.yul\":1868:2234   */\n    tag_71:\n        /* \"#utility.yul\":2010:2013   */\n      0x00\n        /* \"#utility.yul\":2031:2098   */\n      tag_73\n        /* \"#utility.yul\":2095:2097   */\n      0x12\n        /* \"#utility.yul\":2090:2093   */\n      dup4\n        /* \"#utility.yul\":2031:2098   */\n      tag_68\n      jump\t// in\n    tag_73:\n        /* \"#utility.yul\":2024:2098   */\n      swap2\n      pop\n        /* \"#utility.yul\":2107:2200   */\n      tag_74\n        /* \"#utility.yul\":2196:2199   */\n      dup3\n        /* \"#utility.yul\":2107:2200   */\n      tag_75\n      jump\t// in\n    tag_74:\n        /* \"#utility.yul\":2225:2227   */\n      0x20\n        /* \"#utility.yul\":2220:2223   */\n      dup3\n        /* \"#utility.yul\":2216:2228   */\n      add\n        /* \"#utility.yul\":2209:2228   */\n      swap1\n      pop\n        /* \"#utility.yul\":1868:2234   */\n      swap2\n      swap1\n      pop\n      jump\t// out\n        /* \"#utility.yul\":2240:2358   */\n    tag_76:\n        /* \"#utility.yul\":2327:2351   */\n      tag_78\n        /* \"#utility.yul\":2345:2350   */\n      dup2\n        /* \"#utility.yul\":2327:2351   */\n      tag_79\n      jump\t// in\n    tag_78:\n        /* \"#utility.yul\":2322:2325   */\n      dup3\n        /* \"#utility.yul\":2315:2352   */\n      mstore\n        /* \"#utility.yul\":2240:2358   */\n      pop\n      pop\n      jump\t// out\n        /* \"#utility.yul\":2364:2806   */\n    tag_33:\n        /* \"#utility.yul\":2513:2517   */\n      0x00\n        /* \"#utility.yul\":2551:2553   */\n      0x60\n        /* \"#utility.yul\":2540:2549   */\n      dup3\n        /* \"#utility.yul\":2536:2554   */\n      add\n        /* \"#utility.yul\":2528:2554   */\n      swap1\n      pop\n        /* \"#utility.yul\":2564:2635   */\n      tag_81\n        /* \"#utility.yul\":2632:2633   */\n      0x00\n        /* \"#utility.yul\":2621:2630   */\n      dup4\n        /* \"#utility.yul\":2617:2634   */\n      add\n        /* \"#utility.yul\":2608:2614   */\n      dup7\n        /* \"#utility.yul\":2564:2635   */\n      tag_57\n      jump\t// in\n    tag_81:\n        /* \"#utility.yul\":2645:2717   */\n      tag_82\n        /* \"#utility.yul\":2713:2715   */\n      0x20\n        /* \"#utility.yul\":2702:2711   */\n      dup4\n        /* \"#utility.yul\":2698:2716   */\n      add\n        /* \"#utility.yul\":2689:2695   */\n      dup6\n        /* \"#utility.yul\":2645:2717   */\n      tag_57\n      jump\t// in\n    tag_82:\n        /* \"#utility.yul\":2727:2799   */\n      tag_83\n        /* \"#utility.yul\":2795:2797   */\n      0x40\n        /* \"#utility.yul\":2784:2793   */\n      dup4\n        /* \"#utility.yul\":2780:2798   */\n      add\n        /* \"#utility.yul\":2771:2777   */\n      dup5\n        /* \"#utility.yul\":2727:2799   */\n      tag_76\n      jump\t// in\n    tag_83:\n        /* \"#utility.yul\":2364:2806   */\n      swap5\n      swap4\n      pop\n      pop\n      pop\n      pop\n      jump\t// out\n        /* \"#utility.yul\":2812:3022   */\n    tag_11:\n        /* \"#utility.yul\":2899:2903   */\n      0x00\n        /* \"#utility.yul\":2937:2939   */\n      0x20\n        /* \"#utility.yul\":2926:2935   */\n      dup3\n        /* \"#utility.yul\":2922:2940   */\n      add\n        /* \"#utility.yul\":2914:2940   */\n      swap1\n      pop\n        /* \"#utility.yul\":2950:3015   */\n      tag_85\n        /* \"#utility.yul\":3012:3013   */\n      0x00\n        /* \"#utility.yul\":3001:3010   */\n      dup4\n        /* \"#utility.yul\":2997:3014   */\n      add\n        /* \"#utility.yul\":2988:2994   */\n      dup5\n        /* \"#utility.yul\":2950:3015   */\n      tag_61\n      jump\t// in\n    tag_85:\n        /* \"#utility.yul\":2812:3022   */\n      swap3\n      swap2\n      pop\n      pop\n      jump\t// out\n        /* \"#utility.yul\":3028:3447   */\n    tag_27:\n        /* \"#utility.yul\":3194:3198   */\n      0x00\n        /* \"#utility.yul\":3232:3234   */\n      0x20\n        /* \"#utility.yul\":3221:3230   */\n      dup3\n        /* \"#utility.yul\":3217:3235   */\n      add\n        /* \"#utility.yul\":3209:3235   */\n      swap1\n      pop\n        /* \"#utility.yul\":3281:3290   */\n      dup2\n        /* \"#utility.yul\":3275:3279   */\n      dup2\n        /* \"#utility.yul\":3271:3291   */\n      sub\n        /* \"#utility.yul\":3267:3268   */\n      0x00\n        /* \"#utility.yul\":3256:3265   */\n      dup4\n        /* \"#utility.yul\":3252:3269   */\n      add\n        /* \"#utility.yul\":3245:3292   */\n      mstore\n        /* \"#utility.yul\":3309:3440   */\n      tag_87\n        /* \"#utility.yul\":3435:3439   */\n      dup2\n        /* \"#utility.yul\":3309:3440   */\n      tag_65\n      jump\t// in\n    tag_87:\n        /* \"#utility.yul\":3301:3440   */\n      swap1\n      pop\n        /* \"#utility.yul\":3028:3447   */\n      swap2\n      swap1\n      pop\n      jump\t// out\n        /* \"#utility.yul\":3453:3872   */\n    tag_24:\n        /* \"#utility.yul\":3619:3623   */\n      0x00\n        /* \"#utility.yul\":3657:3659   */\n      0x20\n        /* \"#utility.yul\":3646:3655   */\n      dup3\n        /* \"#utility.yul\":3642:3660   */\n      add\n        /* \"#utility.yul\":3634:3660   */\n      swap1\n      pop\n        /* \"#utility.yul\":3706:3715   */\n      dup2\n        /* \"#utility.yul\":3700:3704   */\n      dup2\n        /* \"#utility.yul\":3696:3716   */\n      sub\n        /* \"#utility.yul\":3692:3693   */\n      0x00\n        /* \"#utility.yul\":3681:3690   */\n      dup4\n        /* \"#utility.yul\":3677:3694   */\n      add\n        /* \"#utility.yul\":3670:3717   */\n      mstore\n        /* \"#utility.yul\":3734:3865   */\n      tag_89\n        /* \"#utility.yul\":3860:3864   */\n      dup2\n        /* \"#utility.yul\":3734:3865   */\n      tag_71\n      jump\t// in\n    tag_89:\n        /* \"#utility.yul\":3726:3865   */\n      swap1\n      pop\n        /* \"#utility.yul\":3453:3872   */\n      swap2\n      swap1\n      pop\n      jump\t// out\n        /* \"#utility.yul\":3878:4100   */\n    tag_19:\n        /* \"#utility.yul\":3971:3975   */\n      0x00\n        /* \"#utility.yul\":4009:4011   */\n      0x20\n        /* \"#utility.yul\":3998:4007   */\n      dup3\n        /* \"#utility.yul\":3994:4012   */\n      add\n        /* \"#utility.yul\":3986:4012   */\n      swap1\n      pop\n        /* \"#utility.yul\":4022:4093   */\n      tag_91\n        /* \"#utility.yul\":4090:4091   */\n      0x00\n        /* \"#utility.yul\":4079:4088   */\n      dup4\n        /* \"#utility.yul\":4075:4092   */\n      add\n        /* \"#utility.yul\":4066:4072   */\n      dup5\n        /* \"#utility.yul\":4022:4093   */\n      tag_76\n      jump\t// in\n    tag_91:\n        /* \"#utility.yul\":3878:4100   */\n      swap3\n      swap2\n      pop\n      pop\n      jump\t// out\n        /* \"#utility.yul\":4187:4356   */\n    tag_68:\n        /* \"#utility.yul\":4271:4282   */\n      0x00\n        /* \"#utility.yul\":4305:4311   */\n      dup3\n        /* \"#utility.yul\":4300:4303   */\n      dup3\n        /* \"#utility.yul\":4293:4312   */\n      mstore\n        /* \"#utility.yul\":4345:4349   */\n      0x20\n        /* \"#utility.yul\":4340:4343   */\n      dup3\n        /* \"#utility.yul\":4336:4350   */\n      add\n        /* \"#utility.yul\":4321:4350   */\n      swap1\n      pop\n        /* \"#utility.yul\":4187:4356   */\n      swap3\n      swap2\n      pop\n      pop\n      jump\t// out\n        /* \"#utility.yul\":4362:4667   */\n    tag_29:\n        /* \"#utility.yul\":4402:4405   */\n      0x00\n        /* \"#utility.yul\":4421:4441   */\n      tag_96\n        /* \"#utility.yul\":4439:4440   */\n      dup3\n        /* \"#utility.yul\":4421:4441   */\n      tag_79\n      jump\t// in\n    tag_96:\n        /* \"#utility.yul\":4416:4441   */\n      swap2\n      pop\n        /* \"#utility.yul\":4455:4475   */\n      tag_97\n        /* \"#utility.yul\":4473:4474   */\n      dup4\n        /* \"#utility.yul\":4455:4475   */\n      tag_79\n      jump\t// in\n    tag_97:\n        /* \"#utility.yul\":4450:4475   */\n      swap3\n      pop\n        /* \"#utility.yul\":4609:4610   */\n      dup3\n        /* \"#utility.yul\":4541:4607   */\n      0xffffffffffffffffffffffffffffffffffffffffffffffffffffffffffffffff\n        /* \"#utility.yul\":4537:4611   */\n      sub\n        /* \"#utility.yul\":4534:4535   */\n      dup3\n        /* \"#utility.yul\":4531:4612   */\n      gt\n        /* \"#utility.yul\":4528:4635   */\n      iszero\n      tag_98\n      jumpi\n        /* \"#utility.yul\":4615:4633   */\n      tag_99\n      tag_100\n      jump\t// in\n    tag_99:\n        /* \"#utility.yul\":4528:4635   */\n    tag_98:\n        /* \"#utility.yul\":4659:4660   */\n      dup3\n        /* \"#utility.yul\":4656:4657   */\n      dup3\n        /* \"#utility.yul\":4652:4661   */\n      add\n        /* \"#utility.yul\":4645:4661   */\n      swap1\n      pop\n        /* \"#utility.yul\":4362:4667   */\n      swap3\n      swap2\n      pop\n      pop\n      jump\t// out\n        /* \"#utility.yul\":4673:4864   */\n    tag_31:\n        /* \"#utility.yul\":4713:4717   */\n      0x00\n        /* \"#utility.yul\":4733:4753   */\n      tag_102\n        /* \"#utility.yul\":4751:4752   */\n      dup3\n        /* \"#utility.yul\":4733:4753   */\n      tag_79\n      jump\t// in\n    tag_102:\n        /* \"#utility.yul\":4728:4753   */\n      swap2\n      pop\n        /* \"#utility.yul\":4767:4787   */\n      tag_103\n        /* \"#utility.yul\":4785:4786   */\n      dup4\n        /* \"#utility.yul\":4767:4787   */\n      tag_79\n      jump\t// in\n    tag_103:\n        /* \"#utility.yul\":4762:4787   */\n      swap3\n      pop\n        /* \"#utility.yul\":4806:4807   */\n      dup3\n        /* \"#utility.yul\":4803:4804   */\n      dup3\n        /* \"#utility.yul\":4800:4808   */\n      lt\n        /* \"#utility.yul\":4797:4831   */\n      iszero\n      tag_104\n      jumpi\n        /* \"#utility.yul\":4811:4829   */\n      tag_105\n      tag_100\n      jump\t// in\n    tag_105:\n        /* \"#utility.yul\":4797:4831   */\n    tag_104:\n        /* \"#utility.yul\":4856:4857   */\n      dup3\n        /* \"#utility.yul\":4853:4854   */\n      dup3\n        /* \"#utility.yul\":4849:4858   */\n      sub\n        /* \"#utility.yul\":4841:4858   */\n      swap1\n      pop\n        /* \"#utility.yul\":4673:4864   */\n      swap3\n      swap2\n      pop\n      pop\n      jump\t// out\n        /* \"#utility.yul\":4870:4966   */\n    tag_60:\n        /* \"#utility.yul\":4907:4914   */\n      0x00\n        /* \"#utility.yul\":4936:4960   */\n      tag_107\n        /* \"#utility.yul\":4954:4959   */\n      dup3\n        /* \"#utility.yul\":4936:4960   */\n      tag_108\n      jump\t// in\n    tag_107:\n        /* \"#utility.yul\":4925:4960   */\n      swap1\n      pop\n        /* \"#utility.yul\":4870:4966   */\n      swap2\n      swap1\n      pop\n      jump\t// out\n        /* \"#utility.yul\":4972:5062   */\n    tag_64:\n        /* \"#utility.yul\":5006:5013   */\n      0x00\n        /* \"#utility.yul\":5049:5054   */\n      dup2\n        /* \"#utility.yul\":5042:5055   */\n      iszero\n        /* \"#utility.yul\":5035:5056   */\n      iszero\n        /* \"#utility.yul\":5024:5056   */\n      swap1\n      pop\n        /* \"#utility.yul\":4972:5062   */\n      swap2\n      swap1\n      pop\n      jump\t// out\n        /* \"#utility.yul\":5068:5194   */\n    tag_108:\n        /* \"#utility.yul\":5105:5112   */\n      0x00\n        /* \"#utility.yul\":5145:5187   */\n      0xffffffffffffffffffffffffffffffffffffffff\n        /* \"#utility.yul\":5138:5143   */\n      dup3\n        /* \"#utility.yul\":5134:5188   */\n      and\n        /* \"#utility.yul\":5123:5188   */\n      swap1\n      pop\n        /* \"#utility.yul\":5068:5194   */\n      swap2\n      swap1\n      pop\n      jump\t// out\n        /* \"#utility.yul\":5200:5277   */\n    tag_79:\n        /* \"#utility.yul\":5237:5244   */\n      0x00\n        /* \"#utility.yul\":5266:5271   */\n      dup2\n        /* \"#utility.yul\":5255:5271   */\n      swap1\n      pop\n        /* \"#utility.yul\":5200:5277   */\n      swap2\n      swap1\n      pop\n      jump\t// out\n        /* \"#utility.yul\":5283:5463   */\n    tag_100:\n        /* \"#utility.yul\":5331:5408   */\n      0x4e487b7100000000000000000000000000000000000000000000000000000000\n        /* \"#utility.yul\":5328:5329   */\n      0x00\n        /* \"#utility.yul\":5321:5409   */\n      mstore\n        /* \"#utility.yul\":5428:5432   */\n      0x11\n        /* \"#utility.yul\":5425:5426   */\n      0x04\n        /* \"#utility.yul\":5418:5433   */\n      mstore\n        /* \"#utility.yul\":5452:5456   */\n      0x24\n        /* \"#utility.yul\":5449:5450   */\n      0x00\n        /* \"#utility.yul\":5442:5457   */\n      revert\n        /* \"#utility.yul\":5592:5709   */\n    tag_49:\n        /* \"#utility.yul\":5701:5702   */\n      0x00\n        /* \"#utility.yul\":5698:5699   */\n      dup1\n        /* \"#utility.yul\":5691:5703   */\n      revert\n        /* \"#utility.yul\":5715:5884   */\n    tag_70:\n        /* \"#utility.yul\":5855:5876   */\n      0x4c61206375656e7461206e6f2065786973746500000000000000000000000000\n        /* \"#utility.yul\":5851:5852   */\n      0x00\n        /* \"#utility.yul\":5843:5849   */\n      dup3\n        /* \"#utility.yul\":5839:5853   */\n      add\n        /* \"#utility.yul\":5832:5877   */\n      mstore\n        /* \"#utility.yul\":5715:5884   */\n      pop\n      jump\t// out\n        /* \"#utility.yul\":5890:6058   */\n    tag_75:\n        /* \"#utility.yul\":6030:6050   */\n      0x53616c646f20696e737566696369656e74650000000000000000000000000000\n        /* \"#utility.yul\":6026:6027   */\n      0x00\n        /* \"#utility.yul\":6018:6024   */\n      dup3\n        /* \"#utility.yul\":6014:6028   */\n      add\n        /* \"#utility.yul\":6007:6051   */\n      mstore\n        /* \"#utility.yul\":5890:6058   */\n      pop\n      jump\t// out\n        /* \"#utility.yul\":6064:6186   */\n    tag_41:\n        /* \"#utility.yul\":6137:6161   */\n      tag_119\n        /* \"#utility.yul\":6155:6160   */\n      dup2\n        /* \"#utility.yul\":6137:6161   */\n      tag_60\n      jump\t// in\n    tag_119:\n        /* \"#utility.yul\":6130:6135   */\n      dup2\n        /* \"#utility.yul\":6127:6162   */\n      eq\n        /* \"#utility.yul\":6117:6180   */\n      tag_120\n      jumpi\n        /* \"#utility.yul\":6176:6177   */\n      0x00\n        /* \"#utility.yul\":6173:6174   */\n      dup1\n        /* \"#utility.yul\":6166:6178   */\n      revert\n        /* \"#utility.yul\":6117:6180   */\n    tag_120:\n        /* \"#utility.yul\":6064:6186   */\n      pop\n      jump\t// out\n        /* \"#utility.yul\":6192:6314   */\n    tag_45:\n        /* \"#utility.yul\":6265:6289   */\n      tag_122\n        /* \"#utility.yul\":6283:6288   */\n      dup2\n        /* \"#utility.yul\":6265:6289   */\n      tag_79\n      jump\t// in\n    tag_122:\n        /* \"#utility.yul\":6258:6263   */\n      dup2\n        /* \"#utility.yul\":6255:6290   */\n      eq\n        /* \"#utility.yul\":6245:6308   */\n      tag_123\n      jumpi\n        /* \"#utility.yul\":6304:6305   */\n      0x00\n        /* \"#utility.yul\":6301:6302   */\n      dup1\n        /* \"#utility.yul\":6294:6306   */\n      revert\n        /* \"#utility.yul\":6245:6308   */\n    tag_123:\n        /* \"#utility.yul\":6192:6314   */\n      pop\n      jump\t// out\n\n    auxdata: 0xa264697066735822122067a38392f7f77f26130812eb32e1c8cd8a37e4e5a50942fdcd2dab398c445df764736f6c63430008070033\n}\n",
				"bytecode": {
					"linkReferences": {},
					"object": "608060405260008060006101000a81548173ffffffffffffffffffffffffffffffffffffffff021916908373ffffffffffffffffffffffffffffffffffffffff16021790555034801561005157600080fd5b506040516109d53803806109d583398181016040528101906100739190610168565b33600160003373ffffffffffffffffffffffffffffffffffffffff1673ffffffffffffffffffffffffffffffffffffffff16815260200190815260200160002060000160006101000a81548173ffffffffffffffffffffffffffffffffffffffff021916908373ffffffffffffffffffffffffffffffffffffffff16021790555080600160003373ffffffffffffffffffffffffffffffffffffffff1673ffffffffffffffffffffffffffffffffffffffff16815260200190815260200160002060010160008282546101469190610195565b9250508190555050610240565b60008151905061016281610229565b92915050565b60006020828403121561017e5761017d610224565b5b600061018c84828501610153565b91505092915050565b60006101a0826101eb565b91506101ab836101eb565b9250827fffffffffffffffffffffffffffffffffffffffffffffffffffffffffffffffff038211156101e0576101df6101f5565b5b828201905092915050565b6000819050919050565b7f4e487b7100000000000000000000000000000000000000000000000000000000600052601160045260246000fd5b600080fd5b610232816101eb565b811461023d57600080fd5b50565b6107868061024f6000396000f3fe608060405234801561001057600080fd5b50600436106100415760003560e01c8063077d492e146100465780633760eec7146100765780634f48bf4414610080575b600080fd5b610060600480360381019061005b9190610446565b6100b0565b60405161006d9190610543565b60405180910390f35b61007e610320565b005b61009a60048036038101906100959190610419565b6103a3565b6040516100a7919061059e565b60405180910390f35b600081600160008673ffffffffffffffffffffffffffffffffffffffff1673ffffffffffffffffffffffffffffffffffffffff168152602001908152602001600020600101541015610137576040517f08c379a000000000000000000000000000000000000000000000000000000000815260040161012e9061057e565b60405180910390fd5b60008054906101000a900473ffffffffffffffffffffffffffffffffffffffff1673ffffffffffffffffffffffffffffffffffffffff16600160008573ffffffffffffffffffffffffffffffffffffffff1673ffffffffffffffffffffffffffffffffffffffff16815260200190815260200160002060000160009054906101000a900473ffffffffffffffffffffffffffffffffffffffff1673ffffffffffffffffffffffffffffffffffffffff161415610228576040517f08c379a000000000000000000000000000000000000000000000000000000000815260040161021f9061055e565b60405180910390fd5b81600160008573ffffffffffffffffffffffffffffffffffffffff1673ffffffffffffffffffffffffffffffffffffffff168152602001908152602001600020600101600082825461027a91906105ca565b9250508190555081600160008673ffffffffffffffffffffffffffffffffffffffff1673ffffffffffffffffffffffffffffffffffffffff16815260200190815260200160002060010160008282546102d39190610620565b925050819055507fd21f641f674e39dafd327aee336648cec891f42f9938356c1554c1a980ec087484848460405161030d9392919061050c565b60405180910390a1600190509392505050565b33600160003373ffffffffffffffffffffffffffffffffffffffff1673ffffffffffffffffffffffffffffffffffffffff16815260200190815260200160002060000160006101000a81548173ffffffffffffffffffffffffffffffffffffffff021916908373ffffffffffffffffffffffffffffffffffffffff160217905550565b6000600160008373ffffffffffffffffffffffffffffffffffffffff1673ffffffffffffffffffffffffffffffffffffffff168152602001908152602001600020600101549050919050565b6000813590506103fe81610722565b92915050565b60008135905061041381610739565b92915050565b60006020828403121561042f5761042e6106cb565b5b600061043d848285016103ef565b91505092915050565b60008060006060848603121561045f5761045e6106cb565b5b600061046d868287016103ef565b935050602061047e868287016103ef565b925050604061048f86828701610404565b9150509250925092565b6104a281610654565b82525050565b6104b181610666565b82525050565b60006104c46013836105b9565b91506104cf826106d0565b602082019050919050565b60006104e76012836105b9565b91506104f2826106f9565b602082019050919050565b61050681610692565b82525050565b60006060820190506105216000830186610499565b61052e6020830185610499565b61053b60408301846104fd565b949350505050565b600060208201905061055860008301846104a8565b92915050565b60006020820190508181036000830152610577816104b7565b9050919050565b60006020820190508181036000830152610597816104da565b9050919050565b60006020820190506105b360008301846104fd565b92915050565b600082825260208201905092915050565b60006105d582610692565b91506105e083610692565b9250827fffffffffffffffffffffffffffffffffffffffffffffffffffffffffffffffff038211156106155761061461069c565b5b828201905092915050565b600061062b82610692565b915061063683610692565b9250828210156106495761064861069c565b5b828203905092915050565b600061065f82610672565b9050919050565b60008115159050919050565b600073ffffffffffffffffffffffffffffffffffffffff82169050919050565b6000819050919050565b7f4e487b7100000000000000000000000000000000000000000000000000000000600052601160045260246000fd5b600080fd5b7f4c61206375656e7461206e6f2065786973746500000000000000000000000000600082015250565b7f53616c646f20696e737566696369656e74650000000000000000000000000000600082015250565b61072b81610654565b811461073657600080fd5b50565b61074281610692565b811461074d57600080fd5b5056fea264697066735822122067a38392f7f77f26130812eb32e1c8cd8a37e4e5a50942fdcd2dab398c445df764736f6c63430008070033",
					"opcodes": "PUSH1 0x80 PUSH1 0x40 MSTORE PUSH1 0x0 DUP1 PUSH1 0x0 PUSH2 0x100 EXP DUP2 SLOAD DUP2 PUSH20 0xFFFFFFFFFFFFFFFFFFFFFFFFFFFFFFFFFFFFFFFF MUL NOT AND SWAP1 DUP4 PUSH20 0xFFFFFFFFFFFFFFFFFFFFFFFFFFFFFFFFFFFFFFFF AND MUL OR SWAP1 SSTORE POP CALLVALUE DUP1 ISZERO PUSH2 0x51 JUMPI PUSH1 0x0 DUP1 REVERT JUMPDEST POP PUSH1 0x40 MLOAD PUSH2 0x9D5 CODESIZE SUB DUP1 PUSH2 0x9D5 DUP4 CODECOPY DUP2 DUP2 ADD PUSH1 0x40 MSTORE DUP2 ADD SWAP1 PUSH2 0x73 SWAP2 SWAP1 PUSH2 0x168 JUMP JUMPDEST CALLER PUSH1 0x1 PUSH1 0x0 CALLER PUSH20 0xFFFFFFFFFFFFFFFFFFFFFFFFFFFFFFFFFFFFFFFF AND PUSH20 0xFFFFFFFFFFFFFFFFFFFFFFFFFFFFFFFFFFFFFFFF AND DUP2 MSTORE PUSH1 0x20 ADD SWAP1 DUP2 MSTORE PUSH1 0x20 ADD PUSH1 0x0 KECCAK256 PUSH1 0x0 ADD PUSH1 0x0 PUSH2 0x100 EXP DUP2 SLOAD DUP2 PUSH20 0xFFFFFFFFFFFFFFFFFFFFFFFFFFFFFFFFFFFFFFFF MUL NOT AND SWAP1 DUP4 PUSH20 0xFFFFFFFFFFFFFFFFFFFFFFFFFFFFFFFFFFFFFFFF AND MUL OR SWAP1 SSTORE POP DUP1 PUSH1 0x1 PUSH1 0x0 CALLER PUSH20 0xFFFFFFFFFFFFFFFFFFFFFFFFFFFFFFFFFFFFFFFF AND PUSH20 0xFFFFFFFFFFFFFFFFFFFFFFFFFFFFFFFFFFFFFFFF AND DUP2 MSTORE PUSH1 0x20 ADD SWAP1 DUP2 MSTORE PUSH1 0x20 ADD PUSH1 0x0 KECCAK256 PUSH1 0x1 ADD PUSH1 0x0 DUP3 DUP3 SLOAD PUSH2 0x146 SWAP2 SWAP1 PUSH2 0x195 JUMP JUMPDEST SWAP3 POP POP DUP2 SWAP1 SSTORE POP POP PUSH2 0x240 JUMP JUMPDEST PUSH1 0x0 DUP2 MLOAD SWAP1 POP PUSH2 0x162 DUP2 PUSH2 0x229 JUMP JUMPDEST SWAP3 SWAP2 POP POP JUMP JUMPDEST PUSH1 0x0 PUSH1 0x20 DUP3 DUP5 SUB SLT ISZERO PUSH2 0x17E JUMPI PUSH2 0x17D PUSH2 0x224 JUMP JUMPDEST JUMPDEST PUSH1 0x0 PUSH2 0x18C DUP5 DUP3 DUP6 ADD PUSH2 0x153 JUMP JUMPDEST SWAP2 POP POP SWAP3 SWAP2 POP POP JUMP JUMPDEST PUSH1 0x0 PUSH2 0x1A0 DUP3 PUSH2 0x1EB JUMP JUMPDEST SWAP2 POP PUSH2 0x1AB DUP4 PUSH2 0x1EB JUMP JUMPDEST SWAP3 POP DUP3 PUSH32 0xFFFFFFFFFFFFFFFFFFFFFFFFFFFFFFFFFFFFFFFFFFFFFFFFFFFFFFFFFFFFFFFF SUB DUP3 GT ISZERO PUSH2 0x1E0 JUMPI PUSH2 0x1DF PUSH2 0x1F5 JUMP JUMPDEST JUMPDEST DUP3 DUP3 ADD SWAP1 POP SWAP3 SWAP2 POP POP JUMP JUMPDEST PUSH1 0x0 DUP2 SWAP1 POP SWAP2 SWAP1 POP JUMP JUMPDEST PUSH32 0x4E487B7100000000000000000000000000000000000000000000000000000000 PUSH1 0x0 MSTORE PUSH1 0x11 PUSH1 0x4 MSTORE PUSH1 0x24 PUSH1 0x0 REVERT JUMPDEST PUSH1 0x0 DUP1 REVERT JUMPDEST PUSH2 0x232 DUP2 PUSH2 0x1EB JUMP JUMPDEST DUP2 EQ PUSH2 0x23D JUMPI PUSH1 0x0 DUP1 REVERT JUMPDEST POP JUMP JUMPDEST PUSH2 0x786 DUP1 PUSH2 0x24F PUSH1 0x0 CODECOPY PUSH1 0x0 RETURN INVALID PUSH1 0x80 PUSH1 0x40 MSTORE CALLVALUE DUP1 ISZERO PUSH2 0x10 JUMPI PUSH1 0x0 DUP1 REVERT JUMPDEST POP PUSH1 0x4 CALLDATASIZE LT PUSH2 0x41 JUMPI PUSH1 0x0 CALLDATALOAD PUSH1 0xE0 SHR DUP1 PUSH4 0x77D492E EQ PUSH2 0x46 JUMPI DUP1 PUSH4 0x3760EEC7 EQ PUSH2 0x76 JUMPI DUP1 PUSH4 0x4F48BF44 EQ PUSH2 0x80 JUMPI JUMPDEST PUSH1 0x0 DUP1 REVERT JUMPDEST PUSH2 0x60 PUSH1 0x4 DUP1 CALLDATASIZE SUB DUP2 ADD SWAP1 PUSH2 0x5B SWAP2 SWAP1 PUSH2 0x446 JUMP JUMPDEST PUSH2 0xB0 JUMP JUMPDEST PUSH1 0x40 MLOAD PUSH2 0x6D SWAP2 SWAP1 PUSH2 0x543 JUMP JUMPDEST PUSH1 0x40 MLOAD DUP1 SWAP2 SUB SWAP1 RETURN JUMPDEST PUSH2 0x7E PUSH2 0x320 JUMP JUMPDEST STOP JUMPDEST PUSH2 0x9A PUSH1 0x4 DUP1 CALLDATASIZE SUB DUP2 ADD SWAP1 PUSH2 0x95 SWAP2 SWAP1 PUSH2 0x419 JUMP JUMPDEST PUSH2 0x3A3 JUMP JUMPDEST PUSH1 0x40 MLOAD PUSH2 0xA7 SWAP2 SWAP1 PUSH2 0x59E JUMP JUMPDEST PUSH1 0x40 MLOAD DUP1 SWAP2 SUB SWAP1 RETURN JUMPDEST PUSH1 0x0 DUP2 PUSH1 0x1 PUSH1 0x0 DUP7 PUSH20 0xFFFFFFFFFFFFFFFFFFFFFFFFFFFFFFFFFFFFFFFF AND PUSH20 0xFFFFFFFFFFFFFFFFFFFFFFFFFFFFFFFFFFFFFFFF AND DUP2 MSTORE PUSH1 0x20 ADD SWAP1 DUP2 MSTORE PUSH1 0x20 ADD PUSH1 0x0 KECCAK256 PUSH1 0x1 ADD SLOAD LT ISZERO PUSH2 0x137 JUMPI PUSH1 0x40 MLOAD PUSH32 0x8C379A000000000000000000000000000000000000000000000000000000000 DUP2 MSTORE PUSH1 0x4 ADD PUSH2 0x12E SWAP1 PUSH2 0x57E JUMP JUMPDEST PUSH1 0x40 MLOAD DUP1 SWAP2 SUB SWAP1 REVERT JUMPDEST PUSH1 0x0 DUP1 SLOAD SWAP1 PUSH2 0x100 EXP SWAP1 DIV PUSH20 0xFFFFFFFFFFFFFFFFFFFFFFFFFFFFFFFFFFFFFFFF AND PUSH20 0xFFFFFFFFFFFFFFFFFFFFFFFFFFFFFFFFFFFFFFFF AND PUSH1 0x1 PUSH1 0x0 DUP6 PUSH20 0xFFFFFFFFFFFFFFFFFFFFFFFFFFFFFFFFFFFFFFFF AND PUSH20 0xFFFFFFFFFFFFFFFFFFFFFFFFFFFFFFFFFFFFFFFF AND DUP2 MSTORE PUSH1 0x20 ADD SWAP1 DUP2 MSTORE PUSH1 0x20 ADD PUSH1 0x0 KECCAK256 PUSH1 0x0 ADD PUSH1 0x0 SWAP1 SLOAD SWAP1 PUSH2 0x100 EXP SWAP1 DIV PUSH20 0xFFFFFFFFFFFFFFFFFFFFFFFFFFFFFFFFFFFFFFFF AND PUSH20 0xFFFFFFFFFFFFFFFFFFFFFFFFFFFFFFFFFFFFFFFF AND EQ ISZERO PUSH2 0x228 JUMPI PUSH1 0x40 MLOAD PUSH32 0x8C379A000000000000000000000000000000000000000000000000000000000 DUP2 MSTORE PUSH1 0x4 ADD PUSH2 0x21F SWAP1 PUSH2 0x55E JUMP JUMPDEST PUSH1 0x40 MLOAD DUP1 SWAP2 SUB SWAP1 REVERT JUMPDEST DUP2 PUSH1 0x1 PUSH1 0x0 DUP6 PUSH20 0xFFFFFFFFFFFFFFFFFFFFFFFFFFFFFFFFFFFFFFFF AND PUSH20 0xFFFFFFFFFFFFFFFFFFFFFFFFFFFFFFFFFFFFFFFF AND DUP2 MSTORE PUSH1 0x20 ADD SWAP1 DUP2 MSTORE PUSH1 0x20 ADD PUSH1 0x0 KECCAK256 PUSH1 0x1 ADD PUSH1 0x0 DUP3 DUP3 SLOAD PUSH2 0x27A SWAP2 SWAP1 PUSH2 0x5CA JUMP JUMPDEST SWAP3 POP POP DUP2 SWAP1 SSTORE POP DUP2 PUSH1 0x1 PUSH1 0x0 DUP7 PUSH20 0xFFFFFFFFFFFFFFFFFFFFFFFFFFFFFFFFFFFFFFFF AND PUSH20 0xFFFFFFFFFFFFFFFFFFFFFFFFFFFFFFFFFFFFFFFF AND DUP2 MSTORE PUSH1 0x20 ADD SWAP1 DUP2 MSTORE PUSH1 0x20 ADD PUSH1 0x0 KECCAK256 PUSH1 0x1 ADD PUSH1 0x0 DUP3 DUP3 SLOAD PUSH2 0x2D3 SWAP2 SWAP1 PUSH2 0x620 JUMP JUMPDEST SWAP3 POP POP DUP2 SWAP1 SSTORE POP PUSH32 0xD21F641F674E39DAFD327AEE336648CEC891F42F9938356C1554C1A980EC0874 DUP5 DUP5 DUP5 PUSH1 0x40 MLOAD PUSH2 0x30D SWAP4 SWAP3 SWAP2 SWAP1 PUSH2 0x50C JUMP JUMPDEST PUSH1 0x40 MLOAD DUP1 SWAP2 SUB SWAP1 LOG1 PUSH1 0x1 SWAP1 POP SWAP4 SWAP3 POP POP POP JUMP JUMPDEST CALLER PUSH1 0x1 PUSH1 0x0 CALLER PUSH20 0xFFFFFFFFFFFFFFFFFFFFFFFFFFFFFFFFFFFFFFFF AND PUSH20 0xFFFFFFFFFFFFFFFFFFFFFFFFFFFFFFFFFFFFFFFF AND DUP2 MSTORE PUSH1 0x20 ADD SWAP1 DUP2 MSTORE PUSH1 0x20 ADD PUSH1 0x0 KECCAK256 PUSH1 0x0 ADD PUSH1 0x0 PUSH2 0x100 EXP DUP2 SLOAD DUP2 PUSH20 0xFFFFFFFFFFFFFFFFFFFFFFFFFFFFFFFFFFFFFFFF MUL NOT AND SWAP1 DUP4 PUSH20 0xFFFFFFFFFFFFFFFFFFFFFFFFFFFFFFFFFFFFFFFF AND MUL OR SWAP1 SSTORE POP JUMP JUMPDEST PUSH1 0x0 PUSH1 0x1 PUSH1 0x0 DUP4 PUSH20 0xFFFFFFFFFFFFFFFFFFFFFFFFFFFFFFFFFFFFFFFF AND PUSH20 0xFFFFFFFFFFFFFFFFFFFFFFFFFFFFFFFFFFFFFFFF AND DUP2 MSTORE PUSH1 0x20 ADD SWAP1 DUP2 MSTORE PUSH1 0x20 ADD PUSH1 0x0 KECCAK256 PUSH1 0x1 ADD SLOAD SWAP1 POP SWAP2 SWAP1 POP JUMP JUMPDEST PUSH1 0x0 DUP2 CALLDATALOAD SWAP1 POP PUSH2 0x3FE DUP2 PUSH2 0x722 JUMP JUMPDEST SWAP3 SWAP2 POP POP JUMP JUMPDEST PUSH1 0x0 DUP2 CALLDATALOAD SWAP1 POP PUSH2 0x413 DUP2 PUSH2 0x739 JUMP JUMPDEST SWAP3 SWAP2 POP POP JUMP JUMPDEST PUSH1 0x0 PUSH1 0x20 DUP3 DUP5 SUB SLT ISZERO PUSH2 0x42F JUMPI PUSH2 0x42E PUSH2 0x6CB JUMP JUMPDEST JUMPDEST PUSH1 0x0 PUSH2 0x43D DUP5 DUP3 DUP6 ADD PUSH2 0x3EF JUMP JUMPDEST SWAP2 POP POP SWAP3 SWAP2 POP POP JUMP JUMPDEST PUSH1 0x0 DUP1 PUSH1 0x0 PUSH1 0x60 DUP5 DUP7 SUB SLT ISZERO PUSH2 0x45F JUMPI PUSH2 0x45E PUSH2 0x6CB JUMP JUMPDEST JUMPDEST PUSH1 0x0 PUSH2 0x46D DUP7 DUP3 DUP8 ADD PUSH2 0x3EF JUMP JUMPDEST SWAP4 POP POP PUSH1 0x20 PUSH2 0x47E DUP7 DUP3 DUP8 ADD PUSH2 0x3EF JUMP JUMPDEST SWAP3 POP POP PUSH1 0x40 PUSH2 0x48F DUP7 DUP3 DUP8 ADD PUSH2 0x404 JUMP JUMPDEST SWAP2 POP POP SWAP3 POP SWAP3 POP SWAP3 JUMP JUMPDEST PUSH2 0x4A2 DUP2 PUSH2 0x654 JUMP JUMPDEST DUP3 MSTORE POP POP JUMP JUMPDEST PUSH2 0x4B1 DUP2 PUSH2 0x666 JUMP JUMPDEST DUP3 MSTORE POP POP JUMP JUMPDEST PUSH1 0x0 PUSH2 0x4C4 PUSH1 0x13 DUP4 PUSH2 0x5B9 JUMP JUMPDEST SWAP2 POP PUSH2 0x4CF DUP3 PUSH2 0x6D0 JUMP JUMPDEST PUSH1 0x20 DUP3 ADD SWAP1 POP SWAP2 SWAP1 POP JUMP JUMPDEST PUSH1 0x0 PUSH2 0x4E7 PUSH1 0x12 DUP4 PUSH2 0x5B9 JUMP JUMPDEST SWAP2 POP PUSH2 0x4F2 DUP3 PUSH2 0x6F9 JUMP JUMPDEST PUSH1 0x20 DUP3 ADD SWAP1 POP SWAP2 SWAP1 POP JUMP JUMPDEST PUSH2 0x506 DUP2 PUSH2 0x692 JUMP JUMPDEST DUP3 MSTORE POP POP JUMP JUMPDEST PUSH1 0x0 PUSH1 0x60 DUP3 ADD SWAP1 POP PUSH2 0x521 PUSH1 0x0 DUP4 ADD DUP7 PUSH2 0x499 JUMP JUMPDEST PUSH2 0x52E PUSH1 0x20 DUP4 ADD DUP6 PUSH2 0x499 JUMP JUMPDEST PUSH2 0x53B PUSH1 0x40 DUP4 ADD DUP5 PUSH2 0x4FD JUMP JUMPDEST SWAP5 SWAP4 POP POP POP POP JUMP JUMPDEST PUSH1 0x0 PUSH1 0x20 DUP3 ADD SWAP1 POP PUSH2 0x558 PUSH1 0x0 DUP4 ADD DUP5 PUSH2 0x4A8 JUMP JUMPDEST SWAP3 SWAP2 POP POP JUMP JUMPDEST PUSH1 0x0 PUSH1 0x20 DUP3 ADD SWAP1 POP DUP2 DUP2 SUB PUSH1 0x0 DUP4 ADD MSTORE PUSH2 0x577 DUP2 PUSH2 0x4B7 JUMP JUMPDEST SWAP1 POP SWAP2 SWAP1 POP JUMP JUMPDEST PUSH1 0x0 PUSH1 0x20 DUP3 ADD SWAP1 POP DUP2 DUP2 SUB PUSH1 0x0 DUP4 ADD MSTORE PUSH2 0x597 DUP2 PUSH2 0x4DA JUMP JUMPDEST SWAP1 POP SWAP2 SWAP1 POP JUMP JUMPDEST PUSH1 0x0 PUSH1 0x20 DUP3 ADD SWAP1 POP PUSH2 0x5B3 PUSH1 0x0 DUP4 ADD DUP5 PUSH2 0x4FD JUMP JUMPDEST SWAP3 SWAP2 POP POP JUMP JUMPDEST PUSH1 0x0 DUP3 DUP3 MSTORE PUSH1 0x20 DUP3 ADD SWAP1 POP SWAP3 SWAP2 POP POP JUMP JUMPDEST PUSH1 0x0 PUSH2 0x5D5 DUP3 PUSH2 0x692 JUMP JUMPDEST SWAP2 POP PUSH2 0x5E0 DUP4 PUSH2 0x692 JUMP JUMPDEST SWAP3 POP DUP3 PUSH32 0xFFFFFFFFFFFFFFFFFFFFFFFFFFFFFFFFFFFFFFFFFFFFFFFFFFFFFFFFFFFFFFFF SUB DUP3 GT ISZERO PUSH2 0x615 JUMPI PUSH2 0x614 PUSH2 0x69C JUMP JUMPDEST JUMPDEST DUP3 DUP3 ADD SWAP1 POP SWAP3 SWAP2 POP POP JUMP JUMPDEST PUSH1 0x0 PUSH2 0x62B DUP3 PUSH2 0x692 JUMP JUMPDEST SWAP2 POP PUSH2 0x636 DUP4 PUSH2 0x692 JUMP JUMPDEST SWAP3 POP DUP3 DUP3 LT ISZERO PUSH2 0x649 JUMPI PUSH2 0x648 PUSH2 0x69C JUMP JUMPDEST JUMPDEST DUP3 DUP3 SUB SWAP1 POP SWAP3 SWAP2 POP POP JUMP JUMPDEST PUSH1 0x0 PUSH2 0x65F DUP3 PUSH2 0x672 JUMP JUMPDEST SWAP1 POP SWAP2 SWAP1 POP JUMP JUMPDEST PUSH1 0x0 DUP2 ISZERO ISZERO SWAP1 POP SWAP2 SWAP1 POP JUMP JUMPDEST PUSH1 0x0 PUSH20 0xFFFFFFFFFFFFFFFFFFFFFFFFFFFFFFFFFFFFFFFF DUP3 AND SWAP1 POP SWAP2 SWAP1 POP JUMP JUMPDEST PUSH1 0x0 DUP2 SWAP1 POP SWAP2 SWAP1 POP JUMP JUMPDEST PUSH32 0x4E487B7100000000000000000000000000000000000000000000000000000000 PUSH1 0x0 MSTORE PUSH1 0x11 PUSH1 0x4 MSTORE PUSH1 0x24 PUSH1 0x0 REVERT JUMPDEST PUSH1 0x0 DUP1 REVERT JUMPDEST PUSH32 0x4C61206375656E7461206E6F2065786973746500000000000000000000000000 PUSH1 0x0 DUP3 ADD MSTORE POP JUMP JUMPDEST PUSH32 0x53616C646F20696E737566696369656E74650000000000000000000000000000 PUSH1 0x0 DUP3 ADD MSTORE POP JUMP JUMPDEST PUSH2 0x72B DUP2 PUSH2 0x654 JUMP JUMPDEST DUP2 EQ PUSH2 0x736 JUMPI PUSH1 0x0 DUP1 REVERT JUMPDEST POP JUMP JUMPDEST PUSH2 0x742 DUP2 PUSH2 0x692 JUMP JUMPDEST DUP2 EQ PUSH2 0x74D JUMPI PUSH1 0x0 DUP1 REVERT JUMPDEST POP JUMP INVALID LOG2 PUSH5 0x6970667358 0x22 SLT KECCAK256 PUSH8 0xA38392F7F77F2613 ADDMOD SLT 0xEB ORIGIN 0xE1 0xC8 0xCD DUP11 CALLDATACOPY 0xE4 0xE5 0xA5 MULMOD TIMESTAMP REVERT 0xCD 0x2D 0xAB CODECOPY DUP13 DIFFICULTY 0x5D 0xF7 PUSH5 0x736F6C6343 STOP ADDMOD SMOD STOP CALLER "
				},
				"gasEstimates": {
					"creation": {
						"codeDepositCost": "385200",
						"executionCost": "infinite",
						"totalCost": "infinite"
					},
					"external": {
						"consultaSaldo(address)": "2869",
						"crearCuenta()": "24505",
						"transferir(address,address,uint256)": "infinite"
					}
				},
				"methodIdentifiers": {
					"consultaSaldo(address)": "4f48bf44",
					"crearCuenta()": "3760eec7",
					"transferir(address,address,uint256)": "077d492e"
				}
			},
			"storageLayout": {
				"storage": [
					{
						"astId": 4,
						"contract": "contracts/9_Curso_Moneda.sol:CursoMoneda",
						"label": "cuentaInexistente",
						"offset": 0,
						"slot": "0",
						"type": "t_address"
					},
					{
						"astId": 32,
						"contract": "contracts/9_Curso_Moneda.sol:CursoMoneda",
						"label": "cuentas",
						"offset": 0,
						"slot": "1",
						"type": "t_mapping(t_address,t_struct(Cuenta)39_storage)"
					}
				],
				"types": {
					"t_address": {
						"encoding": "inplace",
						"label": "address",
						"numberOfBytes": "20"
					},
					"t_mapping(t_address,t_struct(Cuenta)39_storage)": {
						"encoding": "mapping",
						"key": "t_address",
						"label": "mapping(address => struct CursoMoneda.Cuenta)",
						"numberOfBytes": "32",
						"value": "t_struct(Cuenta)39_storage"
					},
					"t_string_storage": {
						"encoding": "bytes",
						"label": "string",
						"numberOfBytes": "32"
					},
					"t_struct(Cuenta)39_storage": {
						"encoding": "inplace",
						"label": "struct CursoMoneda.Cuenta",
						"members": [
							{
								"astId": 34,
								"contract": "contracts/9_Curso_Moneda.sol:CursoMoneda",
								"label": "nroCuenta",
								"offset": 0,
								"slot": "0",
								"type": "t_address"
							},
							{
								"astId": 36,
								"contract": "contracts/9_Curso_Moneda.sol:CursoMoneda",
								"label": "saldo",
								"offset": 0,
								"slot": "1",
								"type": "t_uint256"
							},
							{
								"astId": 38,
								"contract": "contracts/9_Curso_Moneda.sol:CursoMoneda",
								"label": "usuario",
								"offset": 0,
								"slot": "2",
								"type": "t_string_storage"
							}
						],
						"numberOfBytes": "96"
					},
					"t_uint256": {
						"encoding": "inplace",
						"label": "uint256",
						"numberOfBytes": "32"
					}
				}
			},
			"userdoc": {
				"kind": "user",
				"methods": {},
				"version": 1
			}
		}
	}
}