{
	"contracts/7_Grafiti_por_minuto.sol": {
		"Grafiti": {
			"abi": [
				{
					"inputs": [
						{
							"internalType": "string",
							"name": "mensajeParaGuardar",
							"type": "string"
						}
					],
					"name": "guardarMensaje",
					"outputs": [],
					"stateMutability": "nonpayable",
					"type": "function"
				},
				{
					"inputs": [],
					"name": "verMensajeGuardado",
					"outputs": [
						{
							"components": [
								{
									"internalType": "address",
									"name": "autor",
									"type": "address"
								},
								{
									"internalType": "string",
									"name": "mensaje",
									"type": "string"
								},
								{
									"internalType": "uint256",
									"name": "fecha",
									"type": "uint256"
								}
							],
							"internalType": "struct Grafiti.Mensaje",
							"name": "",
							"type": "tuple"
						}
					],
					"stateMutability": "view",
					"type": "function"
				}
			],
			"devdoc": {
				"kind": "dev",
				"methods": {},
				"version": 1
			},
			"evm": {
				"assembly": "    /* \"contracts/7_Grafiti_por_minuto.sol\":74:685  contract Grafiti{\r... */\n  mstore(0x40, 0x80)\n  callvalue\n  dup1\n  iszero\n  tag_1\n  jumpi\n  0x00\n  dup1\n  revert\ntag_1:\n  pop\n  dataSize(sub_0)\n  dup1\n  dataOffset(sub_0)\n  0x00\n  codecopy\n  0x00\n  return\nstop\n\nsub_0: assembly {\n        /* \"contracts/7_Grafiti_por_minuto.sol\":74:685  contract Grafiti{\r... */\n      mstore(0x40, 0x80)\n      callvalue\n      dup1\n      iszero\n      tag_1\n      jumpi\n      0x00\n      dup1\n      revert\n    tag_1:\n      pop\n      jumpi(tag_2, lt(calldatasize, 0x04))\n      shr(0xe0, calldataload(0x00))\n      dup1\n      0x376d9997\n      eq\n      tag_3\n      jumpi\n      dup1\n      0xc4f90a6b\n      eq\n      tag_4\n      jumpi\n    tag_2:\n      0x00\n      dup1\n      revert\n        /* \"contracts/7_Grafiti_por_minuto.sol\":229:569  function guardarMensaje(string memory mensajeParaGuardar) public {\r... */\n    tag_3:\n      tag_5\n      0x04\n      dup1\n      calldatasize\n      sub\n      dup2\n      add\n      swap1\n      tag_6\n      swap2\n      swap1\n      tag_7\n      jump\t// in\n    tag_6:\n      tag_8\n      jump\t// in\n    tag_5:\n      stop\n        /* \"contracts/7_Grafiti_por_minuto.sol\":577:682  function verMensajeGuardado() public view returns(Mensaje memory) {\r... */\n    tag_4:\n      tag_9\n      tag_10\n      jump\t// in\n    tag_9:\n      mload(0x40)\n      tag_11\n      swap2\n      swap1\n      tag_12\n      jump\t// in\n    tag_11:\n      mload(0x40)\n      dup1\n      swap2\n      sub\n      swap1\n      return\n        /* \"contracts/7_Grafiti_por_minuto.sol\":229:569  function guardarMensaje(string memory mensajeParaGuardar) public {\r... */\n    tag_8:\n        /* \"contracts/7_Grafiti_por_minuto.sol\":348:363  block.timestamp */\n      timestamp\n        /* \"contracts/7_Grafiti_por_minuto.sol\":334:343  1 minutes */\n      0x3c\n        /* \"contracts/7_Grafiti_por_minuto.sol\":312:325  ultimoMensaje */\n      0x00\n        /* \"contracts/7_Grafiti_por_minuto.sol\":312:331  ultimoMensaje.fecha */\n      0x02\n      add\n      sload\n        /* \"contracts/7_Grafiti_por_minuto.sol\":312:343  ultimoMensaje.fecha + 1 minutes */\n      tag_14\n      swap2\n      swap1\n      tag_15\n      jump\t// in\n    tag_14:\n        /* \"contracts/7_Grafiti_por_minuto.sol\":311:363  (ultimoMensaje.fecha + 1 minutes) <= block.timestamp */\n      gt\n        /* \"contracts/7_Grafiti_por_minuto.sol\":307:415  if ((ultimoMensaje.fecha + 1 minutes) <= block.timestamp) revert (\"Solo puede guardar 1 mensaje por minuto\") */\n      tag_16\n      jumpi\n        /* \"contracts/7_Grafiti_por_minuto.sol\":365:415  revert (\"Solo puede guardar 1 mensaje por minuto\") */\n      mload(0x40)\n      0x08c379a000000000000000000000000000000000000000000000000000000000\n      dup2\n      mstore\n      0x04\n      add\n      tag_17\n      swap1\n      tag_18\n      jump\t// in\n    tag_17:\n      mload(0x40)\n      dup1\n      swap2\n      sub\n      swap1\n      revert\n        /* \"contracts/7_Grafiti_por_minuto.sol\":307:415  if ((ultimoMensaje.fecha + 1 minutes) <= block.timestamp) revert (\"Solo puede guardar 1 mensaje por minuto\") */\n    tag_16:\n        /* \"contracts/7_Grafiti_por_minuto.sol\":450:460  msg.sender */\n      caller\n        /* \"contracts/7_Grafiti_por_minuto.sol\":428:441  ultimoMensaje */\n      0x00\n        /* \"contracts/7_Grafiti_por_minuto.sol\":428:447  ultimoMensaje.autor */\n      dup1\n      add\n      0x00\n        /* \"contracts/7_Grafiti_por_minuto.sol\":428:460  ultimoMensaje.autor = msg.sender */\n      0x0100\n      exp\n      dup2\n      sload\n      dup2\n      0xffffffffffffffffffffffffffffffffffffffff\n      mul\n      not\n      and\n      swap1\n      dup4\n      0xffffffffffffffffffffffffffffffffffffffff\n      and\n      mul\n      or\n      swap1\n      sstore\n      pop\n        /* \"contracts/7_Grafiti_por_minuto.sol\":495:513  mensajeParaGuardar */\n      dup1\n        /* \"contracts/7_Grafiti_por_minuto.sol\":471:484  ultimoMensaje */\n      0x00\n        /* \"contracts/7_Grafiti_por_minuto.sol\":471:492  ultimoMensaje.mensaje */\n      0x01\n      add\n        /* \"contracts/7_Grafiti_por_minuto.sol\":471:513  ultimoMensaje.mensaje = mensajeParaGuardar */\n      swap1\n      dup1\n      mload\n      swap1\n      0x20\n      add\n      swap1\n      tag_19\n      swap3\n      swap2\n      swap1\n      tag_20\n      jump\t// in\n    tag_19:\n      pop\n        /* \"contracts/7_Grafiti_por_minuto.sol\":546:561  block.timestamp */\n      timestamp\n        /* \"contracts/7_Grafiti_por_minuto.sol\":524:537  ultimoMensaje */\n      0x00\n        /* \"contracts/7_Grafiti_por_minuto.sol\":524:543  ultimoMensaje.fecha */\n      0x02\n      add\n        /* \"contracts/7_Grafiti_por_minuto.sol\":524:561  ultimoMensaje.fecha = block.timestamp */\n      dup2\n      swap1\n      sstore\n      pop\n        /* \"contracts/7_Grafiti_por_minuto.sol\":229:569  function guardarMensaje(string memory mensajeParaGuardar) public {\r... */\n      pop\n      jump\t// out\n        /* \"contracts/7_Grafiti_por_minuto.sol\":577:682  function verMensajeGuardado() public view returns(Mensaje memory) {\r... */\n    tag_10:\n        /* \"contracts/7_Grafiti_por_minuto.sol\":627:641  Mensaje memory */\n      tag_21\n      tag_22\n      jump\t// in\n    tag_21:\n        /* \"contracts/7_Grafiti_por_minuto.sol\":661:674  ultimoMensaje */\n      0x00\n        /* \"contracts/7_Grafiti_por_minuto.sol\":654:674  return ultimoMensaje */\n      mload(0x40)\n      dup1\n      0x60\n      add\n      0x40\n      mstore\n      swap1\n      dup2\n      0x00\n      dup3\n      add\n      0x00\n      swap1\n      sload\n      swap1\n      0x0100\n      exp\n      swap1\n      div\n      0xffffffffffffffffffffffffffffffffffffffff\n      and\n      0xffffffffffffffffffffffffffffffffffffffff\n      and\n      0xffffffffffffffffffffffffffffffffffffffff\n      and\n      dup2\n      mstore\n      0x20\n      add\n      0x01\n      dup3\n      add\n      dup1\n      sload\n      tag_24\n      swap1\n      tag_25\n      jump\t// in\n    tag_24:\n      dup1\n      0x1f\n      add\n      0x20\n      dup1\n      swap2\n      div\n      mul\n      0x20\n      add\n      mload(0x40)\n      swap1\n      dup2\n      add\n      0x40\n      mstore\n      dup1\n      swap3\n      swap2\n      swap1\n      dup2\n      dup2\n      mstore\n      0x20\n      add\n      dup3\n      dup1\n      sload\n      tag_26\n      swap1\n      tag_25\n      jump\t// in\n    tag_26:\n      dup1\n      iszero\n      tag_27\n      jumpi\n      dup1\n      0x1f\n      lt\n      tag_28\n      jumpi\n      0x0100\n      dup1\n      dup4\n      sload\n      div\n      mul\n      dup4\n      mstore\n      swap2\n      0x20\n      add\n      swap2\n      jump(tag_27)\n    tag_28:\n      dup3\n      add\n      swap2\n      swap1\n      0x00\n      mstore\n      keccak256(0x00, 0x20)\n      swap1\n    tag_29:\n      dup2\n      sload\n      dup2\n      mstore\n      swap1\n      0x01\n      add\n      swap1\n      0x20\n      add\n      dup1\n      dup4\n      gt\n      tag_29\n      jumpi\n      dup3\n      swap1\n      sub\n      0x1f\n      and\n      dup3\n      add\n      swap2\n    tag_27:\n      pop\n      pop\n      pop\n      pop\n      pop\n      dup2\n      mstore\n      0x20\n      add\n      0x02\n      dup3\n      add\n      sload\n      dup2\n      mstore\n      pop\n      pop\n      swap1\n      pop\n        /* \"contracts/7_Grafiti_por_minuto.sol\":577:682  function verMensajeGuardado() public view returns(Mensaje memory) {\r... */\n      swap1\n      jump\t// out\n    tag_20:\n      dup3\n      dup1\n      sload\n      tag_30\n      swap1\n      tag_25\n      jump\t// in\n    tag_30:\n      swap1\n      0x00\n      mstore\n      keccak256(0x00, 0x20)\n      swap1\n      0x1f\n      add\n      0x20\n      swap1\n      div\n      dup2\n      add\n      swap3\n      dup3\n      tag_32\n      jumpi\n      0x00\n      dup6\n      sstore\n      jump(tag_31)\n    tag_32:\n      dup3\n      0x1f\n      lt\n      tag_33\n      jumpi\n      dup1\n      mload\n      not(0xff)\n      and\n      dup4\n      dup1\n      add\n      or\n      dup6\n      sstore\n      jump(tag_31)\n    tag_33:\n      dup3\n      dup1\n      add\n      0x01\n      add\n      dup6\n      sstore\n      dup3\n      iszero\n      tag_31\n      jumpi\n      swap2\n      dup3\n      add\n    tag_34:\n      dup3\n      dup2\n      gt\n      iszero\n      tag_35\n      jumpi\n      dup3\n      mload\n      dup3\n      sstore\n      swap2\n      0x20\n      add\n      swap2\n      swap1\n      0x01\n      add\n      swap1\n      jump(tag_34)\n    tag_35:\n    tag_31:\n      pop\n      swap1\n      pop\n      tag_36\n      swap2\n      swap1\n      tag_37\n      jump\t// in\n    tag_36:\n      pop\n      swap1\n      jump\t// out\n    tag_22:\n      mload(0x40)\n      dup1\n      0x60\n      add\n      0x40\n      mstore\n      dup1\n      and(0xffffffffffffffffffffffffffffffffffffffff, 0x00)\n      dup2\n      mstore\n      0x20\n      add\n      0x60\n      dup2\n      mstore\n      0x20\n      add\n      0x00\n      dup2\n      mstore\n      pop\n      swap1\n      jump\t// out\n    tag_37:\n    tag_38:\n      dup1\n      dup3\n      gt\n      iszero\n      tag_39\n      jumpi\n      0x00\n      dup2\n      0x00\n      swap1\n      sstore\n      pop\n      0x01\n      add\n      jump(tag_38)\n    tag_39:\n      pop\n      swap1\n      jump\t// out\n        /* \"#utility.yul\":7:419   */\n    tag_41:\n        /* \"#utility.yul\":85:90   */\n      0x00\n        /* \"#utility.yul\":110:176   */\n      tag_43\n        /* \"#utility.yul\":126:175   */\n      tag_44\n        /* \"#utility.yul\":168:174   */\n      dup5\n        /* \"#utility.yul\":126:175   */\n      tag_45\n      jump\t// in\n    tag_44:\n        /* \"#utility.yul\":110:176   */\n      tag_46\n      jump\t// in\n    tag_43:\n        /* \"#utility.yul\":101:176   */\n      swap1\n      pop\n        /* \"#utility.yul\":199:205   */\n      dup3\n        /* \"#utility.yul\":192:197   */\n      dup2\n        /* \"#utility.yul\":185:206   */\n      mstore\n        /* \"#utility.yul\":237:241   */\n      0x20\n        /* \"#utility.yul\":230:235   */\n      dup2\n        /* \"#utility.yul\":226:242   */\n      add\n        /* \"#utility.yul\":275:278   */\n      dup5\n        /* \"#utility.yul\":266:272   */\n      dup5\n        /* \"#utility.yul\":261:264   */\n      dup5\n        /* \"#utility.yul\":257:273   */\n      add\n        /* \"#utility.yul\":254:279   */\n      gt\n        /* \"#utility.yul\":251:363   */\n      iszero\n      tag_47\n      jumpi\n        /* \"#utility.yul\":282:361   */\n      tag_48\n      tag_49\n      jump\t// in\n    tag_48:\n        /* \"#utility.yul\":251:363   */\n    tag_47:\n        /* \"#utility.yul\":372:413   */\n      tag_50\n        /* \"#utility.yul\":406:412   */\n      dup5\n        /* \"#utility.yul\":401:404   */\n      dup3\n        /* \"#utility.yul\":396:399   */\n      dup6\n        /* \"#utility.yul\":372:413   */\n      tag_51\n      jump\t// in\n    tag_50:\n        /* \"#utility.yul\":91:419   */\n      pop\n        /* \"#utility.yul\":7:419   */\n      swap4\n      swap3\n      pop\n      pop\n      pop\n      jump\t// out\n        /* \"#utility.yul\":439:779   */\n    tag_52:\n        /* \"#utility.yul\":495:500   */\n      0x00\n        /* \"#utility.yul\":544:547   */\n      dup3\n        /* \"#utility.yul\":537:541   */\n      0x1f\n        /* \"#utility.yul\":529:535   */\n      dup4\n        /* \"#utility.yul\":525:542   */\n      add\n        /* \"#utility.yul\":521:548   */\n      slt\n        /* \"#utility.yul\":511:633   */\n      tag_54\n      jumpi\n        /* \"#utility.yul\":552:631   */\n      tag_55\n      tag_56\n      jump\t// in\n    tag_55:\n        /* \"#utility.yul\":511:633   */\n    tag_54:\n        /* \"#utility.yul\":669:675   */\n      dup2\n        /* \"#utility.yul\":656:676   */\n      calldataload\n        /* \"#utility.yul\":694:773   */\n      tag_57\n        /* \"#utility.yul\":769:772   */\n      dup5\n        /* \"#utility.yul\":761:767   */\n      dup3\n        /* \"#utility.yul\":754:758   */\n      0x20\n        /* \"#utility.yul\":746:752   */\n      dup7\n        /* \"#utility.yul\":742:759   */\n      add\n        /* \"#utility.yul\":694:773   */\n      tag_41\n      jump\t// in\n    tag_57:\n        /* \"#utility.yul\":685:773   */\n      swap2\n      pop\n        /* \"#utility.yul\":501:779   */\n      pop\n        /* \"#utility.yul\":439:779   */\n      swap3\n      swap2\n      pop\n      pop\n      jump\t// out\n        /* \"#utility.yul\":785:1294   */\n    tag_7:\n        /* \"#utility.yul\":854:860   */\n      0x00\n        /* \"#utility.yul\":903:905   */\n      0x20\n        /* \"#utility.yul\":891:900   */\n      dup3\n        /* \"#utility.yul\":882:889   */\n      dup5\n        /* \"#utility.yul\":878:901   */\n      sub\n        /* \"#utility.yul\":874:906   */\n      slt\n        /* \"#utility.yul\":871:990   */\n      iszero\n      tag_59\n      jumpi\n        /* \"#utility.yul\":909:988   */\n      tag_60\n      tag_61\n      jump\t// in\n    tag_60:\n        /* \"#utility.yul\":871:990   */\n    tag_59:\n        /* \"#utility.yul\":1057:1058   */\n      0x00\n        /* \"#utility.yul\":1046:1055   */\n      dup3\n        /* \"#utility.yul\":1042:1059   */\n      add\n        /* \"#utility.yul\":1029:1060   */\n      calldataload\n        /* \"#utility.yul\":1087:1105   */\n      0xffffffffffffffff\n        /* \"#utility.yul\":1079:1085   */\n      dup2\n        /* \"#utility.yul\":1076:1106   */\n      gt\n        /* \"#utility.yul\":1073:1190   */\n      iszero\n      tag_62\n      jumpi\n        /* \"#utility.yul\":1109:1188   */\n      tag_63\n      tag_64\n      jump\t// in\n    tag_63:\n        /* \"#utility.yul\":1073:1190   */\n    tag_62:\n        /* \"#utility.yul\":1214:1277   */\n      tag_65\n        /* \"#utility.yul\":1269:1276   */\n      dup5\n        /* \"#utility.yul\":1260:1266   */\n      dup3\n        /* \"#utility.yul\":1249:1258   */\n      dup6\n        /* \"#utility.yul\":1245:1267   */\n      add\n        /* \"#utility.yul\":1214:1277   */\n      tag_52\n      jump\t// in\n    tag_65:\n        /* \"#utility.yul\":1204:1277   */\n      swap2\n      pop\n        /* \"#utility.yul\":1000:1287   */\n      pop\n        /* \"#utility.yul\":785:1294   */\n      swap3\n      swap2\n      pop\n      pop\n      jump\t// out\n        /* \"#utility.yul\":1300:1408   */\n    tag_66:\n        /* \"#utility.yul\":1377:1401   */\n      tag_68\n        /* \"#utility.yul\":1395:1400   */\n      dup2\n        /* \"#utility.yul\":1377:1401   */\n      tag_69\n      jump\t// in\n    tag_68:\n        /* \"#utility.yul\":1372:1375   */\n      dup3\n        /* \"#utility.yul\":1365:1402   */\n      mstore\n        /* \"#utility.yul\":1300:1408   */\n      pop\n      pop\n      jump\t// out\n        /* \"#utility.yul\":1414:1758   */\n    tag_70:\n        /* \"#utility.yul\":1492:1495   */\n      0x00\n        /* \"#utility.yul\":1520:1559   */\n      tag_72\n        /* \"#utility.yul\":1553:1558   */\n      dup3\n        /* \"#utility.yul\":1520:1559   */\n      tag_73\n      jump\t// in\n    tag_72:\n        /* \"#utility.yul\":1575:1636   */\n      tag_74\n        /* \"#utility.yul\":1629:1635   */\n      dup2\n        /* \"#utility.yul\":1624:1627   */\n      dup6\n        /* \"#utility.yul\":1575:1636   */\n      tag_75\n      jump\t// in\n    tag_74:\n        /* \"#utility.yul\":1568:1636   */\n      swap4\n      pop\n        /* \"#utility.yul\":1645:1697   */\n      tag_76\n        /* \"#utility.yul\":1690:1696   */\n      dup2\n        /* \"#utility.yul\":1685:1688   */\n      dup6\n        /* \"#utility.yul\":1678:1682   */\n      0x20\n        /* \"#utility.yul\":1671:1676   */\n      dup7\n        /* \"#utility.yul\":1667:1683   */\n      add\n        /* \"#utility.yul\":1645:1697   */\n      tag_77\n      jump\t// in\n    tag_76:\n        /* \"#utility.yul\":1722:1751   */\n      tag_78\n        /* \"#utility.yul\":1744:1750   */\n      dup2\n        /* \"#utility.yul\":1722:1751   */\n      tag_79\n      jump\t// in\n    tag_78:\n        /* \"#utility.yul\":1717:1720   */\n      dup5\n        /* \"#utility.yul\":1713:1752   */\n      add\n        /* \"#utility.yul\":1706:1752   */\n      swap2\n      pop\n        /* \"#utility.yul\":1496:1758   */\n      pop\n        /* \"#utility.yul\":1414:1758   */\n      swap3\n      swap2\n      pop\n      pop\n      jump\t// out\n        /* \"#utility.yul\":1764:2130   */\n    tag_80:\n        /* \"#utility.yul\":1906:1909   */\n      0x00\n        /* \"#utility.yul\":1927:1994   */\n      tag_82\n        /* \"#utility.yul\":1991:1993   */\n      0x27\n        /* \"#utility.yul\":1986:1989   */\n      dup4\n        /* \"#utility.yul\":1927:1994   */\n      tag_83\n      jump\t// in\n    tag_82:\n        /* \"#utility.yul\":1920:1994   */\n      swap2\n      pop\n        /* \"#utility.yul\":2003:2096   */\n      tag_84\n        /* \"#utility.yul\":2092:2095   */\n      dup3\n        /* \"#utility.yul\":2003:2096   */\n      tag_85\n      jump\t// in\n    tag_84:\n        /* \"#utility.yul\":2121:2123   */\n      0x40\n        /* \"#utility.yul\":2116:2119   */\n      dup3\n        /* \"#utility.yul\":2112:2124   */\n      add\n        /* \"#utility.yul\":2105:2124   */\n      swap1\n      pop\n        /* \"#utility.yul\":1764:2130   */\n      swap2\n      swap1\n      pop\n      jump\t// out\n        /* \"#utility.yul\":2192:2971   */\n    tag_86:\n        /* \"#utility.yul\":2305:2308   */\n      0x00\n        /* \"#utility.yul\":2341:2345   */\n      0x60\n        /* \"#utility.yul\":2336:2339   */\n      dup4\n        /* \"#utility.yul\":2332:2346   */\n      add\n        /* \"#utility.yul\":2429:2433   */\n      0x00\n        /* \"#utility.yul\":2422:2427   */\n      dup4\n        /* \"#utility.yul\":2418:2434   */\n      add\n        /* \"#utility.yul\":2412:2435   */\n      mload\n        /* \"#utility.yul\":2448:2511   */\n      tag_88\n        /* \"#utility.yul\":2505:2509   */\n      0x00\n        /* \"#utility.yul\":2500:2503   */\n      dup7\n        /* \"#utility.yul\":2496:2510   */\n      add\n        /* \"#utility.yul\":2482:2494   */\n      dup3\n        /* \"#utility.yul\":2448:2511   */\n      tag_66\n      jump\t// in\n    tag_88:\n        /* \"#utility.yul\":2356:2521   */\n      pop\n        /* \"#utility.yul\":2606:2610   */\n      0x20\n        /* \"#utility.yul\":2599:2604   */\n      dup4\n        /* \"#utility.yul\":2595:2611   */\n      add\n        /* \"#utility.yul\":2589:2612   */\n      mload\n        /* \"#utility.yul\":2659:2662   */\n      dup5\n        /* \"#utility.yul\":2653:2657   */\n      dup3\n        /* \"#utility.yul\":2649:2663   */\n      sub\n        /* \"#utility.yul\":2642:2646   */\n      0x20\n        /* \"#utility.yul\":2637:2640   */\n      dup7\n        /* \"#utility.yul\":2633:2647   */\n      add\n        /* \"#utility.yul\":2626:2664   */\n      mstore\n        /* \"#utility.yul\":2685:2758   */\n      tag_89\n        /* \"#utility.yul\":2753:2757   */\n      dup3\n        /* \"#utility.yul\":2739:2751   */\n      dup3\n        /* \"#utility.yul\":2685:2758   */\n      tag_70\n      jump\t// in\n    tag_89:\n        /* \"#utility.yul\":2677:2758   */\n      swap2\n      pop\n        /* \"#utility.yul\":2531:2769   */\n      pop\n        /* \"#utility.yul\":2852:2856   */\n      0x40\n        /* \"#utility.yul\":2845:2850   */\n      dup4\n        /* \"#utility.yul\":2841:2857   */\n      add\n        /* \"#utility.yul\":2835:2858   */\n      mload\n        /* \"#utility.yul\":2871:2934   */\n      tag_90\n        /* \"#utility.yul\":2928:2932   */\n      0x40\n        /* \"#utility.yul\":2923:2926   */\n      dup7\n        /* \"#utility.yul\":2919:2933   */\n      add\n        /* \"#utility.yul\":2905:2917   */\n      dup3\n        /* \"#utility.yul\":2871:2934   */\n      tag_91\n      jump\t// in\n    tag_90:\n        /* \"#utility.yul\":2779:2944   */\n      pop\n        /* \"#utility.yul\":2961:2965   */\n      dup1\n        /* \"#utility.yul\":2954:2965   */\n      swap2\n      pop\n        /* \"#utility.yul\":2310:2971   */\n      pop\n        /* \"#utility.yul\":2192:2971   */\n      swap3\n      swap2\n      pop\n      pop\n      jump\t// out\n        /* \"#utility.yul\":2977:3085   */\n    tag_91:\n        /* \"#utility.yul\":3054:3078   */\n      tag_93\n        /* \"#utility.yul\":3072:3077   */\n      dup2\n        /* \"#utility.yul\":3054:3078   */\n      tag_94\n      jump\t// in\n    tag_93:\n        /* \"#utility.yul\":3049:3052   */\n      dup3\n        /* \"#utility.yul\":3042:3079   */\n      mstore\n        /* \"#utility.yul\":2977:3085   */\n      pop\n      pop\n      jump\t// out\n        /* \"#utility.yul\":3091:3510   */\n    tag_18:\n        /* \"#utility.yul\":3257:3261   */\n      0x00\n        /* \"#utility.yul\":3295:3297   */\n      0x20\n        /* \"#utility.yul\":3284:3293   */\n      dup3\n        /* \"#utility.yul\":3280:3298   */\n      add\n        /* \"#utility.yul\":3272:3298   */\n      swap1\n      pop\n        /* \"#utility.yul\":3344:3353   */\n      dup2\n        /* \"#utility.yul\":3338:3342   */\n      dup2\n        /* \"#utility.yul\":3334:3354   */\n      sub\n        /* \"#utility.yul\":3330:3331   */\n      0x00\n        /* \"#utility.yul\":3319:3328   */\n      dup4\n        /* \"#utility.yul\":3315:3332   */\n      add\n        /* \"#utility.yul\":3308:3355   */\n      mstore\n        /* \"#utility.yul\":3372:3503   */\n      tag_96\n        /* \"#utility.yul\":3498:3502   */\n      dup2\n        /* \"#utility.yul\":3372:3503   */\n      tag_80\n      jump\t// in\n    tag_96:\n        /* \"#utility.yul\":3364:3503   */\n      swap1\n      pop\n        /* \"#utility.yul\":3091:3510   */\n      swap2\n      swap1\n      pop\n      jump\t// out\n        /* \"#utility.yul\":3516:3877   */\n    tag_12:\n        /* \"#utility.yul\":3653:3657   */\n      0x00\n        /* \"#utility.yul\":3691:3693   */\n      0x20\n        /* \"#utility.yul\":3680:3689   */\n      dup3\n        /* \"#utility.yul\":3676:3694   */\n      add\n        /* \"#utility.yul\":3668:3694   */\n      swap1\n      pop\n        /* \"#utility.yul\":3740:3749   */\n      dup2\n        /* \"#utility.yul\":3734:3738   */\n      dup2\n        /* \"#utility.yul\":3730:3750   */\n      sub\n        /* \"#utility.yul\":3726:3727   */\n      0x00\n        /* \"#utility.yul\":3715:3724   */\n      dup4\n        /* \"#utility.yul\":3711:3728   */\n      add\n        /* \"#utility.yul\":3704:3751   */\n      mstore\n        /* \"#utility.yul\":3768:3870   */\n      tag_98\n        /* \"#utility.yul\":3865:3869   */\n      dup2\n        /* \"#utility.yul\":3856:3862   */\n      dup5\n        /* \"#utility.yul\":3768:3870   */\n      tag_86\n      jump\t// in\n    tag_98:\n        /* \"#utility.yul\":3760:3870   */\n      swap1\n      pop\n        /* \"#utility.yul\":3516:3877   */\n      swap3\n      swap2\n      pop\n      pop\n      jump\t// out\n        /* \"#utility.yul\":3883:4012   */\n    tag_46:\n        /* \"#utility.yul\":3917:3923   */\n      0x00\n        /* \"#utility.yul\":3944:3964   */\n      tag_100\n      tag_101\n      jump\t// in\n    tag_100:\n        /* \"#utility.yul\":3934:3964   */\n      swap1\n      pop\n        /* \"#utility.yul\":3973:4006   */\n      tag_102\n        /* \"#utility.yul\":4001:4005   */\n      dup3\n        /* \"#utility.yul\":3993:3999   */\n      dup3\n        /* \"#utility.yul\":3973:4006   */\n      tag_103\n      jump\t// in\n    tag_102:\n        /* \"#utility.yul\":3883:4012   */\n      swap2\n      swap1\n      pop\n      jump\t// out\n        /* \"#utility.yul\":4018:4093   */\n    tag_101:\n        /* \"#utility.yul\":4051:4057   */\n      0x00\n        /* \"#utility.yul\":4084:4086   */\n      0x40\n        /* \"#utility.yul\":4078:4087   */\n      mload\n        /* \"#utility.yul\":4068:4087   */\n      swap1\n      pop\n        /* \"#utility.yul\":4018:4093   */\n      swap1\n      jump\t// out\n        /* \"#utility.yul\":4099:4407   */\n    tag_45:\n        /* \"#utility.yul\":4161:4165   */\n      0x00\n        /* \"#utility.yul\":4251:4269   */\n      0xffffffffffffffff\n        /* \"#utility.yul\":4243:4249   */\n      dup3\n        /* \"#utility.yul\":4240:4270   */\n      gt\n        /* \"#utility.yul\":4237:4293   */\n      iszero\n      tag_106\n      jumpi\n        /* \"#utility.yul\":4273:4291   */\n      tag_107\n      tag_108\n      jump\t// in\n    tag_107:\n        /* \"#utility.yul\":4237:4293   */\n    tag_106:\n        /* \"#utility.yul\":4311:4340   */\n      tag_109\n        /* \"#utility.yul\":4333:4339   */\n      dup3\n        /* \"#utility.yul\":4311:4340   */\n      tag_79\n      jump\t// in\n    tag_109:\n        /* \"#utility.yul\":4303:4340   */\n      swap1\n      pop\n        /* \"#utility.yul\":4395:4399   */\n      0x20\n        /* \"#utility.yul\":4389:4393   */\n      dup2\n        /* \"#utility.yul\":4385:4400   */\n      add\n        /* \"#utility.yul\":4377:4400   */\n      swap1\n      pop\n        /* \"#utility.yul\":4099:4407   */\n      swap2\n      swap1\n      pop\n      jump\t// out\n        /* \"#utility.yul\":4413:4512   */\n    tag_73:\n        /* \"#utility.yul\":4465:4471   */\n      0x00\n        /* \"#utility.yul\":4499:4504   */\n      dup2\n        /* \"#utility.yul\":4493:4505   */\n      mload\n        /* \"#utility.yul\":4483:4505   */\n      swap1\n      pop\n        /* \"#utility.yul\":4413:4512   */\n      swap2\n      swap1\n      pop\n      jump\t// out\n        /* \"#utility.yul\":4518:4677   */\n    tag_75:\n        /* \"#utility.yul\":4592:4603   */\n      0x00\n        /* \"#utility.yul\":4626:4632   */\n      dup3\n        /* \"#utility.yul\":4621:4624   */\n      dup3\n        /* \"#utility.yul\":4614:4633   */\n      mstore\n        /* \"#utility.yul\":4666:4670   */\n      0x20\n        /* \"#utility.yul\":4661:4664   */\n      dup3\n        /* \"#utility.yul\":4657:4671   */\n      add\n        /* \"#utility.yul\":4642:4671   */\n      swap1\n      pop\n        /* \"#utility.yul\":4518:4677   */\n      swap3\n      swap2\n      pop\n      pop\n      jump\t// out\n        /* \"#utility.yul\":4683:4852   */\n    tag_83:\n        /* \"#utility.yul\":4767:4778   */\n      0x00\n        /* \"#utility.yul\":4801:4807   */\n      dup3\n        /* \"#utility.yul\":4796:4799   */\n      dup3\n        /* \"#utility.yul\":4789:4808   */\n      mstore\n        /* \"#utility.yul\":4841:4845   */\n      0x20\n        /* \"#utility.yul\":4836:4839   */\n      dup3\n        /* \"#utility.yul\":4832:4846   */\n      add\n        /* \"#utility.yul\":4817:4846   */\n      swap1\n      pop\n        /* \"#utility.yul\":4683:4852   */\n      swap3\n      swap2\n      pop\n      pop\n      jump\t// out\n        /* \"#utility.yul\":4858:5163   */\n    tag_15:\n        /* \"#utility.yul\":4898:4901   */\n      0x00\n        /* \"#utility.yul\":4917:4937   */\n      tag_114\n        /* \"#utility.yul\":4935:4936   */\n      dup3\n        /* \"#utility.yul\":4917:4937   */\n      tag_94\n      jump\t// in\n    tag_114:\n        /* \"#utility.yul\":4912:4937   */\n      swap2\n      pop\n        /* \"#utility.yul\":4951:4971   */\n      tag_115\n        /* \"#utility.yul\":4969:4970   */\n      dup4\n        /* \"#utility.yul\":4951:4971   */\n      tag_94\n      jump\t// in\n    tag_115:\n        /* \"#utility.yul\":4946:4971   */\n      swap3\n      pop\n        /* \"#utility.yul\":5105:5106   */\n      dup3\n        /* \"#utility.yul\":5037:5103   */\n      0xffffffffffffffffffffffffffffffffffffffffffffffffffffffffffffffff\n        /* \"#utility.yul\":5033:5107   */\n      sub\n        /* \"#utility.yul\":5030:5031   */\n      dup3\n        /* \"#utility.yul\":5027:5108   */\n      gt\n        /* \"#utility.yul\":5024:5131   */\n      iszero\n      tag_116\n      jumpi\n        /* \"#utility.yul\":5111:5129   */\n      tag_117\n      tag_118\n      jump\t// in\n    tag_117:\n        /* \"#utility.yul\":5024:5131   */\n    tag_116:\n        /* \"#utility.yul\":5155:5156   */\n      dup3\n        /* \"#utility.yul\":5152:5153   */\n      dup3\n        /* \"#utility.yul\":5148:5157   */\n      add\n        /* \"#utility.yul\":5141:5157   */\n      swap1\n      pop\n        /* \"#utility.yul\":4858:5163   */\n      swap3\n      swap2\n      pop\n      pop\n      jump\t// out\n        /* \"#utility.yul\":5169:5265   */\n    tag_69:\n        /* \"#utility.yul\":5206:5213   */\n      0x00\n        /* \"#utility.yul\":5235:5259   */\n      tag_120\n        /* \"#utility.yul\":5253:5258   */\n      dup3\n        /* \"#utility.yul\":5235:5259   */\n      tag_121\n      jump\t// in\n    tag_120:\n        /* \"#utility.yul\":5224:5259   */\n      swap1\n      pop\n        /* \"#utility.yul\":5169:5265   */\n      swap2\n      swap1\n      pop\n      jump\t// out\n        /* \"#utility.yul\":5271:5397   */\n    tag_121:\n        /* \"#utility.yul\":5308:5315   */\n      0x00\n        /* \"#utility.yul\":5348:5390   */\n      0xffffffffffffffffffffffffffffffffffffffff\n        /* \"#utility.yul\":5341:5346   */\n      dup3\n        /* \"#utility.yul\":5337:5391   */\n      and\n        /* \"#utility.yul\":5326:5391   */\n      swap1\n      pop\n        /* \"#utility.yul\":5271:5397   */\n      swap2\n      swap1\n      pop\n      jump\t// out\n        /* \"#utility.yul\":5403:5480   */\n    tag_94:\n        /* \"#utility.yul\":5440:5447   */\n      0x00\n        /* \"#utility.yul\":5469:5474   */\n      dup2\n        /* \"#utility.yul\":5458:5474   */\n      swap1\n      pop\n        /* \"#utility.yul\":5403:5480   */\n      swap2\n      swap1\n      pop\n      jump\t// out\n        /* \"#utility.yul\":5486:5640   */\n    tag_51:\n        /* \"#utility.yul\":5570:5576   */\n      dup3\n        /* \"#utility.yul\":5565:5568   */\n      dup2\n        /* \"#utility.yul\":5560:5563   */\n      dup4\n        /* \"#utility.yul\":5547:5577   */\n      calldatacopy\n        /* \"#utility.yul\":5632:5633   */\n      0x00\n        /* \"#utility.yul\":5623:5629   */\n      dup4\n        /* \"#utility.yul\":5618:5621   */\n      dup4\n        /* \"#utility.yul\":5614:5630   */\n      add\n        /* \"#utility.yul\":5607:5634   */\n      mstore\n        /* \"#utility.yul\":5486:5640   */\n      pop\n      pop\n      pop\n      jump\t// out\n        /* \"#utility.yul\":5646:5953   */\n    tag_77:\n        /* \"#utility.yul\":5714:5715   */\n      0x00\n        /* \"#utility.yul\":5724:5837   */\n    tag_126:\n        /* \"#utility.yul\":5738:5744   */\n      dup4\n        /* \"#utility.yul\":5735:5736   */\n      dup2\n        /* \"#utility.yul\":5732:5745   */\n      lt\n        /* \"#utility.yul\":5724:5837   */\n      iszero\n      tag_128\n      jumpi\n        /* \"#utility.yul\":5823:5824   */\n      dup1\n        /* \"#utility.yul\":5818:5821   */\n      dup3\n        /* \"#utility.yul\":5814:5825   */\n      add\n        /* \"#utility.yul\":5808:5826   */\n      mload\n        /* \"#utility.yul\":5804:5805   */\n      dup2\n        /* \"#utility.yul\":5799:5802   */\n      dup5\n        /* \"#utility.yul\":5795:5806   */\n      add\n        /* \"#utility.yul\":5788:5827   */\n      mstore\n        /* \"#utility.yul\":5760:5762   */\n      0x20\n        /* \"#utility.yul\":5757:5758   */\n      dup2\n        /* \"#utility.yul\":5753:5763   */\n      add\n        /* \"#utility.yul\":5748:5763   */\n      swap1\n      pop\n        /* \"#utility.yul\":5724:5837   */\n      jump(tag_126)\n    tag_128:\n        /* \"#utility.yul\":5855:5861   */\n      dup4\n        /* \"#utility.yul\":5852:5853   */\n      dup2\n        /* \"#utility.yul\":5849:5862   */\n      gt\n        /* \"#utility.yul\":5846:5947   */\n      iszero\n      tag_129\n      jumpi\n        /* \"#utility.yul\":5935:5936   */\n      0x00\n        /* \"#utility.yul\":5926:5932   */\n      dup5\n        /* \"#utility.yul\":5921:5924   */\n      dup5\n        /* \"#utility.yul\":5917:5933   */\n      add\n        /* \"#utility.yul\":5910:5937   */\n      mstore\n        /* \"#utility.yul\":5846:5947   */\n    tag_129:\n        /* \"#utility.yul\":5695:5953   */\n      pop\n        /* \"#utility.yul\":5646:5953   */\n      pop\n      pop\n      pop\n      jump\t// out\n        /* \"#utility.yul\":5959:6279   */\n    tag_25:\n        /* \"#utility.yul\":6003:6009   */\n      0x00\n        /* \"#utility.yul\":6040:6041   */\n      0x02\n        /* \"#utility.yul\":6034:6038   */\n      dup3\n        /* \"#utility.yul\":6030:6042   */\n      div\n        /* \"#utility.yul\":6020:6042   */\n      swap1\n      pop\n        /* \"#utility.yul\":6087:6088   */\n      0x01\n        /* \"#utility.yul\":6081:6085   */\n      dup3\n        /* \"#utility.yul\":6077:6089   */\n      and\n        /* \"#utility.yul\":6108:6126   */\n      dup1\n        /* \"#utility.yul\":6098:6179   */\n      tag_131\n      jumpi\n        /* \"#utility.yul\":6164:6168   */\n      0x7f\n        /* \"#utility.yul\":6156:6162   */\n      dup3\n        /* \"#utility.yul\":6152:6169   */\n      and\n        /* \"#utility.yul\":6142:6169   */\n      swap2\n      pop\n        /* \"#utility.yul\":6098:6179   */\n    tag_131:\n        /* \"#utility.yul\":6226:6228   */\n      0x20\n        /* \"#utility.yul\":6218:6224   */\n      dup3\n        /* \"#utility.yul\":6215:6229   */\n      lt\n        /* \"#utility.yul\":6195:6213   */\n      dup2\n        /* \"#utility.yul\":6192:6230   */\n      eq\n        /* \"#utility.yul\":6189:6273   */\n      iszero\n      tag_132\n      jumpi\n        /* \"#utility.yul\":6245:6263   */\n      tag_133\n      tag_134\n      jump\t// in\n    tag_133:\n        /* \"#utility.yul\":6189:6273   */\n    tag_132:\n        /* \"#utility.yul\":6010:6279   */\n      pop\n        /* \"#utility.yul\":5959:6279   */\n      swap2\n      swap1\n      pop\n      jump\t// out\n        /* \"#utility.yul\":6285:6566   */\n    tag_103:\n        /* \"#utility.yul\":6368:6395   */\n      tag_136\n        /* \"#utility.yul\":6390:6394   */\n      dup3\n        /* \"#utility.yul\":6368:6395   */\n      tag_79\n      jump\t// in\n    tag_136:\n        /* \"#utility.yul\":6360:6366   */\n      dup2\n        /* \"#utility.yul\":6356:6396   */\n      add\n        /* \"#utility.yul\":6498:6504   */\n      dup2\n        /* \"#utility.yul\":6486:6496   */\n      dup2\n        /* \"#utility.yul\":6483:6505   */\n      lt\n        /* \"#utility.yul\":6462:6480   */\n      0xffffffffffffffff\n        /* \"#utility.yul\":6450:6460   */\n      dup3\n        /* \"#utility.yul\":6447:6481   */\n      gt\n        /* \"#utility.yul\":6444:6506   */\n      or\n        /* \"#utility.yul\":6441:6529   */\n      iszero\n      tag_137\n      jumpi\n        /* \"#utility.yul\":6509:6527   */\n      tag_138\n      tag_108\n      jump\t// in\n    tag_138:\n        /* \"#utility.yul\":6441:6529   */\n    tag_137:\n        /* \"#utility.yul\":6549:6559   */\n      dup1\n        /* \"#utility.yul\":6545:6547   */\n      0x40\n        /* \"#utility.yul\":6538:6560   */\n      mstore\n        /* \"#utility.yul\":6328:6566   */\n      pop\n        /* \"#utility.yul\":6285:6566   */\n      pop\n      pop\n      jump\t// out\n        /* \"#utility.yul\":6572:6752   */\n    tag_118:\n        /* \"#utility.yul\":6620:6697   */\n      0x4e487b7100000000000000000000000000000000000000000000000000000000\n        /* \"#utility.yul\":6617:6618   */\n      0x00\n        /* \"#utility.yul\":6610:6698   */\n      mstore\n        /* \"#utility.yul\":6717:6721   */\n      0x11\n        /* \"#utility.yul\":6714:6715   */\n      0x04\n        /* \"#utility.yul\":6707:6722   */\n      mstore\n        /* \"#utility.yul\":6741:6745   */\n      0x24\n        /* \"#utility.yul\":6738:6739   */\n      0x00\n        /* \"#utility.yul\":6731:6746   */\n      revert\n        /* \"#utility.yul\":6758:6938   */\n    tag_134:\n        /* \"#utility.yul\":6806:6883   */\n      0x4e487b7100000000000000000000000000000000000000000000000000000000\n        /* \"#utility.yul\":6803:6804   */\n      0x00\n        /* \"#utility.yul\":6796:6884   */\n      mstore\n        /* \"#utility.yul\":6903:6907   */\n      0x22\n        /* \"#utility.yul\":6900:6901   */\n      0x04\n        /* \"#utility.yul\":6893:6908   */\n      mstore\n        /* \"#utility.yul\":6927:6931   */\n      0x24\n        /* \"#utility.yul\":6924:6925   */\n      0x00\n        /* \"#utility.yul\":6917:6932   */\n      revert\n        /* \"#utility.yul\":6944:7124   */\n    tag_108:\n        /* \"#utility.yul\":6992:7069   */\n      0x4e487b7100000000000000000000000000000000000000000000000000000000\n        /* \"#utility.yul\":6989:6990   */\n      0x00\n        /* \"#utility.yul\":6982:7070   */\n      mstore\n        /* \"#utility.yul\":7089:7093   */\n      0x41\n        /* \"#utility.yul\":7086:7087   */\n      0x04\n        /* \"#utility.yul\":7079:7094   */\n      mstore\n        /* \"#utility.yul\":7113:7117   */\n      0x24\n        /* \"#utility.yul\":7110:7111   */\n      0x00\n        /* \"#utility.yul\":7103:7118   */\n      revert\n        /* \"#utility.yul\":7130:7247   */\n    tag_56:\n        /* \"#utility.yul\":7239:7240   */\n      0x00\n        /* \"#utility.yul\":7236:7237   */\n      dup1\n        /* \"#utility.yul\":7229:7241   */\n      revert\n        /* \"#utility.yul\":7253:7370   */\n    tag_49:\n        /* \"#utility.yul\":7362:7363   */\n      0x00\n        /* \"#utility.yul\":7359:7360   */\n      dup1\n        /* \"#utility.yul\":7352:7364   */\n      revert\n        /* \"#utility.yul\":7376:7493   */\n    tag_64:\n        /* \"#utility.yul\":7485:7486   */\n      0x00\n        /* \"#utility.yul\":7482:7483   */\n      dup1\n        /* \"#utility.yul\":7475:7487   */\n      revert\n        /* \"#utility.yul\":7499:7616   */\n    tag_61:\n        /* \"#utility.yul\":7608:7609   */\n      0x00\n        /* \"#utility.yul\":7605:7606   */\n      dup1\n        /* \"#utility.yul\":7598:7610   */\n      revert\n        /* \"#utility.yul\":7622:7724   */\n    tag_79:\n        /* \"#utility.yul\":7663:7669   */\n      0x00\n        /* \"#utility.yul\":7714:7716   */\n      0x1f\n        /* \"#utility.yul\":7710:7717   */\n      not\n        /* \"#utility.yul\":7705:7707   */\n      0x1f\n        /* \"#utility.yul\":7698:7703   */\n      dup4\n        /* \"#utility.yul\":7694:7708   */\n      add\n        /* \"#utility.yul\":7690:7718   */\n      and\n        /* \"#utility.yul\":7680:7718   */\n      swap1\n      pop\n        /* \"#utility.yul\":7622:7724   */\n      swap2\n      swap1\n      pop\n      jump\t// out\n        /* \"#utility.yul\":7730:7956   */\n    tag_85:\n        /* \"#utility.yul\":7870:7904   */\n      0x536f6c6f20707565646520677561726461722031206d656e73616a6520706f72\n        /* \"#utility.yul\":7866:7867   */\n      0x00\n        /* \"#utility.yul\":7858:7864   */\n      dup3\n        /* \"#utility.yul\":7854:7868   */\n      add\n        /* \"#utility.yul\":7847:7905   */\n      mstore\n        /* \"#utility.yul\":7939:7948   */\n      0x206d696e75746f00000000000000000000000000000000000000000000000000\n        /* \"#utility.yul\":7934:7936   */\n      0x20\n        /* \"#utility.yul\":7926:7932   */\n      dup3\n        /* \"#utility.yul\":7922:7937   */\n      add\n        /* \"#utility.yul\":7915:7949   */\n      mstore\n        /* \"#utility.yul\":7730:7956   */\n      pop\n      jump\t// out\n\n    auxdata: 0xa2646970667358221220ec7b018ed56d38f14a70ec75a7007520877e5028c0d67c0dedba06546352c6c264736f6c63430008070033\n}\n",
				"bytecode": {
					"linkReferences": {},
					"object": "608060405234801561001057600080fd5b506107ce806100206000396000f3fe608060405234801561001057600080fd5b50600436106100365760003560e01c8063376d99971461003b578063c4f90a6b14610057575b600080fd5b61005560048036038101906100509190610388565b610075565b005b61005f610132565b60405161006c91906104bb565b60405180910390f35b42603c6000600201546100889190610560565b116100c8576040517f08c379a00000000000000000000000000000000000000000000000000000000081526004016100bf9061049b565b60405180910390fd5b336000800160006101000a81548173ffffffffffffffffffffffffffffffffffffffff021916908373ffffffffffffffffffffffffffffffffffffffff160217905550806000600101908051906020019061012492919061023e565b504260006002018190555050565b61013a6102c4565b60006040518060600160405290816000820160009054906101000a900473ffffffffffffffffffffffffffffffffffffffff1673ffffffffffffffffffffffffffffffffffffffff1673ffffffffffffffffffffffffffffffffffffffff1681526020016001820180546101ad90610634565b80601f01602080910402602001604051908101604052809291908181526020018280546101d990610634565b80156102265780601f106101fb57610100808354040283529160200191610226565b820191906000526020600020905b81548152906001019060200180831161020957829003601f168201915b50505050508152602001600282015481525050905090565b82805461024a90610634565b90600052602060002090601f01602090048101928261026c57600085556102b3565b82601f1061028557805160ff19168380011785556102b3565b828001600101855582156102b3579182015b828111156102b2578251825591602001919060010190610297565b5b5090506102c091906102fb565b5090565b6040518060600160405280600073ffffffffffffffffffffffffffffffffffffffff16815260200160608152602001600081525090565b5b808211156103145760008160009055506001016102fc565b5090565b600061032b61032684610502565b6104dd565b90508281526020810184848401111561034757610346610729565b5b6103528482856105f2565b509392505050565b600082601f83011261036f5761036e610724565b5b813561037f848260208601610318565b91505092915050565b60006020828403121561039e5761039d610733565b5b600082013567ffffffffffffffff8111156103bc576103bb61072e565b5b6103c88482850161035a565b91505092915050565b6103da816105b6565b82525050565b60006103eb82610533565b6103f5818561053e565b9350610405818560208601610601565b61040e81610738565b840191505092915050565b600061042660278361054f565b915061043182610749565b604082019050919050565b600060608301600083015161045460008601826103d1565b506020830151848203602086015261046c82826103e0565b9150506040830151610481604086018261048c565b508091505092915050565b610495816105e8565b82525050565b600060208201905081810360008301526104b481610419565b9050919050565b600060208201905081810360008301526104d5818461043c565b905092915050565b60006104e76104f8565b90506104f38282610666565b919050565b6000604051905090565b600067ffffffffffffffff82111561051d5761051c6106f5565b5b61052682610738565b9050602081019050919050565b600081519050919050565b600082825260208201905092915050565b600082825260208201905092915050565b600061056b826105e8565b9150610576836105e8565b9250827fffffffffffffffffffffffffffffffffffffffffffffffffffffffffffffffff038211156105ab576105aa610697565b5b828201905092915050565b60006105c1826105c8565b9050919050565b600073ffffffffffffffffffffffffffffffffffffffff82169050919050565b6000819050919050565b82818337600083830152505050565b60005b8381101561061f578082015181840152602081019050610604565b8381111561062e576000848401525b50505050565b6000600282049050600182168061064c57607f821691505b602082108114156106605761065f6106c6565b5b50919050565b61066f82610738565b810181811067ffffffffffffffff8211171561068e5761068d6106f5565b5b80604052505050565b7f4e487b7100000000000000000000000000000000000000000000000000000000600052601160045260246000fd5b7f4e487b7100000000000000000000000000000000000000000000000000000000600052602260045260246000fd5b7f4e487b7100000000000000000000000000000000000000000000000000000000600052604160045260246000fd5b600080fd5b600080fd5b600080fd5b600080fd5b6000601f19601f8301169050919050565b7f536f6c6f20707565646520677561726461722031206d656e73616a6520706f7260008201527f206d696e75746f0000000000000000000000000000000000000000000000000060208201525056fea2646970667358221220ec7b018ed56d38f14a70ec75a7007520877e5028c0d67c0dedba06546352c6c264736f6c63430008070033",
					"opcodes": "PUSH1 0x80 PUSH1 0x40 MSTORE CALLVALUE DUP1 ISZERO PUSH2 0x10 JUMPI PUSH1 0x0 DUP1 REVERT JUMPDEST POP PUSH2 0x7CE DUP1 PUSH2 0x20 PUSH1 0x0 CODECOPY PUSH1 0x0 RETURN INVALID PUSH1 0x80 PUSH1 0x40 MSTORE CALLVALUE DUP1 ISZERO PUSH2 0x10 JUMPI PUSH1 0x0 DUP1 REVERT JUMPDEST POP PUSH1 0x4 CALLDATASIZE LT PUSH2 0x36 JUMPI PUSH1 0x0 CALLDATALOAD PUSH1 0xE0 SHR DUP1 PUSH4 0x376D9997 EQ PUSH2 0x3B JUMPI DUP1 PUSH4 0xC4F90A6B EQ PUSH2 0x57 JUMPI JUMPDEST PUSH1 0x0 DUP1 REVERT JUMPDEST PUSH2 0x55 PUSH1 0x4 DUP1 CALLDATASIZE SUB DUP2 ADD SWAP1 PUSH2 0x50 SWAP2 SWAP1 PUSH2 0x388 JUMP JUMPDEST PUSH2 0x75 JUMP JUMPDEST STOP JUMPDEST PUSH2 0x5F PUSH2 0x132 JUMP JUMPDEST PUSH1 0x40 MLOAD PUSH2 0x6C SWAP2 SWAP1 PUSH2 0x4BB JUMP JUMPDEST PUSH1 0x40 MLOAD DUP1 SWAP2 SUB SWAP1 RETURN JUMPDEST TIMESTAMP PUSH1 0x3C PUSH1 0x0 PUSH1 0x2 ADD SLOAD PUSH2 0x88 SWAP2 SWAP1 PUSH2 0x560 JUMP JUMPDEST GT PUSH2 0xC8 JUMPI PUSH1 0x40 MLOAD PUSH32 0x8C379A000000000000000000000000000000000000000000000000000000000 DUP2 MSTORE PUSH1 0x4 ADD PUSH2 0xBF SWAP1 PUSH2 0x49B JUMP JUMPDEST PUSH1 0x40 MLOAD DUP1 SWAP2 SUB SWAP1 REVERT JUMPDEST CALLER PUSH1 0x0 DUP1 ADD PUSH1 0x0 PUSH2 0x100 EXP DUP2 SLOAD DUP2 PUSH20 0xFFFFFFFFFFFFFFFFFFFFFFFFFFFFFFFFFFFFFFFF MUL NOT AND SWAP1 DUP4 PUSH20 0xFFFFFFFFFFFFFFFFFFFFFFFFFFFFFFFFFFFFFFFF AND MUL OR SWAP1 SSTORE POP DUP1 PUSH1 0x0 PUSH1 0x1 ADD SWAP1 DUP1 MLOAD SWAP1 PUSH1 0x20 ADD SWAP1 PUSH2 0x124 SWAP3 SWAP2 SWAP1 PUSH2 0x23E JUMP JUMPDEST POP TIMESTAMP PUSH1 0x0 PUSH1 0x2 ADD DUP2 SWAP1 SSTORE POP POP JUMP JUMPDEST PUSH2 0x13A PUSH2 0x2C4 JUMP JUMPDEST PUSH1 0x0 PUSH1 0x40 MLOAD DUP1 PUSH1 0x60 ADD PUSH1 0x40 MSTORE SWAP1 DUP2 PUSH1 0x0 DUP3 ADD PUSH1 0x0 SWAP1 SLOAD SWAP1 PUSH2 0x100 EXP SWAP1 DIV PUSH20 0xFFFFFFFFFFFFFFFFFFFFFFFFFFFFFFFFFFFFFFFF AND PUSH20 0xFFFFFFFFFFFFFFFFFFFFFFFFFFFFFFFFFFFFFFFF AND PUSH20 0xFFFFFFFFFFFFFFFFFFFFFFFFFFFFFFFFFFFFFFFF AND DUP2 MSTORE PUSH1 0x20 ADD PUSH1 0x1 DUP3 ADD DUP1 SLOAD PUSH2 0x1AD SWAP1 PUSH2 0x634 JUMP JUMPDEST DUP1 PUSH1 0x1F ADD PUSH1 0x20 DUP1 SWAP2 DIV MUL PUSH1 0x20 ADD PUSH1 0x40 MLOAD SWAP1 DUP2 ADD PUSH1 0x40 MSTORE DUP1 SWAP3 SWAP2 SWAP1 DUP2 DUP2 MSTORE PUSH1 0x20 ADD DUP3 DUP1 SLOAD PUSH2 0x1D9 SWAP1 PUSH2 0x634 JUMP JUMPDEST DUP1 ISZERO PUSH2 0x226 JUMPI DUP1 PUSH1 0x1F LT PUSH2 0x1FB JUMPI PUSH2 0x100 DUP1 DUP4 SLOAD DIV MUL DUP4 MSTORE SWAP2 PUSH1 0x20 ADD SWAP2 PUSH2 0x226 JUMP JUMPDEST DUP3 ADD SWAP2 SWAP1 PUSH1 0x0 MSTORE PUSH1 0x20 PUSH1 0x0 KECCAK256 SWAP1 JUMPDEST DUP2 SLOAD DUP2 MSTORE SWAP1 PUSH1 0x1 ADD SWAP1 PUSH1 0x20 ADD DUP1 DUP4 GT PUSH2 0x209 JUMPI DUP3 SWAP1 SUB PUSH1 0x1F AND DUP3 ADD SWAP2 JUMPDEST POP POP POP POP POP DUP2 MSTORE PUSH1 0x20 ADD PUSH1 0x2 DUP3 ADD SLOAD DUP2 MSTORE POP POP SWAP1 POP SWAP1 JUMP JUMPDEST DUP3 DUP1 SLOAD PUSH2 0x24A SWAP1 PUSH2 0x634 JUMP JUMPDEST SWAP1 PUSH1 0x0 MSTORE PUSH1 0x20 PUSH1 0x0 KECCAK256 SWAP1 PUSH1 0x1F ADD PUSH1 0x20 SWAP1 DIV DUP2 ADD SWAP3 DUP3 PUSH2 0x26C JUMPI PUSH1 0x0 DUP6 SSTORE PUSH2 0x2B3 JUMP JUMPDEST DUP3 PUSH1 0x1F LT PUSH2 0x285 JUMPI DUP1 MLOAD PUSH1 0xFF NOT AND DUP4 DUP1 ADD OR DUP6 SSTORE PUSH2 0x2B3 JUMP JUMPDEST DUP3 DUP1 ADD PUSH1 0x1 ADD DUP6 SSTORE DUP3 ISZERO PUSH2 0x2B3 JUMPI SWAP2 DUP3 ADD JUMPDEST DUP3 DUP2 GT ISZERO PUSH2 0x2B2 JUMPI DUP3 MLOAD DUP3 SSTORE SWAP2 PUSH1 0x20 ADD SWAP2 SWAP1 PUSH1 0x1 ADD SWAP1 PUSH2 0x297 JUMP JUMPDEST JUMPDEST POP SWAP1 POP PUSH2 0x2C0 SWAP2 SWAP1 PUSH2 0x2FB JUMP JUMPDEST POP SWAP1 JUMP JUMPDEST PUSH1 0x40 MLOAD DUP1 PUSH1 0x60 ADD PUSH1 0x40 MSTORE DUP1 PUSH1 0x0 PUSH20 0xFFFFFFFFFFFFFFFFFFFFFFFFFFFFFFFFFFFFFFFF AND DUP2 MSTORE PUSH1 0x20 ADD PUSH1 0x60 DUP2 MSTORE PUSH1 0x20 ADD PUSH1 0x0 DUP2 MSTORE POP SWAP1 JUMP JUMPDEST JUMPDEST DUP1 DUP3 GT ISZERO PUSH2 0x314 JUMPI PUSH1 0x0 DUP2 PUSH1 0x0 SWAP1 SSTORE POP PUSH1 0x1 ADD PUSH2 0x2FC JUMP JUMPDEST POP SWAP1 JUMP JUMPDEST PUSH1 0x0 PUSH2 0x32B PUSH2 0x326 DUP5 PUSH2 0x502 JUMP JUMPDEST PUSH2 0x4DD JUMP JUMPDEST SWAP1 POP DUP3 DUP2 MSTORE PUSH1 0x20 DUP2 ADD DUP5 DUP5 DUP5 ADD GT ISZERO PUSH2 0x347 JUMPI PUSH2 0x346 PUSH2 0x729 JUMP JUMPDEST JUMPDEST PUSH2 0x352 DUP5 DUP3 DUP6 PUSH2 0x5F2 JUMP JUMPDEST POP SWAP4 SWAP3 POP POP POP JUMP JUMPDEST PUSH1 0x0 DUP3 PUSH1 0x1F DUP4 ADD SLT PUSH2 0x36F JUMPI PUSH2 0x36E PUSH2 0x724 JUMP JUMPDEST JUMPDEST DUP2 CALLDATALOAD PUSH2 0x37F DUP5 DUP3 PUSH1 0x20 DUP7 ADD PUSH2 0x318 JUMP JUMPDEST SWAP2 POP POP SWAP3 SWAP2 POP POP JUMP JUMPDEST PUSH1 0x0 PUSH1 0x20 DUP3 DUP5 SUB SLT ISZERO PUSH2 0x39E JUMPI PUSH2 0x39D PUSH2 0x733 JUMP JUMPDEST JUMPDEST PUSH1 0x0 DUP3 ADD CALLDATALOAD PUSH8 0xFFFFFFFFFFFFFFFF DUP2 GT ISZERO PUSH2 0x3BC JUMPI PUSH2 0x3BB PUSH2 0x72E JUMP JUMPDEST JUMPDEST PUSH2 0x3C8 DUP5 DUP3 DUP6 ADD PUSH2 0x35A JUMP JUMPDEST SWAP2 POP POP SWAP3 SWAP2 POP POP JUMP JUMPDEST PUSH2 0x3DA DUP2 PUSH2 0x5B6 JUMP JUMPDEST DUP3 MSTORE POP POP JUMP JUMPDEST PUSH1 0x0 PUSH2 0x3EB DUP3 PUSH2 0x533 JUMP JUMPDEST PUSH2 0x3F5 DUP2 DUP6 PUSH2 0x53E JUMP JUMPDEST SWAP4 POP PUSH2 0x405 DUP2 DUP6 PUSH1 0x20 DUP7 ADD PUSH2 0x601 JUMP JUMPDEST PUSH2 0x40E DUP2 PUSH2 0x738 JUMP JUMPDEST DUP5 ADD SWAP2 POP POP SWAP3 SWAP2 POP POP JUMP JUMPDEST PUSH1 0x0 PUSH2 0x426 PUSH1 0x27 DUP4 PUSH2 0x54F JUMP JUMPDEST SWAP2 POP PUSH2 0x431 DUP3 PUSH2 0x749 JUMP JUMPDEST PUSH1 0x40 DUP3 ADD SWAP1 POP SWAP2 SWAP1 POP JUMP JUMPDEST PUSH1 0x0 PUSH1 0x60 DUP4 ADD PUSH1 0x0 DUP4 ADD MLOAD PUSH2 0x454 PUSH1 0x0 DUP7 ADD DUP3 PUSH2 0x3D1 JUMP JUMPDEST POP PUSH1 0x20 DUP4 ADD MLOAD DUP5 DUP3 SUB PUSH1 0x20 DUP7 ADD MSTORE PUSH2 0x46C DUP3 DUP3 PUSH2 0x3E0 JUMP JUMPDEST SWAP2 POP POP PUSH1 0x40 DUP4 ADD MLOAD PUSH2 0x481 PUSH1 0x40 DUP7 ADD DUP3 PUSH2 0x48C JUMP JUMPDEST POP DUP1 SWAP2 POP POP SWAP3 SWAP2 POP POP JUMP JUMPDEST PUSH2 0x495 DUP2 PUSH2 0x5E8 JUMP JUMPDEST DUP3 MSTORE POP POP JUMP JUMPDEST PUSH1 0x0 PUSH1 0x20 DUP3 ADD SWAP1 POP DUP2 DUP2 SUB PUSH1 0x0 DUP4 ADD MSTORE PUSH2 0x4B4 DUP2 PUSH2 0x419 JUMP JUMPDEST SWAP1 POP SWAP2 SWAP1 POP JUMP JUMPDEST PUSH1 0x0 PUSH1 0x20 DUP3 ADD SWAP1 POP DUP2 DUP2 SUB PUSH1 0x0 DUP4 ADD MSTORE PUSH2 0x4D5 DUP2 DUP5 PUSH2 0x43C JUMP JUMPDEST SWAP1 POP SWAP3 SWAP2 POP POP JUMP JUMPDEST PUSH1 0x0 PUSH2 0x4E7 PUSH2 0x4F8 JUMP JUMPDEST SWAP1 POP PUSH2 0x4F3 DUP3 DUP3 PUSH2 0x666 JUMP JUMPDEST SWAP2 SWAP1 POP JUMP JUMPDEST PUSH1 0x0 PUSH1 0x40 MLOAD SWAP1 POP SWAP1 JUMP JUMPDEST PUSH1 0x0 PUSH8 0xFFFFFFFFFFFFFFFF DUP3 GT ISZERO PUSH2 0x51D JUMPI PUSH2 0x51C PUSH2 0x6F5 JUMP JUMPDEST JUMPDEST PUSH2 0x526 DUP3 PUSH2 0x738 JUMP JUMPDEST SWAP1 POP PUSH1 0x20 DUP2 ADD SWAP1 POP SWAP2 SWAP1 POP JUMP JUMPDEST PUSH1 0x0 DUP2 MLOAD SWAP1 POP SWAP2 SWAP1 POP JUMP JUMPDEST PUSH1 0x0 DUP3 DUP3 MSTORE PUSH1 0x20 DUP3 ADD SWAP1 POP SWAP3 SWAP2 POP POP JUMP JUMPDEST PUSH1 0x0 DUP3 DUP3 MSTORE PUSH1 0x20 DUP3 ADD SWAP1 POP SWAP3 SWAP2 POP POP JUMP JUMPDEST PUSH1 0x0 PUSH2 0x56B DUP3 PUSH2 0x5E8 JUMP JUMPDEST SWAP2 POP PUSH2 0x576 DUP4 PUSH2 0x5E8 JUMP JUMPDEST SWAP3 POP DUP3 PUSH32 0xFFFFFFFFFFFFFFFFFFFFFFFFFFFFFFFFFFFFFFFFFFFFFFFFFFFFFFFFFFFFFFFF SUB DUP3 GT ISZERO PUSH2 0x5AB JUMPI PUSH2 0x5AA PUSH2 0x697 JUMP JUMPDEST JUMPDEST DUP3 DUP3 ADD SWAP1 POP SWAP3 SWAP2 POP POP JUMP JUMPDEST PUSH1 0x0 PUSH2 0x5C1 DUP3 PUSH2 0x5C8 JUMP JUMPDEST SWAP1 POP SWAP2 SWAP1 POP JUMP JUMPDEST PUSH1 0x0 PUSH20 0xFFFFFFFFFFFFFFFFFFFFFFFFFFFFFFFFFFFFFFFF DUP3 AND SWAP1 POP SWAP2 SWAP1 POP JUMP JUMPDEST PUSH1 0x0 DUP2 SWAP1 POP SWAP2 SWAP1 POP JUMP JUMPDEST DUP3 DUP2 DUP4 CALLDATACOPY PUSH1 0x0 DUP4 DUP4 ADD MSTORE POP POP POP JUMP JUMPDEST PUSH1 0x0 JUMPDEST DUP4 DUP2 LT ISZERO PUSH2 0x61F JUMPI DUP1 DUP3 ADD MLOAD DUP2 DUP5 ADD MSTORE PUSH1 0x20 DUP2 ADD SWAP1 POP PUSH2 0x604 JUMP JUMPDEST DUP4 DUP2 GT ISZERO PUSH2 0x62E JUMPI PUSH1 0x0 DUP5 DUP5 ADD MSTORE JUMPDEST POP POP POP POP JUMP JUMPDEST PUSH1 0x0 PUSH1 0x2 DUP3 DIV SWAP1 POP PUSH1 0x1 DUP3 AND DUP1 PUSH2 0x64C JUMPI PUSH1 0x7F DUP3 AND SWAP2 POP JUMPDEST PUSH1 0x20 DUP3 LT DUP2 EQ ISZERO PUSH2 0x660 JUMPI PUSH2 0x65F PUSH2 0x6C6 JUMP JUMPDEST JUMPDEST POP SWAP2 SWAP1 POP JUMP JUMPDEST PUSH2 0x66F DUP3 PUSH2 0x738 JUMP JUMPDEST DUP2 ADD DUP2 DUP2 LT PUSH8 0xFFFFFFFFFFFFFFFF DUP3 GT OR ISZERO PUSH2 0x68E JUMPI PUSH2 0x68D PUSH2 0x6F5 JUMP JUMPDEST JUMPDEST DUP1 PUSH1 0x40 MSTORE POP POP POP JUMP JUMPDEST PUSH32 0x4E487B7100000000000000000000000000000000000000000000000000000000 PUSH1 0x0 MSTORE PUSH1 0x11 PUSH1 0x4 MSTORE PUSH1 0x24 PUSH1 0x0 REVERT JUMPDEST PUSH32 0x4E487B7100000000000000000000000000000000000000000000000000000000 PUSH1 0x0 MSTORE PUSH1 0x22 PUSH1 0x4 MSTORE PUSH1 0x24 PUSH1 0x0 REVERT JUMPDEST PUSH32 0x4E487B7100000000000000000000000000000000000000000000000000000000 PUSH1 0x0 MSTORE PUSH1 0x41 PUSH1 0x4 MSTORE PUSH1 0x24 PUSH1 0x0 REVERT JUMPDEST PUSH1 0x0 DUP1 REVERT JUMPDEST PUSH1 0x0 DUP1 REVERT JUMPDEST PUSH1 0x0 DUP1 REVERT JUMPDEST PUSH1 0x0 DUP1 REVERT JUMPDEST PUSH1 0x0 PUSH1 0x1F NOT PUSH1 0x1F DUP4 ADD AND SWAP1 POP SWAP2 SWAP1 POP JUMP JUMPDEST PUSH32 0x536F6C6F20707565646520677561726461722031206D656E73616A6520706F72 PUSH1 0x0 DUP3 ADD MSTORE PUSH32 0x206D696E75746F00000000000000000000000000000000000000000000000000 PUSH1 0x20 DUP3 ADD MSTORE POP JUMP INVALID LOG2 PUSH5 0x6970667358 0x22 SLT KECCAK256 0xEC PUSH28 0x18ED56D38F14A70EC75A7007520877E5028C0D67C0DEDBA06546352 0xC6 0xC2 PUSH5 0x736F6C6343 STOP ADDMOD SMOD STOP CALLER "
				},
				"gasEstimates": {
					"creation": {
						"codeDepositCost": "399600",
						"executionCost": "436",
						"totalCost": "400036"
					},
					"external": {
						"guardarMensaje(string)": "infinite",
						"verMensajeGuardado()": "infinite"
					}
				},
				"methodIdentifiers": {
					"guardarMensaje(string)": "376d9997",
					"verMensajeGuardado()": "c4f90a6b"
				}
			},
			"storageLayout": {
				"storage": [
					{
						"astId": 11,
						"contract": "contracts/7_Grafiti_por_minuto.sol:Grafiti",
						"label": "ultimoMensaje",
						"offset": 0,
						"slot": "0",
						"type": "t_struct(Mensaje)8_storage"
					}
				],
				"types": {
					"t_address": {
						"encoding": "inplace",
						"label": "address",
						"numberOfBytes": "20"
					},
					"t_string_storage": {
						"encoding": "bytes",
						"label": "string",
						"numberOfBytes": "32"
					},
					"t_struct(Mensaje)8_storage": {
						"encoding": "inplace",
						"label": "struct Grafiti.Mensaje",
						"members": [
							{
								"astId": 3,
								"contract": "contracts/7_Grafiti_por_minuto.sol:Grafiti",
								"label": "autor",
								"offset": 0,
								"slot": "0",
								"type": "t_address"
							},
							{
								"astId": 5,
								"contract": "contracts/7_Grafiti_por_minuto.sol:Grafiti",
								"label": "mensaje",
								"offset": 0,
								"slot": "1",
								"type": "t_string_storage"
							},
							{
								"astId": 7,
								"contract": "contracts/7_Grafiti_por_minuto.sol:Grafiti",
								"label": "fecha",
								"offset": 0,
								"slot": "2",
								"type": "t_uint256"
							}
						],
						"numberOfBytes": "96"
					},
					"t_uint256": {
						"encoding": "inplace",
						"label": "uint256",
						"numberOfBytes": "32"
					}
				}
			},
			"userdoc": {
				"kind": "user",
				"methods": {},
				"version": 1
			}
		}
	}
}