{
	"contracts/12_LlamadorFiguras.sol": {
		"LlamadorFiguras": {
			"abi": [
				{
					"inputs": [
						{
							"internalType": "address",
							"name": "contrato",
							"type": "address"
						}
					],
					"name": "verPerimetroContrato",
					"outputs": [
						{
							"internalType": "uint256",
							"name": "",
							"type": "uint256"
						}
					],
					"stateMutability": "nonpayable",
					"type": "function"
				}
			],
			"devdoc": {
				"kind": "dev",
				"methods": {},
				"version": 1
			},
			"evm": {
				"assembly": "    /* \"contracts/12_LlamadorFiguras.sol\":111:312  contract LlamadorFiguras {\r... */\n  mstore(0x40, 0x80)\n  callvalue\n  dup1\n  iszero\n  tag_1\n  jumpi\n  0x00\n  dup1\n  revert\ntag_1:\n  pop\n  dataSize(sub_0)\n  dup1\n  dataOffset(sub_0)\n  0x00\n  codecopy\n  0x00\n  return\nstop\n\nsub_0: assembly {\n        /* \"contracts/12_LlamadorFiguras.sol\":111:312  contract LlamadorFiguras {\r... */\n      mstore(0x40, 0x80)\n      callvalue\n      dup1\n      iszero\n      tag_1\n      jumpi\n      0x00\n      dup1\n      revert\n    tag_1:\n      pop\n      jumpi(tag_2, lt(calldatasize, 0x04))\n      shr(0xe0, calldataload(0x00))\n      dup1\n      0x787d3953\n      eq\n      tag_3\n      jumpi\n    tag_2:\n      0x00\n      dup1\n      revert\n        /* \"contracts/12_LlamadorFiguras.sol\":145:309  function verPerimetroContrato(address contrato) external returns (uint) {\r... */\n    tag_3:\n      tag_4\n      0x04\n      dup1\n      calldatasize\n      sub\n      dup2\n      add\n      swap1\n      tag_5\n      swap2\n      swap1\n      tag_6\n      jump\t// in\n    tag_5:\n      tag_7\n      jump\t// in\n    tag_4:\n      mload(0x40)\n      tag_8\n      swap2\n      swap1\n      tag_9\n      jump\t// in\n    tag_8:\n      mload(0x40)\n      dup1\n      swap2\n      sub\n      swap1\n      return\n    tag_7:\n        /* \"contracts/12_LlamadorFiguras.sol\":211:215  uint */\n      0x00\n        /* \"contracts/12_LlamadorFiguras.sol\":228:242  IFigura figura */\n      dup1\n        /* \"contracts/12_LlamadorFiguras.sol\":253:261  contrato */\n      dup3\n        /* \"contracts/12_LlamadorFiguras.sol\":228:262  IFigura figura = IFigura(contrato) */\n      swap1\n      pop\n        /* \"contracts/12_LlamadorFiguras.sol\":280:286  figura */\n      dup1\n        /* \"contracts/12_LlamadorFiguras.sol\":280:299  figura.verPerimetro */\n      0xffffffffffffffffffffffffffffffffffffffff\n      and\n      0x1acf3363\n        /* \"contracts/12_LlamadorFiguras.sol\":280:301  figura.verPerimetro() */\n      mload(0x40)\n      dup2\n      0xffffffff\n      and\n      0xe0\n      shl\n      dup2\n      mstore\n      0x04\n      add\n      0x20\n      mload(0x40)\n      dup1\n      dup4\n      sub\n      dup2\n      0x00\n      dup8\n      dup1\n      extcodesize\n      iszero\n      dup1\n      iszero\n      tag_11\n      jumpi\n      0x00\n      dup1\n      revert\n    tag_11:\n      pop\n      gas\n      call\n      iszero\n      dup1\n      iszero\n      tag_13\n      jumpi\n      returndatasize\n      0x00\n      dup1\n      returndatacopy\n      revert(0x00, returndatasize)\n    tag_13:\n      pop\n      pop\n      pop\n      pop\n      mload(0x40)\n      returndatasize\n      not(0x1f)\n      0x1f\n      dup3\n      add\n      and\n      dup3\n      add\n      dup1\n      0x40\n      mstore\n      pop\n      dup2\n      add\n      swap1\n      tag_14\n      swap2\n      swap1\n      tag_15\n      jump\t// in\n    tag_14:\n        /* \"contracts/12_LlamadorFiguras.sol\":273:301  return figura.verPerimetro() */\n      swap2\n      pop\n      pop\n        /* \"contracts/12_LlamadorFiguras.sol\":145:309  function verPerimetroContrato(address contrato) external returns (uint) {\r... */\n      swap2\n      swap1\n      pop\n      jump\t// out\n        /* \"#utility.yul\":7:146   */\n    tag_17:\n        /* \"#utility.yul\":53:58   */\n      0x00\n        /* \"#utility.yul\":91:97   */\n      dup2\n        /* \"#utility.yul\":78:98   */\n      calldataload\n        /* \"#utility.yul\":69:98   */\n      swap1\n      pop\n        /* \"#utility.yul\":107:140   */\n      tag_19\n        /* \"#utility.yul\":134:139   */\n      dup2\n        /* \"#utility.yul\":107:140   */\n      tag_20\n      jump\t// in\n    tag_19:\n        /* \"#utility.yul\":7:146   */\n      swap3\n      swap2\n      pop\n      pop\n      jump\t// out\n        /* \"#utility.yul\":152:295   */\n    tag_21:\n        /* \"#utility.yul\":209:214   */\n      0x00\n        /* \"#utility.yul\":240:246   */\n      dup2\n        /* \"#utility.yul\":234:247   */\n      mload\n        /* \"#utility.yul\":225:247   */\n      swap1\n      pop\n        /* \"#utility.yul\":256:289   */\n      tag_23\n        /* \"#utility.yul\":283:288   */\n      dup2\n        /* \"#utility.yul\":256:289   */\n      tag_24\n      jump\t// in\n    tag_23:\n        /* \"#utility.yul\":152:295   */\n      swap3\n      swap2\n      pop\n      pop\n      jump\t// out\n        /* \"#utility.yul\":301:630   */\n    tag_6:\n        /* \"#utility.yul\":360:366   */\n      0x00\n        /* \"#utility.yul\":409:411   */\n      0x20\n        /* \"#utility.yul\":397:406   */\n      dup3\n        /* \"#utility.yul\":388:395   */\n      dup5\n        /* \"#utility.yul\":384:407   */\n      sub\n        /* \"#utility.yul\":380:412   */\n      slt\n        /* \"#utility.yul\":377:496   */\n      iszero\n      tag_26\n      jumpi\n        /* \"#utility.yul\":415:494   */\n      tag_27\n      tag_28\n      jump\t// in\n    tag_27:\n        /* \"#utility.yul\":377:496   */\n    tag_26:\n        /* \"#utility.yul\":535:536   */\n      0x00\n        /* \"#utility.yul\":560:613   */\n      tag_29\n        /* \"#utility.yul\":605:612   */\n      dup5\n        /* \"#utility.yul\":596:602   */\n      dup3\n        /* \"#utility.yul\":585:594   */\n      dup6\n        /* \"#utility.yul\":581:603   */\n      add\n        /* \"#utility.yul\":560:613   */\n      tag_17\n      jump\t// in\n    tag_29:\n        /* \"#utility.yul\":550:613   */\n      swap2\n      pop\n        /* \"#utility.yul\":506:623   */\n      pop\n        /* \"#utility.yul\":301:630   */\n      swap3\n      swap2\n      pop\n      pop\n      jump\t// out\n        /* \"#utility.yul\":636:987   */\n    tag_15:\n        /* \"#utility.yul\":706:712   */\n      0x00\n        /* \"#utility.yul\":755:757   */\n      0x20\n        /* \"#utility.yul\":743:752   */\n      dup3\n        /* \"#utility.yul\":734:741   */\n      dup5\n        /* \"#utility.yul\":730:753   */\n      sub\n        /* \"#utility.yul\":726:758   */\n      slt\n        /* \"#utility.yul\":723:842   */\n      iszero\n      tag_31\n      jumpi\n        /* \"#utility.yul\":761:840   */\n      tag_32\n      tag_28\n      jump\t// in\n    tag_32:\n        /* \"#utility.yul\":723:842   */\n    tag_31:\n        /* \"#utility.yul\":881:882   */\n      0x00\n        /* \"#utility.yul\":906:970   */\n      tag_33\n        /* \"#utility.yul\":962:969   */\n      dup5\n        /* \"#utility.yul\":953:959   */\n      dup3\n        /* \"#utility.yul\":942:951   */\n      dup6\n        /* \"#utility.yul\":938:960   */\n      add\n        /* \"#utility.yul\":906:970   */\n      tag_21\n      jump\t// in\n    tag_33:\n        /* \"#utility.yul\":896:970   */\n      swap2\n      pop\n        /* \"#utility.yul\":852:980   */\n      pop\n        /* \"#utility.yul\":636:987   */\n      swap3\n      swap2\n      pop\n      pop\n      jump\t// out\n        /* \"#utility.yul\":993:1111   */\n    tag_34:\n        /* \"#utility.yul\":1080:1104   */\n      tag_36\n        /* \"#utility.yul\":1098:1103   */\n      dup2\n        /* \"#utility.yul\":1080:1104   */\n      tag_37\n      jump\t// in\n    tag_36:\n        /* \"#utility.yul\":1075:1078   */\n      dup3\n        /* \"#utility.yul\":1068:1105   */\n      mstore\n        /* \"#utility.yul\":993:1111   */\n      pop\n      pop\n      jump\t// out\n        /* \"#utility.yul\":1117:1339   */\n    tag_9:\n        /* \"#utility.yul\":1210:1214   */\n      0x00\n        /* \"#utility.yul\":1248:1250   */\n      0x20\n        /* \"#utility.yul\":1237:1246   */\n      dup3\n        /* \"#utility.yul\":1233:1251   */\n      add\n        /* \"#utility.yul\":1225:1251   */\n      swap1\n      pop\n        /* \"#utility.yul\":1261:1332   */\n      tag_39\n        /* \"#utility.yul\":1329:1330   */\n      0x00\n        /* \"#utility.yul\":1318:1327   */\n      dup4\n        /* \"#utility.yul\":1314:1331   */\n      add\n        /* \"#utility.yul\":1305:1311   */\n      dup5\n        /* \"#utility.yul\":1261:1332   */\n      tag_34\n      jump\t// in\n    tag_39:\n        /* \"#utility.yul\":1117:1339   */\n      swap3\n      swap2\n      pop\n      pop\n      jump\t// out\n        /* \"#utility.yul\":1426:1522   */\n    tag_42:\n        /* \"#utility.yul\":1463:1470   */\n      0x00\n        /* \"#utility.yul\":1492:1516   */\n      tag_44\n        /* \"#utility.yul\":1510:1515   */\n      dup3\n        /* \"#utility.yul\":1492:1516   */\n      tag_45\n      jump\t// in\n    tag_44:\n        /* \"#utility.yul\":1481:1516   */\n      swap1\n      pop\n        /* \"#utility.yul\":1426:1522   */\n      swap2\n      swap1\n      pop\n      jump\t// out\n        /* \"#utility.yul\":1528:1654   */\n    tag_45:\n        /* \"#utility.yul\":1565:1572   */\n      0x00\n        /* \"#utility.yul\":1605:1647   */\n      0xffffffffffffffffffffffffffffffffffffffff\n        /* \"#utility.yul\":1598:1603   */\n      dup3\n        /* \"#utility.yul\":1594:1648   */\n      and\n        /* \"#utility.yul\":1583:1648   */\n      swap1\n      pop\n        /* \"#utility.yul\":1528:1654   */\n      swap2\n      swap1\n      pop\n      jump\t// out\n        /* \"#utility.yul\":1660:1737   */\n    tag_37:\n        /* \"#utility.yul\":1697:1704   */\n      0x00\n        /* \"#utility.yul\":1726:1731   */\n      dup2\n        /* \"#utility.yul\":1715:1731   */\n      swap1\n      pop\n        /* \"#utility.yul\":1660:1737   */\n      swap2\n      swap1\n      pop\n      jump\t// out\n        /* \"#utility.yul\":1866:1983   */\n    tag_28:\n        /* \"#utility.yul\":1975:1976   */\n      0x00\n        /* \"#utility.yul\":1972:1973   */\n      dup1\n        /* \"#utility.yul\":1965:1977   */\n      revert\n        /* \"#utility.yul\":1989:2111   */\n    tag_20:\n        /* \"#utility.yul\":2062:2086   */\n      tag_52\n        /* \"#utility.yul\":2080:2085   */\n      dup2\n        /* \"#utility.yul\":2062:2086   */\n      tag_42\n      jump\t// in\n    tag_52:\n        /* \"#utility.yul\":2055:2060   */\n      dup2\n        /* \"#utility.yul\":2052:2087   */\n      eq\n        /* \"#utility.yul\":2042:2105   */\n      tag_53\n      jumpi\n        /* \"#utility.yul\":2101:2102   */\n      0x00\n        /* \"#utility.yul\":2098:2099   */\n      dup1\n        /* \"#utility.yul\":2091:2103   */\n      revert\n        /* \"#utility.yul\":2042:2105   */\n    tag_53:\n        /* \"#utility.yul\":1989:2111   */\n      pop\n      jump\t// out\n        /* \"#utility.yul\":2117:2239   */\n    tag_24:\n        /* \"#utility.yul\":2190:2214   */\n      tag_55\n        /* \"#utility.yul\":2208:2213   */\n      dup2\n        /* \"#utility.yul\":2190:2214   */\n      tag_37\n      jump\t// in\n    tag_55:\n        /* \"#utility.yul\":2183:2188   */\n      dup2\n        /* \"#utility.yul\":2180:2215   */\n      eq\n        /* \"#utility.yul\":2170:2233   */\n      tag_56\n      jumpi\n        /* \"#utility.yul\":2229:2230   */\n      0x00\n        /* \"#utility.yul\":2226:2227   */\n      dup1\n        /* \"#utility.yul\":2219:2231   */\n      revert\n        /* \"#utility.yul\":2170:2233   */\n    tag_56:\n        /* \"#utility.yul\":2117:2239   */\n      pop\n      jump\t// out\n\n    auxdata: 0xa2646970667358221220b9f39485bab74683b5ca32b61f4bde19812e4431c3e585ab260d1e2aa1c6586964736f6c63430008070033\n}\n",
				"bytecode": {
					"linkReferences": {},
					"object": "608060405234801561001057600080fd5b50610241806100206000396000f3fe608060405234801561001057600080fd5b506004361061002b5760003560e01c8063787d395314610030575b600080fd5b61004a60048036038101906100459190610118565b610060565b6040516100579190610181565b60405180910390f35b6000808290508073ffffffffffffffffffffffffffffffffffffffff16631acf33636040518163ffffffff1660e01b8152600401602060405180830381600087803b1580156100ae57600080fd5b505af11580156100c2573d6000803e3d6000fd5b505050506040513d601f19601f820116820180604052508101906100e69190610145565b915050919050565b6000813590506100fd816101dd565b92915050565b600081519050610112816101f4565b92915050565b60006020828403121561012e5761012d6101d8565b5b600061013c848285016100ee565b91505092915050565b60006020828403121561015b5761015a6101d8565b5b600061016984828501610103565b91505092915050565b61017b816101ce565b82525050565b60006020820190506101966000830184610172565b92915050565b60006101a7826101ae565b9050919050565b600073ffffffffffffffffffffffffffffffffffffffff82169050919050565b6000819050919050565b600080fd5b6101e68161019c565b81146101f157600080fd5b50565b6101fd816101ce565b811461020857600080fd5b5056fea2646970667358221220b9f39485bab74683b5ca32b61f4bde19812e4431c3e585ab260d1e2aa1c6586964736f6c63430008070033",
					"opcodes": "PUSH1 0x80 PUSH1 0x40 MSTORE CALLVALUE DUP1 ISZERO PUSH2 0x10 JUMPI PUSH1 0x0 DUP1 REVERT JUMPDEST POP PUSH2 0x241 DUP1 PUSH2 0x20 PUSH1 0x0 CODECOPY PUSH1 0x0 RETURN INVALID PUSH1 0x80 PUSH1 0x40 MSTORE CALLVALUE DUP1 ISZERO PUSH2 0x10 JUMPI PUSH1 0x0 DUP1 REVERT JUMPDEST POP PUSH1 0x4 CALLDATASIZE LT PUSH2 0x2B JUMPI PUSH1 0x0 CALLDATALOAD PUSH1 0xE0 SHR DUP1 PUSH4 0x787D3953 EQ PUSH2 0x30 JUMPI JUMPDEST PUSH1 0x0 DUP1 REVERT JUMPDEST PUSH2 0x4A PUSH1 0x4 DUP1 CALLDATASIZE SUB DUP2 ADD SWAP1 PUSH2 0x45 SWAP2 SWAP1 PUSH2 0x118 JUMP JUMPDEST PUSH2 0x60 JUMP JUMPDEST PUSH1 0x40 MLOAD PUSH2 0x57 SWAP2 SWAP1 PUSH2 0x181 JUMP JUMPDEST PUSH1 0x40 MLOAD DUP1 SWAP2 SUB SWAP1 RETURN JUMPDEST PUSH1 0x0 DUP1 DUP3 SWAP1 POP DUP1 PUSH20 0xFFFFFFFFFFFFFFFFFFFFFFFFFFFFFFFFFFFFFFFF AND PUSH4 0x1ACF3363 PUSH1 0x40 MLOAD DUP2 PUSH4 0xFFFFFFFF AND PUSH1 0xE0 SHL DUP2 MSTORE PUSH1 0x4 ADD PUSH1 0x20 PUSH1 0x40 MLOAD DUP1 DUP4 SUB DUP2 PUSH1 0x0 DUP8 DUP1 EXTCODESIZE ISZERO DUP1 ISZERO PUSH2 0xAE JUMPI PUSH1 0x0 DUP1 REVERT JUMPDEST POP GAS CALL ISZERO DUP1 ISZERO PUSH2 0xC2 JUMPI RETURNDATASIZE PUSH1 0x0 DUP1 RETURNDATACOPY RETURNDATASIZE PUSH1 0x0 REVERT JUMPDEST POP POP POP POP PUSH1 0x40 MLOAD RETURNDATASIZE PUSH1 0x1F NOT PUSH1 0x1F DUP3 ADD AND DUP3 ADD DUP1 PUSH1 0x40 MSTORE POP DUP2 ADD SWAP1 PUSH2 0xE6 SWAP2 SWAP1 PUSH2 0x145 JUMP JUMPDEST SWAP2 POP POP SWAP2 SWAP1 POP JUMP JUMPDEST PUSH1 0x0 DUP2 CALLDATALOAD SWAP1 POP PUSH2 0xFD DUP2 PUSH2 0x1DD JUMP JUMPDEST SWAP3 SWAP2 POP POP JUMP JUMPDEST PUSH1 0x0 DUP2 MLOAD SWAP1 POP PUSH2 0x112 DUP2 PUSH2 0x1F4 JUMP JUMPDEST SWAP3 SWAP2 POP POP JUMP JUMPDEST PUSH1 0x0 PUSH1 0x20 DUP3 DUP5 SUB SLT ISZERO PUSH2 0x12E JUMPI PUSH2 0x12D PUSH2 0x1D8 JUMP JUMPDEST JUMPDEST PUSH1 0x0 PUSH2 0x13C DUP5 DUP3 DUP6 ADD PUSH2 0xEE JUMP JUMPDEST SWAP2 POP POP SWAP3 SWAP2 POP POP JUMP JUMPDEST PUSH1 0x0 PUSH1 0x20 DUP3 DUP5 SUB SLT ISZERO PUSH2 0x15B JUMPI PUSH2 0x15A PUSH2 0x1D8 JUMP JUMPDEST JUMPDEST PUSH1 0x0 PUSH2 0x169 DUP5 DUP3 DUP6 ADD PUSH2 0x103 JUMP JUMPDEST SWAP2 POP POP SWAP3 SWAP2 POP POP JUMP JUMPDEST PUSH2 0x17B DUP2 PUSH2 0x1CE JUMP JUMPDEST DUP3 MSTORE POP POP JUMP JUMPDEST PUSH1 0x0 PUSH1 0x20 DUP3 ADD SWAP1 POP PUSH2 0x196 PUSH1 0x0 DUP4 ADD DUP5 PUSH2 0x172 JUMP JUMPDEST SWAP3 SWAP2 POP POP JUMP JUMPDEST PUSH1 0x0 PUSH2 0x1A7 DUP3 PUSH2 0x1AE JUMP JUMPDEST SWAP1 POP SWAP2 SWAP1 POP JUMP JUMPDEST PUSH1 0x0 PUSH20 0xFFFFFFFFFFFFFFFFFFFFFFFFFFFFFFFFFFFFFFFF DUP3 AND SWAP1 POP SWAP2 SWAP1 POP JUMP JUMPDEST PUSH1 0x0 DUP2 SWAP1 POP SWAP2 SWAP1 POP JUMP JUMPDEST PUSH1 0x0 DUP1 REVERT JUMPDEST PUSH2 0x1E6 DUP2 PUSH2 0x19C JUMP JUMPDEST DUP2 EQ PUSH2 0x1F1 JUMPI PUSH1 0x0 DUP1 REVERT JUMPDEST POP JUMP JUMPDEST PUSH2 0x1FD DUP2 PUSH2 0x1CE JUMP JUMPDEST DUP2 EQ PUSH2 0x208 JUMPI PUSH1 0x0 DUP1 REVERT JUMPDEST POP JUMP INVALID LOG2 PUSH5 0x6970667358 0x22 SLT KECCAK256 0xB9 RETURN SWAP5 DUP6 0xBA 0xB7 CHAINID DUP4 0xB5 0xCA ORIGIN 0xB6 0x1F 0x4B 0xDE NOT DUP2 0x2E DIFFICULTY BALANCE 0xC3 0xE5 DUP6 0xAB 0x26 0xD 0x1E 0x2A LOG1 0xC6 PC PUSH10 0x64736F6C634300080700 CALLER "
				},
				"gasEstimates": {
					"creation": {
						"codeDepositCost": "115400",
						"executionCost": "165",
						"totalCost": "115565"
					},
					"external": {
						"verPerimetroContrato(address)": "infinite"
					}
				},
				"methodIdentifiers": {
					"verPerimetroContrato(address)": "787d3953"
				}
			},
			"storageLayout": {
				"storage": [],
				"types": null
			},
			"userdoc": {
				"kind": "user",
				"methods": {},
				"version": 1
			}
		}
	}
}