{
	"contracts/5_Desafio.sol": {
		"Desafio": {
			"abi": [
				{
					"inputs": [
						{
							"internalType": "uint256",
							"name": "num",
							"type": "uint256"
						}
					],
					"name": "guardar",
					"outputs": [],
					"stateMutability": "nonpayable",
					"type": "function"
				},
				{
					"inputs": [],
					"name": "leer",
					"outputs": [
						{
							"internalType": "uint256",
							"name": "",
							"type": "uint256"
						},
						{
							"internalType": "uint256",
							"name": "",
							"type": "uint256"
						}
					],
					"stateMutability": "view",
					"type": "function"
				}
			],
			"devdoc": {
				"kind": "dev",
				"methods": {},
				"version": 1
			},
			"evm": {
				"assembly": "    /* \"contracts/5_Desafio.sol\":74:368  contract Desafio {\r... */\n  mstore(0x40, 0x80)\n  callvalue\n  dup1\n  iszero\n  tag_1\n  jumpi\n  0x00\n  dup1\n  revert\ntag_1:\n  pop\n  dataSize(sub_0)\n  dup1\n  dataOffset(sub_0)\n  0x00\n  codecopy\n  0x00\n  return\nstop\n\nsub_0: assembly {\n        /* \"contracts/5_Desafio.sol\":74:368  contract Desafio {\r... */\n      mstore(0x40, 0x80)\n      callvalue\n      dup1\n      iszero\n      tag_1\n      jumpi\n      0x00\n      dup1\n      revert\n    tag_1:\n      pop\n      jumpi(tag_2, lt(calldatasize, 0x04))\n      shr(0xe0, calldataload(0x00))\n      dup1\n      0x1667434f\n      eq\n      tag_3\n      jumpi\n      dup1\n      0xb38f9adf\n      eq\n      tag_4\n      jumpi\n    tag_2:\n      0x00\n      dup1\n      revert\n        /* \"contracts/5_Desafio.sol\":148:256  function guardar(uint num) public {\r... */\n    tag_3:\n      tag_5\n      0x04\n      dup1\n      calldatasize\n      sub\n      dup2\n      add\n      swap1\n      tag_6\n      swap2\n      swap1\n      tag_7\n      jump\t// in\n    tag_6:\n      tag_8\n      jump\t// in\n    tag_5:\n      stop\n        /* \"contracts/5_Desafio.sol\":264:365  function leer() public view returns (uint, uint) {\r... */\n    tag_4:\n      tag_9\n      tag_10\n      jump\t// in\n    tag_9:\n      mload(0x40)\n      tag_11\n      swap3\n      swap2\n      swap1\n      tag_12\n      jump\t// in\n    tag_11:\n      mload(0x40)\n      dup1\n      swap2\n      sub\n      swap1\n      return\n        /* \"contracts/5_Desafio.sol\":148:256  function guardar(uint num) public {\r... */\n    tag_8:\n        /* \"contracts/5_Desafio.sol\":208:211  num */\n      dup1\n        /* \"contracts/5_Desafio.sol\":193:205  ultimoNumero */\n      0x00\n        /* \"contracts/5_Desafio.sol\":193:211  ultimoNumero = num */\n      dup2\n      swap1\n      sstore\n      pop\n        /* \"contracts/5_Desafio.sol\":236:248  ultimoNumero */\n      sload(0x00)\n        /* \"contracts/5_Desafio.sol\":222:232  acumulador */\n      0x01\n      0x00\n        /* \"contracts/5_Desafio.sol\":222:248  acumulador += ultimoNumero */\n      dup3\n      dup3\n      sload\n      tag_14\n      swap2\n      swap1\n      tag_15\n      jump\t// in\n    tag_14:\n      swap3\n      pop\n      pop\n      dup2\n      swap1\n      sstore\n      pop\n        /* \"contracts/5_Desafio.sol\":148:256  function guardar(uint num) public {\r... */\n      pop\n      jump\t// out\n        /* \"contracts/5_Desafio.sol\":264:365  function leer() public view returns (uint, uint) {\r... */\n    tag_10:\n        /* \"contracts/5_Desafio.sol\":301:305  uint */\n      0x00\n        /* \"contracts/5_Desafio.sol\":307:311  uint */\n      dup1\n        /* \"contracts/5_Desafio.sol\":332:342  acumulador */\n      sload(0x01)\n        /* \"contracts/5_Desafio.sol\":344:356  ultimoNumero */\n      sload(0x00)\n        /* \"contracts/5_Desafio.sol\":324:357  return (acumulador, ultimoNumero) */\n      swap2\n      pop\n      swap2\n      pop\n        /* \"contracts/5_Desafio.sol\":264:365  function leer() public view returns (uint, uint) {\r... */\n      swap1\n      swap2\n      jump\t// out\n        /* \"#utility.yul\":7:146   */\n    tag_18:\n        /* \"#utility.yul\":53:58   */\n      0x00\n        /* \"#utility.yul\":91:97   */\n      dup2\n        /* \"#utility.yul\":78:98   */\n      calldataload\n        /* \"#utility.yul\":69:98   */\n      swap1\n      pop\n        /* \"#utility.yul\":107:140   */\n      tag_20\n        /* \"#utility.yul\":134:139   */\n      dup2\n        /* \"#utility.yul\":107:140   */\n      tag_21\n      jump\t// in\n    tag_20:\n        /* \"#utility.yul\":7:146   */\n      swap3\n      swap2\n      pop\n      pop\n      jump\t// out\n        /* \"#utility.yul\":152:481   */\n    tag_7:\n        /* \"#utility.yul\":211:217   */\n      0x00\n        /* \"#utility.yul\":260:262   */\n      0x20\n        /* \"#utility.yul\":248:257   */\n      dup3\n        /* \"#utility.yul\":239:246   */\n      dup5\n        /* \"#utility.yul\":235:258   */\n      sub\n        /* \"#utility.yul\":231:263   */\n      slt\n        /* \"#utility.yul\":228:347   */\n      iszero\n      tag_23\n      jumpi\n        /* \"#utility.yul\":266:345   */\n      tag_24\n      tag_25\n      jump\t// in\n    tag_24:\n        /* \"#utility.yul\":228:347   */\n    tag_23:\n        /* \"#utility.yul\":386:387   */\n      0x00\n        /* \"#utility.yul\":411:464   */\n      tag_26\n        /* \"#utility.yul\":456:463   */\n      dup5\n        /* \"#utility.yul\":447:453   */\n      dup3\n        /* \"#utility.yul\":436:445   */\n      dup6\n        /* \"#utility.yul\":432:454   */\n      add\n        /* \"#utility.yul\":411:464   */\n      tag_18\n      jump\t// in\n    tag_26:\n        /* \"#utility.yul\":401:464   */\n      swap2\n      pop\n        /* \"#utility.yul\":357:474   */\n      pop\n        /* \"#utility.yul\":152:481   */\n      swap3\n      swap2\n      pop\n      pop\n      jump\t// out\n        /* \"#utility.yul\":487:605   */\n    tag_27:\n        /* \"#utility.yul\":574:598   */\n      tag_29\n        /* \"#utility.yul\":592:597   */\n      dup2\n        /* \"#utility.yul\":574:598   */\n      tag_30\n      jump\t// in\n    tag_29:\n        /* \"#utility.yul\":569:572   */\n      dup3\n        /* \"#utility.yul\":562:599   */\n      mstore\n        /* \"#utility.yul\":487:605   */\n      pop\n      pop\n      jump\t// out\n        /* \"#utility.yul\":611:943   */\n    tag_12:\n        /* \"#utility.yul\":732:736   */\n      0x00\n        /* \"#utility.yul\":770:772   */\n      0x40\n        /* \"#utility.yul\":759:768   */\n      dup3\n        /* \"#utility.yul\":755:773   */\n      add\n        /* \"#utility.yul\":747:773   */\n      swap1\n      pop\n        /* \"#utility.yul\":783:854   */\n      tag_32\n        /* \"#utility.yul\":851:852   */\n      0x00\n        /* \"#utility.yul\":840:849   */\n      dup4\n        /* \"#utility.yul\":836:853   */\n      add\n        /* \"#utility.yul\":827:833   */\n      dup6\n        /* \"#utility.yul\":783:854   */\n      tag_27\n      jump\t// in\n    tag_32:\n        /* \"#utility.yul\":864:936   */\n      tag_33\n        /* \"#utility.yul\":932:934   */\n      0x20\n        /* \"#utility.yul\":921:930   */\n      dup4\n        /* \"#utility.yul\":917:935   */\n      add\n        /* \"#utility.yul\":908:914   */\n      dup5\n        /* \"#utility.yul\":864:936   */\n      tag_27\n      jump\t// in\n    tag_33:\n        /* \"#utility.yul\":611:943   */\n      swap4\n      swap3\n      pop\n      pop\n      pop\n      jump\t// out\n        /* \"#utility.yul\":1030:1335   */\n    tag_15:\n        /* \"#utility.yul\":1070:1073   */\n      0x00\n        /* \"#utility.yul\":1089:1109   */\n      tag_37\n        /* \"#utility.yul\":1107:1108   */\n      dup3\n        /* \"#utility.yul\":1089:1109   */\n      tag_30\n      jump\t// in\n    tag_37:\n        /* \"#utility.yul\":1084:1109   */\n      swap2\n      pop\n        /* \"#utility.yul\":1123:1143   */\n      tag_38\n        /* \"#utility.yul\":1141:1142   */\n      dup4\n        /* \"#utility.yul\":1123:1143   */\n      tag_30\n      jump\t// in\n    tag_38:\n        /* \"#utility.yul\":1118:1143   */\n      swap3\n      pop\n        /* \"#utility.yul\":1277:1278   */\n      dup3\n        /* \"#utility.yul\":1209:1275   */\n      0xffffffffffffffffffffffffffffffffffffffffffffffffffffffffffffffff\n        /* \"#utility.yul\":1205:1279   */\n      sub\n        /* \"#utility.yul\":1202:1203   */\n      dup3\n        /* \"#utility.yul\":1199:1280   */\n      gt\n        /* \"#utility.yul\":1196:1303   */\n      iszero\n      tag_39\n      jumpi\n        /* \"#utility.yul\":1283:1301   */\n      tag_40\n      tag_41\n      jump\t// in\n    tag_40:\n        /* \"#utility.yul\":1196:1303   */\n    tag_39:\n        /* \"#utility.yul\":1327:1328   */\n      dup3\n        /* \"#utility.yul\":1324:1325   */\n      dup3\n        /* \"#utility.yul\":1320:1329   */\n      add\n        /* \"#utility.yul\":1313:1329   */\n      swap1\n      pop\n        /* \"#utility.yul\":1030:1335   */\n      swap3\n      swap2\n      pop\n      pop\n      jump\t// out\n        /* \"#utility.yul\":1341:1418   */\n    tag_30:\n        /* \"#utility.yul\":1378:1385   */\n      0x00\n        /* \"#utility.yul\":1407:1412   */\n      dup2\n        /* \"#utility.yul\":1396:1412   */\n      swap1\n      pop\n        /* \"#utility.yul\":1341:1418   */\n      swap2\n      swap1\n      pop\n      jump\t// out\n        /* \"#utility.yul\":1424:1604   */\n    tag_41:\n        /* \"#utility.yul\":1472:1549   */\n      0x4e487b7100000000000000000000000000000000000000000000000000000000\n        /* \"#utility.yul\":1469:1470   */\n      0x00\n        /* \"#utility.yul\":1462:1550   */\n      mstore\n        /* \"#utility.yul\":1569:1573   */\n      0x11\n        /* \"#utility.yul\":1566:1567   */\n      0x04\n        /* \"#utility.yul\":1559:1574   */\n      mstore\n        /* \"#utility.yul\":1593:1597   */\n      0x24\n        /* \"#utility.yul\":1590:1591   */\n      0x00\n        /* \"#utility.yul\":1583:1598   */\n      revert\n        /* \"#utility.yul\":1733:1850   */\n    tag_25:\n        /* \"#utility.yul\":1842:1843   */\n      0x00\n        /* \"#utility.yul\":1839:1840   */\n      dup1\n        /* \"#utility.yul\":1832:1844   */\n      revert\n        /* \"#utility.yul\":1856:1978   */\n    tag_21:\n        /* \"#utility.yul\":1929:1953   */\n      tag_48\n        /* \"#utility.yul\":1947:1952   */\n      dup2\n        /* \"#utility.yul\":1929:1953   */\n      tag_30\n      jump\t// in\n    tag_48:\n        /* \"#utility.yul\":1922:1927   */\n      dup2\n        /* \"#utility.yul\":1919:1954   */\n      eq\n        /* \"#utility.yul\":1909:1972   */\n      tag_49\n      jumpi\n        /* \"#utility.yul\":1968:1969   */\n      0x00\n        /* \"#utility.yul\":1965:1966   */\n      dup1\n        /* \"#utility.yul\":1958:1970   */\n      revert\n        /* \"#utility.yul\":1909:1972   */\n    tag_49:\n        /* \"#utility.yul\":1856:1978   */\n      pop\n      jump\t// out\n\n    auxdata: 0xa2646970667358221220f4521fa13dbaf09b2ac502af51c77a379834285babed2920066759549ce1e0d864736f6c63430008070033\n}\n",
				"bytecode": {
					"linkReferences": {},
					"object": "608060405234801561001057600080fd5b50610207806100206000396000f3fe608060405234801561001057600080fd5b50600436106100365760003560e01c80631667434f1461003b578063b38f9adf14610057575b600080fd5b610055600480360381019061005091906100c1565b610076565b005b61005f61009b565b60405161006d9291906100fd565b60405180910390f35b80600081905550600054600160008282546100919190610126565b9250508190555050565b600080600154600054915091509091565b6000813590506100bb816101ba565b92915050565b6000602082840312156100d7576100d66101b5565b5b60006100e5848285016100ac565b91505092915050565b6100f78161017c565b82525050565b600060408201905061011260008301856100ee565b61011f60208301846100ee565b9392505050565b60006101318261017c565b915061013c8361017c565b9250827fffffffffffffffffffffffffffffffffffffffffffffffffffffffffffffffff0382111561017157610170610186565b5b828201905092915050565b6000819050919050565b7f4e487b7100000000000000000000000000000000000000000000000000000000600052601160045260246000fd5b600080fd5b6101c38161017c565b81146101ce57600080fd5b5056fea2646970667358221220f4521fa13dbaf09b2ac502af51c77a379834285babed2920066759549ce1e0d864736f6c63430008070033",
					"opcodes": "PUSH1 0x80 PUSH1 0x40 MSTORE CALLVALUE DUP1 ISZERO PUSH2 0x10 JUMPI PUSH1 0x0 DUP1 REVERT JUMPDEST POP PUSH2 0x207 DUP1 PUSH2 0x20 PUSH1 0x0 CODECOPY PUSH1 0x0 RETURN INVALID PUSH1 0x80 PUSH1 0x40 MSTORE CALLVALUE DUP1 ISZERO PUSH2 0x10 JUMPI PUSH1 0x0 DUP1 REVERT JUMPDEST POP PUSH1 0x4 CALLDATASIZE LT PUSH2 0x36 JUMPI PUSH1 0x0 CALLDATALOAD PUSH1 0xE0 SHR DUP1 PUSH4 0x1667434F EQ PUSH2 0x3B JUMPI DUP1 PUSH4 0xB38F9ADF EQ PUSH2 0x57 JUMPI JUMPDEST PUSH1 0x0 DUP1 REVERT JUMPDEST PUSH2 0x55 PUSH1 0x4 DUP1 CALLDATASIZE SUB DUP2 ADD SWAP1 PUSH2 0x50 SWAP2 SWAP1 PUSH2 0xC1 JUMP JUMPDEST PUSH2 0x76 JUMP JUMPDEST STOP JUMPDEST PUSH2 0x5F PUSH2 0x9B JUMP JUMPDEST PUSH1 0x40 MLOAD PUSH2 0x6D SWAP3 SWAP2 SWAP1 PUSH2 0xFD JUMP JUMPDEST PUSH1 0x40 MLOAD DUP1 SWAP2 SUB SWAP1 RETURN JUMPDEST DUP1 PUSH1 0x0 DUP2 SWAP1 SSTORE POP PUSH1 0x0 SLOAD PUSH1 0x1 PUSH1 0x0 DUP3 DUP3 SLOAD PUSH2 0x91 SWAP2 SWAP1 PUSH2 0x126 JUMP JUMPDEST SWAP3 POP POP DUP2 SWAP1 SSTORE POP POP JUMP JUMPDEST PUSH1 0x0 DUP1 PUSH1 0x1 SLOAD PUSH1 0x0 SLOAD SWAP2 POP SWAP2 POP SWAP1 SWAP2 JUMP JUMPDEST PUSH1 0x0 DUP2 CALLDATALOAD SWAP1 POP PUSH2 0xBB DUP2 PUSH2 0x1BA JUMP JUMPDEST SWAP3 SWAP2 POP POP JUMP JUMPDEST PUSH1 0x0 PUSH1 0x20 DUP3 DUP5 SUB SLT ISZERO PUSH2 0xD7 JUMPI PUSH2 0xD6 PUSH2 0x1B5 JUMP JUMPDEST JUMPDEST PUSH1 0x0 PUSH2 0xE5 DUP5 DUP3 DUP6 ADD PUSH2 0xAC JUMP JUMPDEST SWAP2 POP POP SWAP3 SWAP2 POP POP JUMP JUMPDEST PUSH2 0xF7 DUP2 PUSH2 0x17C JUMP JUMPDEST DUP3 MSTORE POP POP JUMP JUMPDEST PUSH1 0x0 PUSH1 0x40 DUP3 ADD SWAP1 POP PUSH2 0x112 PUSH1 0x0 DUP4 ADD DUP6 PUSH2 0xEE JUMP JUMPDEST PUSH2 0x11F PUSH1 0x20 DUP4 ADD DUP5 PUSH2 0xEE JUMP JUMPDEST SWAP4 SWAP3 POP POP POP JUMP JUMPDEST PUSH1 0x0 PUSH2 0x131 DUP3 PUSH2 0x17C JUMP JUMPDEST SWAP2 POP PUSH2 0x13C DUP4 PUSH2 0x17C JUMP JUMPDEST SWAP3 POP DUP3 PUSH32 0xFFFFFFFFFFFFFFFFFFFFFFFFFFFFFFFFFFFFFFFFFFFFFFFFFFFFFFFFFFFFFFFF SUB DUP3 GT ISZERO PUSH2 0x171 JUMPI PUSH2 0x170 PUSH2 0x186 JUMP JUMPDEST JUMPDEST DUP3 DUP3 ADD SWAP1 POP SWAP3 SWAP2 POP POP JUMP JUMPDEST PUSH1 0x0 DUP2 SWAP1 POP SWAP2 SWAP1 POP JUMP JUMPDEST PUSH32 0x4E487B7100000000000000000000000000000000000000000000000000000000 PUSH1 0x0 MSTORE PUSH1 0x11 PUSH1 0x4 MSTORE PUSH1 0x24 PUSH1 0x0 REVERT JUMPDEST PUSH1 0x0 DUP1 REVERT JUMPDEST PUSH2 0x1C3 DUP2 PUSH2 0x17C JUMP JUMPDEST DUP2 EQ PUSH2 0x1CE JUMPI PUSH1 0x0 DUP1 REVERT JUMPDEST POP JUMP INVALID LOG2 PUSH5 0x6970667358 0x22 SLT KECCAK256 DELEGATECALL MSTORE 0x1F LOG1 RETURNDATASIZE 0xBA CREATE SWAP12 0x2A 0xC5 MUL 0xAF MLOAD 0xC7 PUSH27 0x379834285BABED2920066759549CE1E0D864736F6C634300080700 CALLER "
				},
				"gasEstimates": {
					"creation": {
						"codeDepositCost": "103800",
						"executionCost": "153",
						"totalCost": "103953"
					},
					"external": {
						"guardar(uint256)": "infinite",
						"leer()": "infinite"
					}
				},
				"methodIdentifiers": {
					"guardar(uint256)": "1667434f",
					"leer()": "b38f9adf"
				}
			},
			"storageLayout": {
				"storage": [
					{
						"astId": 3,
						"contract": "contracts/5_Desafio.sol:Desafio",
						"label": "ultimoNumero",
						"offset": 0,
						"slot": "0",
						"type": "t_uint256"
					},
					{
						"astId": 5,
						"contract": "contracts/5_Desafio.sol:Desafio",
						"label": "acumulador",
						"offset": 0,
						"slot": "1",
						"type": "t_uint256"
					}
				],
				"types": {
					"t_uint256": {
						"encoding": "inplace",
						"label": "uint256",
						"numberOfBytes": "32"
					}
				}
			},
			"userdoc": {
				"kind": "user",
				"methods": {},
				"version": 1
			}
		}
	}
}