{
	"contracts/7_Grafiti_por_minuto.sol": {
		"Grafiti": {
			"abi": [
				{
					"inputs": [
						{
							"internalType": "string",
							"name": "mensajeParaGuardar",
							"type": "string"
						}
					],
					"name": "guardarMensaje",
					"outputs": [],
					"stateMutability": "nonpayable",
					"type": "function"
				},
				{
					"inputs": [],
					"name": "verMensajeGuardado",
					"outputs": [
						{
							"components": [
								{
									"internalType": "address",
									"name": "autor",
									"type": "address"
								},
								{
									"internalType": "string",
									"name": "mensaje",
									"type": "string"
								},
								{
									"internalType": "uint256",
									"name": "fecha",
									"type": "uint256"
								}
							],
							"internalType": "struct Grafiti.Mensaje",
							"name": "",
							"type": "tuple"
						}
					],
					"stateMutability": "view",
					"type": "function"
				}
			],
			"devdoc": {
				"kind": "dev",
				"methods": {},
				"version": 1
			},
			"evm": {
				"assembly": "    /* \"contracts/7_Grafiti_por_minuto.sol\":74:778  contract Grafiti{\r... */\n  mstore(0x40, 0x80)\n  callvalue\n  dup1\n  iszero\n  tag_1\n  jumpi\n  0x00\n  dup1\n  revert\ntag_1:\n  pop\n  dataSize(sub_0)\n  dup1\n  dataOffset(sub_0)\n  0x00\n  codecopy\n  0x00\n  return\nstop\n\nsub_0: assembly {\n        /* \"contracts/7_Grafiti_por_minuto.sol\":74:778  contract Grafiti{\r... */\n      mstore(0x40, 0x80)\n      callvalue\n      dup1\n      iszero\n      tag_1\n      jumpi\n      0x00\n      dup1\n      revert\n    tag_1:\n      pop\n      jumpi(tag_2, lt(calldatasize, 0x04))\n      shr(0xe0, calldataload(0x00))\n      dup1\n      0x376d9997\n      eq\n      tag_3\n      jumpi\n      dup1\n      0xc4f90a6b\n      eq\n      tag_4\n      jumpi\n    tag_2:\n      0x00\n      dup1\n      revert\n        /* \"contracts/7_Grafiti_por_minuto.sol\":229:662  function guardarMensaje(string memory mensajeParaGuardar) public {\r... */\n    tag_3:\n      tag_5\n      0x04\n      dup1\n      calldatasize\n      sub\n      dup2\n      add\n      swap1\n      tag_6\n      swap2\n      swap1\n      tag_7\n      jump\t// in\n    tag_6:\n      tag_8\n      jump\t// in\n    tag_5:\n      stop\n        /* \"contracts/7_Grafiti_por_minuto.sol\":670:775  function verMensajeGuardado() public view returns(Mensaje memory) {\r... */\n    tag_4:\n      tag_9\n      tag_10\n      jump\t// in\n    tag_9:\n      mload(0x40)\n      tag_11\n      swap2\n      swap1\n      tag_12\n      jump\t// in\n    tag_11:\n      mload(0x40)\n      dup1\n      swap2\n      sub\n      swap1\n      return\n        /* \"contracts/7_Grafiti_por_minuto.sol\":229:662  function guardarMensaje(string memory mensajeParaGuardar) public {\r... */\n    tag_8:\n        /* \"contracts/7_Grafiti_por_minuto.sol\":332:342  msg.sender */\n      caller\n        /* \"contracts/7_Grafiti_por_minuto.sol\":309:342  ultimoMensaje.autor == msg.sender */\n      0xffffffffffffffffffffffffffffffffffffffff\n      and\n        /* \"contracts/7_Grafiti_por_minuto.sol\":309:322  ultimoMensaje */\n      0x00\n        /* \"contracts/7_Grafiti_por_minuto.sol\":309:328  ultimoMensaje.autor */\n      dup1\n      add\n      0x00\n      swap1\n      sload\n      swap1\n      0x0100\n      exp\n      swap1\n      div\n      0xffffffffffffffffffffffffffffffffffffffff\n      and\n        /* \"contracts/7_Grafiti_por_minuto.sol\":309:342  ultimoMensaje.autor == msg.sender */\n      0xffffffffffffffffffffffffffffffffffffffff\n      and\n      eq\n        /* \"contracts/7_Grafiti_por_minuto.sol\":305:509  if (ultimoMensaje.autor == msg.sender){\r... */\n      iszero\n      tag_14\n      jumpi\n        /* \"contracts/7_Grafiti_por_minuto.sol\":358:367  uint diff */\n      0x00\n        /* \"contracts/7_Grafiti_por_minuto.sol\":388:401  ultimoMensaje */\n      dup1\n        /* \"contracts/7_Grafiti_por_minuto.sol\":388:407  ultimoMensaje.fecha */\n      0x02\n      add\n      sload\n        /* \"contracts/7_Grafiti_por_minuto.sol\":370:385  block.timestamp */\n      timestamp\n        /* \"contracts/7_Grafiti_por_minuto.sol\":370:407  block.timestamp - ultimoMensaje.fecha */\n      tag_15\n      swap2\n      swap1\n      tag_16\n      jump\t// in\n    tag_15:\n        /* \"contracts/7_Grafiti_por_minuto.sol\":358:407  uint diff = block.timestamp - ultimoMensaje.fecha */\n      swap1\n      pop\n        /* \"contracts/7_Grafiti_por_minuto.sol\":436:445  1 minutes */\n      0x3c\n        /* \"contracts/7_Grafiti_por_minuto.sol\":428:432  diff */\n      dup2\n        /* \"contracts/7_Grafiti_por_minuto.sol\":428:445  diff <= 1 minutes */\n      gt\n        /* \"contracts/7_Grafiti_por_minuto.sol\":424:497  if (diff <= 1 minutes) revert (\"Solo puede guardar 1 mensaje por minuto\") */\n      tag_17\n      jumpi\n        /* \"contracts/7_Grafiti_por_minuto.sol\":447:497  revert (\"Solo puede guardar 1 mensaje por minuto\") */\n      mload(0x40)\n      0x08c379a000000000000000000000000000000000000000000000000000000000\n      dup2\n      mstore\n      0x04\n      add\n      tag_18\n      swap1\n      tag_19\n      jump\t// in\n    tag_18:\n      mload(0x40)\n      dup1\n      swap2\n      sub\n      swap1\n      revert\n        /* \"contracts/7_Grafiti_por_minuto.sol\":424:497  if (diff <= 1 minutes) revert (\"Solo puede guardar 1 mensaje por minuto\") */\n    tag_17:\n        /* \"contracts/7_Grafiti_por_minuto.sol\":343:509  {\r... */\n      pop\n        /* \"contracts/7_Grafiti_por_minuto.sol\":305:509  if (ultimoMensaje.autor == msg.sender){\r... */\n    tag_14:\n        /* \"contracts/7_Grafiti_por_minuto.sol\":543:553  msg.sender */\n      caller\n        /* \"contracts/7_Grafiti_por_minuto.sol\":521:534  ultimoMensaje */\n      0x00\n        /* \"contracts/7_Grafiti_por_minuto.sol\":521:540  ultimoMensaje.autor */\n      dup1\n      add\n      0x00\n        /* \"contracts/7_Grafiti_por_minuto.sol\":521:553  ultimoMensaje.autor = msg.sender */\n      0x0100\n      exp\n      dup2\n      sload\n      dup2\n      0xffffffffffffffffffffffffffffffffffffffff\n      mul\n      not\n      and\n      swap1\n      dup4\n      0xffffffffffffffffffffffffffffffffffffffff\n      and\n      mul\n      or\n      swap1\n      sstore\n      pop\n        /* \"contracts/7_Grafiti_por_minuto.sol\":588:606  mensajeParaGuardar */\n      dup1\n        /* \"contracts/7_Grafiti_por_minuto.sol\":564:577  ultimoMensaje */\n      0x00\n        /* \"contracts/7_Grafiti_por_minuto.sol\":564:585  ultimoMensaje.mensaje */\n      0x01\n      add\n        /* \"contracts/7_Grafiti_por_minuto.sol\":564:606  ultimoMensaje.mensaje = mensajeParaGuardar */\n      swap1\n      dup1\n      mload\n      swap1\n      0x20\n      add\n      swap1\n      tag_20\n      swap3\n      swap2\n      swap1\n      tag_21\n      jump\t// in\n    tag_20:\n      pop\n        /* \"contracts/7_Grafiti_por_minuto.sol\":639:654  block.timestamp */\n      timestamp\n        /* \"contracts/7_Grafiti_por_minuto.sol\":617:630  ultimoMensaje */\n      0x00\n        /* \"contracts/7_Grafiti_por_minuto.sol\":617:636  ultimoMensaje.fecha */\n      0x02\n      add\n        /* \"contracts/7_Grafiti_por_minuto.sol\":617:654  ultimoMensaje.fecha = block.timestamp */\n      dup2\n      swap1\n      sstore\n      pop\n        /* \"contracts/7_Grafiti_por_minuto.sol\":229:662  function guardarMensaje(string memory mensajeParaGuardar) public {\r... */\n      pop\n      jump\t// out\n        /* \"contracts/7_Grafiti_por_minuto.sol\":670:775  function verMensajeGuardado() public view returns(Mensaje memory) {\r... */\n    tag_10:\n        /* \"contracts/7_Grafiti_por_minuto.sol\":720:734  Mensaje memory */\n      tag_22\n      tag_23\n      jump\t// in\n    tag_22:\n        /* \"contracts/7_Grafiti_por_minuto.sol\":754:767  ultimoMensaje */\n      0x00\n        /* \"contracts/7_Grafiti_por_minuto.sol\":747:767  return ultimoMensaje */\n      mload(0x40)\n      dup1\n      0x60\n      add\n      0x40\n      mstore\n      swap1\n      dup2\n      0x00\n      dup3\n      add\n      0x00\n      swap1\n      sload\n      swap1\n      0x0100\n      exp\n      swap1\n      div\n      0xffffffffffffffffffffffffffffffffffffffff\n      and\n      0xffffffffffffffffffffffffffffffffffffffff\n      and\n      0xffffffffffffffffffffffffffffffffffffffff\n      and\n      dup2\n      mstore\n      0x20\n      add\n      0x01\n      dup3\n      add\n      dup1\n      sload\n      tag_25\n      swap1\n      tag_26\n      jump\t// in\n    tag_25:\n      dup1\n      0x1f\n      add\n      0x20\n      dup1\n      swap2\n      div\n      mul\n      0x20\n      add\n      mload(0x40)\n      swap1\n      dup2\n      add\n      0x40\n      mstore\n      dup1\n      swap3\n      swap2\n      swap1\n      dup2\n      dup2\n      mstore\n      0x20\n      add\n      dup3\n      dup1\n      sload\n      tag_27\n      swap1\n      tag_26\n      jump\t// in\n    tag_27:\n      dup1\n      iszero\n      tag_28\n      jumpi\n      dup1\n      0x1f\n      lt\n      tag_29\n      jumpi\n      0x0100\n      dup1\n      dup4\n      sload\n      div\n      mul\n      dup4\n      mstore\n      swap2\n      0x20\n      add\n      swap2\n      jump(tag_28)\n    tag_29:\n      dup3\n      add\n      swap2\n      swap1\n      0x00\n      mstore\n      keccak256(0x00, 0x20)\n      swap1\n    tag_30:\n      dup2\n      sload\n      dup2\n      mstore\n      swap1\n      0x01\n      add\n      swap1\n      0x20\n      add\n      dup1\n      dup4\n      gt\n      tag_30\n      jumpi\n      dup3\n      swap1\n      sub\n      0x1f\n      and\n      dup3\n      add\n      swap2\n    tag_28:\n      pop\n      pop\n      pop\n      pop\n      pop\n      dup2\n      mstore\n      0x20\n      add\n      0x02\n      dup3\n      add\n      sload\n      dup2\n      mstore\n      pop\n      pop\n      swap1\n      pop\n        /* \"contracts/7_Grafiti_por_minuto.sol\":670:775  function verMensajeGuardado() public view returns(Mensaje memory) {\r... */\n      swap1\n      jump\t// out\n    tag_21:\n      dup3\n      dup1\n      sload\n      tag_31\n      swap1\n      tag_26\n      jump\t// in\n    tag_31:\n      swap1\n      0x00\n      mstore\n      keccak256(0x00, 0x20)\n      swap1\n      0x1f\n      add\n      0x20\n      swap1\n      div\n      dup2\n      add\n      swap3\n      dup3\n      tag_33\n      jumpi\n      0x00\n      dup6\n      sstore\n      jump(tag_32)\n    tag_33:\n      dup3\n      0x1f\n      lt\n      tag_34\n      jumpi\n      dup1\n      mload\n      not(0xff)\n      and\n      dup4\n      dup1\n      add\n      or\n      dup6\n      sstore\n      jump(tag_32)\n    tag_34:\n      dup3\n      dup1\n      add\n      0x01\n      add\n      dup6\n      sstore\n      dup3\n      iszero\n      tag_32\n      jumpi\n      swap2\n      dup3\n      add\n    tag_35:\n      dup3\n      dup2\n      gt\n      iszero\n      tag_36\n      jumpi\n      dup3\n      mload\n      dup3\n      sstore\n      swap2\n      0x20\n      add\n      swap2\n      swap1\n      0x01\n      add\n      swap1\n      jump(tag_35)\n    tag_36:\n    tag_32:\n      pop\n      swap1\n      pop\n      tag_37\n      swap2\n      swap1\n      tag_38\n      jump\t// in\n    tag_37:\n      pop\n      swap1\n      jump\t// out\n    tag_23:\n      mload(0x40)\n      dup1\n      0x60\n      add\n      0x40\n      mstore\n      dup1\n      and(0xffffffffffffffffffffffffffffffffffffffff, 0x00)\n      dup2\n      mstore\n      0x20\n      add\n      0x60\n      dup2\n      mstore\n      0x20\n      add\n      0x00\n      dup2\n      mstore\n      pop\n      swap1\n      jump\t// out\n    tag_38:\n    tag_39:\n      dup1\n      dup3\n      gt\n      iszero\n      tag_40\n      jumpi\n      0x00\n      dup2\n      0x00\n      swap1\n      sstore\n      pop\n      0x01\n      add\n      jump(tag_39)\n    tag_40:\n      pop\n      swap1\n      jump\t// out\n        /* \"#utility.yul\":7:419   */\n    tag_42:\n        /* \"#utility.yul\":85:90   */\n      0x00\n        /* \"#utility.yul\":110:176   */\n      tag_44\n        /* \"#utility.yul\":126:175   */\n      tag_45\n        /* \"#utility.yul\":168:174   */\n      dup5\n        /* \"#utility.yul\":126:175   */\n      tag_46\n      jump\t// in\n    tag_45:\n        /* \"#utility.yul\":110:176   */\n      tag_47\n      jump\t// in\n    tag_44:\n        /* \"#utility.yul\":101:176   */\n      swap1\n      pop\n        /* \"#utility.yul\":199:205   */\n      dup3\n        /* \"#utility.yul\":192:197   */\n      dup2\n        /* \"#utility.yul\":185:206   */\n      mstore\n        /* \"#utility.yul\":237:241   */\n      0x20\n        /* \"#utility.yul\":230:235   */\n      dup2\n        /* \"#utility.yul\":226:242   */\n      add\n        /* \"#utility.yul\":275:278   */\n      dup5\n        /* \"#utility.yul\":266:272   */\n      dup5\n        /* \"#utility.yul\":261:264   */\n      dup5\n        /* \"#utility.yul\":257:273   */\n      add\n        /* \"#utility.yul\":254:279   */\n      gt\n        /* \"#utility.yul\":251:363   */\n      iszero\n      tag_48\n      jumpi\n        /* \"#utility.yul\":282:361   */\n      tag_49\n      tag_50\n      jump\t// in\n    tag_49:\n        /* \"#utility.yul\":251:363   */\n    tag_48:\n        /* \"#utility.yul\":372:413   */\n      tag_51\n        /* \"#utility.yul\":406:412   */\n      dup5\n        /* \"#utility.yul\":401:404   */\n      dup3\n        /* \"#utility.yul\":396:399   */\n      dup6\n        /* \"#utility.yul\":372:413   */\n      tag_52\n      jump\t// in\n    tag_51:\n        /* \"#utility.yul\":91:419   */\n      pop\n        /* \"#utility.yul\":7:419   */\n      swap4\n      swap3\n      pop\n      pop\n      pop\n      jump\t// out\n        /* \"#utility.yul\":439:779   */\n    tag_53:\n        /* \"#utility.yul\":495:500   */\n      0x00\n        /* \"#utility.yul\":544:547   */\n      dup3\n        /* \"#utility.yul\":537:541   */\n      0x1f\n        /* \"#utility.yul\":529:535   */\n      dup4\n        /* \"#utility.yul\":525:542   */\n      add\n        /* \"#utility.yul\":521:548   */\n      slt\n        /* \"#utility.yul\":511:633   */\n      tag_55\n      jumpi\n        /* \"#utility.yul\":552:631   */\n      tag_56\n      tag_57\n      jump\t// in\n    tag_56:\n        /* \"#utility.yul\":511:633   */\n    tag_55:\n        /* \"#utility.yul\":669:675   */\n      dup2\n        /* \"#utility.yul\":656:676   */\n      calldataload\n        /* \"#utility.yul\":694:773   */\n      tag_58\n        /* \"#utility.yul\":769:772   */\n      dup5\n        /* \"#utility.yul\":761:767   */\n      dup3\n        /* \"#utility.yul\":754:758   */\n      0x20\n        /* \"#utility.yul\":746:752   */\n      dup7\n        /* \"#utility.yul\":742:759   */\n      add\n        /* \"#utility.yul\":694:773   */\n      tag_42\n      jump\t// in\n    tag_58:\n        /* \"#utility.yul\":685:773   */\n      swap2\n      pop\n        /* \"#utility.yul\":501:779   */\n      pop\n        /* \"#utility.yul\":439:779   */\n      swap3\n      swap2\n      pop\n      pop\n      jump\t// out\n        /* \"#utility.yul\":785:1294   */\n    tag_7:\n        /* \"#utility.yul\":854:860   */\n      0x00\n        /* \"#utility.yul\":903:905   */\n      0x20\n        /* \"#utility.yul\":891:900   */\n      dup3\n        /* \"#utility.yul\":882:889   */\n      dup5\n        /* \"#utility.yul\":878:901   */\n      sub\n        /* \"#utility.yul\":874:906   */\n      slt\n        /* \"#utility.yul\":871:990   */\n      iszero\n      tag_60\n      jumpi\n        /* \"#utility.yul\":909:988   */\n      tag_61\n      tag_62\n      jump\t// in\n    tag_61:\n        /* \"#utility.yul\":871:990   */\n    tag_60:\n        /* \"#utility.yul\":1057:1058   */\n      0x00\n        /* \"#utility.yul\":1046:1055   */\n      dup3\n        /* \"#utility.yul\":1042:1059   */\n      add\n        /* \"#utility.yul\":1029:1060   */\n      calldataload\n        /* \"#utility.yul\":1087:1105   */\n      0xffffffffffffffff\n        /* \"#utility.yul\":1079:1085   */\n      dup2\n        /* \"#utility.yul\":1076:1106   */\n      gt\n        /* \"#utility.yul\":1073:1190   */\n      iszero\n      tag_63\n      jumpi\n        /* \"#utility.yul\":1109:1188   */\n      tag_64\n      tag_65\n      jump\t// in\n    tag_64:\n        /* \"#utility.yul\":1073:1190   */\n    tag_63:\n        /* \"#utility.yul\":1214:1277   */\n      tag_66\n        /* \"#utility.yul\":1269:1276   */\n      dup5\n        /* \"#utility.yul\":1260:1266   */\n      dup3\n        /* \"#utility.yul\":1249:1258   */\n      dup6\n        /* \"#utility.yul\":1245:1267   */\n      add\n        /* \"#utility.yul\":1214:1277   */\n      tag_53\n      jump\t// in\n    tag_66:\n        /* \"#utility.yul\":1204:1277   */\n      swap2\n      pop\n        /* \"#utility.yul\":1000:1287   */\n      pop\n        /* \"#utility.yul\":785:1294   */\n      swap3\n      swap2\n      pop\n      pop\n      jump\t// out\n        /* \"#utility.yul\":1300:1408   */\n    tag_67:\n        /* \"#utility.yul\":1377:1401   */\n      tag_69\n        /* \"#utility.yul\":1395:1400   */\n      dup2\n        /* \"#utility.yul\":1377:1401   */\n      tag_70\n      jump\t// in\n    tag_69:\n        /* \"#utility.yul\":1372:1375   */\n      dup3\n        /* \"#utility.yul\":1365:1402   */\n      mstore\n        /* \"#utility.yul\":1300:1408   */\n      pop\n      pop\n      jump\t// out\n        /* \"#utility.yul\":1414:1758   */\n    tag_71:\n        /* \"#utility.yul\":1492:1495   */\n      0x00\n        /* \"#utility.yul\":1520:1559   */\n      tag_73\n        /* \"#utility.yul\":1553:1558   */\n      dup3\n        /* \"#utility.yul\":1520:1559   */\n      tag_74\n      jump\t// in\n    tag_73:\n        /* \"#utility.yul\":1575:1636   */\n      tag_75\n        /* \"#utility.yul\":1629:1635   */\n      dup2\n        /* \"#utility.yul\":1624:1627   */\n      dup6\n        /* \"#utility.yul\":1575:1636   */\n      tag_76\n      jump\t// in\n    tag_75:\n        /* \"#utility.yul\":1568:1636   */\n      swap4\n      pop\n        /* \"#utility.yul\":1645:1697   */\n      tag_77\n        /* \"#utility.yul\":1690:1696   */\n      dup2\n        /* \"#utility.yul\":1685:1688   */\n      dup6\n        /* \"#utility.yul\":1678:1682   */\n      0x20\n        /* \"#utility.yul\":1671:1676   */\n      dup7\n        /* \"#utility.yul\":1667:1683   */\n      add\n        /* \"#utility.yul\":1645:1697   */\n      tag_78\n      jump\t// in\n    tag_77:\n        /* \"#utility.yul\":1722:1751   */\n      tag_79\n        /* \"#utility.yul\":1744:1750   */\n      dup2\n        /* \"#utility.yul\":1722:1751   */\n      tag_80\n      jump\t// in\n    tag_79:\n        /* \"#utility.yul\":1717:1720   */\n      dup5\n        /* \"#utility.yul\":1713:1752   */\n      add\n        /* \"#utility.yul\":1706:1752   */\n      swap2\n      pop\n        /* \"#utility.yul\":1496:1758   */\n      pop\n        /* \"#utility.yul\":1414:1758   */\n      swap3\n      swap2\n      pop\n      pop\n      jump\t// out\n        /* \"#utility.yul\":1764:2130   */\n    tag_81:\n        /* \"#utility.yul\":1906:1909   */\n      0x00\n        /* \"#utility.yul\":1927:1994   */\n      tag_83\n        /* \"#utility.yul\":1991:1993   */\n      0x27\n        /* \"#utility.yul\":1986:1989   */\n      dup4\n        /* \"#utility.yul\":1927:1994   */\n      tag_84\n      jump\t// in\n    tag_83:\n        /* \"#utility.yul\":1920:1994   */\n      swap2\n      pop\n        /* \"#utility.yul\":2003:2096   */\n      tag_85\n        /* \"#utility.yul\":2092:2095   */\n      dup3\n        /* \"#utility.yul\":2003:2096   */\n      tag_86\n      jump\t// in\n    tag_85:\n        /* \"#utility.yul\":2121:2123   */\n      0x40\n        /* \"#utility.yul\":2116:2119   */\n      dup3\n        /* \"#utility.yul\":2112:2124   */\n      add\n        /* \"#utility.yul\":2105:2124   */\n      swap1\n      pop\n        /* \"#utility.yul\":1764:2130   */\n      swap2\n      swap1\n      pop\n      jump\t// out\n        /* \"#utility.yul\":2192:2971   */\n    tag_87:\n        /* \"#utility.yul\":2305:2308   */\n      0x00\n        /* \"#utility.yul\":2341:2345   */\n      0x60\n        /* \"#utility.yul\":2336:2339   */\n      dup4\n        /* \"#utility.yul\":2332:2346   */\n      add\n        /* \"#utility.yul\":2429:2433   */\n      0x00\n        /* \"#utility.yul\":2422:2427   */\n      dup4\n        /* \"#utility.yul\":2418:2434   */\n      add\n        /* \"#utility.yul\":2412:2435   */\n      mload\n        /* \"#utility.yul\":2448:2511   */\n      tag_89\n        /* \"#utility.yul\":2505:2509   */\n      0x00\n        /* \"#utility.yul\":2500:2503   */\n      dup7\n        /* \"#utility.yul\":2496:2510   */\n      add\n        /* \"#utility.yul\":2482:2494   */\n      dup3\n        /* \"#utility.yul\":2448:2511   */\n      tag_67\n      jump\t// in\n    tag_89:\n        /* \"#utility.yul\":2356:2521   */\n      pop\n        /* \"#utility.yul\":2606:2610   */\n      0x20\n        /* \"#utility.yul\":2599:2604   */\n      dup4\n        /* \"#utility.yul\":2595:2611   */\n      add\n        /* \"#utility.yul\":2589:2612   */\n      mload\n        /* \"#utility.yul\":2659:2662   */\n      dup5\n        /* \"#utility.yul\":2653:2657   */\n      dup3\n        /* \"#utility.yul\":2649:2663   */\n      sub\n        /* \"#utility.yul\":2642:2646   */\n      0x20\n        /* \"#utility.yul\":2637:2640   */\n      dup7\n        /* \"#utility.yul\":2633:2647   */\n      add\n        /* \"#utility.yul\":2626:2664   */\n      mstore\n        /* \"#utility.yul\":2685:2758   */\n      tag_90\n        /* \"#utility.yul\":2753:2757   */\n      dup3\n        /* \"#utility.yul\":2739:2751   */\n      dup3\n        /* \"#utility.yul\":2685:2758   */\n      tag_71\n      jump\t// in\n    tag_90:\n        /* \"#utility.yul\":2677:2758   */\n      swap2\n      pop\n        /* \"#utility.yul\":2531:2769   */\n      pop\n        /* \"#utility.yul\":2852:2856   */\n      0x40\n        /* \"#utility.yul\":2845:2850   */\n      dup4\n        /* \"#utility.yul\":2841:2857   */\n      add\n        /* \"#utility.yul\":2835:2858   */\n      mload\n        /* \"#utility.yul\":2871:2934   */\n      tag_91\n        /* \"#utility.yul\":2928:2932   */\n      0x40\n        /* \"#utility.yul\":2923:2926   */\n      dup7\n        /* \"#utility.yul\":2919:2933   */\n      add\n        /* \"#utility.yul\":2905:2917   */\n      dup3\n        /* \"#utility.yul\":2871:2934   */\n      tag_92\n      jump\t// in\n    tag_91:\n        /* \"#utility.yul\":2779:2944   */\n      pop\n        /* \"#utility.yul\":2961:2965   */\n      dup1\n        /* \"#utility.yul\":2954:2965   */\n      swap2\n      pop\n        /* \"#utility.yul\":2310:2971   */\n      pop\n        /* \"#utility.yul\":2192:2971   */\n      swap3\n      swap2\n      pop\n      pop\n      jump\t// out\n        /* \"#utility.yul\":2977:3085   */\n    tag_92:\n        /* \"#utility.yul\":3054:3078   */\n      tag_94\n        /* \"#utility.yul\":3072:3077   */\n      dup2\n        /* \"#utility.yul\":3054:3078   */\n      tag_95\n      jump\t// in\n    tag_94:\n        /* \"#utility.yul\":3049:3052   */\n      dup3\n        /* \"#utility.yul\":3042:3079   */\n      mstore\n        /* \"#utility.yul\":2977:3085   */\n      pop\n      pop\n      jump\t// out\n        /* \"#utility.yul\":3091:3510   */\n    tag_19:\n        /* \"#utility.yul\":3257:3261   */\n      0x00\n        /* \"#utility.yul\":3295:3297   */\n      0x20\n        /* \"#utility.yul\":3284:3293   */\n      dup3\n        /* \"#utility.yul\":3280:3298   */\n      add\n        /* \"#utility.yul\":3272:3298   */\n      swap1\n      pop\n        /* \"#utility.yul\":3344:3353   */\n      dup2\n        /* \"#utility.yul\":3338:3342   */\n      dup2\n        /* \"#utility.yul\":3334:3354   */\n      sub\n        /* \"#utility.yul\":3330:3331   */\n      0x00\n        /* \"#utility.yul\":3319:3328   */\n      dup4\n        /* \"#utility.yul\":3315:3332   */\n      add\n        /* \"#utility.yul\":3308:3355   */\n      mstore\n        /* \"#utility.yul\":3372:3503   */\n      tag_97\n        /* \"#utility.yul\":3498:3502   */\n      dup2\n        /* \"#utility.yul\":3372:3503   */\n      tag_81\n      jump\t// in\n    tag_97:\n        /* \"#utility.yul\":3364:3503   */\n      swap1\n      pop\n        /* \"#utility.yul\":3091:3510   */\n      swap2\n      swap1\n      pop\n      jump\t// out\n        /* \"#utility.yul\":3516:3877   */\n    tag_12:\n        /* \"#utility.yul\":3653:3657   */\n      0x00\n        /* \"#utility.yul\":3691:3693   */\n      0x20\n        /* \"#utility.yul\":3680:3689   */\n      dup3\n        /* \"#utility.yul\":3676:3694   */\n      add\n        /* \"#utility.yul\":3668:3694   */\n      swap1\n      pop\n        /* \"#utility.yul\":3740:3749   */\n      dup2\n        /* \"#utility.yul\":3734:3738   */\n      dup2\n        /* \"#utility.yul\":3730:3750   */\n      sub\n        /* \"#utility.yul\":3726:3727   */\n      0x00\n        /* \"#utility.yul\":3715:3724   */\n      dup4\n        /* \"#utility.yul\":3711:3728   */\n      add\n        /* \"#utility.yul\":3704:3751   */\n      mstore\n        /* \"#utility.yul\":3768:3870   */\n      tag_99\n        /* \"#utility.yul\":3865:3869   */\n      dup2\n        /* \"#utility.yul\":3856:3862   */\n      dup5\n        /* \"#utility.yul\":3768:3870   */\n      tag_87\n      jump\t// in\n    tag_99:\n        /* \"#utility.yul\":3760:3870   */\n      swap1\n      pop\n        /* \"#utility.yul\":3516:3877   */\n      swap3\n      swap2\n      pop\n      pop\n      jump\t// out\n        /* \"#utility.yul\":3883:4012   */\n    tag_47:\n        /* \"#utility.yul\":3917:3923   */\n      0x00\n        /* \"#utility.yul\":3944:3964   */\n      tag_101\n      tag_102\n      jump\t// in\n    tag_101:\n        /* \"#utility.yul\":3934:3964   */\n      swap1\n      pop\n        /* \"#utility.yul\":3973:4006   */\n      tag_103\n        /* \"#utility.yul\":4001:4005   */\n      dup3\n        /* \"#utility.yul\":3993:3999   */\n      dup3\n        /* \"#utility.yul\":3973:4006   */\n      tag_104\n      jump\t// in\n    tag_103:\n        /* \"#utility.yul\":3883:4012   */\n      swap2\n      swap1\n      pop\n      jump\t// out\n        /* \"#utility.yul\":4018:4093   */\n    tag_102:\n        /* \"#utility.yul\":4051:4057   */\n      0x00\n        /* \"#utility.yul\":4084:4086   */\n      0x40\n        /* \"#utility.yul\":4078:4087   */\n      mload\n        /* \"#utility.yul\":4068:4087   */\n      swap1\n      pop\n        /* \"#utility.yul\":4018:4093   */\n      swap1\n      jump\t// out\n        /* \"#utility.yul\":4099:4407   */\n    tag_46:\n        /* \"#utility.yul\":4161:4165   */\n      0x00\n        /* \"#utility.yul\":4251:4269   */\n      0xffffffffffffffff\n        /* \"#utility.yul\":4243:4249   */\n      dup3\n        /* \"#utility.yul\":4240:4270   */\n      gt\n        /* \"#utility.yul\":4237:4293   */\n      iszero\n      tag_107\n      jumpi\n        /* \"#utility.yul\":4273:4291   */\n      tag_108\n      tag_109\n      jump\t// in\n    tag_108:\n        /* \"#utility.yul\":4237:4293   */\n    tag_107:\n        /* \"#utility.yul\":4311:4340   */\n      tag_110\n        /* \"#utility.yul\":4333:4339   */\n      dup3\n        /* \"#utility.yul\":4311:4340   */\n      tag_80\n      jump\t// in\n    tag_110:\n        /* \"#utility.yul\":4303:4340   */\n      swap1\n      pop\n        /* \"#utility.yul\":4395:4399   */\n      0x20\n        /* \"#utility.yul\":4389:4393   */\n      dup2\n        /* \"#utility.yul\":4385:4400   */\n      add\n        /* \"#utility.yul\":4377:4400   */\n      swap1\n      pop\n        /* \"#utility.yul\":4099:4407   */\n      swap2\n      swap1\n      pop\n      jump\t// out\n        /* \"#utility.yul\":4413:4512   */\n    tag_74:\n        /* \"#utility.yul\":4465:4471   */\n      0x00\n        /* \"#utility.yul\":4499:4504   */\n      dup2\n        /* \"#utility.yul\":4493:4505   */\n      mload\n        /* \"#utility.yul\":4483:4505   */\n      swap1\n      pop\n        /* \"#utility.yul\":4413:4512   */\n      swap2\n      swap1\n      pop\n      jump\t// out\n        /* \"#utility.yul\":4518:4677   */\n    tag_76:\n        /* \"#utility.yul\":4592:4603   */\n      0x00\n        /* \"#utility.yul\":4626:4632   */\n      dup3\n        /* \"#utility.yul\":4621:4624   */\n      dup3\n        /* \"#utility.yul\":4614:4633   */\n      mstore\n        /* \"#utility.yul\":4666:4670   */\n      0x20\n        /* \"#utility.yul\":4661:4664   */\n      dup3\n        /* \"#utility.yul\":4657:4671   */\n      add\n        /* \"#utility.yul\":4642:4671   */\n      swap1\n      pop\n        /* \"#utility.yul\":4518:4677   */\n      swap3\n      swap2\n      pop\n      pop\n      jump\t// out\n        /* \"#utility.yul\":4683:4852   */\n    tag_84:\n        /* \"#utility.yul\":4767:4778   */\n      0x00\n        /* \"#utility.yul\":4801:4807   */\n      dup3\n        /* \"#utility.yul\":4796:4799   */\n      dup3\n        /* \"#utility.yul\":4789:4808   */\n      mstore\n        /* \"#utility.yul\":4841:4845   */\n      0x20\n        /* \"#utility.yul\":4836:4839   */\n      dup3\n        /* \"#utility.yul\":4832:4846   */\n      add\n        /* \"#utility.yul\":4817:4846   */\n      swap1\n      pop\n        /* \"#utility.yul\":4683:4852   */\n      swap3\n      swap2\n      pop\n      pop\n      jump\t// out\n        /* \"#utility.yul\":4858:5049   */\n    tag_16:\n        /* \"#utility.yul\":4898:4902   */\n      0x00\n        /* \"#utility.yul\":4918:4938   */\n      tag_115\n        /* \"#utility.yul\":4936:4937   */\n      dup3\n        /* \"#utility.yul\":4918:4938   */\n      tag_95\n      jump\t// in\n    tag_115:\n        /* \"#utility.yul\":4913:4938   */\n      swap2\n      pop\n        /* \"#utility.yul\":4952:4972   */\n      tag_116\n        /* \"#utility.yul\":4970:4971   */\n      dup4\n        /* \"#utility.yul\":4952:4972   */\n      tag_95\n      jump\t// in\n    tag_116:\n        /* \"#utility.yul\":4947:4972   */\n      swap3\n      pop\n        /* \"#utility.yul\":4991:4992   */\n      dup3\n        /* \"#utility.yul\":4988:4989   */\n      dup3\n        /* \"#utility.yul\":4985:4993   */\n      lt\n        /* \"#utility.yul\":4982:5016   */\n      iszero\n      tag_117\n      jumpi\n        /* \"#utility.yul\":4996:5014   */\n      tag_118\n      tag_119\n      jump\t// in\n    tag_118:\n        /* \"#utility.yul\":4982:5016   */\n    tag_117:\n        /* \"#utility.yul\":5041:5042   */\n      dup3\n        /* \"#utility.yul\":5038:5039   */\n      dup3\n        /* \"#utility.yul\":5034:5043   */\n      sub\n        /* \"#utility.yul\":5026:5043   */\n      swap1\n      pop\n        /* \"#utility.yul\":4858:5049   */\n      swap3\n      swap2\n      pop\n      pop\n      jump\t// out\n        /* \"#utility.yul\":5055:5151   */\n    tag_70:\n        /* \"#utility.yul\":5092:5099   */\n      0x00\n        /* \"#utility.yul\":5121:5145   */\n      tag_121\n        /* \"#utility.yul\":5139:5144   */\n      dup3\n        /* \"#utility.yul\":5121:5145   */\n      tag_122\n      jump\t// in\n    tag_121:\n        /* \"#utility.yul\":5110:5145   */\n      swap1\n      pop\n        /* \"#utility.yul\":5055:5151   */\n      swap2\n      swap1\n      pop\n      jump\t// out\n        /* \"#utility.yul\":5157:5283   */\n    tag_122:\n        /* \"#utility.yul\":5194:5201   */\n      0x00\n        /* \"#utility.yul\":5234:5276   */\n      0xffffffffffffffffffffffffffffffffffffffff\n        /* \"#utility.yul\":5227:5232   */\n      dup3\n        /* \"#utility.yul\":5223:5277   */\n      and\n        /* \"#utility.yul\":5212:5277   */\n      swap1\n      pop\n        /* \"#utility.yul\":5157:5283   */\n      swap2\n      swap1\n      pop\n      jump\t// out\n        /* \"#utility.yul\":5289:5366   */\n    tag_95:\n        /* \"#utility.yul\":5326:5333   */\n      0x00\n        /* \"#utility.yul\":5355:5360   */\n      dup2\n        /* \"#utility.yul\":5344:5360   */\n      swap1\n      pop\n        /* \"#utility.yul\":5289:5366   */\n      swap2\n      swap1\n      pop\n      jump\t// out\n        /* \"#utility.yul\":5372:5526   */\n    tag_52:\n        /* \"#utility.yul\":5456:5462   */\n      dup3\n        /* \"#utility.yul\":5451:5454   */\n      dup2\n        /* \"#utility.yul\":5446:5449   */\n      dup4\n        /* \"#utility.yul\":5433:5463   */\n      calldatacopy\n        /* \"#utility.yul\":5518:5519   */\n      0x00\n        /* \"#utility.yul\":5509:5515   */\n      dup4\n        /* \"#utility.yul\":5504:5507   */\n      dup4\n        /* \"#utility.yul\":5500:5516   */\n      add\n        /* \"#utility.yul\":5493:5520   */\n      mstore\n        /* \"#utility.yul\":5372:5526   */\n      pop\n      pop\n      pop\n      jump\t// out\n        /* \"#utility.yul\":5532:5839   */\n    tag_78:\n        /* \"#utility.yul\":5600:5601   */\n      0x00\n        /* \"#utility.yul\":5610:5723   */\n    tag_127:\n        /* \"#utility.yul\":5624:5630   */\n      dup4\n        /* \"#utility.yul\":5621:5622   */\n      dup2\n        /* \"#utility.yul\":5618:5631   */\n      lt\n        /* \"#utility.yul\":5610:5723   */\n      iszero\n      tag_129\n      jumpi\n        /* \"#utility.yul\":5709:5710   */\n      dup1\n        /* \"#utility.yul\":5704:5707   */\n      dup3\n        /* \"#utility.yul\":5700:5711   */\n      add\n        /* \"#utility.yul\":5694:5712   */\n      mload\n        /* \"#utility.yul\":5690:5691   */\n      dup2\n        /* \"#utility.yul\":5685:5688   */\n      dup5\n        /* \"#utility.yul\":5681:5692   */\n      add\n        /* \"#utility.yul\":5674:5713   */\n      mstore\n        /* \"#utility.yul\":5646:5648   */\n      0x20\n        /* \"#utility.yul\":5643:5644   */\n      dup2\n        /* \"#utility.yul\":5639:5649   */\n      add\n        /* \"#utility.yul\":5634:5649   */\n      swap1\n      pop\n        /* \"#utility.yul\":5610:5723   */\n      jump(tag_127)\n    tag_129:\n        /* \"#utility.yul\":5741:5747   */\n      dup4\n        /* \"#utility.yul\":5738:5739   */\n      dup2\n        /* \"#utility.yul\":5735:5748   */\n      gt\n        /* \"#utility.yul\":5732:5833   */\n      iszero\n      tag_130\n      jumpi\n        /* \"#utility.yul\":5821:5822   */\n      0x00\n        /* \"#utility.yul\":5812:5818   */\n      dup5\n        /* \"#utility.yul\":5807:5810   */\n      dup5\n        /* \"#utility.yul\":5803:5819   */\n      add\n        /* \"#utility.yul\":5796:5823   */\n      mstore\n        /* \"#utility.yul\":5732:5833   */\n    tag_130:\n        /* \"#utility.yul\":5581:5839   */\n      pop\n        /* \"#utility.yul\":5532:5839   */\n      pop\n      pop\n      pop\n      jump\t// out\n        /* \"#utility.yul\":5845:6165   */\n    tag_26:\n        /* \"#utility.yul\":5889:5895   */\n      0x00\n        /* \"#utility.yul\":5926:5927   */\n      0x02\n        /* \"#utility.yul\":5920:5924   */\n      dup3\n        /* \"#utility.yul\":5916:5928   */\n      div\n        /* \"#utility.yul\":5906:5928   */\n      swap1\n      pop\n        /* \"#utility.yul\":5973:5974   */\n      0x01\n        /* \"#utility.yul\":5967:5971   */\n      dup3\n        /* \"#utility.yul\":5963:5975   */\n      and\n        /* \"#utility.yul\":5994:6012   */\n      dup1\n        /* \"#utility.yul\":5984:6065   */\n      tag_132\n      jumpi\n        /* \"#utility.yul\":6050:6054   */\n      0x7f\n        /* \"#utility.yul\":6042:6048   */\n      dup3\n        /* \"#utility.yul\":6038:6055   */\n      and\n        /* \"#utility.yul\":6028:6055   */\n      swap2\n      pop\n        /* \"#utility.yul\":5984:6065   */\n    tag_132:\n        /* \"#utility.yul\":6112:6114   */\n      0x20\n        /* \"#utility.yul\":6104:6110   */\n      dup3\n        /* \"#utility.yul\":6101:6115   */\n      lt\n        /* \"#utility.yul\":6081:6099   */\n      dup2\n        /* \"#utility.yul\":6078:6116   */\n      eq\n        /* \"#utility.yul\":6075:6159   */\n      iszero\n      tag_133\n      jumpi\n        /* \"#utility.yul\":6131:6149   */\n      tag_134\n      tag_135\n      jump\t// in\n    tag_134:\n        /* \"#utility.yul\":6075:6159   */\n    tag_133:\n        /* \"#utility.yul\":5896:6165   */\n      pop\n        /* \"#utility.yul\":5845:6165   */\n      swap2\n      swap1\n      pop\n      jump\t// out\n        /* \"#utility.yul\":6171:6452   */\n    tag_104:\n        /* \"#utility.yul\":6254:6281   */\n      tag_137\n        /* \"#utility.yul\":6276:6280   */\n      dup3\n        /* \"#utility.yul\":6254:6281   */\n      tag_80\n      jump\t// in\n    tag_137:\n        /* \"#utility.yul\":6246:6252   */\n      dup2\n        /* \"#utility.yul\":6242:6282   */\n      add\n        /* \"#utility.yul\":6384:6390   */\n      dup2\n        /* \"#utility.yul\":6372:6382   */\n      dup2\n        /* \"#utility.yul\":6369:6391   */\n      lt\n        /* \"#utility.yul\":6348:6366   */\n      0xffffffffffffffff\n        /* \"#utility.yul\":6336:6346   */\n      dup3\n        /* \"#utility.yul\":6333:6367   */\n      gt\n        /* \"#utility.yul\":6330:6392   */\n      or\n        /* \"#utility.yul\":6327:6415   */\n      iszero\n      tag_138\n      jumpi\n        /* \"#utility.yul\":6395:6413   */\n      tag_139\n      tag_109\n      jump\t// in\n    tag_139:\n        /* \"#utility.yul\":6327:6415   */\n    tag_138:\n        /* \"#utility.yul\":6435:6445   */\n      dup1\n        /* \"#utility.yul\":6431:6433   */\n      0x40\n        /* \"#utility.yul\":6424:6446   */\n      mstore\n        /* \"#utility.yul\":6214:6452   */\n      pop\n        /* \"#utility.yul\":6171:6452   */\n      pop\n      pop\n      jump\t// out\n        /* \"#utility.yul\":6458:6638   */\n    tag_119:\n        /* \"#utility.yul\":6506:6583   */\n      0x4e487b7100000000000000000000000000000000000000000000000000000000\n        /* \"#utility.yul\":6503:6504   */\n      0x00\n        /* \"#utility.yul\":6496:6584   */\n      mstore\n        /* \"#utility.yul\":6603:6607   */\n      0x11\n        /* \"#utility.yul\":6600:6601   */\n      0x04\n        /* \"#utility.yul\":6593:6608   */\n      mstore\n        /* \"#utility.yul\":6627:6631   */\n      0x24\n        /* \"#utility.yul\":6624:6625   */\n      0x00\n        /* \"#utility.yul\":6617:6632   */\n      revert\n        /* \"#utility.yul\":6644:6824   */\n    tag_135:\n        /* \"#utility.yul\":6692:6769   */\n      0x4e487b7100000000000000000000000000000000000000000000000000000000\n        /* \"#utility.yul\":6689:6690   */\n      0x00\n        /* \"#utility.yul\":6682:6770   */\n      mstore\n        /* \"#utility.yul\":6789:6793   */\n      0x22\n        /* \"#utility.yul\":6786:6787   */\n      0x04\n        /* \"#utility.yul\":6779:6794   */\n      mstore\n        /* \"#utility.yul\":6813:6817   */\n      0x24\n        /* \"#utility.yul\":6810:6811   */\n      0x00\n        /* \"#utility.yul\":6803:6818   */\n      revert\n        /* \"#utility.yul\":6830:7010   */\n    tag_109:\n        /* \"#utility.yul\":6878:6955   */\n      0x4e487b7100000000000000000000000000000000000000000000000000000000\n        /* \"#utility.yul\":6875:6876   */\n      0x00\n        /* \"#utility.yul\":6868:6956   */\n      mstore\n        /* \"#utility.yul\":6975:6979   */\n      0x41\n        /* \"#utility.yul\":6972:6973   */\n      0x04\n        /* \"#utility.yul\":6965:6980   */\n      mstore\n        /* \"#utility.yul\":6999:7003   */\n      0x24\n        /* \"#utility.yul\":6996:6997   */\n      0x00\n        /* \"#utility.yul\":6989:7004   */\n      revert\n        /* \"#utility.yul\":7016:7133   */\n    tag_57:\n        /* \"#utility.yul\":7125:7126   */\n      0x00\n        /* \"#utility.yul\":7122:7123   */\n      dup1\n        /* \"#utility.yul\":7115:7127   */\n      revert\n        /* \"#utility.yul\":7139:7256   */\n    tag_50:\n        /* \"#utility.yul\":7248:7249   */\n      0x00\n        /* \"#utility.yul\":7245:7246   */\n      dup1\n        /* \"#utility.yul\":7238:7250   */\n      revert\n        /* \"#utility.yul\":7262:7379   */\n    tag_65:\n        /* \"#utility.yul\":7371:7372   */\n      0x00\n        /* \"#utility.yul\":7368:7369   */\n      dup1\n        /* \"#utility.yul\":7361:7373   */\n      revert\n        /* \"#utility.yul\":7385:7502   */\n    tag_62:\n        /* \"#utility.yul\":7494:7495   */\n      0x00\n        /* \"#utility.yul\":7491:7492   */\n      dup1\n        /* \"#utility.yul\":7484:7496   */\n      revert\n        /* \"#utility.yul\":7508:7610   */\n    tag_80:\n        /* \"#utility.yul\":7549:7555   */\n      0x00\n        /* \"#utility.yul\":7600:7602   */\n      0x1f\n        /* \"#utility.yul\":7596:7603   */\n      not\n        /* \"#utility.yul\":7591:7593   */\n      0x1f\n        /* \"#utility.yul\":7584:7589   */\n      dup4\n        /* \"#utility.yul\":7580:7594   */\n      add\n        /* \"#utility.yul\":7576:7604   */\n      and\n        /* \"#utility.yul\":7566:7604   */\n      swap1\n      pop\n        /* \"#utility.yul\":7508:7610   */\n      swap2\n      swap1\n      pop\n      jump\t// out\n        /* \"#utility.yul\":7616:7842   */\n    tag_86:\n        /* \"#utility.yul\":7756:7790   */\n      0x536f6c6f20707565646520677561726461722031206d656e73616a6520706f72\n        /* \"#utility.yul\":7752:7753   */\n      0x00\n        /* \"#utility.yul\":7744:7750   */\n      dup3\n        /* \"#utility.yul\":7740:7754   */\n      add\n        /* \"#utility.yul\":7733:7791   */\n      mstore\n        /* \"#utility.yul\":7825:7834   */\n      0x206d696e75746f00000000000000000000000000000000000000000000000000\n        /* \"#utility.yul\":7820:7822   */\n      0x20\n        /* \"#utility.yul\":7812:7818   */\n      dup3\n        /* \"#utility.yul\":7808:7823   */\n      add\n        /* \"#utility.yul\":7801:7835   */\n      mstore\n        /* \"#utility.yul\":7616:7842   */\n      pop\n      jump\t// out\n\n    auxdata: 0xa2646970667358221220c775f7b58b1e2c6abe54bfda8016d1d600e06e4c2c5dbea0d228fe93f1303e0864736f6c63430008070033\n}\n",
				"bytecode": {
					"linkReferences": {},
					"object": "608060405234801561001057600080fd5b5061080a806100206000396000f3fe608060405234801561001057600080fd5b50600436106100365760003560e01c8063376d99971461003b578063c4f90a6b14610057575b600080fd5b610055600480360381019061005091906103e6565b610075565b005b61005f610190565b60405161006c9190610519565b60405180910390f35b3373ffffffffffffffffffffffffffffffffffffffff166000800160009054906101000a900473ffffffffffffffffffffffffffffffffffffffff1673ffffffffffffffffffffffffffffffffffffffff1614156101265760008060020154426100df91906105be565b9050603c8111610124576040517f08c379a000000000000000000000000000000000000000000000000000000000815260040161011b906104f9565b60405180910390fd5b505b336000800160006101000a81548173ffffffffffffffffffffffffffffffffffffffff021916908373ffffffffffffffffffffffffffffffffffffffff160217905550806000600101908051906020019061018292919061029c565b504260006002018190555050565b610198610322565b60006040518060600160405290816000820160009054906101000a900473ffffffffffffffffffffffffffffffffffffffff1673ffffffffffffffffffffffffffffffffffffffff1673ffffffffffffffffffffffffffffffffffffffff16815260200160018201805461020b90610670565b80601f016020809104026020016040519081016040528092919081815260200182805461023790610670565b80156102845780601f1061025957610100808354040283529160200191610284565b820191906000526020600020905b81548152906001019060200180831161026757829003601f168201915b50505050508152602001600282015481525050905090565b8280546102a890610670565b90600052602060002090601f0160209004810192826102ca5760008555610311565b82601f106102e357805160ff1916838001178555610311565b82800160010185558215610311579182015b828111156103105782518255916020019190600101906102f5565b5b50905061031e9190610359565b5090565b6040518060600160405280600073ffffffffffffffffffffffffffffffffffffffff16815260200160608152602001600081525090565b5b8082111561037257600081600090555060010161035a565b5090565b600061038961038484610560565b61053b565b9050828152602081018484840111156103a5576103a4610765565b5b6103b084828561062e565b509392505050565b600082601f8301126103cd576103cc610760565b5b81356103dd848260208601610376565b91505092915050565b6000602082840312156103fc576103fb61076f565b5b600082013567ffffffffffffffff81111561041a5761041961076a565b5b610426848285016103b8565b91505092915050565b610438816105f2565b82525050565b600061044982610591565b610453818561059c565b935061046381856020860161063d565b61046c81610774565b840191505092915050565b60006104846027836105ad565b915061048f82610785565b604082019050919050565b60006060830160008301516104b2600086018261042f565b50602083015184820360208601526104ca828261043e565b91505060408301516104df60408601826104ea565b508091505092915050565b6104f381610624565b82525050565b6000602082019050818103600083015261051281610477565b9050919050565b60006020820190508181036000830152610533818461049a565b905092915050565b6000610545610556565b905061055182826106a2565b919050565b6000604051905090565b600067ffffffffffffffff82111561057b5761057a610731565b5b61058482610774565b9050602081019050919050565b600081519050919050565b600082825260208201905092915050565b600082825260208201905092915050565b60006105c982610624565b91506105d483610624565b9250828210156105e7576105e66106d3565b5b828203905092915050565b60006105fd82610604565b9050919050565b600073ffffffffffffffffffffffffffffffffffffffff82169050919050565b6000819050919050565b82818337600083830152505050565b60005b8381101561065b578082015181840152602081019050610640565b8381111561066a576000848401525b50505050565b6000600282049050600182168061068857607f821691505b6020821081141561069c5761069b610702565b5b50919050565b6106ab82610774565b810181811067ffffffffffffffff821117156106ca576106c9610731565b5b80604052505050565b7f4e487b7100000000000000000000000000000000000000000000000000000000600052601160045260246000fd5b7f4e487b7100000000000000000000000000000000000000000000000000000000600052602260045260246000fd5b7f4e487b7100000000000000000000000000000000000000000000000000000000600052604160045260246000fd5b600080fd5b600080fd5b600080fd5b600080fd5b6000601f19601f8301169050919050565b7f536f6c6f20707565646520677561726461722031206d656e73616a6520706f7260008201527f206d696e75746f0000000000000000000000000000000000000000000000000060208201525056fea2646970667358221220c775f7b58b1e2c6abe54bfda8016d1d600e06e4c2c5dbea0d228fe93f1303e0864736f6c63430008070033",
					"opcodes": "PUSH1 0x80 PUSH1 0x40 MSTORE CALLVALUE DUP1 ISZERO PUSH2 0x10 JUMPI PUSH1 0x0 DUP1 REVERT JUMPDEST POP PUSH2 0x80A DUP1 PUSH2 0x20 PUSH1 0x0 CODECOPY PUSH1 0x0 RETURN INVALID PUSH1 0x80 PUSH1 0x40 MSTORE CALLVALUE DUP1 ISZERO PUSH2 0x10 JUMPI PUSH1 0x0 DUP1 REVERT JUMPDEST POP PUSH1 0x4 CALLDATASIZE LT PUSH2 0x36 JUMPI PUSH1 0x0 CALLDATALOAD PUSH1 0xE0 SHR DUP1 PUSH4 0x376D9997 EQ PUSH2 0x3B JUMPI DUP1 PUSH4 0xC4F90A6B EQ PUSH2 0x57 JUMPI JUMPDEST PUSH1 0x0 DUP1 REVERT JUMPDEST PUSH2 0x55 PUSH1 0x4 DUP1 CALLDATASIZE SUB DUP2 ADD SWAP1 PUSH2 0x50 SWAP2 SWAP1 PUSH2 0x3E6 JUMP JUMPDEST PUSH2 0x75 JUMP JUMPDEST STOP JUMPDEST PUSH2 0x5F PUSH2 0x190 JUMP JUMPDEST PUSH1 0x40 MLOAD PUSH2 0x6C SWAP2 SWAP1 PUSH2 0x519 JUMP JUMPDEST PUSH1 0x40 MLOAD DUP1 SWAP2 SUB SWAP1 RETURN JUMPDEST CALLER PUSH20 0xFFFFFFFFFFFFFFFFFFFFFFFFFFFFFFFFFFFFFFFF AND PUSH1 0x0 DUP1 ADD PUSH1 0x0 SWAP1 SLOAD SWAP1 PUSH2 0x100 EXP SWAP1 DIV PUSH20 0xFFFFFFFFFFFFFFFFFFFFFFFFFFFFFFFFFFFFFFFF AND PUSH20 0xFFFFFFFFFFFFFFFFFFFFFFFFFFFFFFFFFFFFFFFF AND EQ ISZERO PUSH2 0x126 JUMPI PUSH1 0x0 DUP1 PUSH1 0x2 ADD SLOAD TIMESTAMP PUSH2 0xDF SWAP2 SWAP1 PUSH2 0x5BE JUMP JUMPDEST SWAP1 POP PUSH1 0x3C DUP2 GT PUSH2 0x124 JUMPI PUSH1 0x40 MLOAD PUSH32 0x8C379A000000000000000000000000000000000000000000000000000000000 DUP2 MSTORE PUSH1 0x4 ADD PUSH2 0x11B SWAP1 PUSH2 0x4F9 JUMP JUMPDEST PUSH1 0x40 MLOAD DUP1 SWAP2 SUB SWAP1 REVERT JUMPDEST POP JUMPDEST CALLER PUSH1 0x0 DUP1 ADD PUSH1 0x0 PUSH2 0x100 EXP DUP2 SLOAD DUP2 PUSH20 0xFFFFFFFFFFFFFFFFFFFFFFFFFFFFFFFFFFFFFFFF MUL NOT AND SWAP1 DUP4 PUSH20 0xFFFFFFFFFFFFFFFFFFFFFFFFFFFFFFFFFFFFFFFF AND MUL OR SWAP1 SSTORE POP DUP1 PUSH1 0x0 PUSH1 0x1 ADD SWAP1 DUP1 MLOAD SWAP1 PUSH1 0x20 ADD SWAP1 PUSH2 0x182 SWAP3 SWAP2 SWAP1 PUSH2 0x29C JUMP JUMPDEST POP TIMESTAMP PUSH1 0x0 PUSH1 0x2 ADD DUP2 SWAP1 SSTORE POP POP JUMP JUMPDEST PUSH2 0x198 PUSH2 0x322 JUMP JUMPDEST PUSH1 0x0 PUSH1 0x40 MLOAD DUP1 PUSH1 0x60 ADD PUSH1 0x40 MSTORE SWAP1 DUP2 PUSH1 0x0 DUP3 ADD PUSH1 0x0 SWAP1 SLOAD SWAP1 PUSH2 0x100 EXP SWAP1 DIV PUSH20 0xFFFFFFFFFFFFFFFFFFFFFFFFFFFFFFFFFFFFFFFF AND PUSH20 0xFFFFFFFFFFFFFFFFFFFFFFFFFFFFFFFFFFFFFFFF AND PUSH20 0xFFFFFFFFFFFFFFFFFFFFFFFFFFFFFFFFFFFFFFFF AND DUP2 MSTORE PUSH1 0x20 ADD PUSH1 0x1 DUP3 ADD DUP1 SLOAD PUSH2 0x20B SWAP1 PUSH2 0x670 JUMP JUMPDEST DUP1 PUSH1 0x1F ADD PUSH1 0x20 DUP1 SWAP2 DIV MUL PUSH1 0x20 ADD PUSH1 0x40 MLOAD SWAP1 DUP2 ADD PUSH1 0x40 MSTORE DUP1 SWAP3 SWAP2 SWAP1 DUP2 DUP2 MSTORE PUSH1 0x20 ADD DUP3 DUP1 SLOAD PUSH2 0x237 SWAP1 PUSH2 0x670 JUMP JUMPDEST DUP1 ISZERO PUSH2 0x284 JUMPI DUP1 PUSH1 0x1F LT PUSH2 0x259 JUMPI PUSH2 0x100 DUP1 DUP4 SLOAD DIV MUL DUP4 MSTORE SWAP2 PUSH1 0x20 ADD SWAP2 PUSH2 0x284 JUMP JUMPDEST DUP3 ADD SWAP2 SWAP1 PUSH1 0x0 MSTORE PUSH1 0x20 PUSH1 0x0 KECCAK256 SWAP1 JUMPDEST DUP2 SLOAD DUP2 MSTORE SWAP1 PUSH1 0x1 ADD SWAP1 PUSH1 0x20 ADD DUP1 DUP4 GT PUSH2 0x267 JUMPI DUP3 SWAP1 SUB PUSH1 0x1F AND DUP3 ADD SWAP2 JUMPDEST POP POP POP POP POP DUP2 MSTORE PUSH1 0x20 ADD PUSH1 0x2 DUP3 ADD SLOAD DUP2 MSTORE POP POP SWAP1 POP SWAP1 JUMP JUMPDEST DUP3 DUP1 SLOAD PUSH2 0x2A8 SWAP1 PUSH2 0x670 JUMP JUMPDEST SWAP1 PUSH1 0x0 MSTORE PUSH1 0x20 PUSH1 0x0 KECCAK256 SWAP1 PUSH1 0x1F ADD PUSH1 0x20 SWAP1 DIV DUP2 ADD SWAP3 DUP3 PUSH2 0x2CA JUMPI PUSH1 0x0 DUP6 SSTORE PUSH2 0x311 JUMP JUMPDEST DUP3 PUSH1 0x1F LT PUSH2 0x2E3 JUMPI DUP1 MLOAD PUSH1 0xFF NOT AND DUP4 DUP1 ADD OR DUP6 SSTORE PUSH2 0x311 JUMP JUMPDEST DUP3 DUP1 ADD PUSH1 0x1 ADD DUP6 SSTORE DUP3 ISZERO PUSH2 0x311 JUMPI SWAP2 DUP3 ADD JUMPDEST DUP3 DUP2 GT ISZERO PUSH2 0x310 JUMPI DUP3 MLOAD DUP3 SSTORE SWAP2 PUSH1 0x20 ADD SWAP2 SWAP1 PUSH1 0x1 ADD SWAP1 PUSH2 0x2F5 JUMP JUMPDEST JUMPDEST POP SWAP1 POP PUSH2 0x31E SWAP2 SWAP1 PUSH2 0x359 JUMP JUMPDEST POP SWAP1 JUMP JUMPDEST PUSH1 0x40 MLOAD DUP1 PUSH1 0x60 ADD PUSH1 0x40 MSTORE DUP1 PUSH1 0x0 PUSH20 0xFFFFFFFFFFFFFFFFFFFFFFFFFFFFFFFFFFFFFFFF AND DUP2 MSTORE PUSH1 0x20 ADD PUSH1 0x60 DUP2 MSTORE PUSH1 0x20 ADD PUSH1 0x0 DUP2 MSTORE POP SWAP1 JUMP JUMPDEST JUMPDEST DUP1 DUP3 GT ISZERO PUSH2 0x372 JUMPI PUSH1 0x0 DUP2 PUSH1 0x0 SWAP1 SSTORE POP PUSH1 0x1 ADD PUSH2 0x35A JUMP JUMPDEST POP SWAP1 JUMP JUMPDEST PUSH1 0x0 PUSH2 0x389 PUSH2 0x384 DUP5 PUSH2 0x560 JUMP JUMPDEST PUSH2 0x53B JUMP JUMPDEST SWAP1 POP DUP3 DUP2 MSTORE PUSH1 0x20 DUP2 ADD DUP5 DUP5 DUP5 ADD GT ISZERO PUSH2 0x3A5 JUMPI PUSH2 0x3A4 PUSH2 0x765 JUMP JUMPDEST JUMPDEST PUSH2 0x3B0 DUP5 DUP3 DUP6 PUSH2 0x62E JUMP JUMPDEST POP SWAP4 SWAP3 POP POP POP JUMP JUMPDEST PUSH1 0x0 DUP3 PUSH1 0x1F DUP4 ADD SLT PUSH2 0x3CD JUMPI PUSH2 0x3CC PUSH2 0x760 JUMP JUMPDEST JUMPDEST DUP2 CALLDATALOAD PUSH2 0x3DD DUP5 DUP3 PUSH1 0x20 DUP7 ADD PUSH2 0x376 JUMP JUMPDEST SWAP2 POP POP SWAP3 SWAP2 POP POP JUMP JUMPDEST PUSH1 0x0 PUSH1 0x20 DUP3 DUP5 SUB SLT ISZERO PUSH2 0x3FC JUMPI PUSH2 0x3FB PUSH2 0x76F JUMP JUMPDEST JUMPDEST PUSH1 0x0 DUP3 ADD CALLDATALOAD PUSH8 0xFFFFFFFFFFFFFFFF DUP2 GT ISZERO PUSH2 0x41A JUMPI PUSH2 0x419 PUSH2 0x76A JUMP JUMPDEST JUMPDEST PUSH2 0x426 DUP5 DUP3 DUP6 ADD PUSH2 0x3B8 JUMP JUMPDEST SWAP2 POP POP SWAP3 SWAP2 POP POP JUMP JUMPDEST PUSH2 0x438 DUP2 PUSH2 0x5F2 JUMP JUMPDEST DUP3 MSTORE POP POP JUMP JUMPDEST PUSH1 0x0 PUSH2 0x449 DUP3 PUSH2 0x591 JUMP JUMPDEST PUSH2 0x453 DUP2 DUP6 PUSH2 0x59C JUMP JUMPDEST SWAP4 POP PUSH2 0x463 DUP2 DUP6 PUSH1 0x20 DUP7 ADD PUSH2 0x63D JUMP JUMPDEST PUSH2 0x46C DUP2 PUSH2 0x774 JUMP JUMPDEST DUP5 ADD SWAP2 POP POP SWAP3 SWAP2 POP POP JUMP JUMPDEST PUSH1 0x0 PUSH2 0x484 PUSH1 0x27 DUP4 PUSH2 0x5AD JUMP JUMPDEST SWAP2 POP PUSH2 0x48F DUP3 PUSH2 0x785 JUMP JUMPDEST PUSH1 0x40 DUP3 ADD SWAP1 POP SWAP2 SWAP1 POP JUMP JUMPDEST PUSH1 0x0 PUSH1 0x60 DUP4 ADD PUSH1 0x0 DUP4 ADD MLOAD PUSH2 0x4B2 PUSH1 0x0 DUP7 ADD DUP3 PUSH2 0x42F JUMP JUMPDEST POP PUSH1 0x20 DUP4 ADD MLOAD DUP5 DUP3 SUB PUSH1 0x20 DUP7 ADD MSTORE PUSH2 0x4CA DUP3 DUP3 PUSH2 0x43E JUMP JUMPDEST SWAP2 POP POP PUSH1 0x40 DUP4 ADD MLOAD PUSH2 0x4DF PUSH1 0x40 DUP7 ADD DUP3 PUSH2 0x4EA JUMP JUMPDEST POP DUP1 SWAP2 POP POP SWAP3 SWAP2 POP POP JUMP JUMPDEST PUSH2 0x4F3 DUP2 PUSH2 0x624 JUMP JUMPDEST DUP3 MSTORE POP POP JUMP JUMPDEST PUSH1 0x0 PUSH1 0x20 DUP3 ADD SWAP1 POP DUP2 DUP2 SUB PUSH1 0x0 DUP4 ADD MSTORE PUSH2 0x512 DUP2 PUSH2 0x477 JUMP JUMPDEST SWAP1 POP SWAP2 SWAP1 POP JUMP JUMPDEST PUSH1 0x0 PUSH1 0x20 DUP3 ADD SWAP1 POP DUP2 DUP2 SUB PUSH1 0x0 DUP4 ADD MSTORE PUSH2 0x533 DUP2 DUP5 PUSH2 0x49A JUMP JUMPDEST SWAP1 POP SWAP3 SWAP2 POP POP JUMP JUMPDEST PUSH1 0x0 PUSH2 0x545 PUSH2 0x556 JUMP JUMPDEST SWAP1 POP PUSH2 0x551 DUP3 DUP3 PUSH2 0x6A2 JUMP JUMPDEST SWAP2 SWAP1 POP JUMP JUMPDEST PUSH1 0x0 PUSH1 0x40 MLOAD SWAP1 POP SWAP1 JUMP JUMPDEST PUSH1 0x0 PUSH8 0xFFFFFFFFFFFFFFFF DUP3 GT ISZERO PUSH2 0x57B JUMPI PUSH2 0x57A PUSH2 0x731 JUMP JUMPDEST JUMPDEST PUSH2 0x584 DUP3 PUSH2 0x774 JUMP JUMPDEST SWAP1 POP PUSH1 0x20 DUP2 ADD SWAP1 POP SWAP2 SWAP1 POP JUMP JUMPDEST PUSH1 0x0 DUP2 MLOAD SWAP1 POP SWAP2 SWAP1 POP JUMP JUMPDEST PUSH1 0x0 DUP3 DUP3 MSTORE PUSH1 0x20 DUP3 ADD SWAP1 POP SWAP3 SWAP2 POP POP JUMP JUMPDEST PUSH1 0x0 DUP3 DUP3 MSTORE PUSH1 0x20 DUP3 ADD SWAP1 POP SWAP3 SWAP2 POP POP JUMP JUMPDEST PUSH1 0x0 PUSH2 0x5C9 DUP3 PUSH2 0x624 JUMP JUMPDEST SWAP2 POP PUSH2 0x5D4 DUP4 PUSH2 0x624 JUMP JUMPDEST SWAP3 POP DUP3 DUP3 LT ISZERO PUSH2 0x5E7 JUMPI PUSH2 0x5E6 PUSH2 0x6D3 JUMP JUMPDEST JUMPDEST DUP3 DUP3 SUB SWAP1 POP SWAP3 SWAP2 POP POP JUMP JUMPDEST PUSH1 0x0 PUSH2 0x5FD DUP3 PUSH2 0x604 JUMP JUMPDEST SWAP1 POP SWAP2 SWAP1 POP JUMP JUMPDEST PUSH1 0x0 PUSH20 0xFFFFFFFFFFFFFFFFFFFFFFFFFFFFFFFFFFFFFFFF DUP3 AND SWAP1 POP SWAP2 SWAP1 POP JUMP JUMPDEST PUSH1 0x0 DUP2 SWAP1 POP SWAP2 SWAP1 POP JUMP JUMPDEST DUP3 DUP2 DUP4 CALLDATACOPY PUSH1 0x0 DUP4 DUP4 ADD MSTORE POP POP POP JUMP JUMPDEST PUSH1 0x0 JUMPDEST DUP4 DUP2 LT ISZERO PUSH2 0x65B JUMPI DUP1 DUP3 ADD MLOAD DUP2 DUP5 ADD MSTORE PUSH1 0x20 DUP2 ADD SWAP1 POP PUSH2 0x640 JUMP JUMPDEST DUP4 DUP2 GT ISZERO PUSH2 0x66A JUMPI PUSH1 0x0 DUP5 DUP5 ADD MSTORE JUMPDEST POP POP POP POP JUMP JUMPDEST PUSH1 0x0 PUSH1 0x2 DUP3 DIV SWAP1 POP PUSH1 0x1 DUP3 AND DUP1 PUSH2 0x688 JUMPI PUSH1 0x7F DUP3 AND SWAP2 POP JUMPDEST PUSH1 0x20 DUP3 LT DUP2 EQ ISZERO PUSH2 0x69C JUMPI PUSH2 0x69B PUSH2 0x702 JUMP JUMPDEST JUMPDEST POP SWAP2 SWAP1 POP JUMP JUMPDEST PUSH2 0x6AB DUP3 PUSH2 0x774 JUMP JUMPDEST DUP2 ADD DUP2 DUP2 LT PUSH8 0xFFFFFFFFFFFFFFFF DUP3 GT OR ISZERO PUSH2 0x6CA JUMPI PUSH2 0x6C9 PUSH2 0x731 JUMP JUMPDEST JUMPDEST DUP1 PUSH1 0x40 MSTORE POP POP POP JUMP JUMPDEST PUSH32 0x4E487B7100000000000000000000000000000000000000000000000000000000 PUSH1 0x0 MSTORE PUSH1 0x11 PUSH1 0x4 MSTORE PUSH1 0x24 PUSH1 0x0 REVERT JUMPDEST PUSH32 0x4E487B7100000000000000000000000000000000000000000000000000000000 PUSH1 0x0 MSTORE PUSH1 0x22 PUSH1 0x4 MSTORE PUSH1 0x24 PUSH1 0x0 REVERT JUMPDEST PUSH32 0x4E487B7100000000000000000000000000000000000000000000000000000000 PUSH1 0x0 MSTORE PUSH1 0x41 PUSH1 0x4 MSTORE PUSH1 0x24 PUSH1 0x0 REVERT JUMPDEST PUSH1 0x0 DUP1 REVERT JUMPDEST PUSH1 0x0 DUP1 REVERT JUMPDEST PUSH1 0x0 DUP1 REVERT JUMPDEST PUSH1 0x0 DUP1 REVERT JUMPDEST PUSH1 0x0 PUSH1 0x1F NOT PUSH1 0x1F DUP4 ADD AND SWAP1 POP SWAP2 SWAP1 POP JUMP JUMPDEST PUSH32 0x536F6C6F20707565646520677561726461722031206D656E73616A6520706F72 PUSH1 0x0 DUP3 ADD MSTORE PUSH32 0x206D696E75746F00000000000000000000000000000000000000000000000000 PUSH1 0x20 DUP3 ADD MSTORE POP JUMP INVALID LOG2 PUSH5 0x6970667358 0x22 SLT KECCAK256 0xC7 PUSH22 0xF7B58B1E2C6ABE54BFDA8016D1D600E06E4C2C5DBEA0 0xD2 0x28 INVALID SWAP4 CALL ADDRESS RETURNDATACOPY ADDMOD PUSH5 0x736F6C6343 STOP ADDMOD SMOD STOP CALLER "
				},
				"gasEstimates": {
					"creation": {
						"codeDepositCost": "411600",
						"executionCost": "449",
						"totalCost": "412049"
					},
					"external": {
						"guardarMensaje(string)": "infinite",
						"verMensajeGuardado()": "infinite"
					}
				},
				"methodIdentifiers": {
					"guardarMensaje(string)": "376d9997",
					"verMensajeGuardado()": "c4f90a6b"
				}
			},
			"storageLayout": {
				"storage": [
					{
						"astId": 11,
						"contract": "contracts/7_Grafiti_por_minuto.sol:Grafiti",
						"label": "ultimoMensaje",
						"offset": 0,
						"slot": "0",
						"type": "t_struct(Mensaje)8_storage"
					}
				],
				"types": {
					"t_address": {
						"encoding": "inplace",
						"label": "address",
						"numberOfBytes": "20"
					},
					"t_string_storage": {
						"encoding": "bytes",
						"label": "string",
						"numberOfBytes": "32"
					},
					"t_struct(Mensaje)8_storage": {
						"encoding": "inplace",
						"label": "struct Grafiti.Mensaje",
						"members": [
							{
								"astId": 3,
								"contract": "contracts/7_Grafiti_por_minuto.sol:Grafiti",
								"label": "autor",
								"offset": 0,
								"slot": "0",
								"type": "t_address"
							},
							{
								"astId": 5,
								"contract": "contracts/7_Grafiti_por_minuto.sol:Grafiti",
								"label": "mensaje",
								"offset": 0,
								"slot": "1",
								"type": "t_string_storage"
							},
							{
								"astId": 7,
								"contract": "contracts/7_Grafiti_por_minuto.sol:Grafiti",
								"label": "fecha",
								"offset": 0,
								"slot": "2",
								"type": "t_uint256"
							}
						],
						"numberOfBytes": "96"
					},
					"t_uint256": {
						"encoding": "inplace",
						"label": "uint256",
						"numberOfBytes": "32"
					}
				}
			},
			"userdoc": {
				"kind": "user",
				"methods": {},
				"version": 1
			}
		}
	}
}