{
	"contracts/13_Banco.sol": {
		"Banco": {
			"abi": [
				{
					"inputs": [
						{
							"internalType": "address",
							"name": "direccion",
							"type": "address"
						},
						{
							"internalType": "uint256",
							"name": "monto",
							"type": "uint256"
						}
					],
					"name": "transferirPorCall",
					"outputs": [
						{
							"internalType": "bool",
							"name": "",
							"type": "bool"
						}
					],
					"stateMutability": "nonpayable",
					"type": "function"
				},
				{
					"inputs": [
						{
							"internalType": "address",
							"name": "direccion",
							"type": "address"
						},
						{
							"internalType": "uint256",
							"name": "monto",
							"type": "uint256"
						}
					],
					"name": "transferirPorSend",
					"outputs": [
						{
							"internalType": "bool",
							"name": "",
							"type": "bool"
						}
					],
					"stateMutability": "nonpayable",
					"type": "function"
				},
				{
					"inputs": [
						{
							"internalType": "address",
							"name": "direccion",
							"type": "address"
						},
						{
							"internalType": "uint256",
							"name": "monto",
							"type": "uint256"
						}
					],
					"name": "transferirPorTransfer",
					"outputs": [
						{
							"internalType": "bool",
							"name": "",
							"type": "bool"
						}
					],
					"stateMutability": "nonpayable",
					"type": "function"
				}
			],
			"devdoc": {
				"kind": "dev",
				"methods": {},
				"version": 1
			},
			"evm": {
				"assembly": "    /* \"contracts/13_Banco.sol\":72:637  contract Banco {\r... */\n  mstore(0x40, 0x80)\n  callvalue\n  dup1\n  iszero\n  tag_1\n  jumpi\n  0x00\n  dup1\n  revert\ntag_1:\n  pop\n  dataSize(sub_0)\n  dup1\n  dataOffset(sub_0)\n  0x00\n  codecopy\n  0x00\n  return\nstop\n\nsub_0: assembly {\n        /* \"contracts/13_Banco.sol\":72:637  contract Banco {\r... */\n      mstore(0x40, 0x80)\n      callvalue\n      dup1\n      iszero\n      tag_1\n      jumpi\n      0x00\n      dup1\n      revert\n    tag_1:\n      pop\n      jumpi(tag_2, lt(calldatasize, 0x04))\n      shr(0xe0, calldataload(0x00))\n      dup1\n      0x2e7552b5\n      eq\n      tag_3\n      jumpi\n      dup1\n      0x65ec0862\n      eq\n      tag_4\n      jumpi\n      dup1\n      0xb4c8129d\n      eq\n      tag_5\n      jumpi\n    tag_2:\n      0x00\n      dup1\n      revert\n        /* \"contracts/13_Banco.sol\":242:403  function transferirPorTransfer(address direccion, uint monto) external returns (bool) {\r... */\n    tag_3:\n      tag_6\n      0x04\n      dup1\n      calldatasize\n      sub\n      dup2\n      add\n      swap1\n      tag_7\n      swap2\n      swap1\n      tag_8\n      jump\t// in\n    tag_7:\n      tag_9\n      jump\t// in\n    tag_6:\n      mload(0x40)\n      tag_10\n      swap2\n      swap1\n      tag_11\n      jump\t// in\n    tag_10:\n      mload(0x40)\n      dup1\n      swap2\n      sub\n      swap1\n      return\n        /* \"contracts/13_Banco.sol\":411:632  function transferirPorCall(address direccion, uint monto) external returns (bool) {\r... */\n    tag_4:\n      tag_12\n      0x04\n      dup1\n      calldatasize\n      sub\n      dup2\n      add\n      swap1\n      tag_13\n      swap2\n      swap1\n      tag_8\n      jump\t// in\n    tag_13:\n      tag_14\n      jump\t// in\n    tag_12:\n      mload(0x40)\n      tag_15\n      swap2\n      swap1\n      tag_11\n      jump\t// in\n    tag_15:\n      mload(0x40)\n      dup1\n      swap2\n      sub\n      swap1\n      return\n        /* \"contracts/13_Banco.sol\":96:234  function transferirPorSend(address direccion, uint monto) external returns (bool) {\r... */\n    tag_5:\n      tag_16\n      0x04\n      dup1\n      calldatasize\n      sub\n      dup2\n      add\n      swap1\n      tag_17\n      swap2\n      swap1\n      tag_8\n      jump\t// in\n    tag_17:\n      tag_18\n      jump\t// in\n    tag_16:\n      mload(0x40)\n      tag_19\n      swap2\n      swap1\n      tag_11\n      jump\t// in\n    tag_19:\n      mload(0x40)\n      dup1\n      swap2\n      sub\n      swap1\n      return\n        /* \"contracts/13_Banco.sol\":242:403  function transferirPorTransfer(address direccion, uint monto) external returns (bool) {\r... */\n    tag_9:\n        /* \"contracts/13_Banco.sol\":322:326  bool */\n      0x00\n        /* \"contracts/13_Banco.sol\":347:356  direccion */\n      dup3\n        /* \"contracts/13_Banco.sol\":339:366  payable(direccion).transfer */\n      0xffffffffffffffffffffffffffffffffffffffff\n      and\n        /* \"contracts/13_Banco.sol\":339:373  payable(direccion).transfer(monto) */\n      0x08fc\n        /* \"contracts/13_Banco.sol\":367:372  monto */\n      dup4\n        /* \"contracts/13_Banco.sol\":339:373  payable(direccion).transfer(monto) */\n      swap1\n      dup2\n      iszero\n      mul\n      swap1\n      mload(0x40)\n      0x00\n      mload(0x40)\n      dup1\n      dup4\n      sub\n      dup2\n      dup6\n      dup9\n      dup9\n      call\n      swap4\n      pop\n      pop\n      pop\n      pop\n      iszero\n      dup1\n      iszero\n      tag_22\n      jumpi\n      returndatasize\n      0x00\n      dup1\n      returndatacopy\n      revert(0x00, returndatasize)\n    tag_22:\n      pop\n        /* \"contracts/13_Banco.sol\":391:395  true */\n      0x01\n        /* \"contracts/13_Banco.sol\":384:395  return true */\n      swap1\n      pop\n        /* \"contracts/13_Banco.sol\":242:403  function transferirPorTransfer(address direccion, uint monto) external returns (bool) {\r... */\n      swap3\n      swap2\n      pop\n      pop\n      jump\t// out\n        /* \"contracts/13_Banco.sol\":411:632  function transferirPorCall(address direccion, uint monto) external returns (bool) {\r... */\n    tag_14:\n        /* \"contracts/13_Banco.sol\":487:491  bool */\n      0x00\n        /* \"contracts/13_Banco.sol\":505:519  bool resultado */\n      dup1\n        /* \"contracts/13_Banco.sol\":525:534  direccion */\n      dup4\n        /* \"contracts/13_Banco.sol\":525:539  direccion.call */\n      0xffffffffffffffffffffffffffffffffffffffff\n      and\n        /* \"contracts/13_Banco.sol\":547:552  monto */\n      dup4\n        /* \"contracts/13_Banco.sol\":525:557  direccion.call{value: monto}(\"\") */\n      mload(0x40)\n      tag_24\n      swap1\n      tag_25\n      jump\t// in\n    tag_24:\n      0x00\n      mload(0x40)\n      dup1\n      dup4\n      sub\n      dup2\n      dup6\n      dup8\n      gas\n      call\n      swap3\n      pop\n      pop\n      pop\n      returndatasize\n      dup1\n      0x00\n      dup2\n      eq\n      tag_28\n      jumpi\n      mload(0x40)\n      swap2\n      pop\n      and(add(returndatasize, 0x3f), not(0x1f))\n      dup3\n      add\n      0x40\n      mstore\n      returndatasize\n      dup3\n      mstore\n      returndatasize\n      0x00\n      0x20\n      dup5\n      add\n      returndatacopy\n      jump(tag_27)\n    tag_28:\n      0x60\n      swap2\n      pop\n    tag_27:\n      pop\n        /* \"contracts/13_Banco.sol\":504:557  (bool resultado, ) = direccion.call{value: monto}(\"\") */\n      pop\n      swap1\n      pop\n        /* \"contracts/13_Banco.sol\":615:624  resultado */\n      dup1\n        /* \"contracts/13_Banco.sol\":608:624  return resultado */\n      swap2\n      pop\n      pop\n        /* \"contracts/13_Banco.sol\":411:632  function transferirPorCall(address direccion, uint monto) external returns (bool) {\r... */\n      swap3\n      swap2\n      pop\n      pop\n      jump\t// out\n        /* \"contracts/13_Banco.sol\":96:234  function transferirPorSend(address direccion, uint monto) external returns (bool) {\r... */\n    tag_18:\n        /* \"contracts/13_Banco.sol\":172:176  bool */\n      0x00\n        /* \"contracts/13_Banco.sol\":204:213  direccion */\n      dup3\n        /* \"contracts/13_Banco.sol\":196:219  payable(direccion).send */\n      0xffffffffffffffffffffffffffffffffffffffff\n      and\n        /* \"contracts/13_Banco.sol\":196:226  payable(direccion).send(monto) */\n      0x08fc\n        /* \"contracts/13_Banco.sol\":220:225  monto */\n      dup4\n        /* \"contracts/13_Banco.sol\":196:226  payable(direccion).send(monto) */\n      swap1\n      dup2\n      iszero\n      mul\n      swap1\n      mload(0x40)\n      0x00\n      mload(0x40)\n      dup1\n      dup4\n      sub\n      dup2\n      dup6\n      dup9\n      dup9\n      call\n      swap4\n      pop\n      pop\n      pop\n      pop\n        /* \"contracts/13_Banco.sol\":189:226  return payable(direccion).send(monto) */\n      swap1\n      pop\n        /* \"contracts/13_Banco.sol\":96:234  function transferirPorSend(address direccion, uint monto) external returns (bool) {\r... */\n      swap3\n      swap2\n      pop\n      pop\n      jump\t// out\n        /* \"#utility.yul\":7:146   */\n    tag_32:\n        /* \"#utility.yul\":53:58   */\n      0x00\n        /* \"#utility.yul\":91:97   */\n      dup2\n        /* \"#utility.yul\":78:98   */\n      calldataload\n        /* \"#utility.yul\":69:98   */\n      swap1\n      pop\n        /* \"#utility.yul\":107:140   */\n      tag_34\n        /* \"#utility.yul\":134:139   */\n      dup2\n        /* \"#utility.yul\":107:140   */\n      tag_35\n      jump\t// in\n    tag_34:\n        /* \"#utility.yul\":7:146   */\n      swap3\n      swap2\n      pop\n      pop\n      jump\t// out\n        /* \"#utility.yul\":152:291   */\n    tag_36:\n        /* \"#utility.yul\":198:203   */\n      0x00\n        /* \"#utility.yul\":236:242   */\n      dup2\n        /* \"#utility.yul\":223:243   */\n      calldataload\n        /* \"#utility.yul\":214:243   */\n      swap1\n      pop\n        /* \"#utility.yul\":252:285   */\n      tag_38\n        /* \"#utility.yul\":279:284   */\n      dup2\n        /* \"#utility.yul\":252:285   */\n      tag_39\n      jump\t// in\n    tag_38:\n        /* \"#utility.yul\":152:291   */\n      swap3\n      swap2\n      pop\n      pop\n      jump\t// out\n        /* \"#utility.yul\":297:771   */\n    tag_8:\n        /* \"#utility.yul\":365:371   */\n      0x00\n        /* \"#utility.yul\":373:379   */\n      dup1\n        /* \"#utility.yul\":422:424   */\n      0x40\n        /* \"#utility.yul\":410:419   */\n      dup4\n        /* \"#utility.yul\":401:408   */\n      dup6\n        /* \"#utility.yul\":397:420   */\n      sub\n        /* \"#utility.yul\":393:425   */\n      slt\n        /* \"#utility.yul\":390:509   */\n      iszero\n      tag_41\n      jumpi\n        /* \"#utility.yul\":428:507   */\n      tag_42\n      tag_43\n      jump\t// in\n    tag_42:\n        /* \"#utility.yul\":390:509   */\n    tag_41:\n        /* \"#utility.yul\":548:549   */\n      0x00\n        /* \"#utility.yul\":573:626   */\n      tag_44\n        /* \"#utility.yul\":618:625   */\n      dup6\n        /* \"#utility.yul\":609:615   */\n      dup3\n        /* \"#utility.yul\":598:607   */\n      dup7\n        /* \"#utility.yul\":594:616   */\n      add\n        /* \"#utility.yul\":573:626   */\n      tag_32\n      jump\t// in\n    tag_44:\n        /* \"#utility.yul\":563:626   */\n      swap3\n      pop\n        /* \"#utility.yul\":519:636   */\n      pop\n        /* \"#utility.yul\":675:677   */\n      0x20\n        /* \"#utility.yul\":701:754   */\n      tag_45\n        /* \"#utility.yul\":746:753   */\n      dup6\n        /* \"#utility.yul\":737:743   */\n      dup3\n        /* \"#utility.yul\":726:735   */\n      dup7\n        /* \"#utility.yul\":722:744   */\n      add\n        /* \"#utility.yul\":701:754   */\n      tag_36\n      jump\t// in\n    tag_45:\n        /* \"#utility.yul\":691:754   */\n      swap2\n      pop\n        /* \"#utility.yul\":646:764   */\n      pop\n        /* \"#utility.yul\":297:771   */\n      swap3\n      pop\n      swap3\n      swap1\n      pop\n      jump\t// out\n        /* \"#utility.yul\":777:886   */\n    tag_46:\n        /* \"#utility.yul\":858:879   */\n      tag_48\n        /* \"#utility.yul\":873:878   */\n      dup2\n        /* \"#utility.yul\":858:879   */\n      tag_49\n      jump\t// in\n    tag_48:\n        /* \"#utility.yul\":853:856   */\n      dup3\n        /* \"#utility.yul\":846:880   */\n      mstore\n        /* \"#utility.yul\":777:886   */\n      pop\n      pop\n      jump\t// out\n        /* \"#utility.yul\":892:1290   */\n    tag_50:\n        /* \"#utility.yul\":1051:1054   */\n      0x00\n        /* \"#utility.yul\":1072:1155   */\n      tag_52\n        /* \"#utility.yul\":1153:1154   */\n      0x00\n        /* \"#utility.yul\":1148:1151   */\n      dup4\n        /* \"#utility.yul\":1072:1155   */\n      tag_53\n      jump\t// in\n    tag_52:\n        /* \"#utility.yul\":1065:1155   */\n      swap2\n      pop\n        /* \"#utility.yul\":1164:1257   */\n      tag_54\n        /* \"#utility.yul\":1253:1256   */\n      dup3\n        /* \"#utility.yul\":1164:1257   */\n      tag_55\n      jump\t// in\n    tag_54:\n        /* \"#utility.yul\":1282:1283   */\n      0x00\n        /* \"#utility.yul\":1277:1280   */\n      dup3\n        /* \"#utility.yul\":1273:1284   */\n      add\n        /* \"#utility.yul\":1266:1284   */\n      swap1\n      pop\n        /* \"#utility.yul\":892:1290   */\n      swap2\n      swap1\n      pop\n      jump\t// out\n        /* \"#utility.yul\":1296:1675   */\n    tag_25:\n        /* \"#utility.yul\":1480:1483   */\n      0x00\n        /* \"#utility.yul\":1502:1649   */\n      tag_57\n        /* \"#utility.yul\":1645:1648   */\n      dup3\n        /* \"#utility.yul\":1502:1649   */\n      tag_50\n      jump\t// in\n    tag_57:\n        /* \"#utility.yul\":1495:1649   */\n      swap2\n      pop\n        /* \"#utility.yul\":1666:1669   */\n      dup2\n        /* \"#utility.yul\":1659:1669   */\n      swap1\n      pop\n        /* \"#utility.yul\":1296:1675   */\n      swap2\n      swap1\n      pop\n      jump\t// out\n        /* \"#utility.yul\":1681:1891   */\n    tag_11:\n        /* \"#utility.yul\":1768:1772   */\n      0x00\n        /* \"#utility.yul\":1806:1808   */\n      0x20\n        /* \"#utility.yul\":1795:1804   */\n      dup3\n        /* \"#utility.yul\":1791:1809   */\n      add\n        /* \"#utility.yul\":1783:1809   */\n      swap1\n      pop\n        /* \"#utility.yul\":1819:1884   */\n      tag_59\n        /* \"#utility.yul\":1881:1882   */\n      0x00\n        /* \"#utility.yul\":1870:1879   */\n      dup4\n        /* \"#utility.yul\":1866:1883   */\n      add\n        /* \"#utility.yul\":1857:1863   */\n      dup5\n        /* \"#utility.yul\":1819:1884   */\n      tag_46\n      jump\t// in\n    tag_59:\n        /* \"#utility.yul\":1681:1891   */\n      swap3\n      swap2\n      pop\n      pop\n      jump\t// out\n        /* \"#utility.yul\":1978:2125   */\n    tag_53:\n        /* \"#utility.yul\":2079:2090   */\n      0x00\n        /* \"#utility.yul\":2116:2119   */\n      dup2\n        /* \"#utility.yul\":2101:2119   */\n      swap1\n      pop\n        /* \"#utility.yul\":1978:2125   */\n      swap3\n      swap2\n      pop\n      pop\n      jump\t// out\n        /* \"#utility.yul\":2131:2227   */\n    tag_63:\n        /* \"#utility.yul\":2168:2175   */\n      0x00\n        /* \"#utility.yul\":2197:2221   */\n      tag_65\n        /* \"#utility.yul\":2215:2220   */\n      dup3\n        /* \"#utility.yul\":2197:2221   */\n      tag_66\n      jump\t// in\n    tag_65:\n        /* \"#utility.yul\":2186:2221   */\n      swap1\n      pop\n        /* \"#utility.yul\":2131:2227   */\n      swap2\n      swap1\n      pop\n      jump\t// out\n        /* \"#utility.yul\":2233:2323   */\n    tag_49:\n        /* \"#utility.yul\":2267:2274   */\n      0x00\n        /* \"#utility.yul\":2310:2315   */\n      dup2\n        /* \"#utility.yul\":2303:2316   */\n      iszero\n        /* \"#utility.yul\":2296:2317   */\n      iszero\n        /* \"#utility.yul\":2285:2317   */\n      swap1\n      pop\n        /* \"#utility.yul\":2233:2323   */\n      swap2\n      swap1\n      pop\n      jump\t// out\n        /* \"#utility.yul\":2329:2455   */\n    tag_66:\n        /* \"#utility.yul\":2366:2373   */\n      0x00\n        /* \"#utility.yul\":2406:2448   */\n      0xffffffffffffffffffffffffffffffffffffffff\n        /* \"#utility.yul\":2399:2404   */\n      dup3\n        /* \"#utility.yul\":2395:2449   */\n      and\n        /* \"#utility.yul\":2384:2449   */\n      swap1\n      pop\n        /* \"#utility.yul\":2329:2455   */\n      swap2\n      swap1\n      pop\n      jump\t// out\n        /* \"#utility.yul\":2461:2538   */\n    tag_69:\n        /* \"#utility.yul\":2498:2505   */\n      0x00\n        /* \"#utility.yul\":2527:2532   */\n      dup2\n        /* \"#utility.yul\":2516:2532   */\n      swap1\n      pop\n        /* \"#utility.yul\":2461:2538   */\n      swap2\n      swap1\n      pop\n      jump\t// out\n        /* \"#utility.yul\":2667:2784   */\n    tag_43:\n        /* \"#utility.yul\":2776:2777   */\n      0x00\n        /* \"#utility.yul\":2773:2774   */\n      dup1\n        /* \"#utility.yul\":2766:2778   */\n      revert\n        /* \"#utility.yul\":2790:2904   */\n    tag_55:\n      pop\n      jump\t// out\n        /* \"#utility.yul\":2910:3032   */\n    tag_35:\n        /* \"#utility.yul\":2983:3007   */\n      tag_76\n        /* \"#utility.yul\":3001:3006   */\n      dup2\n        /* \"#utility.yul\":2983:3007   */\n      tag_63\n      jump\t// in\n    tag_76:\n        /* \"#utility.yul\":2976:2981   */\n      dup2\n        /* \"#utility.yul\":2973:3008   */\n      eq\n        /* \"#utility.yul\":2963:3026   */\n      tag_77\n      jumpi\n        /* \"#utility.yul\":3022:3023   */\n      0x00\n        /* \"#utility.yul\":3019:3020   */\n      dup1\n        /* \"#utility.yul\":3012:3024   */\n      revert\n        /* \"#utility.yul\":2963:3026   */\n    tag_77:\n        /* \"#utility.yul\":2910:3032   */\n      pop\n      jump\t// out\n        /* \"#utility.yul\":3038:3160   */\n    tag_39:\n        /* \"#utility.yul\":3111:3135   */\n      tag_79\n        /* \"#utility.yul\":3129:3134   */\n      dup2\n        /* \"#utility.yul\":3111:3135   */\n      tag_69\n      jump\t// in\n    tag_79:\n        /* \"#utility.yul\":3104:3109   */\n      dup2\n        /* \"#utility.yul\":3101:3136   */\n      eq\n        /* \"#utility.yul\":3091:3154   */\n      tag_80\n      jumpi\n        /* \"#utility.yul\":3150:3151   */\n      0x00\n        /* \"#utility.yul\":3147:3148   */\n      dup1\n        /* \"#utility.yul\":3140:3152   */\n      revert\n        /* \"#utility.yul\":3091:3154   */\n    tag_80:\n        /* \"#utility.yul\":3038:3160   */\n      pop\n      jump\t// out\n\n    auxdata: 0xa264697066735822122058f4ceb3f0071d379e4f4e68b7dee6ce75ebd051852f9ce09a1eba7d98126f3364736f6c63430008070033\n}\n",
				"bytecode": {
					"linkReferences": {},
					"object": "608060405234801561001057600080fd5b5061036a806100206000396000f3fe608060405234801561001057600080fd5b50600436106100415760003560e01c80632e7552b51461004657806365ec086214610076578063b4c8129d146100a6575b600080fd5b610060600480360381019061005b9190610209565b6100d6565b60405161006d9190610290565b60405180910390f35b610090600480360381019061008b9190610209565b610129565b60405161009d9190610290565b60405180910390f35b6100c060048036038101906100bb9190610209565b6101a0565b6040516100cd9190610290565b60405180910390f35b60008273ffffffffffffffffffffffffffffffffffffffff166108fc839081150290604051600060405180830381858888f1935050505015801561011e573d6000803e3d6000fd5b506001905092915050565b6000808373ffffffffffffffffffffffffffffffffffffffff16836040516101509061027b565b60006040518083038185875af1925050503d806000811461018d576040519150601f19603f3d011682016040523d82523d6000602084013e610192565b606091505b505090508091505092915050565b60008273ffffffffffffffffffffffffffffffffffffffff166108fc839081150290604051600060405180830381858888f19350505050905092915050565b6000813590506101ee81610306565b92915050565b6000813590506102038161031d565b92915050565b600080604083850312156102205761021f6102fe565b5b600061022e858286016101df565b925050602061023f858286016101f4565b9150509250929050565b610252816102c8565b82525050565b60006102656000836102ab565b915061027082610303565b600082019050919050565b600061028682610258565b9150819050919050565b60006020820190506102a56000830184610249565b92915050565b600081905092915050565b60006102c1826102d4565b9050919050565b60008115159050919050565b600073ffffffffffffffffffffffffffffffffffffffff82169050919050565b6000819050919050565b600080fd5b50565b61030f816102b6565b811461031a57600080fd5b50565b610326816102f4565b811461033157600080fd5b5056fea264697066735822122058f4ceb3f0071d379e4f4e68b7dee6ce75ebd051852f9ce09a1eba7d98126f3364736f6c63430008070033",
					"opcodes": "PUSH1 0x80 PUSH1 0x40 MSTORE CALLVALUE DUP1 ISZERO PUSH2 0x10 JUMPI PUSH1 0x0 DUP1 REVERT JUMPDEST POP PUSH2 0x36A DUP1 PUSH2 0x20 PUSH1 0x0 CODECOPY PUSH1 0x0 RETURN INVALID PUSH1 0x80 PUSH1 0x40 MSTORE CALLVALUE DUP1 ISZERO PUSH2 0x10 JUMPI PUSH1 0x0 DUP1 REVERT JUMPDEST POP PUSH1 0x4 CALLDATASIZE LT PUSH2 0x41 JUMPI PUSH1 0x0 CALLDATALOAD PUSH1 0xE0 SHR DUP1 PUSH4 0x2E7552B5 EQ PUSH2 0x46 JUMPI DUP1 PUSH4 0x65EC0862 EQ PUSH2 0x76 JUMPI DUP1 PUSH4 0xB4C8129D EQ PUSH2 0xA6 JUMPI JUMPDEST PUSH1 0x0 DUP1 REVERT JUMPDEST PUSH2 0x60 PUSH1 0x4 DUP1 CALLDATASIZE SUB DUP2 ADD SWAP1 PUSH2 0x5B SWAP2 SWAP1 PUSH2 0x209 JUMP JUMPDEST PUSH2 0xD6 JUMP JUMPDEST PUSH1 0x40 MLOAD PUSH2 0x6D SWAP2 SWAP1 PUSH2 0x290 JUMP JUMPDEST PUSH1 0x40 MLOAD DUP1 SWAP2 SUB SWAP1 RETURN JUMPDEST PUSH2 0x90 PUSH1 0x4 DUP1 CALLDATASIZE SUB DUP2 ADD SWAP1 PUSH2 0x8B SWAP2 SWAP1 PUSH2 0x209 JUMP JUMPDEST PUSH2 0x129 JUMP JUMPDEST PUSH1 0x40 MLOAD PUSH2 0x9D SWAP2 SWAP1 PUSH2 0x290 JUMP JUMPDEST PUSH1 0x40 MLOAD DUP1 SWAP2 SUB SWAP1 RETURN JUMPDEST PUSH2 0xC0 PUSH1 0x4 DUP1 CALLDATASIZE SUB DUP2 ADD SWAP1 PUSH2 0xBB SWAP2 SWAP1 PUSH2 0x209 JUMP JUMPDEST PUSH2 0x1A0 JUMP JUMPDEST PUSH1 0x40 MLOAD PUSH2 0xCD SWAP2 SWAP1 PUSH2 0x290 JUMP JUMPDEST PUSH1 0x40 MLOAD DUP1 SWAP2 SUB SWAP1 RETURN JUMPDEST PUSH1 0x0 DUP3 PUSH20 0xFFFFFFFFFFFFFFFFFFFFFFFFFFFFFFFFFFFFFFFF AND PUSH2 0x8FC DUP4 SWAP1 DUP2 ISZERO MUL SWAP1 PUSH1 0x40 MLOAD PUSH1 0x0 PUSH1 0x40 MLOAD DUP1 DUP4 SUB DUP2 DUP6 DUP9 DUP9 CALL SWAP4 POP POP POP POP ISZERO DUP1 ISZERO PUSH2 0x11E JUMPI RETURNDATASIZE PUSH1 0x0 DUP1 RETURNDATACOPY RETURNDATASIZE PUSH1 0x0 REVERT JUMPDEST POP PUSH1 0x1 SWAP1 POP SWAP3 SWAP2 POP POP JUMP JUMPDEST PUSH1 0x0 DUP1 DUP4 PUSH20 0xFFFFFFFFFFFFFFFFFFFFFFFFFFFFFFFFFFFFFFFF AND DUP4 PUSH1 0x40 MLOAD PUSH2 0x150 SWAP1 PUSH2 0x27B JUMP JUMPDEST PUSH1 0x0 PUSH1 0x40 MLOAD DUP1 DUP4 SUB DUP2 DUP6 DUP8 GAS CALL SWAP3 POP POP POP RETURNDATASIZE DUP1 PUSH1 0x0 DUP2 EQ PUSH2 0x18D JUMPI PUSH1 0x40 MLOAD SWAP2 POP PUSH1 0x1F NOT PUSH1 0x3F RETURNDATASIZE ADD AND DUP3 ADD PUSH1 0x40 MSTORE RETURNDATASIZE DUP3 MSTORE RETURNDATASIZE PUSH1 0x0 PUSH1 0x20 DUP5 ADD RETURNDATACOPY PUSH2 0x192 JUMP JUMPDEST PUSH1 0x60 SWAP2 POP JUMPDEST POP POP SWAP1 POP DUP1 SWAP2 POP POP SWAP3 SWAP2 POP POP JUMP JUMPDEST PUSH1 0x0 DUP3 PUSH20 0xFFFFFFFFFFFFFFFFFFFFFFFFFFFFFFFFFFFFFFFF AND PUSH2 0x8FC DUP4 SWAP1 DUP2 ISZERO MUL SWAP1 PUSH1 0x40 MLOAD PUSH1 0x0 PUSH1 0x40 MLOAD DUP1 DUP4 SUB DUP2 DUP6 DUP9 DUP9 CALL SWAP4 POP POP POP POP SWAP1 POP SWAP3 SWAP2 POP POP JUMP JUMPDEST PUSH1 0x0 DUP2 CALLDATALOAD SWAP1 POP PUSH2 0x1EE DUP2 PUSH2 0x306 JUMP JUMPDEST SWAP3 SWAP2 POP POP JUMP JUMPDEST PUSH1 0x0 DUP2 CALLDATALOAD SWAP1 POP PUSH2 0x203 DUP2 PUSH2 0x31D JUMP JUMPDEST SWAP3 SWAP2 POP POP JUMP JUMPDEST PUSH1 0x0 DUP1 PUSH1 0x40 DUP4 DUP6 SUB SLT ISZERO PUSH2 0x220 JUMPI PUSH2 0x21F PUSH2 0x2FE JUMP JUMPDEST JUMPDEST PUSH1 0x0 PUSH2 0x22E DUP6 DUP3 DUP7 ADD PUSH2 0x1DF JUMP JUMPDEST SWAP3 POP POP PUSH1 0x20 PUSH2 0x23F DUP6 DUP3 DUP7 ADD PUSH2 0x1F4 JUMP JUMPDEST SWAP2 POP POP SWAP3 POP SWAP3 SWAP1 POP JUMP JUMPDEST PUSH2 0x252 DUP2 PUSH2 0x2C8 JUMP JUMPDEST DUP3 MSTORE POP POP JUMP JUMPDEST PUSH1 0x0 PUSH2 0x265 PUSH1 0x0 DUP4 PUSH2 0x2AB JUMP JUMPDEST SWAP2 POP PUSH2 0x270 DUP3 PUSH2 0x303 JUMP JUMPDEST PUSH1 0x0 DUP3 ADD SWAP1 POP SWAP2 SWAP1 POP JUMP JUMPDEST PUSH1 0x0 PUSH2 0x286 DUP3 PUSH2 0x258 JUMP JUMPDEST SWAP2 POP DUP2 SWAP1 POP SWAP2 SWAP1 POP JUMP JUMPDEST PUSH1 0x0 PUSH1 0x20 DUP3 ADD SWAP1 POP PUSH2 0x2A5 PUSH1 0x0 DUP4 ADD DUP5 PUSH2 0x249 JUMP JUMPDEST SWAP3 SWAP2 POP POP JUMP JUMPDEST PUSH1 0x0 DUP2 SWAP1 POP SWAP3 SWAP2 POP POP JUMP JUMPDEST PUSH1 0x0 PUSH2 0x2C1 DUP3 PUSH2 0x2D4 JUMP JUMPDEST SWAP1 POP SWAP2 SWAP1 POP JUMP JUMPDEST PUSH1 0x0 DUP2 ISZERO ISZERO SWAP1 POP SWAP2 SWAP1 POP JUMP JUMPDEST PUSH1 0x0 PUSH20 0xFFFFFFFFFFFFFFFFFFFFFFFFFFFFFFFFFFFFFFFF DUP3 AND SWAP1 POP SWAP2 SWAP1 POP JUMP JUMPDEST PUSH1 0x0 DUP2 SWAP1 POP SWAP2 SWAP1 POP JUMP JUMPDEST PUSH1 0x0 DUP1 REVERT JUMPDEST POP JUMP JUMPDEST PUSH2 0x30F DUP2 PUSH2 0x2B6 JUMP JUMPDEST DUP2 EQ PUSH2 0x31A JUMPI PUSH1 0x0 DUP1 REVERT JUMPDEST POP JUMP JUMPDEST PUSH2 0x326 DUP2 PUSH2 0x2F4 JUMP JUMPDEST DUP2 EQ PUSH2 0x331 JUMPI PUSH1 0x0 DUP1 REVERT JUMPDEST POP JUMP INVALID LOG2 PUSH5 0x6970667358 0x22 SLT KECCAK256 PC DELEGATECALL 0xCE 0xB3 CREATE SMOD SAR CALLDATACOPY SWAP15 0x4F 0x4E PUSH9 0xB7DEE6CE75EBD05185 0x2F SWAP13 0xE0 SWAP11 0x1E 0xBA PUSH30 0x98126F3364736F6C63430008070033000000000000000000000000000000 "
				},
				"gasEstimates": {
					"creation": {
						"codeDepositCost": "174800",
						"executionCost": "220",
						"totalCost": "175020"
					},
					"external": {
						"transferirPorCall(address,uint256)": "infinite",
						"transferirPorSend(address,uint256)": "infinite",
						"transferirPorTransfer(address,uint256)": "infinite"
					}
				},
				"methodIdentifiers": {
					"transferirPorCall(address,uint256)": "65ec0862",
					"transferirPorSend(address,uint256)": "b4c8129d",
					"transferirPorTransfer(address,uint256)": "2e7552b5"
				}
			},
			"storageLayout": {
				"storage": [],
				"types": null
			},
			"userdoc": {
				"kind": "user",
				"methods": {},
				"version": 1
			}
		}
	}
}