{
	"contracts/11_Ejecicio_Herencia.sol": {
		"Docente": {
			"abi": [
				{
					"inputs": [
						{
							"internalType": "string",
							"name": "nombre",
							"type": "string"
						},
						{
							"internalType": "string",
							"name": "apellido",
							"type": "string"
						}
					],
					"stateMutability": "nonpayable",
					"type": "constructor"
				},
				{
					"inputs": [],
					"name": "saludo",
					"outputs": [
						{
							"internalType": "string",
							"name": "",
							"type": "string"
						}
					],
					"stateMutability": "view",
					"type": "function"
				}
			],
			"devdoc": {
				"kind": "dev",
				"methods": {},
				"version": 1
			},
			"evm": {
				"assembly": "    /* \"contracts/11_Ejecicio_Herencia.sol\":576:711  contract Docente is Participante {\r... */\n  mstore(0x40, 0x80)\n    /* \"contracts/11_Ejecicio_Herencia.sol\":616:708  constructor(string memory nombre, string memory apellido) Participante (nombre, apellido) {} */\n  callvalue\n  dup1\n  iszero\n  tag_1\n  jumpi\n  0x00\n  dup1\n  revert\ntag_1:\n  pop\n  mload(0x40)\n  sub(codesize, bytecodeSize)\n  dup1\n  bytecodeSize\n  dup4\n  codecopy\n  dup2\n  dup2\n  add\n  0x40\n  mstore\n  dup2\n  add\n  swap1\n  tag_2\n  swap2\n  swap1\n  tag_3\n  jump\t// in\ntag_2:\n    /* \"contracts/11_Ejecicio_Herencia.sol\":688:694  nombre */\n  dup2\n    /* \"contracts/11_Ejecicio_Herencia.sol\":696:704  apellido */\n  dup2\n    /* \"contracts/11_Ejecicio_Herencia.sol\":230:236  nombre */\n  dup2\n    /* \"contracts/11_Ejecicio_Herencia.sol\":220:227  _nombre */\n  0x00\n    /* \"contracts/11_Ejecicio_Herencia.sol\":220:236  _nombre = nombre */\n  swap1\n  dup1\n  mload\n  swap1\n  0x20\n  add\n  swap1\n  tag_7\n  swap3\n  swap2\n  swap1\n  tag_8\n  jump\t// in\ntag_7:\n  pop\n    /* \"contracts/11_Ejecicio_Herencia.sol\":259:267  apellido */\n  dup1\n    /* \"contracts/11_Ejecicio_Herencia.sol\":247:256  _apellido */\n  0x01\n    /* \"contracts/11_Ejecicio_Herencia.sol\":247:267  _apellido = apellido */\n  swap1\n  dup1\n  mload\n  swap1\n  0x20\n  add\n  swap1\n  tag_9\n  swap3\n  swap2\n  swap1\n  tag_8\n  jump\t// in\ntag_9:\n  pop\n    /* \"contracts/11_Ejecicio_Herencia.sol\":151:275  constructor(string memory nombre, string memory apellido) {\r... */\n  pop\n  pop\n    /* \"contracts/11_Ejecicio_Herencia.sol\":616:708  constructor(string memory nombre, string memory apellido) Participante (nombre, apellido) {} */\n  pop\n  pop\n    /* \"contracts/11_Ejecicio_Herencia.sol\":576:711  contract Docente is Participante {\r... */\n  jump(tag_11)\ntag_8:\n  dup3\n  dup1\n  sload\n  tag_12\n  swap1\n  tag_13\n  jump\t// in\ntag_12:\n  swap1\n  0x00\n  mstore\n  keccak256(0x00, 0x20)\n  swap1\n  0x1f\n  add\n  0x20\n  swap1\n  div\n  dup2\n  add\n  swap3\n  dup3\n  tag_15\n  jumpi\n  0x00\n  dup6\n  sstore\n  jump(tag_14)\ntag_15:\n  dup3\n  0x1f\n  lt\n  tag_16\n  jumpi\n  dup1\n  mload\n  not(0xff)\n  and\n  dup4\n  dup1\n  add\n  or\n  dup6\n  sstore\n  jump(tag_14)\ntag_16:\n  dup3\n  dup1\n  add\n  0x01\n  add\n  dup6\n  sstore\n  dup3\n  iszero\n  tag_14\n  jumpi\n  swap2\n  dup3\n  add\ntag_17:\n  dup3\n  dup2\n  gt\n  iszero\n  tag_18\n  jumpi\n  dup3\n  mload\n  dup3\n  sstore\n  swap2\n  0x20\n  add\n  swap2\n  swap1\n  0x01\n  add\n  swap1\n  jump(tag_17)\ntag_18:\ntag_14:\n  pop\n  swap1\n  pop\n  tag_19\n  swap2\n  swap1\n  tag_20\n  jump\t// in\ntag_19:\n  pop\n  swap1\n  jump\t// out\ntag_20:\ntag_21:\n  dup1\n  dup3\n  gt\n  iszero\n  tag_22\n  jumpi\n  0x00\n  dup2\n  0x00\n  swap1\n  sstore\n  pop\n  0x01\n  add\n  jump(tag_21)\ntag_22:\n  pop\n  swap1\n  jump\t// out\n    /* \"#utility.yul\":7:428   */\ntag_24:\n    /* \"#utility.yul\":96:101   */\n  0x00\n    /* \"#utility.yul\":121:187   */\n  tag_26\n    /* \"#utility.yul\":137:186   */\n  tag_27\n    /* \"#utility.yul\":179:185   */\n  dup5\n    /* \"#utility.yul\":137:186   */\n  tag_28\n  jump\t// in\ntag_27:\n    /* \"#utility.yul\":121:187   */\n  tag_29\n  jump\t// in\ntag_26:\n    /* \"#utility.yul\":112:187   */\n  swap1\n  pop\n    /* \"#utility.yul\":210:216   */\n  dup3\n    /* \"#utility.yul\":203:208   */\n  dup2\n    /* \"#utility.yul\":196:217   */\n  mstore\n    /* \"#utility.yul\":248:252   */\n  0x20\n    /* \"#utility.yul\":241:246   */\n  dup2\n    /* \"#utility.yul\":237:253   */\n  add\n    /* \"#utility.yul\":286:289   */\n  dup5\n    /* \"#utility.yul\":277:283   */\n  dup5\n    /* \"#utility.yul\":272:275   */\n  dup5\n    /* \"#utility.yul\":268:284   */\n  add\n    /* \"#utility.yul\":265:290   */\n  gt\n    /* \"#utility.yul\":262:374   */\n  iszero\n  tag_30\n  jumpi\n    /* \"#utility.yul\":293:372   */\n  tag_31\n  tag_32\n  jump\t// in\ntag_31:\n    /* \"#utility.yul\":262:374   */\ntag_30:\n    /* \"#utility.yul\":383:422   */\n  tag_33\n    /* \"#utility.yul\":415:421   */\n  dup5\n    /* \"#utility.yul\":410:413   */\n  dup3\n    /* \"#utility.yul\":405:408   */\n  dup6\n    /* \"#utility.yul\":383:422   */\n  tag_34\n  jump\t// in\ntag_33:\n    /* \"#utility.yul\":102:428   */\n  pop\n    /* \"#utility.yul\":7:428   */\n  swap4\n  swap3\n  pop\n  pop\n  pop\n  jump\t// out\n    /* \"#utility.yul\":448:803   */\ntag_35:\n    /* \"#utility.yul\":515:520   */\n  0x00\n    /* \"#utility.yul\":564:567   */\n  dup3\n    /* \"#utility.yul\":557:561   */\n  0x1f\n    /* \"#utility.yul\":549:555   */\n  dup4\n    /* \"#utility.yul\":545:562   */\n  add\n    /* \"#utility.yul\":541:568   */\n  slt\n    /* \"#utility.yul\":531:653   */\n  tag_37\n  jumpi\n    /* \"#utility.yul\":572:651   */\n  tag_38\n  tag_39\n  jump\t// in\ntag_38:\n    /* \"#utility.yul\":531:653   */\ntag_37:\n    /* \"#utility.yul\":682:688   */\n  dup2\n    /* \"#utility.yul\":676:689   */\n  mload\n    /* \"#utility.yul\":707:797   */\n  tag_40\n    /* \"#utility.yul\":793:796   */\n  dup5\n    /* \"#utility.yul\":785:791   */\n  dup3\n    /* \"#utility.yul\":778:782   */\n  0x20\n    /* \"#utility.yul\":770:776   */\n  dup7\n    /* \"#utility.yul\":766:783   */\n  add\n    /* \"#utility.yul\":707:797   */\n  tag_24\n  jump\t// in\ntag_40:\n    /* \"#utility.yul\":698:797   */\n  swap2\n  pop\n    /* \"#utility.yul\":521:803   */\n  pop\n    /* \"#utility.yul\":448:803   */\n  swap3\n  swap2\n  pop\n  pop\n  jump\t// out\n    /* \"#utility.yul\":809:1662   */\ntag_3:\n    /* \"#utility.yul\":908:914   */\n  0x00\n    /* \"#utility.yul\":916:922   */\n  dup1\n    /* \"#utility.yul\":965:967   */\n  0x40\n    /* \"#utility.yul\":953:962   */\n  dup4\n    /* \"#utility.yul\":944:951   */\n  dup6\n    /* \"#utility.yul\":940:963   */\n  sub\n    /* \"#utility.yul\":936:968   */\n  slt\n    /* \"#utility.yul\":933:1052   */\n  iszero\n  tag_42\n  jumpi\n    /* \"#utility.yul\":971:1050   */\n  tag_43\n  tag_44\n  jump\t// in\ntag_43:\n    /* \"#utility.yul\":933:1052   */\ntag_42:\n    /* \"#utility.yul\":1112:1113   */\n  0x00\n    /* \"#utility.yul\":1101:1110   */\n  dup4\n    /* \"#utility.yul\":1097:1114   */\n  add\n    /* \"#utility.yul\":1091:1115   */\n  mload\n    /* \"#utility.yul\":1142:1160   */\n  0xffffffffffffffff\n    /* \"#utility.yul\":1134:1140   */\n  dup2\n    /* \"#utility.yul\":1131:1161   */\n  gt\n    /* \"#utility.yul\":1128:1245   */\n  iszero\n  tag_45\n  jumpi\n    /* \"#utility.yul\":1164:1243   */\n  tag_46\n  tag_47\n  jump\t// in\ntag_46:\n    /* \"#utility.yul\":1128:1245   */\ntag_45:\n    /* \"#utility.yul\":1269:1343   */\n  tag_48\n    /* \"#utility.yul\":1335:1342   */\n  dup6\n    /* \"#utility.yul\":1326:1332   */\n  dup3\n    /* \"#utility.yul\":1315:1324   */\n  dup7\n    /* \"#utility.yul\":1311:1333   */\n  add\n    /* \"#utility.yul\":1269:1343   */\n  tag_35\n  jump\t// in\ntag_48:\n    /* \"#utility.yul\":1259:1343   */\n  swap3\n  pop\n    /* \"#utility.yul\":1062:1353   */\n  pop\n    /* \"#utility.yul\":1413:1415   */\n  0x20\n    /* \"#utility.yul\":1402:1411   */\n  dup4\n    /* \"#utility.yul\":1398:1416   */\n  add\n    /* \"#utility.yul\":1392:1417   */\n  mload\n    /* \"#utility.yul\":1444:1462   */\n  0xffffffffffffffff\n    /* \"#utility.yul\":1436:1442   */\n  dup2\n    /* \"#utility.yul\":1433:1463   */\n  gt\n    /* \"#utility.yul\":1430:1547   */\n  iszero\n  tag_49\n  jumpi\n    /* \"#utility.yul\":1466:1545   */\n  tag_50\n  tag_47\n  jump\t// in\ntag_50:\n    /* \"#utility.yul\":1430:1547   */\ntag_49:\n    /* \"#utility.yul\":1571:1645   */\n  tag_51\n    /* \"#utility.yul\":1637:1644   */\n  dup6\n    /* \"#utility.yul\":1628:1634   */\n  dup3\n    /* \"#utility.yul\":1617:1626   */\n  dup7\n    /* \"#utility.yul\":1613:1635   */\n  add\n    /* \"#utility.yul\":1571:1645   */\n  tag_35\n  jump\t// in\ntag_51:\n    /* \"#utility.yul\":1561:1645   */\n  swap2\n  pop\n    /* \"#utility.yul\":1363:1655   */\n  pop\n    /* \"#utility.yul\":809:1662   */\n  swap3\n  pop\n  swap3\n  swap1\n  pop\n  jump\t// out\n    /* \"#utility.yul\":1668:1797   */\ntag_29:\n    /* \"#utility.yul\":1702:1708   */\n  0x00\n    /* \"#utility.yul\":1729:1749   */\n  tag_53\n  tag_54\n  jump\t// in\ntag_53:\n    /* \"#utility.yul\":1719:1749   */\n  swap1\n  pop\n    /* \"#utility.yul\":1758:1791   */\n  tag_55\n    /* \"#utility.yul\":1786:1790   */\n  dup3\n    /* \"#utility.yul\":1778:1784   */\n  dup3\n    /* \"#utility.yul\":1758:1791   */\n  tag_56\n  jump\t// in\ntag_55:\n    /* \"#utility.yul\":1668:1797   */\n  swap2\n  swap1\n  pop\n  jump\t// out\n    /* \"#utility.yul\":1803:1878   */\ntag_54:\n    /* \"#utility.yul\":1836:1842   */\n  0x00\n    /* \"#utility.yul\":1869:1871   */\n  0x40\n    /* \"#utility.yul\":1863:1872   */\n  mload\n    /* \"#utility.yul\":1853:1872   */\n  swap1\n  pop\n    /* \"#utility.yul\":1803:1878   */\n  swap1\n  jump\t// out\n    /* \"#utility.yul\":1884:2192   */\ntag_28:\n    /* \"#utility.yul\":1946:1950   */\n  0x00\n    /* \"#utility.yul\":2036:2054   */\n  0xffffffffffffffff\n    /* \"#utility.yul\":2028:2034   */\n  dup3\n    /* \"#utility.yul\":2025:2055   */\n  gt\n    /* \"#utility.yul\":2022:2078   */\n  iszero\n  tag_59\n  jumpi\n    /* \"#utility.yul\":2058:2076   */\n  tag_60\n  tag_61\n  jump\t// in\ntag_60:\n    /* \"#utility.yul\":2022:2078   */\ntag_59:\n    /* \"#utility.yul\":2096:2125   */\n  tag_62\n    /* \"#utility.yul\":2118:2124   */\n  dup3\n    /* \"#utility.yul\":2096:2125   */\n  tag_63\n  jump\t// in\ntag_62:\n    /* \"#utility.yul\":2088:2125   */\n  swap1\n  pop\n    /* \"#utility.yul\":2180:2184   */\n  0x20\n    /* \"#utility.yul\":2174:2178   */\n  dup2\n    /* \"#utility.yul\":2170:2185   */\n  add\n    /* \"#utility.yul\":2162:2185   */\n  swap1\n  pop\n    /* \"#utility.yul\":1884:2192   */\n  swap2\n  swap1\n  pop\n  jump\t// out\n    /* \"#utility.yul\":2198:2505   */\ntag_34:\n    /* \"#utility.yul\":2266:2267   */\n  0x00\n    /* \"#utility.yul\":2276:2389   */\ntag_65:\n    /* \"#utility.yul\":2290:2296   */\n  dup4\n    /* \"#utility.yul\":2287:2288   */\n  dup2\n    /* \"#utility.yul\":2284:2297   */\n  lt\n    /* \"#utility.yul\":2276:2389   */\n  iszero\n  tag_67\n  jumpi\n    /* \"#utility.yul\":2375:2376   */\n  dup1\n    /* \"#utility.yul\":2370:2373   */\n  dup3\n    /* \"#utility.yul\":2366:2377   */\n  add\n    /* \"#utility.yul\":2360:2378   */\n  mload\n    /* \"#utility.yul\":2356:2357   */\n  dup2\n    /* \"#utility.yul\":2351:2354   */\n  dup5\n    /* \"#utility.yul\":2347:2358   */\n  add\n    /* \"#utility.yul\":2340:2379   */\n  mstore\n    /* \"#utility.yul\":2312:2314   */\n  0x20\n    /* \"#utility.yul\":2309:2310   */\n  dup2\n    /* \"#utility.yul\":2305:2315   */\n  add\n    /* \"#utility.yul\":2300:2315   */\n  swap1\n  pop\n    /* \"#utility.yul\":2276:2389   */\n  jump(tag_65)\ntag_67:\n    /* \"#utility.yul\":2407:2413   */\n  dup4\n    /* \"#utility.yul\":2404:2405   */\n  dup2\n    /* \"#utility.yul\":2401:2414   */\n  gt\n    /* \"#utility.yul\":2398:2499   */\n  iszero\n  tag_68\n  jumpi\n    /* \"#utility.yul\":2487:2488   */\n  0x00\n    /* \"#utility.yul\":2478:2484   */\n  dup5\n    /* \"#utility.yul\":2473:2476   */\n  dup5\n    /* \"#utility.yul\":2469:2485   */\n  add\n    /* \"#utility.yul\":2462:2489   */\n  mstore\n    /* \"#utility.yul\":2398:2499   */\ntag_68:\n    /* \"#utility.yul\":2247:2505   */\n  pop\n    /* \"#utility.yul\":2198:2505   */\n  pop\n  pop\n  pop\n  jump\t// out\n    /* \"#utility.yul\":2511:2831   */\ntag_13:\n    /* \"#utility.yul\":2555:2561   */\n  0x00\n    /* \"#utility.yul\":2592:2593   */\n  0x02\n    /* \"#utility.yul\":2586:2590   */\n  dup3\n    /* \"#utility.yul\":2582:2594   */\n  div\n    /* \"#utility.yul\":2572:2594   */\n  swap1\n  pop\n    /* \"#utility.yul\":2639:2640   */\n  0x01\n    /* \"#utility.yul\":2633:2637   */\n  dup3\n    /* \"#utility.yul\":2629:2641   */\n  and\n    /* \"#utility.yul\":2660:2678   */\n  dup1\n    /* \"#utility.yul\":2650:2731   */\n  tag_70\n  jumpi\n    /* \"#utility.yul\":2716:2720   */\n  0x7f\n    /* \"#utility.yul\":2708:2714   */\n  dup3\n    /* \"#utility.yul\":2704:2721   */\n  and\n    /* \"#utility.yul\":2694:2721   */\n  swap2\n  pop\n    /* \"#utility.yul\":2650:2731   */\ntag_70:\n    /* \"#utility.yul\":2778:2780   */\n  0x20\n    /* \"#utility.yul\":2770:2776   */\n  dup3\n    /* \"#utility.yul\":2767:2781   */\n  lt\n    /* \"#utility.yul\":2747:2765   */\n  dup2\n    /* \"#utility.yul\":2744:2782   */\n  eq\n    /* \"#utility.yul\":2741:2825   */\n  iszero\n  tag_71\n  jumpi\n    /* \"#utility.yul\":2797:2815   */\n  tag_72\n  tag_73\n  jump\t// in\ntag_72:\n    /* \"#utility.yul\":2741:2825   */\ntag_71:\n    /* \"#utility.yul\":2562:2831   */\n  pop\n    /* \"#utility.yul\":2511:2831   */\n  swap2\n  swap1\n  pop\n  jump\t// out\n    /* \"#utility.yul\":2837:3118   */\ntag_56:\n    /* \"#utility.yul\":2920:2947   */\n  tag_75\n    /* \"#utility.yul\":2942:2946   */\n  dup3\n    /* \"#utility.yul\":2920:2947   */\n  tag_63\n  jump\t// in\ntag_75:\n    /* \"#utility.yul\":2912:2918   */\n  dup2\n    /* \"#utility.yul\":2908:2948   */\n  add\n    /* \"#utility.yul\":3050:3056   */\n  dup2\n    /* \"#utility.yul\":3038:3048   */\n  dup2\n    /* \"#utility.yul\":3035:3057   */\n  lt\n    /* \"#utility.yul\":3014:3032   */\n  0xffffffffffffffff\n    /* \"#utility.yul\":3002:3012   */\n  dup3\n    /* \"#utility.yul\":2999:3033   */\n  gt\n    /* \"#utility.yul\":2996:3058   */\n  or\n    /* \"#utility.yul\":2993:3081   */\n  iszero\n  tag_76\n  jumpi\n    /* \"#utility.yul\":3061:3079   */\n  tag_77\n  tag_61\n  jump\t// in\ntag_77:\n    /* \"#utility.yul\":2993:3081   */\ntag_76:\n    /* \"#utility.yul\":3101:3111   */\n  dup1\n    /* \"#utility.yul\":3097:3099   */\n  0x40\n    /* \"#utility.yul\":3090:3112   */\n  mstore\n    /* \"#utility.yul\":2880:3118   */\n  pop\n    /* \"#utility.yul\":2837:3118   */\n  pop\n  pop\n  jump\t// out\n    /* \"#utility.yul\":3124:3304   */\ntag_73:\n    /* \"#utility.yul\":3172:3249   */\n  0x4e487b7100000000000000000000000000000000000000000000000000000000\n    /* \"#utility.yul\":3169:3170   */\n  0x00\n    /* \"#utility.yul\":3162:3250   */\n  mstore\n    /* \"#utility.yul\":3269:3273   */\n  0x22\n    /* \"#utility.yul\":3266:3267   */\n  0x04\n    /* \"#utility.yul\":3259:3274   */\n  mstore\n    /* \"#utility.yul\":3293:3297   */\n  0x24\n    /* \"#utility.yul\":3290:3291   */\n  0x00\n    /* \"#utility.yul\":3283:3298   */\n  revert\n    /* \"#utility.yul\":3310:3490   */\ntag_61:\n    /* \"#utility.yul\":3358:3435   */\n  0x4e487b7100000000000000000000000000000000000000000000000000000000\n    /* \"#utility.yul\":3355:3356   */\n  0x00\n    /* \"#utility.yul\":3348:3436   */\n  mstore\n    /* \"#utility.yul\":3455:3459   */\n  0x41\n    /* \"#utility.yul\":3452:3453   */\n  0x04\n    /* \"#utility.yul\":3445:3460   */\n  mstore\n    /* \"#utility.yul\":3479:3483   */\n  0x24\n    /* \"#utility.yul\":3476:3477   */\n  0x00\n    /* \"#utility.yul\":3469:3484   */\n  revert\n    /* \"#utility.yul\":3496:3613   */\ntag_39:\n    /* \"#utility.yul\":3605:3606   */\n  0x00\n    /* \"#utility.yul\":3602:3603   */\n  dup1\n    /* \"#utility.yul\":3595:3607   */\n  revert\n    /* \"#utility.yul\":3619:3736   */\ntag_32:\n    /* \"#utility.yul\":3728:3729   */\n  0x00\n    /* \"#utility.yul\":3725:3726   */\n  dup1\n    /* \"#utility.yul\":3718:3730   */\n  revert\n    /* \"#utility.yul\":3742:3859   */\ntag_47:\n    /* \"#utility.yul\":3851:3852   */\n  0x00\n    /* \"#utility.yul\":3848:3849   */\n  dup1\n    /* \"#utility.yul\":3841:3853   */\n  revert\n    /* \"#utility.yul\":3865:3982   */\ntag_44:\n    /* \"#utility.yul\":3974:3975   */\n  0x00\n    /* \"#utility.yul\":3971:3972   */\n  dup1\n    /* \"#utility.yul\":3964:3976   */\n  revert\n    /* \"#utility.yul\":3988:4090   */\ntag_63:\n    /* \"#utility.yul\":4029:4035   */\n  0x00\n    /* \"#utility.yul\":4080:4082   */\n  0x1f\n    /* \"#utility.yul\":4076:4083   */\n  not\n    /* \"#utility.yul\":4071:4073   */\n  0x1f\n    /* \"#utility.yul\":4064:4069   */\n  dup4\n    /* \"#utility.yul\":4060:4074   */\n  add\n    /* \"#utility.yul\":4056:4084   */\n  and\n    /* \"#utility.yul\":4046:4084   */\n  swap1\n  pop\n    /* \"#utility.yul\":3988:4090   */\n  swap2\n  swap1\n  pop\n  jump\t// out\n    /* \"contracts/11_Ejecicio_Herencia.sol\":576:711  contract Docente is Participante {\r... */\ntag_11:\n  dataSize(sub_0)\n  dup1\n  dataOffset(sub_0)\n  0x00\n  codecopy\n  0x00\n  return\nstop\n\nsub_0: assembly {\n        /* \"contracts/11_Ejecicio_Herencia.sol\":576:711  contract Docente is Participante {\r... */\n      mstore(0x40, 0x80)\n      callvalue\n      dup1\n      iszero\n      tag_1\n      jumpi\n      0x00\n      dup1\n      revert\n    tag_1:\n      pop\n      jumpi(tag_2, lt(calldatasize, 0x04))\n      shr(0xe0, calldataload(0x00))\n      dup1\n      0x0a3a9d63\n      eq\n      tag_3\n      jumpi\n    tag_2:\n      0x00\n      dup1\n      revert\n        /* \"contracts/11_Ejecicio_Herencia.sol\":289:431  function saludo() public view returns (string memory){\r... */\n    tag_3:\n      tag_4\n      tag_5\n      jump\t// in\n    tag_4:\n      mload(0x40)\n      tag_6\n      swap2\n      swap1\n      tag_7\n      jump\t// in\n    tag_6:\n      mload(0x40)\n      dup1\n      swap2\n      sub\n      swap1\n      return\n    tag_5:\n        /* \"contracts/11_Ejecicio_Herencia.sol\":328:341  string memory */\n      0x60\n        /* \"contracts/11_Ejecicio_Herencia.sol\":397:404  _nombre */\n      0x00\n        /* \"contracts/11_Ejecicio_Herencia.sol\":411:420  _apellido */\n      0x01\n        /* \"contracts/11_Ejecicio_Herencia.sol\":371:421  abi.encodePacked(\"Hola \", _nombre, \" \", _apellido) */\n      add(0x20, mload(0x40))\n      tag_9\n      swap3\n      swap2\n      swap1\n      tag_10\n      jump\t// in\n    tag_9:\n      mload(0x40)\n      0x20\n      dup2\n      dup4\n      sub\n      sub\n      dup2\n      mstore\n      swap1\n      0x40\n      mstore\n        /* \"contracts/11_Ejecicio_Herencia.sol\":353:423  return ((string) (abi.encodePacked(\"Hola \", _nombre, \" \", _apellido))) */\n      swap1\n      pop\n        /* \"contracts/11_Ejecicio_Herencia.sol\":289:431  function saludo() public view returns (string memory){\r... */\n      swap1\n      jump\t// out\n        /* \"#utility.yul\":7:371   */\n    tag_12:\n        /* \"#utility.yul\":95:98   */\n      0x00\n        /* \"#utility.yul\":123:162   */\n      tag_14\n        /* \"#utility.yul\":156:161   */\n      dup3\n        /* \"#utility.yul\":123:162   */\n      tag_15\n      jump\t// in\n    tag_14:\n        /* \"#utility.yul\":178:249   */\n      tag_16\n        /* \"#utility.yul\":242:248   */\n      dup2\n        /* \"#utility.yul\":237:240   */\n      dup6\n        /* \"#utility.yul\":178:249   */\n      tag_17\n      jump\t// in\n    tag_16:\n        /* \"#utility.yul\":171:249   */\n      swap4\n      pop\n        /* \"#utility.yul\":258:310   */\n      tag_18\n        /* \"#utility.yul\":303:309   */\n      dup2\n        /* \"#utility.yul\":298:301   */\n      dup6\n        /* \"#utility.yul\":291:295   */\n      0x20\n        /* \"#utility.yul\":284:289   */\n      dup7\n        /* \"#utility.yul\":280:296   */\n      add\n        /* \"#utility.yul\":258:310   */\n      tag_19\n      jump\t// in\n    tag_18:\n        /* \"#utility.yul\":335:364   */\n      tag_20\n        /* \"#utility.yul\":357:363   */\n      dup2\n        /* \"#utility.yul\":335:364   */\n      tag_21\n      jump\t// in\n    tag_20:\n        /* \"#utility.yul\":330:333   */\n      dup5\n        /* \"#utility.yul\":326:365   */\n      add\n        /* \"#utility.yul\":319:365   */\n      swap2\n      pop\n        /* \"#utility.yul\":99:371   */\n      pop\n        /* \"#utility.yul\":7:371   */\n      swap3\n      swap2\n      pop\n      pop\n      jump\t// out\n        /* \"#utility.yul\":401:1246   */\n    tag_22:\n        /* \"#utility.yul\":504:507   */\n      0x00\n        /* \"#utility.yul\":541:546   */\n      dup2\n        /* \"#utility.yul\":535:547   */\n      sload\n        /* \"#utility.yul\":570:606   */\n      tag_24\n        /* \"#utility.yul\":596:605   */\n      dup2\n        /* \"#utility.yul\":570:606   */\n      tag_25\n      jump\t// in\n    tag_24:\n        /* \"#utility.yul\":622:711   */\n      tag_26\n        /* \"#utility.yul\":704:710   */\n      dup2\n        /* \"#utility.yul\":699:702   */\n      dup7\n        /* \"#utility.yul\":622:711   */\n      tag_27\n      jump\t// in\n    tag_26:\n        /* \"#utility.yul\":615:711   */\n      swap5\n      pop\n        /* \"#utility.yul\":742:743   */\n      0x01\n        /* \"#utility.yul\":731:740   */\n      dup3\n        /* \"#utility.yul\":727:744   */\n      and\n        /* \"#utility.yul\":758:759   */\n      0x00\n        /* \"#utility.yul\":753:890   */\n      dup2\n      eq\n      tag_29\n      jumpi\n        /* \"#utility.yul\":904:905   */\n      0x01\n        /* \"#utility.yul\":899:1240   */\n      dup2\n      eq\n      tag_30\n      jumpi\n        /* \"#utility.yul\":720:1240   */\n      jump(tag_28)\n        /* \"#utility.yul\":753:890   */\n    tag_29:\n        /* \"#utility.yul\":837:841   */\n      0xff\n        /* \"#utility.yul\":833:842   */\n      not\n        /* \"#utility.yul\":822:831   */\n      dup4\n        /* \"#utility.yul\":818:843   */\n      and\n        /* \"#utility.yul\":813:816   */\n      dup7\n        /* \"#utility.yul\":806:844   */\n      mstore\n        /* \"#utility.yul\":873:879   */\n      dup2\n        /* \"#utility.yul\":868:871   */\n      dup7\n        /* \"#utility.yul\":864:880   */\n      add\n        /* \"#utility.yul\":857:880   */\n      swap4\n      pop\n        /* \"#utility.yul\":753:890   */\n      jump(tag_28)\n        /* \"#utility.yul\":899:1240   */\n    tag_30:\n        /* \"#utility.yul\":966:1004   */\n      tag_31\n        /* \"#utility.yul\":998:1003   */\n      dup6\n        /* \"#utility.yul\":966:1004   */\n      tag_32\n      jump\t// in\n    tag_31:\n        /* \"#utility.yul\":1026:1027   */\n      0x00\n        /* \"#utility.yul\":1040:1194   */\n    tag_33:\n        /* \"#utility.yul\":1054:1060   */\n      dup4\n        /* \"#utility.yul\":1051:1052   */\n      dup2\n        /* \"#utility.yul\":1048:1061   */\n      lt\n        /* \"#utility.yul\":1040:1194   */\n      iszero\n      tag_35\n      jumpi\n        /* \"#utility.yul\":1128:1135   */\n      dup2\n        /* \"#utility.yul\":1122:1136   */\n      sload\n        /* \"#utility.yul\":1118:1119   */\n      dup2\n        /* \"#utility.yul\":1113:1116   */\n      dup10\n        /* \"#utility.yul\":1109:1120   */\n      add\n        /* \"#utility.yul\":1102:1137   */\n      mstore\n        /* \"#utility.yul\":1178:1179   */\n      0x01\n        /* \"#utility.yul\":1169:1176   */\n      dup3\n        /* \"#utility.yul\":1165:1180   */\n      add\n        /* \"#utility.yul\":1154:1180   */\n      swap2\n      pop\n        /* \"#utility.yul\":1076:1080   */\n      0x20\n        /* \"#utility.yul\":1073:1074   */\n      dup2\n        /* \"#utility.yul\":1069:1081   */\n      add\n        /* \"#utility.yul\":1064:1081   */\n      swap1\n      pop\n        /* \"#utility.yul\":1040:1194   */\n      jump(tag_33)\n    tag_35:\n        /* \"#utility.yul\":1223:1229   */\n      dup4\n        /* \"#utility.yul\":1218:1221   */\n      dup9\n        /* \"#utility.yul\":1214:1230   */\n      add\n        /* \"#utility.yul\":1207:1230   */\n      swap6\n      pop\n        /* \"#utility.yul\":906:1240   */\n      pop\n      pop\n        /* \"#utility.yul\":720:1240   */\n    tag_28:\n      pop\n        /* \"#utility.yul\":508:1246   */\n      pop\n      pop\n        /* \"#utility.yul\":401:1246   */\n      swap3\n      swap2\n      pop\n      pop\n      jump\t// out\n        /* \"#utility.yul\":1252:1652   */\n    tag_36:\n        /* \"#utility.yul\":1412:1415   */\n      0x00\n        /* \"#utility.yul\":1433:1517   */\n      tag_38\n        /* \"#utility.yul\":1515:1516   */\n      0x05\n        /* \"#utility.yul\":1510:1513   */\n      dup4\n        /* \"#utility.yul\":1433:1517   */\n      tag_27\n      jump\t// in\n    tag_38:\n        /* \"#utility.yul\":1426:1517   */\n      swap2\n      pop\n        /* \"#utility.yul\":1526:1619   */\n      tag_39\n        /* \"#utility.yul\":1615:1618   */\n      dup3\n        /* \"#utility.yul\":1526:1619   */\n      tag_40\n      jump\t// in\n    tag_39:\n        /* \"#utility.yul\":1644:1645   */\n      0x05\n        /* \"#utility.yul\":1639:1642   */\n      dup3\n        /* \"#utility.yul\":1635:1646   */\n      add\n        /* \"#utility.yul\":1628:1646   */\n      swap1\n      pop\n        /* \"#utility.yul\":1252:1652   */\n      swap2\n      swap1\n      pop\n      jump\t// out\n        /* \"#utility.yul\":1658:2058   */\n    tag_41:\n        /* \"#utility.yul\":1818:1821   */\n      0x00\n        /* \"#utility.yul\":1839:1923   */\n      tag_43\n        /* \"#utility.yul\":1921:1922   */\n      0x01\n        /* \"#utility.yul\":1916:1919   */\n      dup4\n        /* \"#utility.yul\":1839:1923   */\n      tag_27\n      jump\t// in\n    tag_43:\n        /* \"#utility.yul\":1832:1923   */\n      swap2\n      pop\n        /* \"#utility.yul\":1932:2025   */\n      tag_44\n        /* \"#utility.yul\":2021:2024   */\n      dup3\n        /* \"#utility.yul\":1932:2025   */\n      tag_45\n      jump\t// in\n    tag_44:\n        /* \"#utility.yul\":2050:2051   */\n      0x01\n        /* \"#utility.yul\":2045:2048   */\n      dup3\n        /* \"#utility.yul\":2041:2052   */\n      add\n        /* \"#utility.yul\":2034:2052   */\n      swap1\n      pop\n        /* \"#utility.yul\":1658:2058   */\n      swap2\n      swap1\n      pop\n      jump\t// out\n        /* \"#utility.yul\":2064:3019   */\n    tag_10:\n        /* \"#utility.yul\":2440:2443   */\n      0x00\n        /* \"#utility.yul\":2462:2610   */\n      tag_47\n        /* \"#utility.yul\":2606:2609   */\n      dup3\n        /* \"#utility.yul\":2462:2610   */\n      tag_36\n      jump\t// in\n    tag_47:\n        /* \"#utility.yul\":2455:2610   */\n      swap2\n      pop\n        /* \"#utility.yul\":2627:2719   */\n      tag_48\n        /* \"#utility.yul\":2715:2718   */\n      dup3\n        /* \"#utility.yul\":2706:2712   */\n      dup6\n        /* \"#utility.yul\":2627:2719   */\n      tag_22\n      jump\t// in\n    tag_48:\n        /* \"#utility.yul\":2620:2719   */\n      swap2\n      pop\n        /* \"#utility.yul\":2736:2884   */\n      tag_49\n        /* \"#utility.yul\":2880:2883   */\n      dup3\n        /* \"#utility.yul\":2736:2884   */\n      tag_41\n      jump\t// in\n    tag_49:\n        /* \"#utility.yul\":2729:2884   */\n      swap2\n      pop\n        /* \"#utility.yul\":2901:2993   */\n      tag_50\n        /* \"#utility.yul\":2989:2992   */\n      dup3\n        /* \"#utility.yul\":2980:2986   */\n      dup5\n        /* \"#utility.yul\":2901:2993   */\n      tag_22\n      jump\t// in\n    tag_50:\n        /* \"#utility.yul\":2894:2993   */\n      swap2\n      pop\n        /* \"#utility.yul\":3010:3013   */\n      dup2\n        /* \"#utility.yul\":3003:3013   */\n      swap1\n      pop\n        /* \"#utility.yul\":2064:3019   */\n      swap4\n      swap3\n      pop\n      pop\n      pop\n      jump\t// out\n        /* \"#utility.yul\":3025:3338   */\n    tag_7:\n        /* \"#utility.yul\":3138:3142   */\n      0x00\n        /* \"#utility.yul\":3176:3178   */\n      0x20\n        /* \"#utility.yul\":3165:3174   */\n      dup3\n        /* \"#utility.yul\":3161:3179   */\n      add\n        /* \"#utility.yul\":3153:3179   */\n      swap1\n      pop\n        /* \"#utility.yul\":3225:3234   */\n      dup2\n        /* \"#utility.yul\":3219:3223   */\n      dup2\n        /* \"#utility.yul\":3215:3235   */\n      sub\n        /* \"#utility.yul\":3211:3212   */\n      0x00\n        /* \"#utility.yul\":3200:3209   */\n      dup4\n        /* \"#utility.yul\":3196:3213   */\n      add\n        /* \"#utility.yul\":3189:3236   */\n      mstore\n        /* \"#utility.yul\":3253:3331   */\n      tag_52\n        /* \"#utility.yul\":3326:3330   */\n      dup2\n        /* \"#utility.yul\":3317:3323   */\n      dup5\n        /* \"#utility.yul\":3253:3331   */\n      tag_12\n      jump\t// in\n    tag_52:\n        /* \"#utility.yul\":3245:3331   */\n      swap1\n      pop\n        /* \"#utility.yul\":3025:3338   */\n      swap3\n      swap2\n      pop\n      pop\n      jump\t// out\n        /* \"#utility.yul\":3344:3485   */\n    tag_32:\n        /* \"#utility.yul\":3393:3397   */\n      0x00\n        /* \"#utility.yul\":3416:3419   */\n      dup2\n        /* \"#utility.yul\":3408:3419   */\n      swap1\n      pop\n        /* \"#utility.yul\":3439:3442   */\n      dup2\n        /* \"#utility.yul\":3436:3437   */\n      0x00\n        /* \"#utility.yul\":3429:3443   */\n      mstore\n        /* \"#utility.yul\":3473:3477   */\n      0x20\n        /* \"#utility.yul\":3470:3471   */\n      0x00\n        /* \"#utility.yul\":3460:3478   */\n      keccak256\n        /* \"#utility.yul\":3452:3478   */\n      swap1\n      pop\n        /* \"#utility.yul\":3344:3485   */\n      swap2\n      swap1\n      pop\n      jump\t// out\n        /* \"#utility.yul\":3491:3590   */\n    tag_15:\n        /* \"#utility.yul\":3543:3549   */\n      0x00\n        /* \"#utility.yul\":3577:3582   */\n      dup2\n        /* \"#utility.yul\":3571:3583   */\n      mload\n        /* \"#utility.yul\":3561:3583   */\n      swap1\n      pop\n        /* \"#utility.yul\":3491:3590   */\n      swap2\n      swap1\n      pop\n      jump\t// out\n        /* \"#utility.yul\":3596:3765   */\n    tag_17:\n        /* \"#utility.yul\":3680:3691   */\n      0x00\n        /* \"#utility.yul\":3714:3720   */\n      dup3\n        /* \"#utility.yul\":3709:3712   */\n      dup3\n        /* \"#utility.yul\":3702:3721   */\n      mstore\n        /* \"#utility.yul\":3754:3758   */\n      0x20\n        /* \"#utility.yul\":3749:3752   */\n      dup3\n        /* \"#utility.yul\":3745:3759   */\n      add\n        /* \"#utility.yul\":3730:3759   */\n      swap1\n      pop\n        /* \"#utility.yul\":3596:3765   */\n      swap3\n      swap2\n      pop\n      pop\n      jump\t// out\n        /* \"#utility.yul\":3771:3919   */\n    tag_27:\n        /* \"#utility.yul\":3873:3884   */\n      0x00\n        /* \"#utility.yul\":3910:3913   */\n      dup2\n        /* \"#utility.yul\":3895:3913   */\n      swap1\n      pop\n        /* \"#utility.yul\":3771:3919   */\n      swap3\n      swap2\n      pop\n      pop\n      jump\t// out\n        /* \"#utility.yul\":3925:4232   */\n    tag_19:\n        /* \"#utility.yul\":3993:3994   */\n      0x00\n        /* \"#utility.yul\":4003:4116   */\n    tag_58:\n        /* \"#utility.yul\":4017:4023   */\n      dup4\n        /* \"#utility.yul\":4014:4015   */\n      dup2\n        /* \"#utility.yul\":4011:4024   */\n      lt\n        /* \"#utility.yul\":4003:4116   */\n      iszero\n      tag_60\n      jumpi\n        /* \"#utility.yul\":4102:4103   */\n      dup1\n        /* \"#utility.yul\":4097:4100   */\n      dup3\n        /* \"#utility.yul\":4093:4104   */\n      add\n        /* \"#utility.yul\":4087:4105   */\n      mload\n        /* \"#utility.yul\":4083:4084   */\n      dup2\n        /* \"#utility.yul\":4078:4081   */\n      dup5\n        /* \"#utility.yul\":4074:4085   */\n      add\n        /* \"#utility.yul\":4067:4106   */\n      mstore\n        /* \"#utility.yul\":4039:4041   */\n      0x20\n        /* \"#utility.yul\":4036:4037   */\n      dup2\n        /* \"#utility.yul\":4032:4042   */\n      add\n        /* \"#utility.yul\":4027:4042   */\n      swap1\n      pop\n        /* \"#utility.yul\":4003:4116   */\n      jump(tag_58)\n    tag_60:\n        /* \"#utility.yul\":4134:4140   */\n      dup4\n        /* \"#utility.yul\":4131:4132   */\n      dup2\n        /* \"#utility.yul\":4128:4141   */\n      gt\n        /* \"#utility.yul\":4125:4226   */\n      iszero\n      tag_61\n      jumpi\n        /* \"#utility.yul\":4214:4215   */\n      0x00\n        /* \"#utility.yul\":4205:4211   */\n      dup5\n        /* \"#utility.yul\":4200:4203   */\n      dup5\n        /* \"#utility.yul\":4196:4212   */\n      add\n        /* \"#utility.yul\":4189:4216   */\n      mstore\n        /* \"#utility.yul\":4125:4226   */\n    tag_61:\n        /* \"#utility.yul\":3974:4232   */\n      pop\n        /* \"#utility.yul\":3925:4232   */\n      pop\n      pop\n      pop\n      jump\t// out\n        /* \"#utility.yul\":4238:4558   */\n    tag_25:\n        /* \"#utility.yul\":4282:4288   */\n      0x00\n        /* \"#utility.yul\":4319:4320   */\n      0x02\n        /* \"#utility.yul\":4313:4317   */\n      dup3\n        /* \"#utility.yul\":4309:4321   */\n      div\n        /* \"#utility.yul\":4299:4321   */\n      swap1\n      pop\n        /* \"#utility.yul\":4366:4367   */\n      0x01\n        /* \"#utility.yul\":4360:4364   */\n      dup3\n        /* \"#utility.yul\":4356:4368   */\n      and\n        /* \"#utility.yul\":4387:4405   */\n      dup1\n        /* \"#utility.yul\":4377:4458   */\n      tag_63\n      jumpi\n        /* \"#utility.yul\":4443:4447   */\n      0x7f\n        /* \"#utility.yul\":4435:4441   */\n      dup3\n        /* \"#utility.yul\":4431:4448   */\n      and\n        /* \"#utility.yul\":4421:4448   */\n      swap2\n      pop\n        /* \"#utility.yul\":4377:4458   */\n    tag_63:\n        /* \"#utility.yul\":4505:4507   */\n      0x20\n        /* \"#utility.yul\":4497:4503   */\n      dup3\n        /* \"#utility.yul\":4494:4508   */\n      lt\n        /* \"#utility.yul\":4474:4492   */\n      dup2\n        /* \"#utility.yul\":4471:4509   */\n      eq\n        /* \"#utility.yul\":4468:4552   */\n      iszero\n      tag_64\n      jumpi\n        /* \"#utility.yul\":4524:4542   */\n      tag_65\n      tag_66\n      jump\t// in\n    tag_65:\n        /* \"#utility.yul\":4468:4552   */\n    tag_64:\n        /* \"#utility.yul\":4289:4558   */\n      pop\n        /* \"#utility.yul\":4238:4558   */\n      swap2\n      swap1\n      pop\n      jump\t// out\n        /* \"#utility.yul\":4564:4744   */\n    tag_66:\n        /* \"#utility.yul\":4612:4689   */\n      0x4e487b7100000000000000000000000000000000000000000000000000000000\n        /* \"#utility.yul\":4609:4610   */\n      0x00\n        /* \"#utility.yul\":4602:4690   */\n      mstore\n        /* \"#utility.yul\":4709:4713   */\n      0x22\n        /* \"#utility.yul\":4706:4707   */\n      0x04\n        /* \"#utility.yul\":4699:4714   */\n      mstore\n        /* \"#utility.yul\":4733:4737   */\n      0x24\n        /* \"#utility.yul\":4730:4731   */\n      0x00\n        /* \"#utility.yul\":4723:4738   */\n      revert\n        /* \"#utility.yul\":4750:4852   */\n    tag_21:\n        /* \"#utility.yul\":4791:4797   */\n      0x00\n        /* \"#utility.yul\":4842:4844   */\n      0x1f\n        /* \"#utility.yul\":4838:4845   */\n      not\n        /* \"#utility.yul\":4833:4835   */\n      0x1f\n        /* \"#utility.yul\":4826:4831   */\n      dup4\n        /* \"#utility.yul\":4822:4836   */\n      add\n        /* \"#utility.yul\":4818:4846   */\n      and\n        /* \"#utility.yul\":4808:4846   */\n      swap1\n      pop\n        /* \"#utility.yul\":4750:4852   */\n      swap2\n      swap1\n      pop\n      jump\t// out\n        /* \"#utility.yul\":4858:5013   */\n    tag_40:\n        /* \"#utility.yul\":4998:5005   */\n      0x486f6c6120000000000000000000000000000000000000000000000000000000\n        /* \"#utility.yul\":4994:4995   */\n      0x00\n        /* \"#utility.yul\":4986:4992   */\n      dup3\n        /* \"#utility.yul\":4982:4996   */\n      add\n        /* \"#utility.yul\":4975:5006   */\n      mstore\n        /* \"#utility.yul\":4858:5013   */\n      pop\n      jump\t// out\n        /* \"#utility.yul\":5019:5170   */\n    tag_45:\n        /* \"#utility.yul\":5159:5162   */\n      0x2000000000000000000000000000000000000000000000000000000000000000\n        /* \"#utility.yul\":5155:5156   */\n      0x00\n        /* \"#utility.yul\":5147:5153   */\n      dup3\n        /* \"#utility.yul\":5143:5157   */\n      add\n        /* \"#utility.yul\":5136:5163   */\n      mstore\n        /* \"#utility.yul\":5019:5170   */\n      pop\n      jump\t// out\n\n    auxdata: 0xa2646970667358221220ae684ee460c05e35185d38c14936201f5e4d2124927892831bbf041d769e080064736f6c63430008070033\n}\n",
				"bytecode": {
					"linkReferences": {},
					"object": "608060405234801561001057600080fd5b506040516106b03803806106b08339818101604052810190610032919061017e565b8181816000908051906020019061004a92919061006b565b50806001908051906020019061006192919061006b565b5050505050610365565b8280546100779061027f565b90600052602060002090601f01602090048101928261009957600085556100e0565b82601f106100b257805160ff19168380011785556100e0565b828001600101855582156100e0579182015b828111156100df5782518255916020019190600101906100c4565b5b5090506100ed91906100f1565b5090565b5b8082111561010a5760008160009055506001016100f2565b5090565b600061012161011c8461021b565b6101f6565b90508281526020810184848401111561013d5761013c610345565b5b61014884828561024c565b509392505050565b600082601f83011261016557610164610340565b5b815161017584826020860161010e565b91505092915050565b600080604083850312156101955761019461034f565b5b600083015167ffffffffffffffff8111156101b3576101b261034a565b5b6101bf85828601610150565b925050602083015167ffffffffffffffff8111156101e0576101df61034a565b5b6101ec85828601610150565b9150509250929050565b6000610200610211565b905061020c82826102b1565b919050565b6000604051905090565b600067ffffffffffffffff82111561023657610235610311565b5b61023f82610354565b9050602081019050919050565b60005b8381101561026a57808201518184015260208101905061024f565b83811115610279576000848401525b50505050565b6000600282049050600182168061029757607f821691505b602082108114156102ab576102aa6102e2565b5b50919050565b6102ba82610354565b810181811067ffffffffffffffff821117156102d9576102d8610311565b5b80604052505050565b7f4e487b7100000000000000000000000000000000000000000000000000000000600052602260045260246000fd5b7f4e487b7100000000000000000000000000000000000000000000000000000000600052604160045260246000fd5b600080fd5b600080fd5b600080fd5b600080fd5b6000601f19601f8301169050919050565b61033c806103746000396000f3fe608060405234801561001057600080fd5b506004361061002b5760003560e01c80630a3a9d6314610030575b600080fd5b61003861004e565b60405161004591906101b1565b60405180910390f35b606060006001604051602001610065929190610177565b604051602081830303815290604052905090565b6000610084826101e8565b61008e81856101f3565b935061009e81856020860161020f565b6100a7816102a3565b840191505092915050565b600081546100bf81610242565b6100c98186610204565b945060018216600081146100e457600181146100f557610128565b60ff19831686528186019350610128565b6100fe856101d3565b60005b8381101561012057815481890152600182019150602081019050610101565b838801955050505b50505092915050565b600061013e600583610204565b9150610149826102b4565b600582019050919050565b6000610161600183610204565b915061016c826102dd565b600182019050919050565b600061018282610131565b915061018e82856100b2565b915061019982610154565b91506101a582846100b2565b91508190509392505050565b600060208201905081810360008301526101cb8184610079565b905092915050565b60008190508160005260206000209050919050565b600081519050919050565b600082825260208201905092915050565b600081905092915050565b60005b8381101561022d578082015181840152602081019050610212565b8381111561023c576000848401525b50505050565b6000600282049050600182168061025a57607f821691505b6020821081141561026e5761026d610274565b5b50919050565b7f4e487b7100000000000000000000000000000000000000000000000000000000600052602260045260246000fd5b6000601f19601f8301169050919050565b7f486f6c6120000000000000000000000000000000000000000000000000000000600082015250565b7f200000000000000000000000000000000000000000000000000000000000000060008201525056fea2646970667358221220ae684ee460c05e35185d38c14936201f5e4d2124927892831bbf041d769e080064736f6c63430008070033",
					"opcodes": "PUSH1 0x80 PUSH1 0x40 MSTORE CALLVALUE DUP1 ISZERO PUSH2 0x10 JUMPI PUSH1 0x0 DUP1 REVERT JUMPDEST POP PUSH1 0x40 MLOAD PUSH2 0x6B0 CODESIZE SUB DUP1 PUSH2 0x6B0 DUP4 CODECOPY DUP2 DUP2 ADD PUSH1 0x40 MSTORE DUP2 ADD SWAP1 PUSH2 0x32 SWAP2 SWAP1 PUSH2 0x17E JUMP JUMPDEST DUP2 DUP2 DUP2 PUSH1 0x0 SWAP1 DUP1 MLOAD SWAP1 PUSH1 0x20 ADD SWAP1 PUSH2 0x4A SWAP3 SWAP2 SWAP1 PUSH2 0x6B JUMP JUMPDEST POP DUP1 PUSH1 0x1 SWAP1 DUP1 MLOAD SWAP1 PUSH1 0x20 ADD SWAP1 PUSH2 0x61 SWAP3 SWAP2 SWAP1 PUSH2 0x6B JUMP JUMPDEST POP POP POP POP POP PUSH2 0x365 JUMP JUMPDEST DUP3 DUP1 SLOAD PUSH2 0x77 SWAP1 PUSH2 0x27F JUMP JUMPDEST SWAP1 PUSH1 0x0 MSTORE PUSH1 0x20 PUSH1 0x0 KECCAK256 SWAP1 PUSH1 0x1F ADD PUSH1 0x20 SWAP1 DIV DUP2 ADD SWAP3 DUP3 PUSH2 0x99 JUMPI PUSH1 0x0 DUP6 SSTORE PUSH2 0xE0 JUMP JUMPDEST DUP3 PUSH1 0x1F LT PUSH2 0xB2 JUMPI DUP1 MLOAD PUSH1 0xFF NOT AND DUP4 DUP1 ADD OR DUP6 SSTORE PUSH2 0xE0 JUMP JUMPDEST DUP3 DUP1 ADD PUSH1 0x1 ADD DUP6 SSTORE DUP3 ISZERO PUSH2 0xE0 JUMPI SWAP2 DUP3 ADD JUMPDEST DUP3 DUP2 GT ISZERO PUSH2 0xDF JUMPI DUP3 MLOAD DUP3 SSTORE SWAP2 PUSH1 0x20 ADD SWAP2 SWAP1 PUSH1 0x1 ADD SWAP1 PUSH2 0xC4 JUMP JUMPDEST JUMPDEST POP SWAP1 POP PUSH2 0xED SWAP2 SWAP1 PUSH2 0xF1 JUMP JUMPDEST POP SWAP1 JUMP JUMPDEST JUMPDEST DUP1 DUP3 GT ISZERO PUSH2 0x10A JUMPI PUSH1 0x0 DUP2 PUSH1 0x0 SWAP1 SSTORE POP PUSH1 0x1 ADD PUSH2 0xF2 JUMP JUMPDEST POP SWAP1 JUMP JUMPDEST PUSH1 0x0 PUSH2 0x121 PUSH2 0x11C DUP5 PUSH2 0x21B JUMP JUMPDEST PUSH2 0x1F6 JUMP JUMPDEST SWAP1 POP DUP3 DUP2 MSTORE PUSH1 0x20 DUP2 ADD DUP5 DUP5 DUP5 ADD GT ISZERO PUSH2 0x13D JUMPI PUSH2 0x13C PUSH2 0x345 JUMP JUMPDEST JUMPDEST PUSH2 0x148 DUP5 DUP3 DUP6 PUSH2 0x24C JUMP JUMPDEST POP SWAP4 SWAP3 POP POP POP JUMP JUMPDEST PUSH1 0x0 DUP3 PUSH1 0x1F DUP4 ADD SLT PUSH2 0x165 JUMPI PUSH2 0x164 PUSH2 0x340 JUMP JUMPDEST JUMPDEST DUP2 MLOAD PUSH2 0x175 DUP5 DUP3 PUSH1 0x20 DUP7 ADD PUSH2 0x10E JUMP JUMPDEST SWAP2 POP POP SWAP3 SWAP2 POP POP JUMP JUMPDEST PUSH1 0x0 DUP1 PUSH1 0x40 DUP4 DUP6 SUB SLT ISZERO PUSH2 0x195 JUMPI PUSH2 0x194 PUSH2 0x34F JUMP JUMPDEST JUMPDEST PUSH1 0x0 DUP4 ADD MLOAD PUSH8 0xFFFFFFFFFFFFFFFF DUP2 GT ISZERO PUSH2 0x1B3 JUMPI PUSH2 0x1B2 PUSH2 0x34A JUMP JUMPDEST JUMPDEST PUSH2 0x1BF DUP6 DUP3 DUP7 ADD PUSH2 0x150 JUMP JUMPDEST SWAP3 POP POP PUSH1 0x20 DUP4 ADD MLOAD PUSH8 0xFFFFFFFFFFFFFFFF DUP2 GT ISZERO PUSH2 0x1E0 JUMPI PUSH2 0x1DF PUSH2 0x34A JUMP JUMPDEST JUMPDEST PUSH2 0x1EC DUP6 DUP3 DUP7 ADD PUSH2 0x150 JUMP JUMPDEST SWAP2 POP POP SWAP3 POP SWAP3 SWAP1 POP JUMP JUMPDEST PUSH1 0x0 PUSH2 0x200 PUSH2 0x211 JUMP JUMPDEST SWAP1 POP PUSH2 0x20C DUP3 DUP3 PUSH2 0x2B1 JUMP JUMPDEST SWAP2 SWAP1 POP JUMP JUMPDEST PUSH1 0x0 PUSH1 0x40 MLOAD SWAP1 POP SWAP1 JUMP JUMPDEST PUSH1 0x0 PUSH8 0xFFFFFFFFFFFFFFFF DUP3 GT ISZERO PUSH2 0x236 JUMPI PUSH2 0x235 PUSH2 0x311 JUMP JUMPDEST JUMPDEST PUSH2 0x23F DUP3 PUSH2 0x354 JUMP JUMPDEST SWAP1 POP PUSH1 0x20 DUP2 ADD SWAP1 POP SWAP2 SWAP1 POP JUMP JUMPDEST PUSH1 0x0 JUMPDEST DUP4 DUP2 LT ISZERO PUSH2 0x26A JUMPI DUP1 DUP3 ADD MLOAD DUP2 DUP5 ADD MSTORE PUSH1 0x20 DUP2 ADD SWAP1 POP PUSH2 0x24F JUMP JUMPDEST DUP4 DUP2 GT ISZERO PUSH2 0x279 JUMPI PUSH1 0x0 DUP5 DUP5 ADD MSTORE JUMPDEST POP POP POP POP JUMP JUMPDEST PUSH1 0x0 PUSH1 0x2 DUP3 DIV SWAP1 POP PUSH1 0x1 DUP3 AND DUP1 PUSH2 0x297 JUMPI PUSH1 0x7F DUP3 AND SWAP2 POP JUMPDEST PUSH1 0x20 DUP3 LT DUP2 EQ ISZERO PUSH2 0x2AB JUMPI PUSH2 0x2AA PUSH2 0x2E2 JUMP JUMPDEST JUMPDEST POP SWAP2 SWAP1 POP JUMP JUMPDEST PUSH2 0x2BA DUP3 PUSH2 0x354 JUMP JUMPDEST DUP2 ADD DUP2 DUP2 LT PUSH8 0xFFFFFFFFFFFFFFFF DUP3 GT OR ISZERO PUSH2 0x2D9 JUMPI PUSH2 0x2D8 PUSH2 0x311 JUMP JUMPDEST JUMPDEST DUP1 PUSH1 0x40 MSTORE POP POP POP JUMP JUMPDEST PUSH32 0x4E487B7100000000000000000000000000000000000000000000000000000000 PUSH1 0x0 MSTORE PUSH1 0x22 PUSH1 0x4 MSTORE PUSH1 0x24 PUSH1 0x0 REVERT JUMPDEST PUSH32 0x4E487B7100000000000000000000000000000000000000000000000000000000 PUSH1 0x0 MSTORE PUSH1 0x41 PUSH1 0x4 MSTORE PUSH1 0x24 PUSH1 0x0 REVERT JUMPDEST PUSH1 0x0 DUP1 REVERT JUMPDEST PUSH1 0x0 DUP1 REVERT JUMPDEST PUSH1 0x0 DUP1 REVERT JUMPDEST PUSH1 0x0 DUP1 REVERT JUMPDEST PUSH1 0x0 PUSH1 0x1F NOT PUSH1 0x1F DUP4 ADD AND SWAP1 POP SWAP2 SWAP1 POP JUMP JUMPDEST PUSH2 0x33C DUP1 PUSH2 0x374 PUSH1 0x0 CODECOPY PUSH1 0x0 RETURN INVALID PUSH1 0x80 PUSH1 0x40 MSTORE CALLVALUE DUP1 ISZERO PUSH2 0x10 JUMPI PUSH1 0x0 DUP1 REVERT JUMPDEST POP PUSH1 0x4 CALLDATASIZE LT PUSH2 0x2B JUMPI PUSH1 0x0 CALLDATALOAD PUSH1 0xE0 SHR DUP1 PUSH4 0xA3A9D63 EQ PUSH2 0x30 JUMPI JUMPDEST PUSH1 0x0 DUP1 REVERT JUMPDEST PUSH2 0x38 PUSH2 0x4E JUMP JUMPDEST PUSH1 0x40 MLOAD PUSH2 0x45 SWAP2 SWAP1 PUSH2 0x1B1 JUMP JUMPDEST PUSH1 0x40 MLOAD DUP1 SWAP2 SUB SWAP1 RETURN JUMPDEST PUSH1 0x60 PUSH1 0x0 PUSH1 0x1 PUSH1 0x40 MLOAD PUSH1 0x20 ADD PUSH2 0x65 SWAP3 SWAP2 SWAP1 PUSH2 0x177 JUMP JUMPDEST PUSH1 0x40 MLOAD PUSH1 0x20 DUP2 DUP4 SUB SUB DUP2 MSTORE SWAP1 PUSH1 0x40 MSTORE SWAP1 POP SWAP1 JUMP JUMPDEST PUSH1 0x0 PUSH2 0x84 DUP3 PUSH2 0x1E8 JUMP JUMPDEST PUSH2 0x8E DUP2 DUP6 PUSH2 0x1F3 JUMP JUMPDEST SWAP4 POP PUSH2 0x9E DUP2 DUP6 PUSH1 0x20 DUP7 ADD PUSH2 0x20F JUMP JUMPDEST PUSH2 0xA7 DUP2 PUSH2 0x2A3 JUMP JUMPDEST DUP5 ADD SWAP2 POP POP SWAP3 SWAP2 POP POP JUMP JUMPDEST PUSH1 0x0 DUP2 SLOAD PUSH2 0xBF DUP2 PUSH2 0x242 JUMP JUMPDEST PUSH2 0xC9 DUP2 DUP7 PUSH2 0x204 JUMP JUMPDEST SWAP5 POP PUSH1 0x1 DUP3 AND PUSH1 0x0 DUP2 EQ PUSH2 0xE4 JUMPI PUSH1 0x1 DUP2 EQ PUSH2 0xF5 JUMPI PUSH2 0x128 JUMP JUMPDEST PUSH1 0xFF NOT DUP4 AND DUP7 MSTORE DUP2 DUP7 ADD SWAP4 POP PUSH2 0x128 JUMP JUMPDEST PUSH2 0xFE DUP6 PUSH2 0x1D3 JUMP JUMPDEST PUSH1 0x0 JUMPDEST DUP4 DUP2 LT ISZERO PUSH2 0x120 JUMPI DUP2 SLOAD DUP2 DUP10 ADD MSTORE PUSH1 0x1 DUP3 ADD SWAP2 POP PUSH1 0x20 DUP2 ADD SWAP1 POP PUSH2 0x101 JUMP JUMPDEST DUP4 DUP9 ADD SWAP6 POP POP POP JUMPDEST POP POP POP SWAP3 SWAP2 POP POP JUMP JUMPDEST PUSH1 0x0 PUSH2 0x13E PUSH1 0x5 DUP4 PUSH2 0x204 JUMP JUMPDEST SWAP2 POP PUSH2 0x149 DUP3 PUSH2 0x2B4 JUMP JUMPDEST PUSH1 0x5 DUP3 ADD SWAP1 POP SWAP2 SWAP1 POP JUMP JUMPDEST PUSH1 0x0 PUSH2 0x161 PUSH1 0x1 DUP4 PUSH2 0x204 JUMP JUMPDEST SWAP2 POP PUSH2 0x16C DUP3 PUSH2 0x2DD JUMP JUMPDEST PUSH1 0x1 DUP3 ADD SWAP1 POP SWAP2 SWAP1 POP JUMP JUMPDEST PUSH1 0x0 PUSH2 0x182 DUP3 PUSH2 0x131 JUMP JUMPDEST SWAP2 POP PUSH2 0x18E DUP3 DUP6 PUSH2 0xB2 JUMP JUMPDEST SWAP2 POP PUSH2 0x199 DUP3 PUSH2 0x154 JUMP JUMPDEST SWAP2 POP PUSH2 0x1A5 DUP3 DUP5 PUSH2 0xB2 JUMP JUMPDEST SWAP2 POP DUP2 SWAP1 POP SWAP4 SWAP3 POP POP POP JUMP JUMPDEST PUSH1 0x0 PUSH1 0x20 DUP3 ADD SWAP1 POP DUP2 DUP2 SUB PUSH1 0x0 DUP4 ADD MSTORE PUSH2 0x1CB DUP2 DUP5 PUSH2 0x79 JUMP JUMPDEST SWAP1 POP SWAP3 SWAP2 POP POP JUMP JUMPDEST PUSH1 0x0 DUP2 SWAP1 POP DUP2 PUSH1 0x0 MSTORE PUSH1 0x20 PUSH1 0x0 KECCAK256 SWAP1 POP SWAP2 SWAP1 POP JUMP JUMPDEST PUSH1 0x0 DUP2 MLOAD SWAP1 POP SWAP2 SWAP1 POP JUMP JUMPDEST PUSH1 0x0 DUP3 DUP3 MSTORE PUSH1 0x20 DUP3 ADD SWAP1 POP SWAP3 SWAP2 POP POP JUMP JUMPDEST PUSH1 0x0 DUP2 SWAP1 POP SWAP3 SWAP2 POP POP JUMP JUMPDEST PUSH1 0x0 JUMPDEST DUP4 DUP2 LT ISZERO PUSH2 0x22D JUMPI DUP1 DUP3 ADD MLOAD DUP2 DUP5 ADD MSTORE PUSH1 0x20 DUP2 ADD SWAP1 POP PUSH2 0x212 JUMP JUMPDEST DUP4 DUP2 GT ISZERO PUSH2 0x23C JUMPI PUSH1 0x0 DUP5 DUP5 ADD MSTORE JUMPDEST POP POP POP POP JUMP JUMPDEST PUSH1 0x0 PUSH1 0x2 DUP3 DIV SWAP1 POP PUSH1 0x1 DUP3 AND DUP1 PUSH2 0x25A JUMPI PUSH1 0x7F DUP3 AND SWAP2 POP JUMPDEST PUSH1 0x20 DUP3 LT DUP2 EQ ISZERO PUSH2 0x26E JUMPI PUSH2 0x26D PUSH2 0x274 JUMP JUMPDEST JUMPDEST POP SWAP2 SWAP1 POP JUMP JUMPDEST PUSH32 0x4E487B7100000000000000000000000000000000000000000000000000000000 PUSH1 0x0 MSTORE PUSH1 0x22 PUSH1 0x4 MSTORE PUSH1 0x24 PUSH1 0x0 REVERT JUMPDEST PUSH1 0x0 PUSH1 0x1F NOT PUSH1 0x1F DUP4 ADD AND SWAP1 POP SWAP2 SWAP1 POP JUMP JUMPDEST PUSH32 0x486F6C6120000000000000000000000000000000000000000000000000000000 PUSH1 0x0 DUP3 ADD MSTORE POP JUMP JUMPDEST PUSH32 0x2000000000000000000000000000000000000000000000000000000000000000 PUSH1 0x0 DUP3 ADD MSTORE POP JUMP INVALID LOG2 PUSH5 0x6970667358 0x22 SLT KECCAK256 0xAE PUSH9 0x4EE460C05E35185D38 0xC1 0x49 CALLDATASIZE KECCAK256 0x1F 0x5E 0x4D 0x21 0x24 SWAP3 PUSH25 0x92831BBF041D769E080064736F6C6343000807003300000000 "
				},
				"gasEstimates": {
					"creation": {
						"codeDepositCost": "165600",
						"executionCost": "infinite",
						"totalCost": "infinite"
					},
					"external": {
						"saludo()": "infinite"
					}
				},
				"methodIdentifiers": {
					"saludo()": "0a3a9d63"
				}
			},
			"storageLayout": {
				"storage": [
					{
						"astId": 3,
						"contract": "contracts/11_Ejecicio_Herencia.sol:Docente",
						"label": "_nombre",
						"offset": 0,
						"slot": "0",
						"type": "t_string_storage"
					},
					{
						"astId": 5,
						"contract": "contracts/11_Ejecicio_Herencia.sol:Docente",
						"label": "_apellido",
						"offset": 0,
						"slot": "1",
						"type": "t_string_storage"
					}
				],
				"types": {
					"t_string_storage": {
						"encoding": "bytes",
						"label": "string",
						"numberOfBytes": "32"
					}
				}
			},
			"userdoc": {
				"kind": "user",
				"methods": {},
				"version": 1
			}
		}
	}
}