{
	"contracts/9_Curso_Moneda.sol": {
		"CursoMoneda": {
			"abi": [
				{
					"inputs": [
						{
							"internalType": "uint256",
							"name": "saldoInicial",
							"type": "uint256"
						}
					],
					"stateMutability": "nonpayable",
					"type": "constructor"
				},
				{
					"anonymous": false,
					"inputs": [
						{
							"indexed": false,
							"internalType": "address",
							"name": "origen",
							"type": "address"
						},
						{
							"indexed": false,
							"internalType": "address",
							"name": "destino",
							"type": "address"
						},
						{
							"indexed": false,
							"internalType": "uint256",
							"name": "monto",
							"type": "uint256"
						}
					],
					"name": "EventoTransferencia",
					"type": "event"
				},
				{
					"inputs": [
						{
							"internalType": "address",
							"name": "cuenta",
							"type": "address"
						}
					],
					"name": "consultaSaldo",
					"outputs": [
						{
							"internalType": "uint256",
							"name": "",
							"type": "uint256"
						}
					],
					"stateMutability": "view",
					"type": "function"
				},
				{
					"inputs": [
						{
							"internalType": "address",
							"name": "cuentaOrigen",
							"type": "address"
						},
						{
							"internalType": "address",
							"name": "cuentaDestino",
							"type": "address"
						},
						{
							"internalType": "uint256",
							"name": "monto",
							"type": "uint256"
						}
					],
					"name": "transferir",
					"outputs": [
						{
							"internalType": "bool",
							"name": "",
							"type": "bool"
						}
					],
					"stateMutability": "nonpayable",
					"type": "function"
				}
			],
			"devdoc": {
				"kind": "dev",
				"methods": {},
				"version": 1
			},
			"evm": {
				"assembly": "    /* \"contracts/9_Curso_Moneda.sol\":518:1937  contract CursoMoneda {\r... */\n  mstore(0x40, 0x80)\n    /* \"contracts/9_Curso_Moneda.sol\":580:622  0x0000000000000000000000000000000000000000 */\n  0x00\n    /* \"contracts/9_Curso_Moneda.sol\":552:622  address cuentaInexistente = 0x0000000000000000000000000000000000000000 */\n  dup1\n  exp(0x0100, 0x00)\n  dup2\n  sload\n  dup2\n  0xffffffffffffffffffffffffffffffffffffffff\n  mul\n  not\n  and\n  swap1\n  dup4\n  0xffffffffffffffffffffffffffffffffffffffff\n  and\n  mul\n  or\n  swap1\n  sstore\n  pop\n    /* \"contracts/9_Curso_Moneda.sol\":631:721  constructor(uint saldoInicial) {\r... */\n  callvalue\n  dup1\n  iszero\n  tag_1\n  jumpi\n  0x00\n  dup1\n  revert\ntag_1:\n  pop\n  mload(0x40)\n  sub(codesize, bytecodeSize)\n  dup1\n  bytecodeSize\n  dup4\n  codecopy\n  dup2\n  dup2\n  add\n  0x40\n  mstore\n  dup2\n  add\n  swap1\n  tag_2\n  swap2\n  swap1\n  tag_3\n  jump\t// in\ntag_2:\n    /* \"contracts/9_Curso_Moneda.sol\":701:713  saldoInicial */\n  dup1\n    /* \"contracts/9_Curso_Moneda.sol\":672:679  cuentas */\n  0x01\n    /* \"contracts/9_Curso_Moneda.sol\":672:691  cuentas[msg.sender] */\n  0x00\n    /* \"contracts/9_Curso_Moneda.sol\":680:690  msg.sender */\n  caller\n    /* \"contracts/9_Curso_Moneda.sol\":672:691  cuentas[msg.sender] */\n  0xffffffffffffffffffffffffffffffffffffffff\n  and\n  0xffffffffffffffffffffffffffffffffffffffff\n  and\n  dup2\n  mstore\n  0x20\n  add\n  swap1\n  dup2\n  mstore\n  0x20\n  add\n  0x00\n  keccak256\n    /* \"contracts/9_Curso_Moneda.sol\":672:697  cuentas[msg.sender].saldo */\n  0x01\n  add\n  0x00\n    /* \"contracts/9_Curso_Moneda.sol\":672:713  cuentas[msg.sender].saldo += saldoInicial */\n  dup3\n  dup3\n  sload\n  tag_6\n  swap2\n  swap1\n  tag_7\n  jump\t// in\ntag_6:\n  swap3\n  pop\n  pop\n  dup2\n  swap1\n  sstore\n  pop\n    /* \"contracts/9_Curso_Moneda.sol\":631:721  constructor(uint saldoInicial) {\r... */\n  pop\n    /* \"contracts/9_Curso_Moneda.sol\":518:1937  contract CursoMoneda {\r... */\n  jump(tag_8)\n    /* \"#utility.yul\":7:150   */\ntag_10:\n    /* \"#utility.yul\":64:69   */\n  0x00\n    /* \"#utility.yul\":95:101   */\n  dup2\n    /* \"#utility.yul\":89:102   */\n  mload\n    /* \"#utility.yul\":80:102   */\n  swap1\n  pop\n    /* \"#utility.yul\":111:144   */\n  tag_12\n    /* \"#utility.yul\":138:143   */\n  dup2\n    /* \"#utility.yul\":111:144   */\n  tag_13\n  jump\t// in\ntag_12:\n    /* \"#utility.yul\":7:150   */\n  swap3\n  swap2\n  pop\n  pop\n  jump\t// out\n    /* \"#utility.yul\":156:507   */\ntag_3:\n    /* \"#utility.yul\":226:232   */\n  0x00\n    /* \"#utility.yul\":275:277   */\n  0x20\n    /* \"#utility.yul\":263:272   */\n  dup3\n    /* \"#utility.yul\":254:261   */\n  dup5\n    /* \"#utility.yul\":250:273   */\n  sub\n    /* \"#utility.yul\":246:278   */\n  slt\n    /* \"#utility.yul\":243:362   */\n  iszero\n  tag_15\n  jumpi\n    /* \"#utility.yul\":281:360   */\n  tag_16\n  tag_17\n  jump\t// in\ntag_16:\n    /* \"#utility.yul\":243:362   */\ntag_15:\n    /* \"#utility.yul\":401:402   */\n  0x00\n    /* \"#utility.yul\":426:490   */\n  tag_18\n    /* \"#utility.yul\":482:489   */\n  dup5\n    /* \"#utility.yul\":473:479   */\n  dup3\n    /* \"#utility.yul\":462:471   */\n  dup6\n    /* \"#utility.yul\":458:480   */\n  add\n    /* \"#utility.yul\":426:490   */\n  tag_10\n  jump\t// in\ntag_18:\n    /* \"#utility.yul\":416:490   */\n  swap2\n  pop\n    /* \"#utility.yul\":372:500   */\n  pop\n    /* \"#utility.yul\":156:507   */\n  swap3\n  swap2\n  pop\n  pop\n  jump\t// out\n    /* \"#utility.yul\":594:899   */\ntag_7:\n    /* \"#utility.yul\":634:637   */\n  0x00\n    /* \"#utility.yul\":653:673   */\n  tag_22\n    /* \"#utility.yul\":671:672   */\n  dup3\n    /* \"#utility.yul\":653:673   */\n  tag_23\n  jump\t// in\ntag_22:\n    /* \"#utility.yul\":648:673   */\n  swap2\n  pop\n    /* \"#utility.yul\":687:707   */\n  tag_24\n    /* \"#utility.yul\":705:706   */\n  dup4\n    /* \"#utility.yul\":687:707   */\n  tag_23\n  jump\t// in\ntag_24:\n    /* \"#utility.yul\":682:707   */\n  swap3\n  pop\n    /* \"#utility.yul\":841:842   */\n  dup3\n    /* \"#utility.yul\":773:839   */\n  0xffffffffffffffffffffffffffffffffffffffffffffffffffffffffffffffff\n    /* \"#utility.yul\":769:843   */\n  sub\n    /* \"#utility.yul\":766:767   */\n  dup3\n    /* \"#utility.yul\":763:844   */\n  gt\n    /* \"#utility.yul\":760:867   */\n  iszero\n  tag_25\n  jumpi\n    /* \"#utility.yul\":847:865   */\n  tag_26\n  tag_27\n  jump\t// in\ntag_26:\n    /* \"#utility.yul\":760:867   */\ntag_25:\n    /* \"#utility.yul\":891:892   */\n  dup3\n    /* \"#utility.yul\":888:889   */\n  dup3\n    /* \"#utility.yul\":884:893   */\n  add\n    /* \"#utility.yul\":877:893   */\n  swap1\n  pop\n    /* \"#utility.yul\":594:899   */\n  swap3\n  swap2\n  pop\n  pop\n  jump\t// out\n    /* \"#utility.yul\":905:982   */\ntag_23:\n    /* \"#utility.yul\":942:949   */\n  0x00\n    /* \"#utility.yul\":971:976   */\n  dup2\n    /* \"#utility.yul\":960:976   */\n  swap1\n  pop\n    /* \"#utility.yul\":905:982   */\n  swap2\n  swap1\n  pop\n  jump\t// out\n    /* \"#utility.yul\":988:1168   */\ntag_27:\n    /* \"#utility.yul\":1036:1113   */\n  0x4e487b7100000000000000000000000000000000000000000000000000000000\n    /* \"#utility.yul\":1033:1034   */\n  0x00\n    /* \"#utility.yul\":1026:1114   */\n  mstore\n    /* \"#utility.yul\":1133:1137   */\n  0x11\n    /* \"#utility.yul\":1130:1131   */\n  0x04\n    /* \"#utility.yul\":1123:1138   */\n  mstore\n    /* \"#utility.yul\":1157:1161   */\n  0x24\n    /* \"#utility.yul\":1154:1155   */\n  0x00\n    /* \"#utility.yul\":1147:1162   */\n  revert\n    /* \"#utility.yul\":1297:1414   */\ntag_17:\n    /* \"#utility.yul\":1406:1407   */\n  0x00\n    /* \"#utility.yul\":1403:1404   */\n  dup1\n    /* \"#utility.yul\":1396:1408   */\n  revert\n    /* \"#utility.yul\":1420:1542   */\ntag_13:\n    /* \"#utility.yul\":1493:1517   */\n  tag_34\n    /* \"#utility.yul\":1511:1516   */\n  dup2\n    /* \"#utility.yul\":1493:1517   */\n  tag_23\n  jump\t// in\ntag_34:\n    /* \"#utility.yul\":1486:1491   */\n  dup2\n    /* \"#utility.yul\":1483:1518   */\n  eq\n    /* \"#utility.yul\":1473:1536   */\n  tag_35\n  jumpi\n    /* \"#utility.yul\":1532:1533   */\n  0x00\n    /* \"#utility.yul\":1529:1530   */\n  dup1\n    /* \"#utility.yul\":1522:1534   */\n  revert\n    /* \"#utility.yul\":1473:1536   */\ntag_35:\n    /* \"#utility.yul\":1420:1542   */\n  pop\n  jump\t// out\n    /* \"contracts/9_Curso_Moneda.sol\":518:1937  contract CursoMoneda {\r... */\ntag_8:\n  dataSize(sub_0)\n  dup1\n  dataOffset(sub_0)\n  0x00\n  codecopy\n  0x00\n  return\nstop\n\nsub_0: assembly {\n        /* \"contracts/9_Curso_Moneda.sol\":518:1937  contract CursoMoneda {\r... */\n      mstore(0x40, 0x80)\n      callvalue\n      dup1\n      iszero\n      tag_1\n      jumpi\n      0x00\n      dup1\n      revert\n    tag_1:\n      pop\n      jumpi(tag_2, lt(calldatasize, 0x04))\n      shr(0xe0, calldataload(0x00))\n      dup1\n      0x077d492e\n      eq\n      tag_3\n      jumpi\n      dup1\n      0x4f48bf44\n      eq\n      tag_4\n      jumpi\n    tag_2:\n      0x00\n      dup1\n      revert\n        /* \"contracts/9_Curso_Moneda.sol\":976:1536  function transferir(address cuentaOrigen, address cuentaDestino, uint monto) external esTitular returns(bool) {\r... */\n    tag_3:\n      tag_5\n      0x04\n      dup1\n      calldatasize\n      sub\n      dup2\n      add\n      swap1\n      tag_6\n      swap2\n      swap1\n      tag_7\n      jump\t// in\n    tag_6:\n      tag_8\n      jump\t// in\n    tag_5:\n      mload(0x40)\n      tag_9\n      swap2\n      swap1\n      tag_10\n      jump\t// in\n    tag_9:\n      mload(0x40)\n      dup1\n      swap2\n      sub\n      swap1\n      return\n        /* \"contracts/9_Curso_Moneda.sol\":1544:1668  function consultaSaldo(address cuenta) external esTitular view returns(uint) {\r... */\n    tag_4:\n      tag_11\n      0x04\n      dup1\n      calldatasize\n      sub\n      dup2\n      add\n      swap1\n      tag_12\n      swap2\n      swap1\n      tag_13\n      jump\t// in\n    tag_12:\n      tag_14\n      jump\t// in\n    tag_11:\n      mload(0x40)\n      tag_15\n      swap2\n      swap1\n      tag_16\n      jump\t// in\n    tag_15:\n      mload(0x40)\n      dup1\n      swap2\n      sub\n      swap1\n      return\n        /* \"contracts/9_Curso_Moneda.sol\":976:1536  function transferir(address cuentaOrigen, address cuentaDestino, uint monto) external esTitular returns(bool) {\r... */\n    tag_8:\n        /* \"contracts/9_Curso_Moneda.sol\":1080:1084  bool */\n      0x00\n        /* \"contracts/9_Curso_Moneda.sol\":1749:1766  cuentaInexistente */\n      dup1\n      0x00\n      swap1\n      sload\n      swap1\n      0x0100\n      exp\n      swap1\n      div\n      0xffffffffffffffffffffffffffffffffffffffff\n      and\n        /* \"contracts/9_Curso_Moneda.sol\":1716:1766  cuentas[msg.sender].nroCuenta != cuentaInexistente */\n      0xffffffffffffffffffffffffffffffffffffffff\n      and\n        /* \"contracts/9_Curso_Moneda.sol\":1716:1723  cuentas */\n      0x01\n        /* \"contracts/9_Curso_Moneda.sol\":1716:1735  cuentas[msg.sender] */\n      0x00\n        /* \"contracts/9_Curso_Moneda.sol\":1724:1734  msg.sender */\n      caller\n        /* \"contracts/9_Curso_Moneda.sol\":1716:1735  cuentas[msg.sender] */\n      0xffffffffffffffffffffffffffffffffffffffff\n      and\n      0xffffffffffffffffffffffffffffffffffffffff\n      and\n      dup2\n      mstore\n      0x20\n      add\n      swap1\n      dup2\n      mstore\n      0x20\n      add\n      0x00\n      keccak256\n        /* \"contracts/9_Curso_Moneda.sol\":1716:1745  cuentas[msg.sender].nroCuenta */\n      0x00\n      add\n      0x00\n      swap1\n      sload\n      swap1\n      0x0100\n      exp\n      swap1\n      div\n      0xffffffffffffffffffffffffffffffffffffffff\n      and\n        /* \"contracts/9_Curso_Moneda.sol\":1716:1766  cuentas[msg.sender].nroCuenta != cuentaInexistente */\n      0xffffffffffffffffffffffffffffffffffffffff\n      and\n      eq\n      iszero\n        /* \"contracts/9_Curso_Moneda.sol\":1708:1834  require(cuentas[msg.sender].nroCuenta != cuentaInexistente,\r... */\n      tag_18\n      jumpi\n      mload(0x40)\n      0x08c379a000000000000000000000000000000000000000000000000000000000\n      dup2\n      mstore\n      0x04\n      add\n      tag_19\n      swap1\n      tag_20\n      jump\t// in\n    tag_19:\n      mload(0x40)\n      dup1\n      swap2\n      sub\n      swap1\n      revert\n    tag_18:\n        /* \"contracts/9_Curso_Moneda.sol\":1140:1145  monto */\n      dup2\n        /* \"contracts/9_Curso_Moneda.sol\":1110:1117  cuentas */\n      0x01\n        /* \"contracts/9_Curso_Moneda.sol\":1110:1131  cuentas[cuentaOrigen] */\n      0x00\n        /* \"contracts/9_Curso_Moneda.sol\":1118:1130  cuentaOrigen */\n      dup7\n        /* \"contracts/9_Curso_Moneda.sol\":1110:1131  cuentas[cuentaOrigen] */\n      0xffffffffffffffffffffffffffffffffffffffff\n      and\n      0xffffffffffffffffffffffffffffffffffffffff\n      and\n      dup2\n      mstore\n      0x20\n      add\n      swap1\n      dup2\n      mstore\n      0x20\n      add\n      0x00\n      keccak256\n        /* \"contracts/9_Curso_Moneda.sol\":1110:1137  cuentas[cuentaOrigen].saldo */\n      0x01\n      add\n      sload\n        /* \"contracts/9_Curso_Moneda.sol\":1110:1145  cuentas[cuentaOrigen].saldo < monto */\n      lt\n        /* \"contracts/9_Curso_Moneda.sol\":1107:1202  if(cuentas[cuentaOrigen].saldo < monto){\r... */\n      iszero\n      tag_22\n      jumpi\n        /* \"contracts/9_Curso_Moneda.sol\":1161:1190  revert (\"Saldo insuficiente\") */\n      mload(0x40)\n      0x08c379a000000000000000000000000000000000000000000000000000000000\n      dup2\n      mstore\n      0x04\n      add\n      tag_23\n      swap1\n      tag_24\n      jump\t// in\n    tag_23:\n      mload(0x40)\n      dup1\n      swap2\n      sub\n      swap1\n      revert\n        /* \"contracts/9_Curso_Moneda.sol\":1107:1202  if(cuentas[cuentaOrigen].saldo < monto){\r... */\n    tag_22:\n        /* \"contracts/9_Curso_Moneda.sol\":1261:1278  cuentaInexistente */\n      0x00\n      dup1\n      sload\n      swap1\n      0x0100\n      exp\n      swap1\n      div\n      0xffffffffffffffffffffffffffffffffffffffff\n      and\n        /* \"contracts/9_Curso_Moneda.sol\":1225:1278  cuentas[cuentaDestino].nroCuenta == cuentaInexistente */\n      0xffffffffffffffffffffffffffffffffffffffff\n      and\n        /* \"contracts/9_Curso_Moneda.sol\":1225:1232  cuentas */\n      0x01\n        /* \"contracts/9_Curso_Moneda.sol\":1225:1247  cuentas[cuentaDestino] */\n      0x00\n        /* \"contracts/9_Curso_Moneda.sol\":1233:1246  cuentaDestino */\n      dup6\n        /* \"contracts/9_Curso_Moneda.sol\":1225:1247  cuentas[cuentaDestino] */\n      0xffffffffffffffffffffffffffffffffffffffff\n      and\n      0xffffffffffffffffffffffffffffffffffffffff\n      and\n      dup2\n      mstore\n      0x20\n      add\n      swap1\n      dup2\n      mstore\n      0x20\n      add\n      0x00\n      keccak256\n        /* \"contracts/9_Curso_Moneda.sol\":1225:1257  cuentas[cuentaDestino].nroCuenta */\n      0x00\n      add\n      0x00\n      swap1\n      sload\n      swap1\n      0x0100\n      exp\n      swap1\n      div\n      0xffffffffffffffffffffffffffffffffffffffff\n      and\n        /* \"contracts/9_Curso_Moneda.sol\":1225:1278  cuentas[cuentaDestino].nroCuenta == cuentaInexistente */\n      0xffffffffffffffffffffffffffffffffffffffff\n      and\n      eq\n        /* \"contracts/9_Curso_Moneda.sol\":1222:1337  if(cuentas[cuentaDestino].nroCuenta == cuentaInexistente){\r... */\n      iszero\n      tag_25\n      jumpi\n        /* \"contracts/9_Curso_Moneda.sol\":1295:1325  revert (\"La cuenta no existe\") */\n      mload(0x40)\n      0x08c379a000000000000000000000000000000000000000000000000000000000\n      dup2\n      mstore\n      0x04\n      add\n      tag_26\n      swap1\n      tag_27\n      jump\t// in\n    tag_26:\n      mload(0x40)\n      dup1\n      swap2\n      sub\n      swap1\n      revert\n        /* \"contracts/9_Curso_Moneda.sol\":1222:1337  if(cuentas[cuentaDestino].nroCuenta == cuentaInexistente){\r... */\n    tag_25:\n        /* \"contracts/9_Curso_Moneda.sol\":1381:1386  monto */\n      dup2\n        /* \"contracts/9_Curso_Moneda.sol\":1349:1356  cuentas */\n      0x01\n        /* \"contracts/9_Curso_Moneda.sol\":1349:1371  cuentas[cuentaDestino] */\n      0x00\n        /* \"contracts/9_Curso_Moneda.sol\":1357:1370  cuentaDestino */\n      dup6\n        /* \"contracts/9_Curso_Moneda.sol\":1349:1371  cuentas[cuentaDestino] */\n      0xffffffffffffffffffffffffffffffffffffffff\n      and\n      0xffffffffffffffffffffffffffffffffffffffff\n      and\n      dup2\n      mstore\n      0x20\n      add\n      swap1\n      dup2\n      mstore\n      0x20\n      add\n      0x00\n      keccak256\n        /* \"contracts/9_Curso_Moneda.sol\":1349:1377  cuentas[cuentaDestino].saldo */\n      0x01\n      add\n      0x00\n        /* \"contracts/9_Curso_Moneda.sol\":1349:1386  cuentas[cuentaDestino].saldo += monto */\n      dup3\n      dup3\n      sload\n      tag_28\n      swap2\n      swap1\n      tag_29\n      jump\t// in\n    tag_28:\n      swap3\n      pop\n      pop\n      dup2\n      swap1\n      sstore\n      pop\n        /* \"contracts/9_Curso_Moneda.sol\":1428:1433  monto */\n      dup2\n        /* \"contracts/9_Curso_Moneda.sol\":1397:1404  cuentas */\n      0x01\n        /* \"contracts/9_Curso_Moneda.sol\":1397:1418  cuentas[cuentaOrigen] */\n      0x00\n        /* \"contracts/9_Curso_Moneda.sol\":1405:1417  cuentaOrigen */\n      dup7\n        /* \"contracts/9_Curso_Moneda.sol\":1397:1418  cuentas[cuentaOrigen] */\n      0xffffffffffffffffffffffffffffffffffffffff\n      and\n      0xffffffffffffffffffffffffffffffffffffffff\n      and\n      dup2\n      mstore\n      0x20\n      add\n      swap1\n      dup2\n      mstore\n      0x20\n      add\n      0x00\n      keccak256\n        /* \"contracts/9_Curso_Moneda.sol\":1397:1424  cuentas[cuentaOrigen].saldo */\n      0x01\n      add\n      0x00\n        /* \"contracts/9_Curso_Moneda.sol\":1397:1433  cuentas[cuentaOrigen].saldo -= monto */\n      dup3\n      dup3\n      sload\n      tag_30\n      swap2\n      swap1\n      tag_31\n      jump\t// in\n    tag_30:\n      swap3\n      pop\n      pop\n      dup2\n      swap1\n      sstore\n      pop\n        /* \"contracts/9_Curso_Moneda.sol\":1451:1506  EventoTransferencia(cuentaOrigen, cuentaDestino, monto) */\n      0xd21f641f674e39dafd327aee336648cec891f42f9938356c1554c1a980ec0874\n        /* \"contracts/9_Curso_Moneda.sol\":1471:1483  cuentaOrigen */\n      dup5\n        /* \"contracts/9_Curso_Moneda.sol\":1485:1498  cuentaDestino */\n      dup5\n        /* \"contracts/9_Curso_Moneda.sol\":1500:1505  monto */\n      dup5\n        /* \"contracts/9_Curso_Moneda.sol\":1451:1506  EventoTransferencia(cuentaOrigen, cuentaDestino, monto) */\n      mload(0x40)\n      tag_32\n      swap4\n      swap3\n      swap2\n      swap1\n      tag_33\n      jump\t// in\n    tag_32:\n      mload(0x40)\n      dup1\n      swap2\n      sub\n      swap1\n      log1\n        /* \"contracts/9_Curso_Moneda.sol\":1524:1528  true */\n      0x01\n        /* \"contracts/9_Curso_Moneda.sol\":1517:1528  return true */\n      swap1\n      pop\n        /* \"contracts/9_Curso_Moneda.sol\":976:1536  function transferir(address cuentaOrigen, address cuentaDestino, uint monto) external esTitular returns(bool) {\r... */\n      swap4\n      swap3\n      pop\n      pop\n      pop\n      jump\t// out\n        /* \"contracts/9_Curso_Moneda.sol\":1544:1668  function consultaSaldo(address cuenta) external esTitular view returns(uint) {\r... */\n    tag_14:\n        /* \"contracts/9_Curso_Moneda.sol\":1615:1619  uint */\n      0x00\n        /* \"contracts/9_Curso_Moneda.sol\":1749:1766  cuentaInexistente */\n      dup1\n      0x00\n      swap1\n      sload\n      swap1\n      0x0100\n      exp\n      swap1\n      div\n      0xffffffffffffffffffffffffffffffffffffffff\n      and\n        /* \"contracts/9_Curso_Moneda.sol\":1716:1766  cuentas[msg.sender].nroCuenta != cuentaInexistente */\n      0xffffffffffffffffffffffffffffffffffffffff\n      and\n        /* \"contracts/9_Curso_Moneda.sol\":1716:1723  cuentas */\n      0x01\n        /* \"contracts/9_Curso_Moneda.sol\":1716:1735  cuentas[msg.sender] */\n      0x00\n        /* \"contracts/9_Curso_Moneda.sol\":1724:1734  msg.sender */\n      caller\n        /* \"contracts/9_Curso_Moneda.sol\":1716:1735  cuentas[msg.sender] */\n      0xffffffffffffffffffffffffffffffffffffffff\n      and\n      0xffffffffffffffffffffffffffffffffffffffff\n      and\n      dup2\n      mstore\n      0x20\n      add\n      swap1\n      dup2\n      mstore\n      0x20\n      add\n      0x00\n      keccak256\n        /* \"contracts/9_Curso_Moneda.sol\":1716:1745  cuentas[msg.sender].nroCuenta */\n      0x00\n      add\n      0x00\n      swap1\n      sload\n      swap1\n      0x0100\n      exp\n      swap1\n      div\n      0xffffffffffffffffffffffffffffffffffffffff\n      and\n        /* \"contracts/9_Curso_Moneda.sol\":1716:1766  cuentas[msg.sender].nroCuenta != cuentaInexistente */\n      0xffffffffffffffffffffffffffffffffffffffff\n      and\n      eq\n      iszero\n        /* \"contracts/9_Curso_Moneda.sol\":1708:1834  require(cuentas[msg.sender].nroCuenta != cuentaInexistente,\r... */\n      tag_35\n      jumpi\n      mload(0x40)\n      0x08c379a000000000000000000000000000000000000000000000000000000000\n      dup2\n      mstore\n      0x04\n      add\n      tag_36\n      swap1\n      tag_20\n      jump\t// in\n    tag_36:\n      mload(0x40)\n      dup1\n      swap2\n      sub\n      swap1\n      revert\n    tag_35:\n        /* \"contracts/9_Curso_Moneda.sol\":1639:1646  cuentas */\n      0x01\n        /* \"contracts/9_Curso_Moneda.sol\":1639:1654  cuentas[cuenta] */\n      0x00\n        /* \"contracts/9_Curso_Moneda.sol\":1647:1653  cuenta */\n      dup4\n        /* \"contracts/9_Curso_Moneda.sol\":1639:1654  cuentas[cuenta] */\n      0xffffffffffffffffffffffffffffffffffffffff\n      and\n      0xffffffffffffffffffffffffffffffffffffffff\n      and\n      dup2\n      mstore\n      0x20\n      add\n      swap1\n      dup2\n      mstore\n      0x20\n      add\n      0x00\n      keccak256\n        /* \"contracts/9_Curso_Moneda.sol\":1639:1660  cuentas[cuenta].saldo */\n      0x01\n      add\n      sload\n        /* \"contracts/9_Curso_Moneda.sol\":1632:1660  return cuentas[cuenta].saldo */\n      swap1\n      pop\n        /* \"contracts/9_Curso_Moneda.sol\":1544:1668  function consultaSaldo(address cuenta) external esTitular view returns(uint) {\r... */\n      swap2\n      swap1\n      pop\n      jump\t// out\n        /* \"#utility.yul\":7:146   */\n    tag_39:\n        /* \"#utility.yul\":53:58   */\n      0x00\n        /* \"#utility.yul\":91:97   */\n      dup2\n        /* \"#utility.yul\":78:98   */\n      calldataload\n        /* \"#utility.yul\":69:98   */\n      swap1\n      pop\n        /* \"#utility.yul\":107:140   */\n      tag_41\n        /* \"#utility.yul\":134:139   */\n      dup2\n        /* \"#utility.yul\":107:140   */\n      tag_42\n      jump\t// in\n    tag_41:\n        /* \"#utility.yul\":7:146   */\n      swap3\n      swap2\n      pop\n      pop\n      jump\t// out\n        /* \"#utility.yul\":152:291   */\n    tag_43:\n        /* \"#utility.yul\":198:203   */\n      0x00\n        /* \"#utility.yul\":236:242   */\n      dup2\n        /* \"#utility.yul\":223:243   */\n      calldataload\n        /* \"#utility.yul\":214:243   */\n      swap1\n      pop\n        /* \"#utility.yul\":252:285   */\n      tag_45\n        /* \"#utility.yul\":279:284   */\n      dup2\n        /* \"#utility.yul\":252:285   */\n      tag_46\n      jump\t// in\n    tag_45:\n        /* \"#utility.yul\":152:291   */\n      swap3\n      swap2\n      pop\n      pop\n      jump\t// out\n        /* \"#utility.yul\":297:626   */\n    tag_13:\n        /* \"#utility.yul\":356:362   */\n      0x00\n        /* \"#utility.yul\":405:407   */\n      0x20\n        /* \"#utility.yul\":393:402   */\n      dup3\n        /* \"#utility.yul\":384:391   */\n      dup5\n        /* \"#utility.yul\":380:403   */\n      sub\n        /* \"#utility.yul\":376:408   */\n      slt\n        /* \"#utility.yul\":373:492   */\n      iszero\n      tag_48\n      jumpi\n        /* \"#utility.yul\":411:490   */\n      tag_49\n      tag_50\n      jump\t// in\n    tag_49:\n        /* \"#utility.yul\":373:492   */\n    tag_48:\n        /* \"#utility.yul\":531:532   */\n      0x00\n        /* \"#utility.yul\":556:609   */\n      tag_51\n        /* \"#utility.yul\":601:608   */\n      dup5\n        /* \"#utility.yul\":592:598   */\n      dup3\n        /* \"#utility.yul\":581:590   */\n      dup6\n        /* \"#utility.yul\":577:599   */\n      add\n        /* \"#utility.yul\":556:609   */\n      tag_39\n      jump\t// in\n    tag_51:\n        /* \"#utility.yul\":546:609   */\n      swap2\n      pop\n        /* \"#utility.yul\":502:619   */\n      pop\n        /* \"#utility.yul\":297:626   */\n      swap3\n      swap2\n      pop\n      pop\n      jump\t// out\n        /* \"#utility.yul\":632:1251   */\n    tag_7:\n        /* \"#utility.yul\":709:715   */\n      0x00\n        /* \"#utility.yul\":717:723   */\n      dup1\n        /* \"#utility.yul\":725:731   */\n      0x00\n        /* \"#utility.yul\":774:776   */\n      0x60\n        /* \"#utility.yul\":762:771   */\n      dup5\n        /* \"#utility.yul\":753:760   */\n      dup7\n        /* \"#utility.yul\":749:772   */\n      sub\n        /* \"#utility.yul\":745:777   */\n      slt\n        /* \"#utility.yul\":742:861   */\n      iszero\n      tag_53\n      jumpi\n        /* \"#utility.yul\":780:859   */\n      tag_54\n      tag_50\n      jump\t// in\n    tag_54:\n        /* \"#utility.yul\":742:861   */\n    tag_53:\n        /* \"#utility.yul\":900:901   */\n      0x00\n        /* \"#utility.yul\":925:978   */\n      tag_55\n        /* \"#utility.yul\":970:977   */\n      dup7\n        /* \"#utility.yul\":961:967   */\n      dup3\n        /* \"#utility.yul\":950:959   */\n      dup8\n        /* \"#utility.yul\":946:968   */\n      add\n        /* \"#utility.yul\":925:978   */\n      tag_39\n      jump\t// in\n    tag_55:\n        /* \"#utility.yul\":915:978   */\n      swap4\n      pop\n        /* \"#utility.yul\":871:988   */\n      pop\n        /* \"#utility.yul\":1027:1029   */\n      0x20\n        /* \"#utility.yul\":1053:1106   */\n      tag_56\n        /* \"#utility.yul\":1098:1105   */\n      dup7\n        /* \"#utility.yul\":1089:1095   */\n      dup3\n        /* \"#utility.yul\":1078:1087   */\n      dup8\n        /* \"#utility.yul\":1074:1096   */\n      add\n        /* \"#utility.yul\":1053:1106   */\n      tag_39\n      jump\t// in\n    tag_56:\n        /* \"#utility.yul\":1043:1106   */\n      swap3\n      pop\n        /* \"#utility.yul\":998:1116   */\n      pop\n        /* \"#utility.yul\":1155:1157   */\n      0x40\n        /* \"#utility.yul\":1181:1234   */\n      tag_57\n        /* \"#utility.yul\":1226:1233   */\n      dup7\n        /* \"#utility.yul\":1217:1223   */\n      dup3\n        /* \"#utility.yul\":1206:1215   */\n      dup8\n        /* \"#utility.yul\":1202:1224   */\n      add\n        /* \"#utility.yul\":1181:1234   */\n      tag_43\n      jump\t// in\n    tag_57:\n        /* \"#utility.yul\":1171:1234   */\n      swap2\n      pop\n        /* \"#utility.yul\":1126:1244   */\n      pop\n        /* \"#utility.yul\":632:1251   */\n      swap3\n      pop\n      swap3\n      pop\n      swap3\n      jump\t// out\n        /* \"#utility.yul\":1257:1375   */\n    tag_58:\n        /* \"#utility.yul\":1344:1368   */\n      tag_60\n        /* \"#utility.yul\":1362:1367   */\n      dup2\n        /* \"#utility.yul\":1344:1368   */\n      tag_61\n      jump\t// in\n    tag_60:\n        /* \"#utility.yul\":1339:1342   */\n      dup3\n        /* \"#utility.yul\":1332:1369   */\n      mstore\n        /* \"#utility.yul\":1257:1375   */\n      pop\n      pop\n      jump\t// out\n        /* \"#utility.yul\":1381:1490   */\n    tag_62:\n        /* \"#utility.yul\":1462:1483   */\n      tag_64\n        /* \"#utility.yul\":1477:1482   */\n      dup2\n        /* \"#utility.yul\":1462:1483   */\n      tag_65\n      jump\t// in\n    tag_64:\n        /* \"#utility.yul\":1457:1460   */\n      dup3\n        /* \"#utility.yul\":1450:1484   */\n      mstore\n        /* \"#utility.yul\":1381:1490   */\n      pop\n      pop\n      jump\t// out\n        /* \"#utility.yul\":1496:1862   */\n    tag_66:\n        /* \"#utility.yul\":1638:1641   */\n      0x00\n        /* \"#utility.yul\":1659:1726   */\n      tag_68\n        /* \"#utility.yul\":1723:1725   */\n      0x13\n        /* \"#utility.yul\":1718:1721   */\n      dup4\n        /* \"#utility.yul\":1659:1726   */\n      tag_69\n      jump\t// in\n    tag_68:\n        /* \"#utility.yul\":1652:1726   */\n      swap2\n      pop\n        /* \"#utility.yul\":1735:1828   */\n      tag_70\n        /* \"#utility.yul\":1824:1827   */\n      dup3\n        /* \"#utility.yul\":1735:1828   */\n      tag_71\n      jump\t// in\n    tag_70:\n        /* \"#utility.yul\":1853:1855   */\n      0x20\n        /* \"#utility.yul\":1848:1851   */\n      dup3\n        /* \"#utility.yul\":1844:1856   */\n      add\n        /* \"#utility.yul\":1837:1856   */\n      swap1\n      pop\n        /* \"#utility.yul\":1496:1862   */\n      swap2\n      swap1\n      pop\n      jump\t// out\n        /* \"#utility.yul\":1868:2234   */\n    tag_72:\n        /* \"#utility.yul\":2010:2013   */\n      0x00\n        /* \"#utility.yul\":2031:2098   */\n      tag_74\n        /* \"#utility.yul\":2095:2097   */\n      0x12\n        /* \"#utility.yul\":2090:2093   */\n      dup4\n        /* \"#utility.yul\":2031:2098   */\n      tag_69\n      jump\t// in\n    tag_74:\n        /* \"#utility.yul\":2024:2098   */\n      swap2\n      pop\n        /* \"#utility.yul\":2107:2200   */\n      tag_75\n        /* \"#utility.yul\":2196:2199   */\n      dup3\n        /* \"#utility.yul\":2107:2200   */\n      tag_76\n      jump\t// in\n    tag_75:\n        /* \"#utility.yul\":2225:2227   */\n      0x20\n        /* \"#utility.yul\":2220:2223   */\n      dup3\n        /* \"#utility.yul\":2216:2228   */\n      add\n        /* \"#utility.yul\":2209:2228   */\n      swap1\n      pop\n        /* \"#utility.yul\":1868:2234   */\n      swap2\n      swap1\n      pop\n      jump\t// out\n        /* \"#utility.yul\":2240:2606   */\n    tag_77:\n        /* \"#utility.yul\":2382:2385   */\n      0x00\n        /* \"#utility.yul\":2403:2470   */\n      tag_79\n        /* \"#utility.yul\":2467:2469   */\n      0x35\n        /* \"#utility.yul\":2462:2465   */\n      dup4\n        /* \"#utility.yul\":2403:2470   */\n      tag_69\n      jump\t// in\n    tag_79:\n        /* \"#utility.yul\":2396:2470   */\n      swap2\n      pop\n        /* \"#utility.yul\":2479:2572   */\n      tag_80\n        /* \"#utility.yul\":2568:2571   */\n      dup3\n        /* \"#utility.yul\":2479:2572   */\n      tag_81\n      jump\t// in\n    tag_80:\n        /* \"#utility.yul\":2597:2599   */\n      0x40\n        /* \"#utility.yul\":2592:2595   */\n      dup3\n        /* \"#utility.yul\":2588:2600   */\n      add\n        /* \"#utility.yul\":2581:2600   */\n      swap1\n      pop\n        /* \"#utility.yul\":2240:2606   */\n      swap2\n      swap1\n      pop\n      jump\t// out\n        /* \"#utility.yul\":2612:2730   */\n    tag_82:\n        /* \"#utility.yul\":2699:2723   */\n      tag_84\n        /* \"#utility.yul\":2717:2722   */\n      dup2\n        /* \"#utility.yul\":2699:2723   */\n      tag_85\n      jump\t// in\n    tag_84:\n        /* \"#utility.yul\":2694:2697   */\n      dup3\n        /* \"#utility.yul\":2687:2724   */\n      mstore\n        /* \"#utility.yul\":2612:2730   */\n      pop\n      pop\n      jump\t// out\n        /* \"#utility.yul\":2736:3178   */\n    tag_33:\n        /* \"#utility.yul\":2885:2889   */\n      0x00\n        /* \"#utility.yul\":2923:2925   */\n      0x60\n        /* \"#utility.yul\":2912:2921   */\n      dup3\n        /* \"#utility.yul\":2908:2926   */\n      add\n        /* \"#utility.yul\":2900:2926   */\n      swap1\n      pop\n        /* \"#utility.yul\":2936:3007   */\n      tag_87\n        /* \"#utility.yul\":3004:3005   */\n      0x00\n        /* \"#utility.yul\":2993:3002   */\n      dup4\n        /* \"#utility.yul\":2989:3006   */\n      add\n        /* \"#utility.yul\":2980:2986   */\n      dup7\n        /* \"#utility.yul\":2936:3007   */\n      tag_58\n      jump\t// in\n    tag_87:\n        /* \"#utility.yul\":3017:3089   */\n      tag_88\n        /* \"#utility.yul\":3085:3087   */\n      0x20\n        /* \"#utility.yul\":3074:3083   */\n      dup4\n        /* \"#utility.yul\":3070:3088   */\n      add\n        /* \"#utility.yul\":3061:3067   */\n      dup6\n        /* \"#utility.yul\":3017:3089   */\n      tag_58\n      jump\t// in\n    tag_88:\n        /* \"#utility.yul\":3099:3171   */\n      tag_89\n        /* \"#utility.yul\":3167:3169   */\n      0x40\n        /* \"#utility.yul\":3156:3165   */\n      dup4\n        /* \"#utility.yul\":3152:3170   */\n      add\n        /* \"#utility.yul\":3143:3149   */\n      dup5\n        /* \"#utility.yul\":3099:3171   */\n      tag_82\n      jump\t// in\n    tag_89:\n        /* \"#utility.yul\":2736:3178   */\n      swap5\n      swap4\n      pop\n      pop\n      pop\n      pop\n      jump\t// out\n        /* \"#utility.yul\":3184:3394   */\n    tag_10:\n        /* \"#utility.yul\":3271:3275   */\n      0x00\n        /* \"#utility.yul\":3309:3311   */\n      0x20\n        /* \"#utility.yul\":3298:3307   */\n      dup3\n        /* \"#utility.yul\":3294:3312   */\n      add\n        /* \"#utility.yul\":3286:3312   */\n      swap1\n      pop\n        /* \"#utility.yul\":3322:3387   */\n      tag_91\n        /* \"#utility.yul\":3384:3385   */\n      0x00\n        /* \"#utility.yul\":3373:3382   */\n      dup4\n        /* \"#utility.yul\":3369:3386   */\n      add\n        /* \"#utility.yul\":3360:3366   */\n      dup5\n        /* \"#utility.yul\":3322:3387   */\n      tag_62\n      jump\t// in\n    tag_91:\n        /* \"#utility.yul\":3184:3394   */\n      swap3\n      swap2\n      pop\n      pop\n      jump\t// out\n        /* \"#utility.yul\":3400:3819   */\n    tag_27:\n        /* \"#utility.yul\":3566:3570   */\n      0x00\n        /* \"#utility.yul\":3604:3606   */\n      0x20\n        /* \"#utility.yul\":3593:3602   */\n      dup3\n        /* \"#utility.yul\":3589:3607   */\n      add\n        /* \"#utility.yul\":3581:3607   */\n      swap1\n      pop\n        /* \"#utility.yul\":3653:3662   */\n      dup2\n        /* \"#utility.yul\":3647:3651   */\n      dup2\n        /* \"#utility.yul\":3643:3663   */\n      sub\n        /* \"#utility.yul\":3639:3640   */\n      0x00\n        /* \"#utility.yul\":3628:3637   */\n      dup4\n        /* \"#utility.yul\":3624:3641   */\n      add\n        /* \"#utility.yul\":3617:3664   */\n      mstore\n        /* \"#utility.yul\":3681:3812   */\n      tag_93\n        /* \"#utility.yul\":3807:3811   */\n      dup2\n        /* \"#utility.yul\":3681:3812   */\n      tag_66\n      jump\t// in\n    tag_93:\n        /* \"#utility.yul\":3673:3812   */\n      swap1\n      pop\n        /* \"#utility.yul\":3400:3819   */\n      swap2\n      swap1\n      pop\n      jump\t// out\n        /* \"#utility.yul\":3825:4244   */\n    tag_24:\n        /* \"#utility.yul\":3991:3995   */\n      0x00\n        /* \"#utility.yul\":4029:4031   */\n      0x20\n        /* \"#utility.yul\":4018:4027   */\n      dup3\n        /* \"#utility.yul\":4014:4032   */\n      add\n        /* \"#utility.yul\":4006:4032   */\n      swap1\n      pop\n        /* \"#utility.yul\":4078:4087   */\n      dup2\n        /* \"#utility.yul\":4072:4076   */\n      dup2\n        /* \"#utility.yul\":4068:4088   */\n      sub\n        /* \"#utility.yul\":4064:4065   */\n      0x00\n        /* \"#utility.yul\":4053:4062   */\n      dup4\n        /* \"#utility.yul\":4049:4066   */\n      add\n        /* \"#utility.yul\":4042:4089   */\n      mstore\n        /* \"#utility.yul\":4106:4237   */\n      tag_95\n        /* \"#utility.yul\":4232:4236   */\n      dup2\n        /* \"#utility.yul\":4106:4237   */\n      tag_72\n      jump\t// in\n    tag_95:\n        /* \"#utility.yul\":4098:4237   */\n      swap1\n      pop\n        /* \"#utility.yul\":3825:4244   */\n      swap2\n      swap1\n      pop\n      jump\t// out\n        /* \"#utility.yul\":4250:4669   */\n    tag_20:\n        /* \"#utility.yul\":4416:4420   */\n      0x00\n        /* \"#utility.yul\":4454:4456   */\n      0x20\n        /* \"#utility.yul\":4443:4452   */\n      dup3\n        /* \"#utility.yul\":4439:4457   */\n      add\n        /* \"#utility.yul\":4431:4457   */\n      swap1\n      pop\n        /* \"#utility.yul\":4503:4512   */\n      dup2\n        /* \"#utility.yul\":4497:4501   */\n      dup2\n        /* \"#utility.yul\":4493:4513   */\n      sub\n        /* \"#utility.yul\":4489:4490   */\n      0x00\n        /* \"#utility.yul\":4478:4487   */\n      dup4\n        /* \"#utility.yul\":4474:4491   */\n      add\n        /* \"#utility.yul\":4467:4514   */\n      mstore\n        /* \"#utility.yul\":4531:4662   */\n      tag_97\n        /* \"#utility.yul\":4657:4661   */\n      dup2\n        /* \"#utility.yul\":4531:4662   */\n      tag_77\n      jump\t// in\n    tag_97:\n        /* \"#utility.yul\":4523:4662   */\n      swap1\n      pop\n        /* \"#utility.yul\":4250:4669   */\n      swap2\n      swap1\n      pop\n      jump\t// out\n        /* \"#utility.yul\":4675:4897   */\n    tag_16:\n        /* \"#utility.yul\":4768:4772   */\n      0x00\n        /* \"#utility.yul\":4806:4808   */\n      0x20\n        /* \"#utility.yul\":4795:4804   */\n      dup3\n        /* \"#utility.yul\":4791:4809   */\n      add\n        /* \"#utility.yul\":4783:4809   */\n      swap1\n      pop\n        /* \"#utility.yul\":4819:4890   */\n      tag_99\n        /* \"#utility.yul\":4887:4888   */\n      0x00\n        /* \"#utility.yul\":4876:4885   */\n      dup4\n        /* \"#utility.yul\":4872:4889   */\n      add\n        /* \"#utility.yul\":4863:4869   */\n      dup5\n        /* \"#utility.yul\":4819:4890   */\n      tag_82\n      jump\t// in\n    tag_99:\n        /* \"#utility.yul\":4675:4897   */\n      swap3\n      swap2\n      pop\n      pop\n      jump\t// out\n        /* \"#utility.yul\":4984:5153   */\n    tag_69:\n        /* \"#utility.yul\":5068:5079   */\n      0x00\n        /* \"#utility.yul\":5102:5108   */\n      dup3\n        /* \"#utility.yul\":5097:5100   */\n      dup3\n        /* \"#utility.yul\":5090:5109   */\n      mstore\n        /* \"#utility.yul\":5142:5146   */\n      0x20\n        /* \"#utility.yul\":5137:5140   */\n      dup3\n        /* \"#utility.yul\":5133:5147   */\n      add\n        /* \"#utility.yul\":5118:5147   */\n      swap1\n      pop\n        /* \"#utility.yul\":4984:5153   */\n      swap3\n      swap2\n      pop\n      pop\n      jump\t// out\n        /* \"#utility.yul\":5159:5464   */\n    tag_29:\n        /* \"#utility.yul\":5199:5202   */\n      0x00\n        /* \"#utility.yul\":5218:5238   */\n      tag_104\n        /* \"#utility.yul\":5236:5237   */\n      dup3\n        /* \"#utility.yul\":5218:5238   */\n      tag_85\n      jump\t// in\n    tag_104:\n        /* \"#utility.yul\":5213:5238   */\n      swap2\n      pop\n        /* \"#utility.yul\":5252:5272   */\n      tag_105\n        /* \"#utility.yul\":5270:5271   */\n      dup4\n        /* \"#utility.yul\":5252:5272   */\n      tag_85\n      jump\t// in\n    tag_105:\n        /* \"#utility.yul\":5247:5272   */\n      swap3\n      pop\n        /* \"#utility.yul\":5406:5407   */\n      dup3\n        /* \"#utility.yul\":5338:5404   */\n      0xffffffffffffffffffffffffffffffffffffffffffffffffffffffffffffffff\n        /* \"#utility.yul\":5334:5408   */\n      sub\n        /* \"#utility.yul\":5331:5332   */\n      dup3\n        /* \"#utility.yul\":5328:5409   */\n      gt\n        /* \"#utility.yul\":5325:5432   */\n      iszero\n      tag_106\n      jumpi\n        /* \"#utility.yul\":5412:5430   */\n      tag_107\n      tag_108\n      jump\t// in\n    tag_107:\n        /* \"#utility.yul\":5325:5432   */\n    tag_106:\n        /* \"#utility.yul\":5456:5457   */\n      dup3\n        /* \"#utility.yul\":5453:5454   */\n      dup3\n        /* \"#utility.yul\":5449:5458   */\n      add\n        /* \"#utility.yul\":5442:5458   */\n      swap1\n      pop\n        /* \"#utility.yul\":5159:5464   */\n      swap3\n      swap2\n      pop\n      pop\n      jump\t// out\n        /* \"#utility.yul\":5470:5661   */\n    tag_31:\n        /* \"#utility.yul\":5510:5514   */\n      0x00\n        /* \"#utility.yul\":5530:5550   */\n      tag_110\n        /* \"#utility.yul\":5548:5549   */\n      dup3\n        /* \"#utility.yul\":5530:5550   */\n      tag_85\n      jump\t// in\n    tag_110:\n        /* \"#utility.yul\":5525:5550   */\n      swap2\n      pop\n        /* \"#utility.yul\":5564:5584   */\n      tag_111\n        /* \"#utility.yul\":5582:5583   */\n      dup4\n        /* \"#utility.yul\":5564:5584   */\n      tag_85\n      jump\t// in\n    tag_111:\n        /* \"#utility.yul\":5559:5584   */\n      swap3\n      pop\n        /* \"#utility.yul\":5603:5604   */\n      dup3\n        /* \"#utility.yul\":5600:5601   */\n      dup3\n        /* \"#utility.yul\":5597:5605   */\n      lt\n        /* \"#utility.yul\":5594:5628   */\n      iszero\n      tag_112\n      jumpi\n        /* \"#utility.yul\":5608:5626   */\n      tag_113\n      tag_108\n      jump\t// in\n    tag_113:\n        /* \"#utility.yul\":5594:5628   */\n    tag_112:\n        /* \"#utility.yul\":5653:5654   */\n      dup3\n        /* \"#utility.yul\":5650:5651   */\n      dup3\n        /* \"#utility.yul\":5646:5655   */\n      sub\n        /* \"#utility.yul\":5638:5655   */\n      swap1\n      pop\n        /* \"#utility.yul\":5470:5661   */\n      swap3\n      swap2\n      pop\n      pop\n      jump\t// out\n        /* \"#utility.yul\":5667:5763   */\n    tag_61:\n        /* \"#utility.yul\":5704:5711   */\n      0x00\n        /* \"#utility.yul\":5733:5757   */\n      tag_115\n        /* \"#utility.yul\":5751:5756   */\n      dup3\n        /* \"#utility.yul\":5733:5757   */\n      tag_116\n      jump\t// in\n    tag_115:\n        /* \"#utility.yul\":5722:5757   */\n      swap1\n      pop\n        /* \"#utility.yul\":5667:5763   */\n      swap2\n      swap1\n      pop\n      jump\t// out\n        /* \"#utility.yul\":5769:5859   */\n    tag_65:\n        /* \"#utility.yul\":5803:5810   */\n      0x00\n        /* \"#utility.yul\":5846:5851   */\n      dup2\n        /* \"#utility.yul\":5839:5852   */\n      iszero\n        /* \"#utility.yul\":5832:5853   */\n      iszero\n        /* \"#utility.yul\":5821:5853   */\n      swap1\n      pop\n        /* \"#utility.yul\":5769:5859   */\n      swap2\n      swap1\n      pop\n      jump\t// out\n        /* \"#utility.yul\":5865:5991   */\n    tag_116:\n        /* \"#utility.yul\":5902:5909   */\n      0x00\n        /* \"#utility.yul\":5942:5984   */\n      0xffffffffffffffffffffffffffffffffffffffff\n        /* \"#utility.yul\":5935:5940   */\n      dup3\n        /* \"#utility.yul\":5931:5985   */\n      and\n        /* \"#utility.yul\":5920:5985   */\n      swap1\n      pop\n        /* \"#utility.yul\":5865:5991   */\n      swap2\n      swap1\n      pop\n      jump\t// out\n        /* \"#utility.yul\":5997:6074   */\n    tag_85:\n        /* \"#utility.yul\":6034:6041   */\n      0x00\n        /* \"#utility.yul\":6063:6068   */\n      dup2\n        /* \"#utility.yul\":6052:6068   */\n      swap1\n      pop\n        /* \"#utility.yul\":5997:6074   */\n      swap2\n      swap1\n      pop\n      jump\t// out\n        /* \"#utility.yul\":6080:6260   */\n    tag_108:\n        /* \"#utility.yul\":6128:6205   */\n      0x4e487b7100000000000000000000000000000000000000000000000000000000\n        /* \"#utility.yul\":6125:6126   */\n      0x00\n        /* \"#utility.yul\":6118:6206   */\n      mstore\n        /* \"#utility.yul\":6225:6229   */\n      0x11\n        /* \"#utility.yul\":6222:6223   */\n      0x04\n        /* \"#utility.yul\":6215:6230   */\n      mstore\n        /* \"#utility.yul\":6249:6253   */\n      0x24\n        /* \"#utility.yul\":6246:6247   */\n      0x00\n        /* \"#utility.yul\":6239:6254   */\n      revert\n        /* \"#utility.yul\":6389:6506   */\n    tag_50:\n        /* \"#utility.yul\":6498:6499   */\n      0x00\n        /* \"#utility.yul\":6495:6496   */\n      dup1\n        /* \"#utility.yul\":6488:6500   */\n      revert\n        /* \"#utility.yul\":6512:6681   */\n    tag_71:\n        /* \"#utility.yul\":6652:6673   */\n      0x4c61206375656e7461206e6f2065786973746500000000000000000000000000\n        /* \"#utility.yul\":6648:6649   */\n      0x00\n        /* \"#utility.yul\":6640:6646   */\n      dup3\n        /* \"#utility.yul\":6636:6650   */\n      add\n        /* \"#utility.yul\":6629:6674   */\n      mstore\n        /* \"#utility.yul\":6512:6681   */\n      pop\n      jump\t// out\n        /* \"#utility.yul\":6687:6855   */\n    tag_76:\n        /* \"#utility.yul\":6827:6847   */\n      0x53616c646f20696e737566696369656e74650000000000000000000000000000\n        /* \"#utility.yul\":6823:6824   */\n      0x00\n        /* \"#utility.yul\":6815:6821   */\n      dup3\n        /* \"#utility.yul\":6811:6825   */\n      add\n        /* \"#utility.yul\":6804:6848   */\n      mstore\n        /* \"#utility.yul\":6687:6855   */\n      pop\n      jump\t// out\n        /* \"#utility.yul\":6861:7101   */\n    tag_81:\n        /* \"#utility.yul\":7001:7035   */\n      0x4e6f20657320746974756c6172206465206375656e74612c206175746f72697a\n        /* \"#utility.yul\":6997:6998   */\n      0x00\n        /* \"#utility.yul\":6989:6995   */\n      dup3\n        /* \"#utility.yul\":6985:6999   */\n      add\n        /* \"#utility.yul\":6978:7036   */\n      mstore\n        /* \"#utility.yul\":7070:7093   */\n      0x61646f2070617261206c61206f7065726163696f6e0000000000000000000000\n        /* \"#utility.yul\":7065:7067   */\n      0x20\n        /* \"#utility.yul\":7057:7063   */\n      dup3\n        /* \"#utility.yul\":7053:7068   */\n      add\n        /* \"#utility.yul\":7046:7094   */\n      mstore\n        /* \"#utility.yul\":6861:7101   */\n      pop\n      jump\t// out\n        /* \"#utility.yul\":7107:7229   */\n    tag_42:\n        /* \"#utility.yul\":7180:7204   */\n      tag_128\n        /* \"#utility.yul\":7198:7203   */\n      dup2\n        /* \"#utility.yul\":7180:7204   */\n      tag_61\n      jump\t// in\n    tag_128:\n        /* \"#utility.yul\":7173:7178   */\n      dup2\n        /* \"#utility.yul\":7170:7205   */\n      eq\n        /* \"#utility.yul\":7160:7223   */\n      tag_129\n      jumpi\n        /* \"#utility.yul\":7219:7220   */\n      0x00\n        /* \"#utility.yul\":7216:7217   */\n      dup1\n        /* \"#utility.yul\":7209:7221   */\n      revert\n        /* \"#utility.yul\":7160:7223   */\n    tag_129:\n        /* \"#utility.yul\":7107:7229   */\n      pop\n      jump\t// out\n        /* \"#utility.yul\":7235:7357   */\n    tag_46:\n        /* \"#utility.yul\":7308:7332   */\n      tag_131\n        /* \"#utility.yul\":7326:7331   */\n      dup2\n        /* \"#utility.yul\":7308:7332   */\n      tag_85\n      jump\t// in\n    tag_131:\n        /* \"#utility.yul\":7301:7306   */\n      dup2\n        /* \"#utility.yul\":7298:7333   */\n      eq\n        /* \"#utility.yul\":7288:7351   */\n      tag_132\n      jumpi\n        /* \"#utility.yul\":7347:7348   */\n      0x00\n        /* \"#utility.yul\":7344:7345   */\n      dup1\n        /* \"#utility.yul\":7337:7349   */\n      revert\n        /* \"#utility.yul\":7288:7351   */\n    tag_132:\n        /* \"#utility.yul\":7235:7357   */\n      pop\n      jump\t// out\n\n    auxdata: 0xa26469706673582212207d0ed803bf267f612bd0d49322c71c721bdd8453b40eaf6d95a626b763f6c58464736f6c63430008070033\n}\n",
				"bytecode": {
					"linkReferences": {},
					"object": "608060405260008060006101000a81548173ffffffffffffffffffffffffffffffffffffffff021916908373ffffffffffffffffffffffffffffffffffffffff16021790555034801561005157600080fd5b50604051610b32380380610b32833981810160405281019061007391906100e7565b80600160003373ffffffffffffffffffffffffffffffffffffffff1673ffffffffffffffffffffffffffffffffffffffff16815260200190815260200160002060010160008282546100c59190610114565b92505081905550506101bf565b6000815190506100e1816101a8565b92915050565b6000602082840312156100fd576100fc6101a3565b5b600061010b848285016100d2565b91505092915050565b600061011f8261016a565b915061012a8361016a565b9250827fffffffffffffffffffffffffffffffffffffffffffffffffffffffffffffffff0382111561015f5761015e610174565b5b828201905092915050565b6000819050919050565b7f4e487b7100000000000000000000000000000000000000000000000000000000600052601160045260246000fd5b600080fd5b6101b18161016a565b81146101bc57600080fd5b50565b610964806101ce6000396000f3fe608060405234801561001057600080fd5b50600436106100365760003560e01c8063077d492e1461003b5780634f48bf441461006b575b600080fd5b61005560048036038101906100509190610592565b61009b565b60405161006291906106b2565b60405180910390f35b61008560048036038101906100809190610565565b6103fd565b604051610092919061072d565b60405180910390f35b60008060009054906101000a900473ffffffffffffffffffffffffffffffffffffffff1673ffffffffffffffffffffffffffffffffffffffff16600160003373ffffffffffffffffffffffffffffffffffffffff1673ffffffffffffffffffffffffffffffffffffffff16815260200190815260200160002060000160009054906101000a900473ffffffffffffffffffffffffffffffffffffffff1673ffffffffffffffffffffffffffffffffffffffff16141561018f576040517f08c379a00000000000000000000000000000000000000000000000000000000081526004016101869061070d565b60405180910390fd5b81600160008673ffffffffffffffffffffffffffffffffffffffff1673ffffffffffffffffffffffffffffffffffffffff168152602001908152602001600020600101541015610214576040517f08c379a000000000000000000000000000000000000000000000000000000000815260040161020b906106ed565b60405180910390fd5b60008054906101000a900473ffffffffffffffffffffffffffffffffffffffff1673ffffffffffffffffffffffffffffffffffffffff16600160008573ffffffffffffffffffffffffffffffffffffffff1673ffffffffffffffffffffffffffffffffffffffff16815260200190815260200160002060000160009054906101000a900473ffffffffffffffffffffffffffffffffffffffff1673ffffffffffffffffffffffffffffffffffffffff161415610305576040517f08c379a00000000000000000000000000000000000000000000000000000000081526004016102fc906106cd565b60405180910390fd5b81600160008573ffffffffffffffffffffffffffffffffffffffff1673ffffffffffffffffffffffffffffffffffffffff16815260200190815260200160002060010160008282546103579190610759565b9250508190555081600160008673ffffffffffffffffffffffffffffffffffffffff1673ffffffffffffffffffffffffffffffffffffffff16815260200190815260200160002060010160008282546103b091906107af565b925050819055507fd21f641f674e39dafd327aee336648cec891f42f9938356c1554c1a980ec08748484846040516103ea9392919061067b565b60405180910390a1600190509392505050565b60008060009054906101000a900473ffffffffffffffffffffffffffffffffffffffff1673ffffffffffffffffffffffffffffffffffffffff16600160003373ffffffffffffffffffffffffffffffffffffffff1673ffffffffffffffffffffffffffffffffffffffff16815260200190815260200160002060000160009054906101000a900473ffffffffffffffffffffffffffffffffffffffff1673ffffffffffffffffffffffffffffffffffffffff1614156104f1576040517f08c379a00000000000000000000000000000000000000000000000000000000081526004016104e89061070d565b60405180910390fd5b600160008373ffffffffffffffffffffffffffffffffffffffff1673ffffffffffffffffffffffffffffffffffffffff168152602001908152602001600020600101549050919050565b60008135905061054a81610900565b92915050565b60008135905061055f81610917565b92915050565b60006020828403121561057b5761057a61085a565b5b60006105898482850161053b565b91505092915050565b6000806000606084860312156105ab576105aa61085a565b5b60006105b98682870161053b565b93505060206105ca8682870161053b565b92505060406105db86828701610550565b9150509250925092565b6105ee816107e3565b82525050565b6105fd816107f5565b82525050565b6000610610601383610748565b915061061b8261085f565b602082019050919050565b6000610633601283610748565b915061063e82610888565b602082019050919050565b6000610656603583610748565b9150610661826108b1565b604082019050919050565b61067581610821565b82525050565b600060608201905061069060008301866105e5565b61069d60208301856105e5565b6106aa604083018461066c565b949350505050565b60006020820190506106c760008301846105f4565b92915050565b600060208201905081810360008301526106e681610603565b9050919050565b6000602082019050818103600083015261070681610626565b9050919050565b6000602082019050818103600083015261072681610649565b9050919050565b6000602082019050610742600083018461066c565b92915050565b600082825260208201905092915050565b600061076482610821565b915061076f83610821565b9250827fffffffffffffffffffffffffffffffffffffffffffffffffffffffffffffffff038211156107a4576107a361082b565b5b828201905092915050565b60006107ba82610821565b91506107c583610821565b9250828210156107d8576107d761082b565b5b828203905092915050565b60006107ee82610801565b9050919050565b60008115159050919050565b600073ffffffffffffffffffffffffffffffffffffffff82169050919050565b6000819050919050565b7f4e487b7100000000000000000000000000000000000000000000000000000000600052601160045260246000fd5b600080fd5b7f4c61206375656e7461206e6f2065786973746500000000000000000000000000600082015250565b7f53616c646f20696e737566696369656e74650000000000000000000000000000600082015250565b7f4e6f20657320746974756c6172206465206375656e74612c206175746f72697a60008201527f61646f2070617261206c61206f7065726163696f6e0000000000000000000000602082015250565b610909816107e3565b811461091457600080fd5b50565b61092081610821565b811461092b57600080fd5b5056fea26469706673582212207d0ed803bf267f612bd0d49322c71c721bdd8453b40eaf6d95a626b763f6c58464736f6c63430008070033",
					"opcodes": "PUSH1 0x80 PUSH1 0x40 MSTORE PUSH1 0x0 DUP1 PUSH1 0x0 PUSH2 0x100 EXP DUP2 SLOAD DUP2 PUSH20 0xFFFFFFFFFFFFFFFFFFFFFFFFFFFFFFFFFFFFFFFF MUL NOT AND SWAP1 DUP4 PUSH20 0xFFFFFFFFFFFFFFFFFFFFFFFFFFFFFFFFFFFFFFFF AND MUL OR SWAP1 SSTORE POP CALLVALUE DUP1 ISZERO PUSH2 0x51 JUMPI PUSH1 0x0 DUP1 REVERT JUMPDEST POP PUSH1 0x40 MLOAD PUSH2 0xB32 CODESIZE SUB DUP1 PUSH2 0xB32 DUP4 CODECOPY DUP2 DUP2 ADD PUSH1 0x40 MSTORE DUP2 ADD SWAP1 PUSH2 0x73 SWAP2 SWAP1 PUSH2 0xE7 JUMP JUMPDEST DUP1 PUSH1 0x1 PUSH1 0x0 CALLER PUSH20 0xFFFFFFFFFFFFFFFFFFFFFFFFFFFFFFFFFFFFFFFF AND PUSH20 0xFFFFFFFFFFFFFFFFFFFFFFFFFFFFFFFFFFFFFFFF AND DUP2 MSTORE PUSH1 0x20 ADD SWAP1 DUP2 MSTORE PUSH1 0x20 ADD PUSH1 0x0 KECCAK256 PUSH1 0x1 ADD PUSH1 0x0 DUP3 DUP3 SLOAD PUSH2 0xC5 SWAP2 SWAP1 PUSH2 0x114 JUMP JUMPDEST SWAP3 POP POP DUP2 SWAP1 SSTORE POP POP PUSH2 0x1BF JUMP JUMPDEST PUSH1 0x0 DUP2 MLOAD SWAP1 POP PUSH2 0xE1 DUP2 PUSH2 0x1A8 JUMP JUMPDEST SWAP3 SWAP2 POP POP JUMP JUMPDEST PUSH1 0x0 PUSH1 0x20 DUP3 DUP5 SUB SLT ISZERO PUSH2 0xFD JUMPI PUSH2 0xFC PUSH2 0x1A3 JUMP JUMPDEST JUMPDEST PUSH1 0x0 PUSH2 0x10B DUP5 DUP3 DUP6 ADD PUSH2 0xD2 JUMP JUMPDEST SWAP2 POP POP SWAP3 SWAP2 POP POP JUMP JUMPDEST PUSH1 0x0 PUSH2 0x11F DUP3 PUSH2 0x16A JUMP JUMPDEST SWAP2 POP PUSH2 0x12A DUP4 PUSH2 0x16A JUMP JUMPDEST SWAP3 POP DUP3 PUSH32 0xFFFFFFFFFFFFFFFFFFFFFFFFFFFFFFFFFFFFFFFFFFFFFFFFFFFFFFFFFFFFFFFF SUB DUP3 GT ISZERO PUSH2 0x15F JUMPI PUSH2 0x15E PUSH2 0x174 JUMP JUMPDEST JUMPDEST DUP3 DUP3 ADD SWAP1 POP SWAP3 SWAP2 POP POP JUMP JUMPDEST PUSH1 0x0 DUP2 SWAP1 POP SWAP2 SWAP1 POP JUMP JUMPDEST PUSH32 0x4E487B7100000000000000000000000000000000000000000000000000000000 PUSH1 0x0 MSTORE PUSH1 0x11 PUSH1 0x4 MSTORE PUSH1 0x24 PUSH1 0x0 REVERT JUMPDEST PUSH1 0x0 DUP1 REVERT JUMPDEST PUSH2 0x1B1 DUP2 PUSH2 0x16A JUMP JUMPDEST DUP2 EQ PUSH2 0x1BC JUMPI PUSH1 0x0 DUP1 REVERT JUMPDEST POP JUMP JUMPDEST PUSH2 0x964 DUP1 PUSH2 0x1CE PUSH1 0x0 CODECOPY PUSH1 0x0 RETURN INVALID PUSH1 0x80 PUSH1 0x40 MSTORE CALLVALUE DUP1 ISZERO PUSH2 0x10 JUMPI PUSH1 0x0 DUP1 REVERT JUMPDEST POP PUSH1 0x4 CALLDATASIZE LT PUSH2 0x36 JUMPI PUSH1 0x0 CALLDATALOAD PUSH1 0xE0 SHR DUP1 PUSH4 0x77D492E EQ PUSH2 0x3B JUMPI DUP1 PUSH4 0x4F48BF44 EQ PUSH2 0x6B JUMPI JUMPDEST PUSH1 0x0 DUP1 REVERT JUMPDEST PUSH2 0x55 PUSH1 0x4 DUP1 CALLDATASIZE SUB DUP2 ADD SWAP1 PUSH2 0x50 SWAP2 SWAP1 PUSH2 0x592 JUMP JUMPDEST PUSH2 0x9B JUMP JUMPDEST PUSH1 0x40 MLOAD PUSH2 0x62 SWAP2 SWAP1 PUSH2 0x6B2 JUMP JUMPDEST PUSH1 0x40 MLOAD DUP1 SWAP2 SUB SWAP1 RETURN JUMPDEST PUSH2 0x85 PUSH1 0x4 DUP1 CALLDATASIZE SUB DUP2 ADD SWAP1 PUSH2 0x80 SWAP2 SWAP1 PUSH2 0x565 JUMP JUMPDEST PUSH2 0x3FD JUMP JUMPDEST PUSH1 0x40 MLOAD PUSH2 0x92 SWAP2 SWAP1 PUSH2 0x72D JUMP JUMPDEST PUSH1 0x40 MLOAD DUP1 SWAP2 SUB SWAP1 RETURN JUMPDEST PUSH1 0x0 DUP1 PUSH1 0x0 SWAP1 SLOAD SWAP1 PUSH2 0x100 EXP SWAP1 DIV PUSH20 0xFFFFFFFFFFFFFFFFFFFFFFFFFFFFFFFFFFFFFFFF AND PUSH20 0xFFFFFFFFFFFFFFFFFFFFFFFFFFFFFFFFFFFFFFFF AND PUSH1 0x1 PUSH1 0x0 CALLER PUSH20 0xFFFFFFFFFFFFFFFFFFFFFFFFFFFFFFFFFFFFFFFF AND PUSH20 0xFFFFFFFFFFFFFFFFFFFFFFFFFFFFFFFFFFFFFFFF AND DUP2 MSTORE PUSH1 0x20 ADD SWAP1 DUP2 MSTORE PUSH1 0x20 ADD PUSH1 0x0 KECCAK256 PUSH1 0x0 ADD PUSH1 0x0 SWAP1 SLOAD SWAP1 PUSH2 0x100 EXP SWAP1 DIV PUSH20 0xFFFFFFFFFFFFFFFFFFFFFFFFFFFFFFFFFFFFFFFF AND PUSH20 0xFFFFFFFFFFFFFFFFFFFFFFFFFFFFFFFFFFFFFFFF AND EQ ISZERO PUSH2 0x18F JUMPI PUSH1 0x40 MLOAD PUSH32 0x8C379A000000000000000000000000000000000000000000000000000000000 DUP2 MSTORE PUSH1 0x4 ADD PUSH2 0x186 SWAP1 PUSH2 0x70D JUMP JUMPDEST PUSH1 0x40 MLOAD DUP1 SWAP2 SUB SWAP1 REVERT JUMPDEST DUP2 PUSH1 0x1 PUSH1 0x0 DUP7 PUSH20 0xFFFFFFFFFFFFFFFFFFFFFFFFFFFFFFFFFFFFFFFF AND PUSH20 0xFFFFFFFFFFFFFFFFFFFFFFFFFFFFFFFFFFFFFFFF AND DUP2 MSTORE PUSH1 0x20 ADD SWAP1 DUP2 MSTORE PUSH1 0x20 ADD PUSH1 0x0 KECCAK256 PUSH1 0x1 ADD SLOAD LT ISZERO PUSH2 0x214 JUMPI PUSH1 0x40 MLOAD PUSH32 0x8C379A000000000000000000000000000000000000000000000000000000000 DUP2 MSTORE PUSH1 0x4 ADD PUSH2 0x20B SWAP1 PUSH2 0x6ED JUMP JUMPDEST PUSH1 0x40 MLOAD DUP1 SWAP2 SUB SWAP1 REVERT JUMPDEST PUSH1 0x0 DUP1 SLOAD SWAP1 PUSH2 0x100 EXP SWAP1 DIV PUSH20 0xFFFFFFFFFFFFFFFFFFFFFFFFFFFFFFFFFFFFFFFF AND PUSH20 0xFFFFFFFFFFFFFFFFFFFFFFFFFFFFFFFFFFFFFFFF AND PUSH1 0x1 PUSH1 0x0 DUP6 PUSH20 0xFFFFFFFFFFFFFFFFFFFFFFFFFFFFFFFFFFFFFFFF AND PUSH20 0xFFFFFFFFFFFFFFFFFFFFFFFFFFFFFFFFFFFFFFFF AND DUP2 MSTORE PUSH1 0x20 ADD SWAP1 DUP2 MSTORE PUSH1 0x20 ADD PUSH1 0x0 KECCAK256 PUSH1 0x0 ADD PUSH1 0x0 SWAP1 SLOAD SWAP1 PUSH2 0x100 EXP SWAP1 DIV PUSH20 0xFFFFFFFFFFFFFFFFFFFFFFFFFFFFFFFFFFFFFFFF AND PUSH20 0xFFFFFFFFFFFFFFFFFFFFFFFFFFFFFFFFFFFFFFFF AND EQ ISZERO PUSH2 0x305 JUMPI PUSH1 0x40 MLOAD PUSH32 0x8C379A000000000000000000000000000000000000000000000000000000000 DUP2 MSTORE PUSH1 0x4 ADD PUSH2 0x2FC SWAP1 PUSH2 0x6CD JUMP JUMPDEST PUSH1 0x40 MLOAD DUP1 SWAP2 SUB SWAP1 REVERT JUMPDEST DUP2 PUSH1 0x1 PUSH1 0x0 DUP6 PUSH20 0xFFFFFFFFFFFFFFFFFFFFFFFFFFFFFFFFFFFFFFFF AND PUSH20 0xFFFFFFFFFFFFFFFFFFFFFFFFFFFFFFFFFFFFFFFF AND DUP2 MSTORE PUSH1 0x20 ADD SWAP1 DUP2 MSTORE PUSH1 0x20 ADD PUSH1 0x0 KECCAK256 PUSH1 0x1 ADD PUSH1 0x0 DUP3 DUP3 SLOAD PUSH2 0x357 SWAP2 SWAP1 PUSH2 0x759 JUMP JUMPDEST SWAP3 POP POP DUP2 SWAP1 SSTORE POP DUP2 PUSH1 0x1 PUSH1 0x0 DUP7 PUSH20 0xFFFFFFFFFFFFFFFFFFFFFFFFFFFFFFFFFFFFFFFF AND PUSH20 0xFFFFFFFFFFFFFFFFFFFFFFFFFFFFFFFFFFFFFFFF AND DUP2 MSTORE PUSH1 0x20 ADD SWAP1 DUP2 MSTORE PUSH1 0x20 ADD PUSH1 0x0 KECCAK256 PUSH1 0x1 ADD PUSH1 0x0 DUP3 DUP3 SLOAD PUSH2 0x3B0 SWAP2 SWAP1 PUSH2 0x7AF JUMP JUMPDEST SWAP3 POP POP DUP2 SWAP1 SSTORE POP PUSH32 0xD21F641F674E39DAFD327AEE336648CEC891F42F9938356C1554C1A980EC0874 DUP5 DUP5 DUP5 PUSH1 0x40 MLOAD PUSH2 0x3EA SWAP4 SWAP3 SWAP2 SWAP1 PUSH2 0x67B JUMP JUMPDEST PUSH1 0x40 MLOAD DUP1 SWAP2 SUB SWAP1 LOG1 PUSH1 0x1 SWAP1 POP SWAP4 SWAP3 POP POP POP JUMP JUMPDEST PUSH1 0x0 DUP1 PUSH1 0x0 SWAP1 SLOAD SWAP1 PUSH2 0x100 EXP SWAP1 DIV PUSH20 0xFFFFFFFFFFFFFFFFFFFFFFFFFFFFFFFFFFFFFFFF AND PUSH20 0xFFFFFFFFFFFFFFFFFFFFFFFFFFFFFFFFFFFFFFFF AND PUSH1 0x1 PUSH1 0x0 CALLER PUSH20 0xFFFFFFFFFFFFFFFFFFFFFFFFFFFFFFFFFFFFFFFF AND PUSH20 0xFFFFFFFFFFFFFFFFFFFFFFFFFFFFFFFFFFFFFFFF AND DUP2 MSTORE PUSH1 0x20 ADD SWAP1 DUP2 MSTORE PUSH1 0x20 ADD PUSH1 0x0 KECCAK256 PUSH1 0x0 ADD PUSH1 0x0 SWAP1 SLOAD SWAP1 PUSH2 0x100 EXP SWAP1 DIV PUSH20 0xFFFFFFFFFFFFFFFFFFFFFFFFFFFFFFFFFFFFFFFF AND PUSH20 0xFFFFFFFFFFFFFFFFFFFFFFFFFFFFFFFFFFFFFFFF AND EQ ISZERO PUSH2 0x4F1 JUMPI PUSH1 0x40 MLOAD PUSH32 0x8C379A000000000000000000000000000000000000000000000000000000000 DUP2 MSTORE PUSH1 0x4 ADD PUSH2 0x4E8 SWAP1 PUSH2 0x70D JUMP JUMPDEST PUSH1 0x40 MLOAD DUP1 SWAP2 SUB SWAP1 REVERT JUMPDEST PUSH1 0x1 PUSH1 0x0 DUP4 PUSH20 0xFFFFFFFFFFFFFFFFFFFFFFFFFFFFFFFFFFFFFFFF AND PUSH20 0xFFFFFFFFFFFFFFFFFFFFFFFFFFFFFFFFFFFFFFFF AND DUP2 MSTORE PUSH1 0x20 ADD SWAP1 DUP2 MSTORE PUSH1 0x20 ADD PUSH1 0x0 KECCAK256 PUSH1 0x1 ADD SLOAD SWAP1 POP SWAP2 SWAP1 POP JUMP JUMPDEST PUSH1 0x0 DUP2 CALLDATALOAD SWAP1 POP PUSH2 0x54A DUP2 PUSH2 0x900 JUMP JUMPDEST SWAP3 SWAP2 POP POP JUMP JUMPDEST PUSH1 0x0 DUP2 CALLDATALOAD SWAP1 POP PUSH2 0x55F DUP2 PUSH2 0x917 JUMP JUMPDEST SWAP3 SWAP2 POP POP JUMP JUMPDEST PUSH1 0x0 PUSH1 0x20 DUP3 DUP5 SUB SLT ISZERO PUSH2 0x57B JUMPI PUSH2 0x57A PUSH2 0x85A JUMP JUMPDEST JUMPDEST PUSH1 0x0 PUSH2 0x589 DUP5 DUP3 DUP6 ADD PUSH2 0x53B JUMP JUMPDEST SWAP2 POP POP SWAP3 SWAP2 POP POP JUMP JUMPDEST PUSH1 0x0 DUP1 PUSH1 0x0 PUSH1 0x60 DUP5 DUP7 SUB SLT ISZERO PUSH2 0x5AB JUMPI PUSH2 0x5AA PUSH2 0x85A JUMP JUMPDEST JUMPDEST PUSH1 0x0 PUSH2 0x5B9 DUP7 DUP3 DUP8 ADD PUSH2 0x53B JUMP JUMPDEST SWAP4 POP POP PUSH1 0x20 PUSH2 0x5CA DUP7 DUP3 DUP8 ADD PUSH2 0x53B JUMP JUMPDEST SWAP3 POP POP PUSH1 0x40 PUSH2 0x5DB DUP7 DUP3 DUP8 ADD PUSH2 0x550 JUMP JUMPDEST SWAP2 POP POP SWAP3 POP SWAP3 POP SWAP3 JUMP JUMPDEST PUSH2 0x5EE DUP2 PUSH2 0x7E3 JUMP JUMPDEST DUP3 MSTORE POP POP JUMP JUMPDEST PUSH2 0x5FD DUP2 PUSH2 0x7F5 JUMP JUMPDEST DUP3 MSTORE POP POP JUMP JUMPDEST PUSH1 0x0 PUSH2 0x610 PUSH1 0x13 DUP4 PUSH2 0x748 JUMP JUMPDEST SWAP2 POP PUSH2 0x61B DUP3 PUSH2 0x85F JUMP JUMPDEST PUSH1 0x20 DUP3 ADD SWAP1 POP SWAP2 SWAP1 POP JUMP JUMPDEST PUSH1 0x0 PUSH2 0x633 PUSH1 0x12 DUP4 PUSH2 0x748 JUMP JUMPDEST SWAP2 POP PUSH2 0x63E DUP3 PUSH2 0x888 JUMP JUMPDEST PUSH1 0x20 DUP3 ADD SWAP1 POP SWAP2 SWAP1 POP JUMP JUMPDEST PUSH1 0x0 PUSH2 0x656 PUSH1 0x35 DUP4 PUSH2 0x748 JUMP JUMPDEST SWAP2 POP PUSH2 0x661 DUP3 PUSH2 0x8B1 JUMP JUMPDEST PUSH1 0x40 DUP3 ADD SWAP1 POP SWAP2 SWAP1 POP JUMP JUMPDEST PUSH2 0x675 DUP2 PUSH2 0x821 JUMP JUMPDEST DUP3 MSTORE POP POP JUMP JUMPDEST PUSH1 0x0 PUSH1 0x60 DUP3 ADD SWAP1 POP PUSH2 0x690 PUSH1 0x0 DUP4 ADD DUP7 PUSH2 0x5E5 JUMP JUMPDEST PUSH2 0x69D PUSH1 0x20 DUP4 ADD DUP6 PUSH2 0x5E5 JUMP JUMPDEST PUSH2 0x6AA PUSH1 0x40 DUP4 ADD DUP5 PUSH2 0x66C JUMP JUMPDEST SWAP5 SWAP4 POP POP POP POP JUMP JUMPDEST PUSH1 0x0 PUSH1 0x20 DUP3 ADD SWAP1 POP PUSH2 0x6C7 PUSH1 0x0 DUP4 ADD DUP5 PUSH2 0x5F4 JUMP JUMPDEST SWAP3 SWAP2 POP POP JUMP JUMPDEST PUSH1 0x0 PUSH1 0x20 DUP3 ADD SWAP1 POP DUP2 DUP2 SUB PUSH1 0x0 DUP4 ADD MSTORE PUSH2 0x6E6 DUP2 PUSH2 0x603 JUMP JUMPDEST SWAP1 POP SWAP2 SWAP1 POP JUMP JUMPDEST PUSH1 0x0 PUSH1 0x20 DUP3 ADD SWAP1 POP DUP2 DUP2 SUB PUSH1 0x0 DUP4 ADD MSTORE PUSH2 0x706 DUP2 PUSH2 0x626 JUMP JUMPDEST SWAP1 POP SWAP2 SWAP1 POP JUMP JUMPDEST PUSH1 0x0 PUSH1 0x20 DUP3 ADD SWAP1 POP DUP2 DUP2 SUB PUSH1 0x0 DUP4 ADD MSTORE PUSH2 0x726 DUP2 PUSH2 0x649 JUMP JUMPDEST SWAP1 POP SWAP2 SWAP1 POP JUMP JUMPDEST PUSH1 0x0 PUSH1 0x20 DUP3 ADD SWAP1 POP PUSH2 0x742 PUSH1 0x0 DUP4 ADD DUP5 PUSH2 0x66C JUMP JUMPDEST SWAP3 SWAP2 POP POP JUMP JUMPDEST PUSH1 0x0 DUP3 DUP3 MSTORE PUSH1 0x20 DUP3 ADD SWAP1 POP SWAP3 SWAP2 POP POP JUMP JUMPDEST PUSH1 0x0 PUSH2 0x764 DUP3 PUSH2 0x821 JUMP JUMPDEST SWAP2 POP PUSH2 0x76F DUP4 PUSH2 0x821 JUMP JUMPDEST SWAP3 POP DUP3 PUSH32 0xFFFFFFFFFFFFFFFFFFFFFFFFFFFFFFFFFFFFFFFFFFFFFFFFFFFFFFFFFFFFFFFF SUB DUP3 GT ISZERO PUSH2 0x7A4 JUMPI PUSH2 0x7A3 PUSH2 0x82B JUMP JUMPDEST JUMPDEST DUP3 DUP3 ADD SWAP1 POP SWAP3 SWAP2 POP POP JUMP JUMPDEST PUSH1 0x0 PUSH2 0x7BA DUP3 PUSH2 0x821 JUMP JUMPDEST SWAP2 POP PUSH2 0x7C5 DUP4 PUSH2 0x821 JUMP JUMPDEST SWAP3 POP DUP3 DUP3 LT ISZERO PUSH2 0x7D8 JUMPI PUSH2 0x7D7 PUSH2 0x82B JUMP JUMPDEST JUMPDEST DUP3 DUP3 SUB SWAP1 POP SWAP3 SWAP2 POP POP JUMP JUMPDEST PUSH1 0x0 PUSH2 0x7EE DUP3 PUSH2 0x801 JUMP JUMPDEST SWAP1 POP SWAP2 SWAP1 POP JUMP JUMPDEST PUSH1 0x0 DUP2 ISZERO ISZERO SWAP1 POP SWAP2 SWAP1 POP JUMP JUMPDEST PUSH1 0x0 PUSH20 0xFFFFFFFFFFFFFFFFFFFFFFFFFFFFFFFFFFFFFFFF DUP3 AND SWAP1 POP SWAP2 SWAP1 POP JUMP JUMPDEST PUSH1 0x0 DUP2 SWAP1 POP SWAP2 SWAP1 POP JUMP JUMPDEST PUSH32 0x4E487B7100000000000000000000000000000000000000000000000000000000 PUSH1 0x0 MSTORE PUSH1 0x11 PUSH1 0x4 MSTORE PUSH1 0x24 PUSH1 0x0 REVERT JUMPDEST PUSH1 0x0 DUP1 REVERT JUMPDEST PUSH32 0x4C61206375656E7461206E6F2065786973746500000000000000000000000000 PUSH1 0x0 DUP3 ADD MSTORE POP JUMP JUMPDEST PUSH32 0x53616C646F20696E737566696369656E74650000000000000000000000000000 PUSH1 0x0 DUP3 ADD MSTORE POP JUMP JUMPDEST PUSH32 0x4E6F20657320746974756C6172206465206375656E74612C206175746F72697A PUSH1 0x0 DUP3 ADD MSTORE PUSH32 0x61646F2070617261206C61206F7065726163696F6E0000000000000000000000 PUSH1 0x20 DUP3 ADD MSTORE POP JUMP JUMPDEST PUSH2 0x909 DUP2 PUSH2 0x7E3 JUMP JUMPDEST DUP2 EQ PUSH2 0x914 JUMPI PUSH1 0x0 DUP1 REVERT JUMPDEST POP JUMP JUMPDEST PUSH2 0x920 DUP2 PUSH2 0x821 JUMP JUMPDEST DUP2 EQ PUSH2 0x92B JUMPI PUSH1 0x0 DUP1 REVERT JUMPDEST POP JUMP INVALID LOG2 PUSH5 0x6970667358 0x22 SLT KECCAK256 PUSH30 0xED803BF267F612BD0D49322C71C721BDD8453B40EAF6D95A626B763F6C5 DUP5 PUSH5 0x736F6C6343 STOP ADDMOD SMOD STOP CALLER "
				},
				"gasEstimates": {
					"creation": {
						"codeDepositCost": "480800",
						"executionCost": "infinite",
						"totalCost": "infinite"
					},
					"external": {
						"consultaSaldo(address)": "7252",
						"transferir(address,address,uint256)": "infinite"
					}
				},
				"methodIdentifiers": {
					"consultaSaldo(address)": "4f48bf44",
					"transferir(address,address,uint256)": "077d492e"
				}
			},
			"storageLayout": {
				"storage": [
					{
						"astId": 4,
						"contract": "contracts/9_Curso_Moneda.sol:CursoMoneda",
						"label": "cuentaInexistente",
						"offset": 0,
						"slot": "0",
						"type": "t_address"
					},
					{
						"astId": 23,
						"contract": "contracts/9_Curso_Moneda.sol:CursoMoneda",
						"label": "cuentas",
						"offset": 0,
						"slot": "1",
						"type": "t_mapping(t_address,t_struct(Cuenta)30_storage)"
					}
				],
				"types": {
					"t_address": {
						"encoding": "inplace",
						"label": "address",
						"numberOfBytes": "20"
					},
					"t_mapping(t_address,t_struct(Cuenta)30_storage)": {
						"encoding": "mapping",
						"key": "t_address",
						"label": "mapping(address => struct CursoMoneda.Cuenta)",
						"numberOfBytes": "32",
						"value": "t_struct(Cuenta)30_storage"
					},
					"t_string_storage": {
						"encoding": "bytes",
						"label": "string",
						"numberOfBytes": "32"
					},
					"t_struct(Cuenta)30_storage": {
						"encoding": "inplace",
						"label": "struct CursoMoneda.Cuenta",
						"members": [
							{
								"astId": 25,
								"contract": "contracts/9_Curso_Moneda.sol:CursoMoneda",
								"label": "nroCuenta",
								"offset": 0,
								"slot": "0",
								"type": "t_address"
							},
							{
								"astId": 27,
								"contract": "contracts/9_Curso_Moneda.sol:CursoMoneda",
								"label": "saldo",
								"offset": 0,
								"slot": "1",
								"type": "t_uint256"
							},
							{
								"astId": 29,
								"contract": "contracts/9_Curso_Moneda.sol:CursoMoneda",
								"label": "usuario",
								"offset": 0,
								"slot": "2",
								"type": "t_string_storage"
							}
						],
						"numberOfBytes": "96"
					},
					"t_uint256": {
						"encoding": "inplace",
						"label": "uint256",
						"numberOfBytes": "32"
					}
				}
			},
			"userdoc": {
				"kind": "user",
				"methods": {},
				"version": 1
			}
		}
	}
}