{
	"contracts/9_Curso_Moneda.sol": {
		"CursoMoneda": {
			"abi": [
				{
					"inputs": [
						{
							"internalType": "uint256",
							"name": "saldoInicial",
							"type": "uint256"
						}
					],
					"stateMutability": "nonpayable",
					"type": "constructor"
				},
				{
					"anonymous": false,
					"inputs": [
						{
							"indexed": false,
							"internalType": "address",
							"name": "origen",
							"type": "address"
						},
						{
							"indexed": false,
							"internalType": "address",
							"name": "destino",
							"type": "address"
						},
						{
							"indexed": false,
							"internalType": "uint256",
							"name": "monto",
							"type": "uint256"
						}
					],
					"name": "EventoTransferencia",
					"type": "event"
				},
				{
					"inputs": [
						{
							"internalType": "address",
							"name": "cuenta",
							"type": "address"
						}
					],
					"name": "consultaSaldo",
					"outputs": [
						{
							"internalType": "uint256",
							"name": "",
							"type": "uint256"
						}
					],
					"stateMutability": "view",
					"type": "function"
				},
				{
					"inputs": [
						{
							"internalType": "address",
							"name": "cuentaOrigen",
							"type": "address"
						},
						{
							"internalType": "address",
							"name": "cuentaDestino",
							"type": "address"
						},
						{
							"internalType": "uint256",
							"name": "monto",
							"type": "uint256"
						}
					],
					"name": "transferir",
					"outputs": [
						{
							"internalType": "bool",
							"name": "",
							"type": "bool"
						}
					],
					"stateMutability": "nonpayable",
					"type": "function"
				}
			],
			"devdoc": {
				"kind": "dev",
				"methods": {},
				"version": 1
			},
			"evm": {
				"assembly": "    /* \"contracts/9_Curso_Moneda.sol\":518:1684  contract CursoMoneda {\r... */\n  mstore(0x40, 0x80)\n    /* \"contracts/9_Curso_Moneda.sol\":580:622  0x0000000000000000000000000000000000000000 */\n  0x00\n    /* \"contracts/9_Curso_Moneda.sol\":552:622  address cuentaInexistente = 0x0000000000000000000000000000000000000000 */\n  dup1\n  exp(0x0100, 0x00)\n  dup2\n  sload\n  dup2\n  0xffffffffffffffffffffffffffffffffffffffff\n  mul\n  not\n  and\n  swap1\n  dup4\n  0xffffffffffffffffffffffffffffffffffffffff\n  and\n  mul\n  or\n  swap1\n  sstore\n  pop\n    /* \"contracts/9_Curso_Moneda.sol\":631:722  constructor(uint saldoInicial) {\r... */\n  callvalue\n  dup1\n  iszero\n  tag_1\n  jumpi\n  0x00\n  dup1\n  revert\ntag_1:\n  pop\n  mload(0x40)\n  sub(codesize, bytecodeSize)\n  dup1\n  bytecodeSize\n  dup4\n  codecopy\n  dup2\n  dup2\n  add\n  0x40\n  mstore\n  dup2\n  add\n  swap1\n  tag_2\n  swap2\n  swap1\n  tag_3\n  jump\t// in\ntag_2:\n    /* \"contracts/9_Curso_Moneda.sol\":702:714  saldoInicial */\n  dup1\n    /* \"contracts/9_Curso_Moneda.sol\":673:680  cuentas */\n  0x01\n    /* \"contracts/9_Curso_Moneda.sol\":673:692  cuentas[msg.sender] */\n  0x00\n    /* \"contracts/9_Curso_Moneda.sol\":681:691  msg.sender */\n  caller\n    /* \"contracts/9_Curso_Moneda.sol\":673:692  cuentas[msg.sender] */\n  0xffffffffffffffffffffffffffffffffffffffff\n  and\n  0xffffffffffffffffffffffffffffffffffffffff\n  and\n  dup2\n  mstore\n  0x20\n  add\n  swap1\n  dup2\n  mstore\n  0x20\n  add\n  0x00\n  keccak256\n    /* \"contracts/9_Curso_Moneda.sol\":673:698  cuentas[msg.sender].saldo */\n  0x00\n  add\n  0x00\n    /* \"contracts/9_Curso_Moneda.sol\":673:714  cuentas[msg.sender].saldo += saldoInicial */\n  dup3\n  dup3\n  sload\n  tag_6\n  swap2\n  swap1\n  tag_7\n  jump\t// in\ntag_6:\n  swap3\n  pop\n  pop\n  dup2\n  swap1\n  sstore\n  pop\n    /* \"contracts/9_Curso_Moneda.sol\":631:722  constructor(uint saldoInicial) {\r... */\n  pop\n    /* \"contracts/9_Curso_Moneda.sol\":518:1684  contract CursoMoneda {\r... */\n  jump(tag_8)\n    /* \"#utility.yul\":7:150   */\ntag_10:\n    /* \"#utility.yul\":64:69   */\n  0x00\n    /* \"#utility.yul\":95:101   */\n  dup2\n    /* \"#utility.yul\":89:102   */\n  mload\n    /* \"#utility.yul\":80:102   */\n  swap1\n  pop\n    /* \"#utility.yul\":111:144   */\n  tag_12\n    /* \"#utility.yul\":138:143   */\n  dup2\n    /* \"#utility.yul\":111:144   */\n  tag_13\n  jump\t// in\ntag_12:\n    /* \"#utility.yul\":7:150   */\n  swap3\n  swap2\n  pop\n  pop\n  jump\t// out\n    /* \"#utility.yul\":156:507   */\ntag_3:\n    /* \"#utility.yul\":226:232   */\n  0x00\n    /* \"#utility.yul\":275:277   */\n  0x20\n    /* \"#utility.yul\":263:272   */\n  dup3\n    /* \"#utility.yul\":254:261   */\n  dup5\n    /* \"#utility.yul\":250:273   */\n  sub\n    /* \"#utility.yul\":246:278   */\n  slt\n    /* \"#utility.yul\":243:362   */\n  iszero\n  tag_15\n  jumpi\n    /* \"#utility.yul\":281:360   */\n  tag_16\n  tag_17\n  jump\t// in\ntag_16:\n    /* \"#utility.yul\":243:362   */\ntag_15:\n    /* \"#utility.yul\":401:402   */\n  0x00\n    /* \"#utility.yul\":426:490   */\n  tag_18\n    /* \"#utility.yul\":482:489   */\n  dup5\n    /* \"#utility.yul\":473:479   */\n  dup3\n    /* \"#utility.yul\":462:471   */\n  dup6\n    /* \"#utility.yul\":458:480   */\n  add\n    /* \"#utility.yul\":426:490   */\n  tag_10\n  jump\t// in\ntag_18:\n    /* \"#utility.yul\":416:490   */\n  swap2\n  pop\n    /* \"#utility.yul\":372:500   */\n  pop\n    /* \"#utility.yul\":156:507   */\n  swap3\n  swap2\n  pop\n  pop\n  jump\t// out\n    /* \"#utility.yul\":594:899   */\ntag_7:\n    /* \"#utility.yul\":634:637   */\n  0x00\n    /* \"#utility.yul\":653:673   */\n  tag_22\n    /* \"#utility.yul\":671:672   */\n  dup3\n    /* \"#utility.yul\":653:673   */\n  tag_23\n  jump\t// in\ntag_22:\n    /* \"#utility.yul\":648:673   */\n  swap2\n  pop\n    /* \"#utility.yul\":687:707   */\n  tag_24\n    /* \"#utility.yul\":705:706   */\n  dup4\n    /* \"#utility.yul\":687:707   */\n  tag_23\n  jump\t// in\ntag_24:\n    /* \"#utility.yul\":682:707   */\n  swap3\n  pop\n    /* \"#utility.yul\":841:842   */\n  dup3\n    /* \"#utility.yul\":773:839   */\n  0xffffffffffffffffffffffffffffffffffffffffffffffffffffffffffffffff\n    /* \"#utility.yul\":769:843   */\n  sub\n    /* \"#utility.yul\":766:767   */\n  dup3\n    /* \"#utility.yul\":763:844   */\n  gt\n    /* \"#utility.yul\":760:867   */\n  iszero\n  tag_25\n  jumpi\n    /* \"#utility.yul\":847:865   */\n  tag_26\n  tag_27\n  jump\t// in\ntag_26:\n    /* \"#utility.yul\":760:867   */\ntag_25:\n    /* \"#utility.yul\":891:892   */\n  dup3\n    /* \"#utility.yul\":888:889   */\n  dup3\n    /* \"#utility.yul\":884:893   */\n  add\n    /* \"#utility.yul\":877:893   */\n  swap1\n  pop\n    /* \"#utility.yul\":594:899   */\n  swap3\n  swap2\n  pop\n  pop\n  jump\t// out\n    /* \"#utility.yul\":905:982   */\ntag_23:\n    /* \"#utility.yul\":942:949   */\n  0x00\n    /* \"#utility.yul\":971:976   */\n  dup2\n    /* \"#utility.yul\":960:976   */\n  swap1\n  pop\n    /* \"#utility.yul\":905:982   */\n  swap2\n  swap1\n  pop\n  jump\t// out\n    /* \"#utility.yul\":988:1168   */\ntag_27:\n    /* \"#utility.yul\":1036:1113   */\n  0x4e487b7100000000000000000000000000000000000000000000000000000000\n    /* \"#utility.yul\":1033:1034   */\n  0x00\n    /* \"#utility.yul\":1026:1114   */\n  mstore\n    /* \"#utility.yul\":1133:1137   */\n  0x11\n    /* \"#utility.yul\":1130:1131   */\n  0x04\n    /* \"#utility.yul\":1123:1138   */\n  mstore\n    /* \"#utility.yul\":1157:1161   */\n  0x24\n    /* \"#utility.yul\":1154:1155   */\n  0x00\n    /* \"#utility.yul\":1147:1162   */\n  revert\n    /* \"#utility.yul\":1297:1414   */\ntag_17:\n    /* \"#utility.yul\":1406:1407   */\n  0x00\n    /* \"#utility.yul\":1403:1404   */\n  dup1\n    /* \"#utility.yul\":1396:1408   */\n  revert\n    /* \"#utility.yul\":1420:1542   */\ntag_13:\n    /* \"#utility.yul\":1493:1517   */\n  tag_34\n    /* \"#utility.yul\":1511:1516   */\n  dup2\n    /* \"#utility.yul\":1493:1517   */\n  tag_23\n  jump\t// in\ntag_34:\n    /* \"#utility.yul\":1486:1491   */\n  dup2\n    /* \"#utility.yul\":1483:1518   */\n  eq\n    /* \"#utility.yul\":1473:1536   */\n  tag_35\n  jumpi\n    /* \"#utility.yul\":1532:1533   */\n  0x00\n    /* \"#utility.yul\":1529:1530   */\n  dup1\n    /* \"#utility.yul\":1522:1534   */\n  revert\n    /* \"#utility.yul\":1473:1536   */\ntag_35:\n    /* \"#utility.yul\":1420:1542   */\n  pop\n  jump\t// out\n    /* \"contracts/9_Curso_Moneda.sol\":518:1684  contract CursoMoneda {\r... */\ntag_8:\n  dataSize(sub_0)\n  dup1\n  dataOffset(sub_0)\n  0x00\n  codecopy\n  0x00\n  return\nstop\n\nsub_0: assembly {\n        /* \"contracts/9_Curso_Moneda.sol\":518:1684  contract CursoMoneda {\r... */\n      mstore(0x40, 0x80)\n      callvalue\n      dup1\n      iszero\n      tag_1\n      jumpi\n      0x00\n      dup1\n      revert\n    tag_1:\n      pop\n      jumpi(tag_2, lt(calldatasize, 0x04))\n      shr(0xe0, calldataload(0x00))\n      dup1\n      0x077d492e\n      eq\n      tag_3\n      jumpi\n      dup1\n      0x4f48bf44\n      eq\n      tag_4\n      jumpi\n    tag_2:\n      0x00\n      dup1\n      revert\n        /* \"contracts/9_Curso_Moneda.sol\":861:1284  function transferir(address cuentaOrigen, address cuentaDestino, uint monto) external esTitular returns(bool) {\r... */\n    tag_3:\n      tag_5\n      0x04\n      dup1\n      calldatasize\n      sub\n      dup2\n      add\n      swap1\n      tag_6\n      swap2\n      swap1\n      tag_7\n      jump\t// in\n    tag_6:\n      tag_8\n      jump\t// in\n    tag_5:\n      mload(0x40)\n      tag_9\n      swap2\n      swap1\n      tag_10\n      jump\t// in\n    tag_9:\n      mload(0x40)\n      dup1\n      swap2\n      sub\n      swap1\n      return\n        /* \"contracts/9_Curso_Moneda.sol\":1292:1416  function consultaSaldo(address cuenta) external esTitular view returns(uint) {\r... */\n    tag_4:\n      tag_11\n      0x04\n      dup1\n      calldatasize\n      sub\n      dup2\n      add\n      swap1\n      tag_12\n      swap2\n      swap1\n      tag_13\n      jump\t// in\n    tag_12:\n      tag_14\n      jump\t// in\n    tag_11:\n      mload(0x40)\n      tag_15\n      swap2\n      swap1\n      tag_16\n      jump\t// in\n    tag_15:\n      mload(0x40)\n      dup1\n      swap2\n      sub\n      swap1\n      return\n        /* \"contracts/9_Curso_Moneda.sol\":861:1284  function transferir(address cuentaOrigen, address cuentaDestino, uint monto) external esTitular returns(bool) {\r... */\n    tag_8:\n        /* \"contracts/9_Curso_Moneda.sol\":965:969  bool */\n      0x00\n        /* \"contracts/9_Curso_Moneda.sol\":1025:1030  monto */\n      dup2\n        /* \"contracts/9_Curso_Moneda.sol\":995:1002  cuentas */\n      0x01\n        /* \"contracts/9_Curso_Moneda.sol\":995:1016  cuentas[cuentaOrigen] */\n      0x00\n        /* \"contracts/9_Curso_Moneda.sol\":1003:1015  cuentaOrigen */\n      dup7\n        /* \"contracts/9_Curso_Moneda.sol\":995:1016  cuentas[cuentaOrigen] */\n      0xffffffffffffffffffffffffffffffffffffffff\n      and\n      0xffffffffffffffffffffffffffffffffffffffff\n      and\n      dup2\n      mstore\n      0x20\n      add\n      swap1\n      dup2\n      mstore\n      0x20\n      add\n      0x00\n      keccak256\n        /* \"contracts/9_Curso_Moneda.sol\":995:1022  cuentas[cuentaOrigen].saldo */\n      0x00\n      add\n      sload\n        /* \"contracts/9_Curso_Moneda.sol\":995:1030  cuentas[cuentaOrigen].saldo < monto */\n      lt\n        /* \"contracts/9_Curso_Moneda.sol\":992:1087  if(cuentas[cuentaOrigen].saldo < monto){\r... */\n      iszero\n      tag_19\n      jumpi\n        /* \"contracts/9_Curso_Moneda.sol\":1046:1075  revert (\"Saldo insuficiente\") */\n      mload(0x40)\n      0x08c379a000000000000000000000000000000000000000000000000000000000\n      dup2\n      mstore\n      0x04\n      add\n      tag_20\n      swap1\n      tag_21\n      jump\t// in\n    tag_20:\n      mload(0x40)\n      dup1\n      swap2\n      sub\n      swap1\n      revert\n        /* \"contracts/9_Curso_Moneda.sol\":992:1087  if(cuentas[cuentaOrigen].saldo < monto){\r... */\n    tag_19:\n        /* \"contracts/9_Curso_Moneda.sol\":1129:1134  monto */\n      dup2\n        /* \"contracts/9_Curso_Moneda.sol\":1097:1104  cuentas */\n      0x01\n        /* \"contracts/9_Curso_Moneda.sol\":1097:1119  cuentas[cuentaDestino] */\n      0x00\n        /* \"contracts/9_Curso_Moneda.sol\":1105:1118  cuentaDestino */\n      dup6\n        /* \"contracts/9_Curso_Moneda.sol\":1097:1119  cuentas[cuentaDestino] */\n      0xffffffffffffffffffffffffffffffffffffffff\n      and\n      0xffffffffffffffffffffffffffffffffffffffff\n      and\n      dup2\n      mstore\n      0x20\n      add\n      swap1\n      dup2\n      mstore\n      0x20\n      add\n      0x00\n      keccak256\n        /* \"contracts/9_Curso_Moneda.sol\":1097:1125  cuentas[cuentaDestino].saldo */\n      0x00\n      add\n      0x00\n        /* \"contracts/9_Curso_Moneda.sol\":1097:1134  cuentas[cuentaDestino].saldo += monto */\n      dup3\n      dup3\n      sload\n      tag_22\n      swap2\n      swap1\n      tag_23\n      jump\t// in\n    tag_22:\n      swap3\n      pop\n      pop\n      dup2\n      swap1\n      sstore\n      pop\n        /* \"contracts/9_Curso_Moneda.sol\":1176:1181  monto */\n      dup2\n        /* \"contracts/9_Curso_Moneda.sol\":1145:1152  cuentas */\n      0x01\n        /* \"contracts/9_Curso_Moneda.sol\":1145:1166  cuentas[cuentaOrigen] */\n      0x00\n        /* \"contracts/9_Curso_Moneda.sol\":1153:1165  cuentaOrigen */\n      dup7\n        /* \"contracts/9_Curso_Moneda.sol\":1145:1166  cuentas[cuentaOrigen] */\n      0xffffffffffffffffffffffffffffffffffffffff\n      and\n      0xffffffffffffffffffffffffffffffffffffffff\n      and\n      dup2\n      mstore\n      0x20\n      add\n      swap1\n      dup2\n      mstore\n      0x20\n      add\n      0x00\n      keccak256\n        /* \"contracts/9_Curso_Moneda.sol\":1145:1172  cuentas[cuentaOrigen].saldo */\n      0x00\n      add\n      0x00\n        /* \"contracts/9_Curso_Moneda.sol\":1145:1181  cuentas[cuentaOrigen].saldo -= monto */\n      dup3\n      dup3\n      sload\n      tag_24\n      swap2\n      swap1\n      tag_25\n      jump\t// in\n    tag_24:\n      swap3\n      pop\n      pop\n      dup2\n      swap1\n      sstore\n      pop\n        /* \"contracts/9_Curso_Moneda.sol\":1199:1254  EventoTransferencia(cuentaOrigen, cuentaDestino, monto) */\n      0xd21f641f674e39dafd327aee336648cec891f42f9938356c1554c1a980ec0874\n        /* \"contracts/9_Curso_Moneda.sol\":1219:1231  cuentaOrigen */\n      dup5\n        /* \"contracts/9_Curso_Moneda.sol\":1233:1246  cuentaDestino */\n      dup5\n        /* \"contracts/9_Curso_Moneda.sol\":1248:1253  monto */\n      dup5\n        /* \"contracts/9_Curso_Moneda.sol\":1199:1254  EventoTransferencia(cuentaOrigen, cuentaDestino, monto) */\n      mload(0x40)\n      tag_26\n      swap4\n      swap3\n      swap2\n      swap1\n      tag_27\n      jump\t// in\n    tag_26:\n      mload(0x40)\n      dup1\n      swap2\n      sub\n      swap1\n      log1\n        /* \"contracts/9_Curso_Moneda.sol\":1272:1276  true */\n      0x01\n        /* \"contracts/9_Curso_Moneda.sol\":1265:1276  return true */\n      swap1\n      pop\n        /* \"contracts/9_Curso_Moneda.sol\":861:1284  function transferir(address cuentaOrigen, address cuentaDestino, uint monto) external esTitular returns(bool) {\r... */\n      swap4\n      swap3\n      pop\n      pop\n      pop\n      jump\t// out\n        /* \"contracts/9_Curso_Moneda.sol\":1292:1416  function consultaSaldo(address cuenta) external esTitular view returns(uint) {\r... */\n    tag_14:\n        /* \"contracts/9_Curso_Moneda.sol\":1363:1367  uint */\n      0x00\n        /* \"contracts/9_Curso_Moneda.sol\":1387:1394  cuentas */\n      0x01\n        /* \"contracts/9_Curso_Moneda.sol\":1387:1402  cuentas[cuenta] */\n      0x00\n        /* \"contracts/9_Curso_Moneda.sol\":1395:1401  cuenta */\n      dup4\n        /* \"contracts/9_Curso_Moneda.sol\":1387:1402  cuentas[cuenta] */\n      0xffffffffffffffffffffffffffffffffffffffff\n      and\n      0xffffffffffffffffffffffffffffffffffffffff\n      and\n      dup2\n      mstore\n      0x20\n      add\n      swap1\n      dup2\n      mstore\n      0x20\n      add\n      0x00\n      keccak256\n        /* \"contracts/9_Curso_Moneda.sol\":1387:1408  cuentas[cuenta].saldo */\n      0x00\n      add\n      sload\n        /* \"contracts/9_Curso_Moneda.sol\":1380:1408  return cuentas[cuenta].saldo */\n      swap1\n      pop\n        /* \"contracts/9_Curso_Moneda.sol\":1292:1416  function consultaSaldo(address cuenta) external esTitular view returns(uint) {\r... */\n      swap2\n      swap1\n      pop\n      jump\t// out\n        /* \"#utility.yul\":7:146   */\n    tag_31:\n        /* \"#utility.yul\":53:58   */\n      0x00\n        /* \"#utility.yul\":91:97   */\n      dup2\n        /* \"#utility.yul\":78:98   */\n      calldataload\n        /* \"#utility.yul\":69:98   */\n      swap1\n      pop\n        /* \"#utility.yul\":107:140   */\n      tag_33\n        /* \"#utility.yul\":134:139   */\n      dup2\n        /* \"#utility.yul\":107:140   */\n      tag_34\n      jump\t// in\n    tag_33:\n        /* \"#utility.yul\":7:146   */\n      swap3\n      swap2\n      pop\n      pop\n      jump\t// out\n        /* \"#utility.yul\":152:291   */\n    tag_35:\n        /* \"#utility.yul\":198:203   */\n      0x00\n        /* \"#utility.yul\":236:242   */\n      dup2\n        /* \"#utility.yul\":223:243   */\n      calldataload\n        /* \"#utility.yul\":214:243   */\n      swap1\n      pop\n        /* \"#utility.yul\":252:285   */\n      tag_37\n        /* \"#utility.yul\":279:284   */\n      dup2\n        /* \"#utility.yul\":252:285   */\n      tag_38\n      jump\t// in\n    tag_37:\n        /* \"#utility.yul\":152:291   */\n      swap3\n      swap2\n      pop\n      pop\n      jump\t// out\n        /* \"#utility.yul\":297:626   */\n    tag_13:\n        /* \"#utility.yul\":356:362   */\n      0x00\n        /* \"#utility.yul\":405:407   */\n      0x20\n        /* \"#utility.yul\":393:402   */\n      dup3\n        /* \"#utility.yul\":384:391   */\n      dup5\n        /* \"#utility.yul\":380:403   */\n      sub\n        /* \"#utility.yul\":376:408   */\n      slt\n        /* \"#utility.yul\":373:492   */\n      iszero\n      tag_40\n      jumpi\n        /* \"#utility.yul\":411:490   */\n      tag_41\n      tag_42\n      jump\t// in\n    tag_41:\n        /* \"#utility.yul\":373:492   */\n    tag_40:\n        /* \"#utility.yul\":531:532   */\n      0x00\n        /* \"#utility.yul\":556:609   */\n      tag_43\n        /* \"#utility.yul\":601:608   */\n      dup5\n        /* \"#utility.yul\":592:598   */\n      dup3\n        /* \"#utility.yul\":581:590   */\n      dup6\n        /* \"#utility.yul\":577:599   */\n      add\n        /* \"#utility.yul\":556:609   */\n      tag_31\n      jump\t// in\n    tag_43:\n        /* \"#utility.yul\":546:609   */\n      swap2\n      pop\n        /* \"#utility.yul\":502:619   */\n      pop\n        /* \"#utility.yul\":297:626   */\n      swap3\n      swap2\n      pop\n      pop\n      jump\t// out\n        /* \"#utility.yul\":632:1251   */\n    tag_7:\n        /* \"#utility.yul\":709:715   */\n      0x00\n        /* \"#utility.yul\":717:723   */\n      dup1\n        /* \"#utility.yul\":725:731   */\n      0x00\n        /* \"#utility.yul\":774:776   */\n      0x60\n        /* \"#utility.yul\":762:771   */\n      dup5\n        /* \"#utility.yul\":753:760   */\n      dup7\n        /* \"#utility.yul\":749:772   */\n      sub\n        /* \"#utility.yul\":745:777   */\n      slt\n        /* \"#utility.yul\":742:861   */\n      iszero\n      tag_45\n      jumpi\n        /* \"#utility.yul\":780:859   */\n      tag_46\n      tag_42\n      jump\t// in\n    tag_46:\n        /* \"#utility.yul\":742:861   */\n    tag_45:\n        /* \"#utility.yul\":900:901   */\n      0x00\n        /* \"#utility.yul\":925:978   */\n      tag_47\n        /* \"#utility.yul\":970:977   */\n      dup7\n        /* \"#utility.yul\":961:967   */\n      dup3\n        /* \"#utility.yul\":950:959   */\n      dup8\n        /* \"#utility.yul\":946:968   */\n      add\n        /* \"#utility.yul\":925:978   */\n      tag_31\n      jump\t// in\n    tag_47:\n        /* \"#utility.yul\":915:978   */\n      swap4\n      pop\n        /* \"#utility.yul\":871:988   */\n      pop\n        /* \"#utility.yul\":1027:1029   */\n      0x20\n        /* \"#utility.yul\":1053:1106   */\n      tag_48\n        /* \"#utility.yul\":1098:1105   */\n      dup7\n        /* \"#utility.yul\":1089:1095   */\n      dup3\n        /* \"#utility.yul\":1078:1087   */\n      dup8\n        /* \"#utility.yul\":1074:1096   */\n      add\n        /* \"#utility.yul\":1053:1106   */\n      tag_31\n      jump\t// in\n    tag_48:\n        /* \"#utility.yul\":1043:1106   */\n      swap3\n      pop\n        /* \"#utility.yul\":998:1116   */\n      pop\n        /* \"#utility.yul\":1155:1157   */\n      0x40\n        /* \"#utility.yul\":1181:1234   */\n      tag_49\n        /* \"#utility.yul\":1226:1233   */\n      dup7\n        /* \"#utility.yul\":1217:1223   */\n      dup3\n        /* \"#utility.yul\":1206:1215   */\n      dup8\n        /* \"#utility.yul\":1202:1224   */\n      add\n        /* \"#utility.yul\":1181:1234   */\n      tag_35\n      jump\t// in\n    tag_49:\n        /* \"#utility.yul\":1171:1234   */\n      swap2\n      pop\n        /* \"#utility.yul\":1126:1244   */\n      pop\n        /* \"#utility.yul\":632:1251   */\n      swap3\n      pop\n      swap3\n      pop\n      swap3\n      jump\t// out\n        /* \"#utility.yul\":1257:1375   */\n    tag_50:\n        /* \"#utility.yul\":1344:1368   */\n      tag_52\n        /* \"#utility.yul\":1362:1367   */\n      dup2\n        /* \"#utility.yul\":1344:1368   */\n      tag_53\n      jump\t// in\n    tag_52:\n        /* \"#utility.yul\":1339:1342   */\n      dup3\n        /* \"#utility.yul\":1332:1369   */\n      mstore\n        /* \"#utility.yul\":1257:1375   */\n      pop\n      pop\n      jump\t// out\n        /* \"#utility.yul\":1381:1490   */\n    tag_54:\n        /* \"#utility.yul\":1462:1483   */\n      tag_56\n        /* \"#utility.yul\":1477:1482   */\n      dup2\n        /* \"#utility.yul\":1462:1483   */\n      tag_57\n      jump\t// in\n    tag_56:\n        /* \"#utility.yul\":1457:1460   */\n      dup3\n        /* \"#utility.yul\":1450:1484   */\n      mstore\n        /* \"#utility.yul\":1381:1490   */\n      pop\n      pop\n      jump\t// out\n        /* \"#utility.yul\":1496:1862   */\n    tag_58:\n        /* \"#utility.yul\":1638:1641   */\n      0x00\n        /* \"#utility.yul\":1659:1726   */\n      tag_60\n        /* \"#utility.yul\":1723:1725   */\n      0x12\n        /* \"#utility.yul\":1718:1721   */\n      dup4\n        /* \"#utility.yul\":1659:1726   */\n      tag_61\n      jump\t// in\n    tag_60:\n        /* \"#utility.yul\":1652:1726   */\n      swap2\n      pop\n        /* \"#utility.yul\":1735:1828   */\n      tag_62\n        /* \"#utility.yul\":1824:1827   */\n      dup3\n        /* \"#utility.yul\":1735:1828   */\n      tag_63\n      jump\t// in\n    tag_62:\n        /* \"#utility.yul\":1853:1855   */\n      0x20\n        /* \"#utility.yul\":1848:1851   */\n      dup3\n        /* \"#utility.yul\":1844:1856   */\n      add\n        /* \"#utility.yul\":1837:1856   */\n      swap1\n      pop\n        /* \"#utility.yul\":1496:1862   */\n      swap2\n      swap1\n      pop\n      jump\t// out\n        /* \"#utility.yul\":1868:1986   */\n    tag_64:\n        /* \"#utility.yul\":1955:1979   */\n      tag_66\n        /* \"#utility.yul\":1973:1978   */\n      dup2\n        /* \"#utility.yul\":1955:1979   */\n      tag_67\n      jump\t// in\n    tag_66:\n        /* \"#utility.yul\":1950:1953   */\n      dup3\n        /* \"#utility.yul\":1943:1980   */\n      mstore\n        /* \"#utility.yul\":1868:1986   */\n      pop\n      pop\n      jump\t// out\n        /* \"#utility.yul\":1992:2434   */\n    tag_27:\n        /* \"#utility.yul\":2141:2145   */\n      0x00\n        /* \"#utility.yul\":2179:2181   */\n      0x60\n        /* \"#utility.yul\":2168:2177   */\n      dup3\n        /* \"#utility.yul\":2164:2182   */\n      add\n        /* \"#utility.yul\":2156:2182   */\n      swap1\n      pop\n        /* \"#utility.yul\":2192:2263   */\n      tag_69\n        /* \"#utility.yul\":2260:2261   */\n      0x00\n        /* \"#utility.yul\":2249:2258   */\n      dup4\n        /* \"#utility.yul\":2245:2262   */\n      add\n        /* \"#utility.yul\":2236:2242   */\n      dup7\n        /* \"#utility.yul\":2192:2263   */\n      tag_50\n      jump\t// in\n    tag_69:\n        /* \"#utility.yul\":2273:2345   */\n      tag_70\n        /* \"#utility.yul\":2341:2343   */\n      0x20\n        /* \"#utility.yul\":2330:2339   */\n      dup4\n        /* \"#utility.yul\":2326:2344   */\n      add\n        /* \"#utility.yul\":2317:2323   */\n      dup6\n        /* \"#utility.yul\":2273:2345   */\n      tag_50\n      jump\t// in\n    tag_70:\n        /* \"#utility.yul\":2355:2427   */\n      tag_71\n        /* \"#utility.yul\":2423:2425   */\n      0x40\n        /* \"#utility.yul\":2412:2421   */\n      dup4\n        /* \"#utility.yul\":2408:2426   */\n      add\n        /* \"#utility.yul\":2399:2405   */\n      dup5\n        /* \"#utility.yul\":2355:2427   */\n      tag_64\n      jump\t// in\n    tag_71:\n        /* \"#utility.yul\":1992:2434   */\n      swap5\n      swap4\n      pop\n      pop\n      pop\n      pop\n      jump\t// out\n        /* \"#utility.yul\":2440:2650   */\n    tag_10:\n        /* \"#utility.yul\":2527:2531   */\n      0x00\n        /* \"#utility.yul\":2565:2567   */\n      0x20\n        /* \"#utility.yul\":2554:2563   */\n      dup3\n        /* \"#utility.yul\":2550:2568   */\n      add\n        /* \"#utility.yul\":2542:2568   */\n      swap1\n      pop\n        /* \"#utility.yul\":2578:2643   */\n      tag_73\n        /* \"#utility.yul\":2640:2641   */\n      0x00\n        /* \"#utility.yul\":2629:2638   */\n      dup4\n        /* \"#utility.yul\":2625:2642   */\n      add\n        /* \"#utility.yul\":2616:2622   */\n      dup5\n        /* \"#utility.yul\":2578:2643   */\n      tag_54\n      jump\t// in\n    tag_73:\n        /* \"#utility.yul\":2440:2650   */\n      swap3\n      swap2\n      pop\n      pop\n      jump\t// out\n        /* \"#utility.yul\":2656:3075   */\n    tag_21:\n        /* \"#utility.yul\":2822:2826   */\n      0x00\n        /* \"#utility.yul\":2860:2862   */\n      0x20\n        /* \"#utility.yul\":2849:2858   */\n      dup3\n        /* \"#utility.yul\":2845:2863   */\n      add\n        /* \"#utility.yul\":2837:2863   */\n      swap1\n      pop\n        /* \"#utility.yul\":2909:2918   */\n      dup2\n        /* \"#utility.yul\":2903:2907   */\n      dup2\n        /* \"#utility.yul\":2899:2919   */\n      sub\n        /* \"#utility.yul\":2895:2896   */\n      0x00\n        /* \"#utility.yul\":2884:2893   */\n      dup4\n        /* \"#utility.yul\":2880:2897   */\n      add\n        /* \"#utility.yul\":2873:2920   */\n      mstore\n        /* \"#utility.yul\":2937:3068   */\n      tag_75\n        /* \"#utility.yul\":3063:3067   */\n      dup2\n        /* \"#utility.yul\":2937:3068   */\n      tag_58\n      jump\t// in\n    tag_75:\n        /* \"#utility.yul\":2929:3068   */\n      swap1\n      pop\n        /* \"#utility.yul\":2656:3075   */\n      swap2\n      swap1\n      pop\n      jump\t// out\n        /* \"#utility.yul\":3081:3303   */\n    tag_16:\n        /* \"#utility.yul\":3174:3178   */\n      0x00\n        /* \"#utility.yul\":3212:3214   */\n      0x20\n        /* \"#utility.yul\":3201:3210   */\n      dup3\n        /* \"#utility.yul\":3197:3215   */\n      add\n        /* \"#utility.yul\":3189:3215   */\n      swap1\n      pop\n        /* \"#utility.yul\":3225:3296   */\n      tag_77\n        /* \"#utility.yul\":3293:3294   */\n      0x00\n        /* \"#utility.yul\":3282:3291   */\n      dup4\n        /* \"#utility.yul\":3278:3295   */\n      add\n        /* \"#utility.yul\":3269:3275   */\n      dup5\n        /* \"#utility.yul\":3225:3296   */\n      tag_64\n      jump\t// in\n    tag_77:\n        /* \"#utility.yul\":3081:3303   */\n      swap3\n      swap2\n      pop\n      pop\n      jump\t// out\n        /* \"#utility.yul\":3390:3559   */\n    tag_61:\n        /* \"#utility.yul\":3474:3485   */\n      0x00\n        /* \"#utility.yul\":3508:3514   */\n      dup3\n        /* \"#utility.yul\":3503:3506   */\n      dup3\n        /* \"#utility.yul\":3496:3515   */\n      mstore\n        /* \"#utility.yul\":3548:3552   */\n      0x20\n        /* \"#utility.yul\":3543:3546   */\n      dup3\n        /* \"#utility.yul\":3539:3553   */\n      add\n        /* \"#utility.yul\":3524:3553   */\n      swap1\n      pop\n        /* \"#utility.yul\":3390:3559   */\n      swap3\n      swap2\n      pop\n      pop\n      jump\t// out\n        /* \"#utility.yul\":3565:3870   */\n    tag_23:\n        /* \"#utility.yul\":3605:3608   */\n      0x00\n        /* \"#utility.yul\":3624:3644   */\n      tag_82\n        /* \"#utility.yul\":3642:3643   */\n      dup3\n        /* \"#utility.yul\":3624:3644   */\n      tag_67\n      jump\t// in\n    tag_82:\n        /* \"#utility.yul\":3619:3644   */\n      swap2\n      pop\n        /* \"#utility.yul\":3658:3678   */\n      tag_83\n        /* \"#utility.yul\":3676:3677   */\n      dup4\n        /* \"#utility.yul\":3658:3678   */\n      tag_67\n      jump\t// in\n    tag_83:\n        /* \"#utility.yul\":3653:3678   */\n      swap3\n      pop\n        /* \"#utility.yul\":3812:3813   */\n      dup3\n        /* \"#utility.yul\":3744:3810   */\n      0xffffffffffffffffffffffffffffffffffffffffffffffffffffffffffffffff\n        /* \"#utility.yul\":3740:3814   */\n      sub\n        /* \"#utility.yul\":3737:3738   */\n      dup3\n        /* \"#utility.yul\":3734:3815   */\n      gt\n        /* \"#utility.yul\":3731:3838   */\n      iszero\n      tag_84\n      jumpi\n        /* \"#utility.yul\":3818:3836   */\n      tag_85\n      tag_86\n      jump\t// in\n    tag_85:\n        /* \"#utility.yul\":3731:3838   */\n    tag_84:\n        /* \"#utility.yul\":3862:3863   */\n      dup3\n        /* \"#utility.yul\":3859:3860   */\n      dup3\n        /* \"#utility.yul\":3855:3864   */\n      add\n        /* \"#utility.yul\":3848:3864   */\n      swap1\n      pop\n        /* \"#utility.yul\":3565:3870   */\n      swap3\n      swap2\n      pop\n      pop\n      jump\t// out\n        /* \"#utility.yul\":3876:4067   */\n    tag_25:\n        /* \"#utility.yul\":3916:3920   */\n      0x00\n        /* \"#utility.yul\":3936:3956   */\n      tag_88\n        /* \"#utility.yul\":3954:3955   */\n      dup3\n        /* \"#utility.yul\":3936:3956   */\n      tag_67\n      jump\t// in\n    tag_88:\n        /* \"#utility.yul\":3931:3956   */\n      swap2\n      pop\n        /* \"#utility.yul\":3970:3990   */\n      tag_89\n        /* \"#utility.yul\":3988:3989   */\n      dup4\n        /* \"#utility.yul\":3970:3990   */\n      tag_67\n      jump\t// in\n    tag_89:\n        /* \"#utility.yul\":3965:3990   */\n      swap3\n      pop\n        /* \"#utility.yul\":4009:4010   */\n      dup3\n        /* \"#utility.yul\":4006:4007   */\n      dup3\n        /* \"#utility.yul\":4003:4011   */\n      lt\n        /* \"#utility.yul\":4000:4034   */\n      iszero\n      tag_90\n      jumpi\n        /* \"#utility.yul\":4014:4032   */\n      tag_91\n      tag_86\n      jump\t// in\n    tag_91:\n        /* \"#utility.yul\":4000:4034   */\n    tag_90:\n        /* \"#utility.yul\":4059:4060   */\n      dup3\n        /* \"#utility.yul\":4056:4057   */\n      dup3\n        /* \"#utility.yul\":4052:4061   */\n      sub\n        /* \"#utility.yul\":4044:4061   */\n      swap1\n      pop\n        /* \"#utility.yul\":3876:4067   */\n      swap3\n      swap2\n      pop\n      pop\n      jump\t// out\n        /* \"#utility.yul\":4073:4169   */\n    tag_53:\n        /* \"#utility.yul\":4110:4117   */\n      0x00\n        /* \"#utility.yul\":4139:4163   */\n      tag_93\n        /* \"#utility.yul\":4157:4162   */\n      dup3\n        /* \"#utility.yul\":4139:4163   */\n      tag_94\n      jump\t// in\n    tag_93:\n        /* \"#utility.yul\":4128:4163   */\n      swap1\n      pop\n        /* \"#utility.yul\":4073:4169   */\n      swap2\n      swap1\n      pop\n      jump\t// out\n        /* \"#utility.yul\":4175:4265   */\n    tag_57:\n        /* \"#utility.yul\":4209:4216   */\n      0x00\n        /* \"#utility.yul\":4252:4257   */\n      dup2\n        /* \"#utility.yul\":4245:4258   */\n      iszero\n        /* \"#utility.yul\":4238:4259   */\n      iszero\n        /* \"#utility.yul\":4227:4259   */\n      swap1\n      pop\n        /* \"#utility.yul\":4175:4265   */\n      swap2\n      swap1\n      pop\n      jump\t// out\n        /* \"#utility.yul\":4271:4397   */\n    tag_94:\n        /* \"#utility.yul\":4308:4315   */\n      0x00\n        /* \"#utility.yul\":4348:4390   */\n      0xffffffffffffffffffffffffffffffffffffffff\n        /* \"#utility.yul\":4341:4346   */\n      dup3\n        /* \"#utility.yul\":4337:4391   */\n      and\n        /* \"#utility.yul\":4326:4391   */\n      swap1\n      pop\n        /* \"#utility.yul\":4271:4397   */\n      swap2\n      swap1\n      pop\n      jump\t// out\n        /* \"#utility.yul\":4403:4480   */\n    tag_67:\n        /* \"#utility.yul\":4440:4447   */\n      0x00\n        /* \"#utility.yul\":4469:4474   */\n      dup2\n        /* \"#utility.yul\":4458:4474   */\n      swap1\n      pop\n        /* \"#utility.yul\":4403:4480   */\n      swap2\n      swap1\n      pop\n      jump\t// out\n        /* \"#utility.yul\":4486:4666   */\n    tag_86:\n        /* \"#utility.yul\":4534:4611   */\n      0x4e487b7100000000000000000000000000000000000000000000000000000000\n        /* \"#utility.yul\":4531:4532   */\n      0x00\n        /* \"#utility.yul\":4524:4612   */\n      mstore\n        /* \"#utility.yul\":4631:4635   */\n      0x11\n        /* \"#utility.yul\":4628:4629   */\n      0x04\n        /* \"#utility.yul\":4621:4636   */\n      mstore\n        /* \"#utility.yul\":4655:4659   */\n      0x24\n        /* \"#utility.yul\":4652:4653   */\n      0x00\n        /* \"#utility.yul\":4645:4660   */\n      revert\n        /* \"#utility.yul\":4795:4912   */\n    tag_42:\n        /* \"#utility.yul\":4904:4905   */\n      0x00\n        /* \"#utility.yul\":4901:4902   */\n      dup1\n        /* \"#utility.yul\":4894:4906   */\n      revert\n        /* \"#utility.yul\":4918:5086   */\n    tag_63:\n        /* \"#utility.yul\":5058:5078   */\n      0x53616c646f20696e737566696369656e74650000000000000000000000000000\n        /* \"#utility.yul\":5054:5055   */\n      0x00\n        /* \"#utility.yul\":5046:5052   */\n      dup3\n        /* \"#utility.yul\":5042:5056   */\n      add\n        /* \"#utility.yul\":5035:5079   */\n      mstore\n        /* \"#utility.yul\":4918:5086   */\n      pop\n      jump\t// out\n        /* \"#utility.yul\":5092:5214   */\n    tag_34:\n        /* \"#utility.yul\":5165:5189   */\n      tag_104\n        /* \"#utility.yul\":5183:5188   */\n      dup2\n        /* \"#utility.yul\":5165:5189   */\n      tag_53\n      jump\t// in\n    tag_104:\n        /* \"#utility.yul\":5158:5163   */\n      dup2\n        /* \"#utility.yul\":5155:5190   */\n      eq\n        /* \"#utility.yul\":5145:5208   */\n      tag_105\n      jumpi\n        /* \"#utility.yul\":5204:5205   */\n      0x00\n        /* \"#utility.yul\":5201:5202   */\n      dup1\n        /* \"#utility.yul\":5194:5206   */\n      revert\n        /* \"#utility.yul\":5145:5208   */\n    tag_105:\n        /* \"#utility.yul\":5092:5214   */\n      pop\n      jump\t// out\n        /* \"#utility.yul\":5220:5342   */\n    tag_38:\n        /* \"#utility.yul\":5293:5317   */\n      tag_107\n        /* \"#utility.yul\":5311:5316   */\n      dup2\n        /* \"#utility.yul\":5293:5317   */\n      tag_67\n      jump\t// in\n    tag_107:\n        /* \"#utility.yul\":5286:5291   */\n      dup2\n        /* \"#utility.yul\":5283:5318   */\n      eq\n        /* \"#utility.yul\":5273:5336   */\n      tag_108\n      jumpi\n        /* \"#utility.yul\":5332:5333   */\n      0x00\n        /* \"#utility.yul\":5329:5330   */\n      dup1\n        /* \"#utility.yul\":5322:5334   */\n      revert\n        /* \"#utility.yul\":5273:5336   */\n    tag_108:\n        /* \"#utility.yul\":5220:5342   */\n      pop\n      jump\t// out\n\n    auxdata: 0xa264697066735822122002bbc9a46e937f176ea26182bde0cf0e299b54a587d5f8ec1ab54f0aefb4237c64736f6c63430008070033\n}\n",
				"bytecode": {
					"linkReferences": {},
					"object": "608060405260008060006101000a81548173ffffffffffffffffffffffffffffffffffffffff021916908373ffffffffffffffffffffffffffffffffffffffff16021790555034801561005157600080fd5b5060405161075f38038061075f833981810160405281019061007391906100e7565b80600160003373ffffffffffffffffffffffffffffffffffffffff1673ffffffffffffffffffffffffffffffffffffffff16815260200190815260200160002060000160008282546100c59190610114565b92505081905550506101bf565b6000815190506100e1816101a8565b92915050565b6000602082840312156100fd576100fc6101a3565b5b600061010b848285016100d2565b91505092915050565b600061011f8261016a565b915061012a8361016a565b9250827fffffffffffffffffffffffffffffffffffffffffffffffffffffffffffffffff0382111561015f5761015e610174565b5b828201905092915050565b6000819050919050565b7f4e487b7100000000000000000000000000000000000000000000000000000000600052601160045260246000fd5b600080fd5b6101b18161016a565b81146101bc57600080fd5b50565b610591806101ce6000396000f3fe608060405234801561001057600080fd5b50600436106100365760003560e01c8063077d492e1461003b5780634f48bf441461006b575b600080fd5b610055600480360381019061005091906102bd565b61009b565b6040516100629190610397565b60405180910390f35b61008560048036038101906100809190610290565b61021a565b60405161009291906103d2565b60405180910390f35b600081600160008673ffffffffffffffffffffffffffffffffffffffff1673ffffffffffffffffffffffffffffffffffffffff168152602001908152602001600020600001541015610122576040517f08c379a0000000000000000000000000000000000000000000000000000000008152600401610119906103b2565b60405180910390fd5b81600160008573ffffffffffffffffffffffffffffffffffffffff1673ffffffffffffffffffffffffffffffffffffffff168152602001908152602001600020600001600082825461017491906103fe565b9250508190555081600160008673ffffffffffffffffffffffffffffffffffffffff1673ffffffffffffffffffffffffffffffffffffffff16815260200190815260200160002060000160008282546101cd9190610454565b925050819055507fd21f641f674e39dafd327aee336648cec891f42f9938356c1554c1a980ec087484848460405161020793929190610360565b60405180910390a1600190509392505050565b6000600160008373ffffffffffffffffffffffffffffffffffffffff1673ffffffffffffffffffffffffffffffffffffffff168152602001908152602001600020600001549050919050565b6000813590506102758161052d565b92915050565b60008135905061028a81610544565b92915050565b6000602082840312156102a6576102a56104ff565b5b60006102b484828501610266565b91505092915050565b6000806000606084860312156102d6576102d56104ff565b5b60006102e486828701610266565b93505060206102f586828701610266565b92505060406103068682870161027b565b9150509250925092565b61031981610488565b82525050565b6103288161049a565b82525050565b600061033b6012836103ed565b915061034682610504565b602082019050919050565b61035a816104c6565b82525050565b60006060820190506103756000830186610310565b6103826020830185610310565b61038f6040830184610351565b949350505050565b60006020820190506103ac600083018461031f565b92915050565b600060208201905081810360008301526103cb8161032e565b9050919050565b60006020820190506103e76000830184610351565b92915050565b600082825260208201905092915050565b6000610409826104c6565b9150610414836104c6565b9250827fffffffffffffffffffffffffffffffffffffffffffffffffffffffffffffffff03821115610449576104486104d0565b5b828201905092915050565b600061045f826104c6565b915061046a836104c6565b92508282101561047d5761047c6104d0565b5b828203905092915050565b6000610493826104a6565b9050919050565b60008115159050919050565b600073ffffffffffffffffffffffffffffffffffffffff82169050919050565b6000819050919050565b7f4e487b7100000000000000000000000000000000000000000000000000000000600052601160045260246000fd5b600080fd5b7f53616c646f20696e737566696369656e74650000000000000000000000000000600082015250565b61053681610488565b811461054157600080fd5b50565b61054d816104c6565b811461055857600080fd5b5056fea264697066735822122002bbc9a46e937f176ea26182bde0cf0e299b54a587d5f8ec1ab54f0aefb4237c64736f6c63430008070033",
					"opcodes": "PUSH1 0x80 PUSH1 0x40 MSTORE PUSH1 0x0 DUP1 PUSH1 0x0 PUSH2 0x100 EXP DUP2 SLOAD DUP2 PUSH20 0xFFFFFFFFFFFFFFFFFFFFFFFFFFFFFFFFFFFFFFFF MUL NOT AND SWAP1 DUP4 PUSH20 0xFFFFFFFFFFFFFFFFFFFFFFFFFFFFFFFFFFFFFFFF AND MUL OR SWAP1 SSTORE POP CALLVALUE DUP1 ISZERO PUSH2 0x51 JUMPI PUSH1 0x0 DUP1 REVERT JUMPDEST POP PUSH1 0x40 MLOAD PUSH2 0x75F CODESIZE SUB DUP1 PUSH2 0x75F DUP4 CODECOPY DUP2 DUP2 ADD PUSH1 0x40 MSTORE DUP2 ADD SWAP1 PUSH2 0x73 SWAP2 SWAP1 PUSH2 0xE7 JUMP JUMPDEST DUP1 PUSH1 0x1 PUSH1 0x0 CALLER PUSH20 0xFFFFFFFFFFFFFFFFFFFFFFFFFFFFFFFFFFFFFFFF AND PUSH20 0xFFFFFFFFFFFFFFFFFFFFFFFFFFFFFFFFFFFFFFFF AND DUP2 MSTORE PUSH1 0x20 ADD SWAP1 DUP2 MSTORE PUSH1 0x20 ADD PUSH1 0x0 KECCAK256 PUSH1 0x0 ADD PUSH1 0x0 DUP3 DUP3 SLOAD PUSH2 0xC5 SWAP2 SWAP1 PUSH2 0x114 JUMP JUMPDEST SWAP3 POP POP DUP2 SWAP1 SSTORE POP POP PUSH2 0x1BF JUMP JUMPDEST PUSH1 0x0 DUP2 MLOAD SWAP1 POP PUSH2 0xE1 DUP2 PUSH2 0x1A8 JUMP JUMPDEST SWAP3 SWAP2 POP POP JUMP JUMPDEST PUSH1 0x0 PUSH1 0x20 DUP3 DUP5 SUB SLT ISZERO PUSH2 0xFD JUMPI PUSH2 0xFC PUSH2 0x1A3 JUMP JUMPDEST JUMPDEST PUSH1 0x0 PUSH2 0x10B DUP5 DUP3 DUP6 ADD PUSH2 0xD2 JUMP JUMPDEST SWAP2 POP POP SWAP3 SWAP2 POP POP JUMP JUMPDEST PUSH1 0x0 PUSH2 0x11F DUP3 PUSH2 0x16A JUMP JUMPDEST SWAP2 POP PUSH2 0x12A DUP4 PUSH2 0x16A JUMP JUMPDEST SWAP3 POP DUP3 PUSH32 0xFFFFFFFFFFFFFFFFFFFFFFFFFFFFFFFFFFFFFFFFFFFFFFFFFFFFFFFFFFFFFFFF SUB DUP3 GT ISZERO PUSH2 0x15F JUMPI PUSH2 0x15E PUSH2 0x174 JUMP JUMPDEST JUMPDEST DUP3 DUP3 ADD SWAP1 POP SWAP3 SWAP2 POP POP JUMP JUMPDEST PUSH1 0x0 DUP2 SWAP1 POP SWAP2 SWAP1 POP JUMP JUMPDEST PUSH32 0x4E487B7100000000000000000000000000000000000000000000000000000000 PUSH1 0x0 MSTORE PUSH1 0x11 PUSH1 0x4 MSTORE PUSH1 0x24 PUSH1 0x0 REVERT JUMPDEST PUSH1 0x0 DUP1 REVERT JUMPDEST PUSH2 0x1B1 DUP2 PUSH2 0x16A JUMP JUMPDEST DUP2 EQ PUSH2 0x1BC JUMPI PUSH1 0x0 DUP1 REVERT JUMPDEST POP JUMP JUMPDEST PUSH2 0x591 DUP1 PUSH2 0x1CE PUSH1 0x0 CODECOPY PUSH1 0x0 RETURN INVALID PUSH1 0x80 PUSH1 0x40 MSTORE CALLVALUE DUP1 ISZERO PUSH2 0x10 JUMPI PUSH1 0x0 DUP1 REVERT JUMPDEST POP PUSH1 0x4 CALLDATASIZE LT PUSH2 0x36 JUMPI PUSH1 0x0 CALLDATALOAD PUSH1 0xE0 SHR DUP1 PUSH4 0x77D492E EQ PUSH2 0x3B JUMPI DUP1 PUSH4 0x4F48BF44 EQ PUSH2 0x6B JUMPI JUMPDEST PUSH1 0x0 DUP1 REVERT JUMPDEST PUSH2 0x55 PUSH1 0x4 DUP1 CALLDATASIZE SUB DUP2 ADD SWAP1 PUSH2 0x50 SWAP2 SWAP1 PUSH2 0x2BD JUMP JUMPDEST PUSH2 0x9B JUMP JUMPDEST PUSH1 0x40 MLOAD PUSH2 0x62 SWAP2 SWAP1 PUSH2 0x397 JUMP JUMPDEST PUSH1 0x40 MLOAD DUP1 SWAP2 SUB SWAP1 RETURN JUMPDEST PUSH2 0x85 PUSH1 0x4 DUP1 CALLDATASIZE SUB DUP2 ADD SWAP1 PUSH2 0x80 SWAP2 SWAP1 PUSH2 0x290 JUMP JUMPDEST PUSH2 0x21A JUMP JUMPDEST PUSH1 0x40 MLOAD PUSH2 0x92 SWAP2 SWAP1 PUSH2 0x3D2 JUMP JUMPDEST PUSH1 0x40 MLOAD DUP1 SWAP2 SUB SWAP1 RETURN JUMPDEST PUSH1 0x0 DUP2 PUSH1 0x1 PUSH1 0x0 DUP7 PUSH20 0xFFFFFFFFFFFFFFFFFFFFFFFFFFFFFFFFFFFFFFFF AND PUSH20 0xFFFFFFFFFFFFFFFFFFFFFFFFFFFFFFFFFFFFFFFF AND DUP2 MSTORE PUSH1 0x20 ADD SWAP1 DUP2 MSTORE PUSH1 0x20 ADD PUSH1 0x0 KECCAK256 PUSH1 0x0 ADD SLOAD LT ISZERO PUSH2 0x122 JUMPI PUSH1 0x40 MLOAD PUSH32 0x8C379A000000000000000000000000000000000000000000000000000000000 DUP2 MSTORE PUSH1 0x4 ADD PUSH2 0x119 SWAP1 PUSH2 0x3B2 JUMP JUMPDEST PUSH1 0x40 MLOAD DUP1 SWAP2 SUB SWAP1 REVERT JUMPDEST DUP2 PUSH1 0x1 PUSH1 0x0 DUP6 PUSH20 0xFFFFFFFFFFFFFFFFFFFFFFFFFFFFFFFFFFFFFFFF AND PUSH20 0xFFFFFFFFFFFFFFFFFFFFFFFFFFFFFFFFFFFFFFFF AND DUP2 MSTORE PUSH1 0x20 ADD SWAP1 DUP2 MSTORE PUSH1 0x20 ADD PUSH1 0x0 KECCAK256 PUSH1 0x0 ADD PUSH1 0x0 DUP3 DUP3 SLOAD PUSH2 0x174 SWAP2 SWAP1 PUSH2 0x3FE JUMP JUMPDEST SWAP3 POP POP DUP2 SWAP1 SSTORE POP DUP2 PUSH1 0x1 PUSH1 0x0 DUP7 PUSH20 0xFFFFFFFFFFFFFFFFFFFFFFFFFFFFFFFFFFFFFFFF AND PUSH20 0xFFFFFFFFFFFFFFFFFFFFFFFFFFFFFFFFFFFFFFFF AND DUP2 MSTORE PUSH1 0x20 ADD SWAP1 DUP2 MSTORE PUSH1 0x20 ADD PUSH1 0x0 KECCAK256 PUSH1 0x0 ADD PUSH1 0x0 DUP3 DUP3 SLOAD PUSH2 0x1CD SWAP2 SWAP1 PUSH2 0x454 JUMP JUMPDEST SWAP3 POP POP DUP2 SWAP1 SSTORE POP PUSH32 0xD21F641F674E39DAFD327AEE336648CEC891F42F9938356C1554C1A980EC0874 DUP5 DUP5 DUP5 PUSH1 0x40 MLOAD PUSH2 0x207 SWAP4 SWAP3 SWAP2 SWAP1 PUSH2 0x360 JUMP JUMPDEST PUSH1 0x40 MLOAD DUP1 SWAP2 SUB SWAP1 LOG1 PUSH1 0x1 SWAP1 POP SWAP4 SWAP3 POP POP POP JUMP JUMPDEST PUSH1 0x0 PUSH1 0x1 PUSH1 0x0 DUP4 PUSH20 0xFFFFFFFFFFFFFFFFFFFFFFFFFFFFFFFFFFFFFFFF AND PUSH20 0xFFFFFFFFFFFFFFFFFFFFFFFFFFFFFFFFFFFFFFFF AND DUP2 MSTORE PUSH1 0x20 ADD SWAP1 DUP2 MSTORE PUSH1 0x20 ADD PUSH1 0x0 KECCAK256 PUSH1 0x0 ADD SLOAD SWAP1 POP SWAP2 SWAP1 POP JUMP JUMPDEST PUSH1 0x0 DUP2 CALLDATALOAD SWAP1 POP PUSH2 0x275 DUP2 PUSH2 0x52D JUMP JUMPDEST SWAP3 SWAP2 POP POP JUMP JUMPDEST PUSH1 0x0 DUP2 CALLDATALOAD SWAP1 POP PUSH2 0x28A DUP2 PUSH2 0x544 JUMP JUMPDEST SWAP3 SWAP2 POP POP JUMP JUMPDEST PUSH1 0x0 PUSH1 0x20 DUP3 DUP5 SUB SLT ISZERO PUSH2 0x2A6 JUMPI PUSH2 0x2A5 PUSH2 0x4FF JUMP JUMPDEST JUMPDEST PUSH1 0x0 PUSH2 0x2B4 DUP5 DUP3 DUP6 ADD PUSH2 0x266 JUMP JUMPDEST SWAP2 POP POP SWAP3 SWAP2 POP POP JUMP JUMPDEST PUSH1 0x0 DUP1 PUSH1 0x0 PUSH1 0x60 DUP5 DUP7 SUB SLT ISZERO PUSH2 0x2D6 JUMPI PUSH2 0x2D5 PUSH2 0x4FF JUMP JUMPDEST JUMPDEST PUSH1 0x0 PUSH2 0x2E4 DUP7 DUP3 DUP8 ADD PUSH2 0x266 JUMP JUMPDEST SWAP4 POP POP PUSH1 0x20 PUSH2 0x2F5 DUP7 DUP3 DUP8 ADD PUSH2 0x266 JUMP JUMPDEST SWAP3 POP POP PUSH1 0x40 PUSH2 0x306 DUP7 DUP3 DUP8 ADD PUSH2 0x27B JUMP JUMPDEST SWAP2 POP POP SWAP3 POP SWAP3 POP SWAP3 JUMP JUMPDEST PUSH2 0x319 DUP2 PUSH2 0x488 JUMP JUMPDEST DUP3 MSTORE POP POP JUMP JUMPDEST PUSH2 0x328 DUP2 PUSH2 0x49A JUMP JUMPDEST DUP3 MSTORE POP POP JUMP JUMPDEST PUSH1 0x0 PUSH2 0x33B PUSH1 0x12 DUP4 PUSH2 0x3ED JUMP JUMPDEST SWAP2 POP PUSH2 0x346 DUP3 PUSH2 0x504 JUMP JUMPDEST PUSH1 0x20 DUP3 ADD SWAP1 POP SWAP2 SWAP1 POP JUMP JUMPDEST PUSH2 0x35A DUP2 PUSH2 0x4C6 JUMP JUMPDEST DUP3 MSTORE POP POP JUMP JUMPDEST PUSH1 0x0 PUSH1 0x60 DUP3 ADD SWAP1 POP PUSH2 0x375 PUSH1 0x0 DUP4 ADD DUP7 PUSH2 0x310 JUMP JUMPDEST PUSH2 0x382 PUSH1 0x20 DUP4 ADD DUP6 PUSH2 0x310 JUMP JUMPDEST PUSH2 0x38F PUSH1 0x40 DUP4 ADD DUP5 PUSH2 0x351 JUMP JUMPDEST SWAP5 SWAP4 POP POP POP POP JUMP JUMPDEST PUSH1 0x0 PUSH1 0x20 DUP3 ADD SWAP1 POP PUSH2 0x3AC PUSH1 0x0 DUP4 ADD DUP5 PUSH2 0x31F JUMP JUMPDEST SWAP3 SWAP2 POP POP JUMP JUMPDEST PUSH1 0x0 PUSH1 0x20 DUP3 ADD SWAP1 POP DUP2 DUP2 SUB PUSH1 0x0 DUP4 ADD MSTORE PUSH2 0x3CB DUP2 PUSH2 0x32E JUMP JUMPDEST SWAP1 POP SWAP2 SWAP1 POP JUMP JUMPDEST PUSH1 0x0 PUSH1 0x20 DUP3 ADD SWAP1 POP PUSH2 0x3E7 PUSH1 0x0 DUP4 ADD DUP5 PUSH2 0x351 JUMP JUMPDEST SWAP3 SWAP2 POP POP JUMP JUMPDEST PUSH1 0x0 DUP3 DUP3 MSTORE PUSH1 0x20 DUP3 ADD SWAP1 POP SWAP3 SWAP2 POP POP JUMP JUMPDEST PUSH1 0x0 PUSH2 0x409 DUP3 PUSH2 0x4C6 JUMP JUMPDEST SWAP2 POP PUSH2 0x414 DUP4 PUSH2 0x4C6 JUMP JUMPDEST SWAP3 POP DUP3 PUSH32 0xFFFFFFFFFFFFFFFFFFFFFFFFFFFFFFFFFFFFFFFFFFFFFFFFFFFFFFFFFFFFFFFF SUB DUP3 GT ISZERO PUSH2 0x449 JUMPI PUSH2 0x448 PUSH2 0x4D0 JUMP JUMPDEST JUMPDEST DUP3 DUP3 ADD SWAP1 POP SWAP3 SWAP2 POP POP JUMP JUMPDEST PUSH1 0x0 PUSH2 0x45F DUP3 PUSH2 0x4C6 JUMP JUMPDEST SWAP2 POP PUSH2 0x46A DUP4 PUSH2 0x4C6 JUMP JUMPDEST SWAP3 POP DUP3 DUP3 LT ISZERO PUSH2 0x47D JUMPI PUSH2 0x47C PUSH2 0x4D0 JUMP JUMPDEST JUMPDEST DUP3 DUP3 SUB SWAP1 POP SWAP3 SWAP2 POP POP JUMP JUMPDEST PUSH1 0x0 PUSH2 0x493 DUP3 PUSH2 0x4A6 JUMP JUMPDEST SWAP1 POP SWAP2 SWAP1 POP JUMP JUMPDEST PUSH1 0x0 DUP2 ISZERO ISZERO SWAP1 POP SWAP2 SWAP1 POP JUMP JUMPDEST PUSH1 0x0 PUSH20 0xFFFFFFFFFFFFFFFFFFFFFFFFFFFFFFFFFFFFFFFF DUP3 AND SWAP1 POP SWAP2 SWAP1 POP JUMP JUMPDEST PUSH1 0x0 DUP2 SWAP1 POP SWAP2 SWAP1 POP JUMP JUMPDEST PUSH32 0x4E487B7100000000000000000000000000000000000000000000000000000000 PUSH1 0x0 MSTORE PUSH1 0x11 PUSH1 0x4 MSTORE PUSH1 0x24 PUSH1 0x0 REVERT JUMPDEST PUSH1 0x0 DUP1 REVERT JUMPDEST PUSH32 0x53616C646F20696E737566696369656E74650000000000000000000000000000 PUSH1 0x0 DUP3 ADD MSTORE POP JUMP JUMPDEST PUSH2 0x536 DUP2 PUSH2 0x488 JUMP JUMPDEST DUP2 EQ PUSH2 0x541 JUMPI PUSH1 0x0 DUP1 REVERT JUMPDEST POP JUMP JUMPDEST PUSH2 0x54D DUP2 PUSH2 0x4C6 JUMP JUMPDEST DUP2 EQ PUSH2 0x558 JUMPI PUSH1 0x0 DUP1 REVERT JUMPDEST POP JUMP INVALID LOG2 PUSH5 0x6970667358 0x22 SLT KECCAK256 MUL 0xBB 0xC9 LOG4 PUSH15 0x937F176EA26182BDE0CF0E299B54A5 DUP8 0xD5 0xF8 0xEC BYTE 0xB5 0x4F EXP 0xEF 0xB4 0x23 PUSH29 0x64736F6C63430008070033000000000000000000000000000000000000 "
				},
				"gasEstimates": {
					"creation": {
						"codeDepositCost": "285000",
						"executionCost": "infinite",
						"totalCost": "infinite"
					},
					"external": {
						"consultaSaldo(address)": "2847",
						"transferir(address,address,uint256)": "infinite"
					}
				},
				"methodIdentifiers": {
					"consultaSaldo(address)": "4f48bf44",
					"transferir(address,address,uint256)": "077d492e"
				}
			},
			"storageLayout": {
				"storage": [
					{
						"astId": 4,
						"contract": "contracts/9_Curso_Moneda.sol:CursoMoneda",
						"label": "cuentaInexistente",
						"offset": 0,
						"slot": "0",
						"type": "t_address"
					},
					{
						"astId": 23,
						"contract": "contracts/9_Curso_Moneda.sol:CursoMoneda",
						"label": "cuentas",
						"offset": 0,
						"slot": "1",
						"type": "t_mapping(t_address,t_struct(Cuenta)28_storage)"
					}
				],
				"types": {
					"t_address": {
						"encoding": "inplace",
						"label": "address",
						"numberOfBytes": "20"
					},
					"t_mapping(t_address,t_struct(Cuenta)28_storage)": {
						"encoding": "mapping",
						"key": "t_address",
						"label": "mapping(address => struct CursoMoneda.Cuenta)",
						"numberOfBytes": "32",
						"value": "t_struct(Cuenta)28_storage"
					},
					"t_string_storage": {
						"encoding": "bytes",
						"label": "string",
						"numberOfBytes": "32"
					},
					"t_struct(Cuenta)28_storage": {
						"encoding": "inplace",
						"label": "struct CursoMoneda.Cuenta",
						"members": [
							{
								"astId": 25,
								"contract": "contracts/9_Curso_Moneda.sol:CursoMoneda",
								"label": "saldo",
								"offset": 0,
								"slot": "0",
								"type": "t_uint256"
							},
							{
								"astId": 27,
								"contract": "contracts/9_Curso_Moneda.sol:CursoMoneda",
								"label": "usuario",
								"offset": 0,
								"slot": "1",
								"type": "t_string_storage"
							}
						],
						"numberOfBytes": "64"
					},
					"t_uint256": {
						"encoding": "inplace",
						"label": "uint256",
						"numberOfBytes": "32"
					}
				}
			},
			"userdoc": {
				"kind": "user",
				"methods": {},
				"version": 1
			}
		}
	}
}