{
	"contracts/5_Desafio.sol": {
		"Desafio": {
			"abi": [
				{
					"inputs": [
						{
							"internalType": "uint256",
							"name": "num",
							"type": "uint256"
						}
					],
					"name": "guardar",
					"outputs": [],
					"stateMutability": "nonpayable",
					"type": "function"
				},
				{
					"inputs": [],
					"name": "leer",
					"outputs": [
						{
							"components": [
								{
									"internalType": "uint256",
									"name": "ultimoNumero",
									"type": "uint256"
								},
								{
									"internalType": "uint256",
									"name": "acumulador",
									"type": "uint256"
								}
							],
							"internalType": "struct Desafio.Valor",
							"name": "",
							"type": "tuple"
						}
					],
					"stateMutability": "view",
					"type": "function"
				}
			],
			"devdoc": {
				"kind": "dev",
				"methods": {},
				"version": 1
			},
			"evm": {
				"assembly": "    /* \"contracts/5_Desafio.sol\":74:407  contract Desafio {\r... */\n  mstore(0x40, 0x80)\n  callvalue\n  dup1\n  iszero\n  tag_1\n  jumpi\n  0x00\n  dup1\n  revert\ntag_1:\n  pop\n  dataSize(sub_0)\n  dup1\n  dataOffset(sub_0)\n  0x00\n  codecopy\n  0x00\n  return\nstop\n\nsub_0: assembly {\n        /* \"contracts/5_Desafio.sol\":74:407  contract Desafio {\r... */\n      mstore(0x40, 0x80)\n      callvalue\n      dup1\n      iszero\n      tag_1\n      jumpi\n      0x00\n      dup1\n      revert\n    tag_1:\n      pop\n      jumpi(tag_2, lt(calldatasize, 0x04))\n      shr(0xe0, calldataload(0x00))\n      dup1\n      0x1667434f\n      eq\n      tag_3\n      jumpi\n      dup1\n      0xb38f9adf\n      eq\n      tag_4\n      jumpi\n    tag_2:\n      0x00\n      dup1\n      revert\n        /* \"contracts/5_Desafio.sol\":203:314  function guardar(uint num) public {\r... */\n    tag_3:\n      tag_5\n      0x04\n      dup1\n      calldatasize\n      sub\n      dup2\n      add\n      swap1\n      tag_6\n      swap2\n      swap1\n      tag_7\n      jump\t// in\n    tag_6:\n      tag_8\n      jump\t// in\n    tag_5:\n      stop\n        /* \"contracts/5_Desafio.sol\":322:404  function leer() public view returns (Valor memory) {\r... */\n    tag_4:\n      tag_9\n      tag_10\n      jump\t// in\n    tag_9:\n      mload(0x40)\n      tag_11\n      swap2\n      swap1\n      tag_12\n      jump\t// in\n    tag_11:\n      mload(0x40)\n      dup1\n      swap2\n      sub\n      swap1\n      return\n        /* \"contracts/5_Desafio.sol\":203:314  function guardar(uint num) public {\r... */\n    tag_8:\n        /* \"contracts/5_Desafio.sol\":269:272  num */\n      dup1\n        /* \"contracts/5_Desafio.sol\":248:253  valor */\n      0x00\n        /* \"contracts/5_Desafio.sol\":248:266  valor.ultimoNumero */\n      dup1\n      add\n        /* \"contracts/5_Desafio.sol\":248:272  valor.ultimoNumero = num */\n      dup2\n      swap1\n      sstore\n      pop\n        /* \"contracts/5_Desafio.sol\":303:306  num */\n      dup1\n        /* \"contracts/5_Desafio.sol\":283:288  valor */\n      0x00\n        /* \"contracts/5_Desafio.sol\":283:299  valor.acumulador */\n      0x01\n      add\n      0x00\n        /* \"contracts/5_Desafio.sol\":283:306  valor.acumulador += num */\n      dup3\n      dup3\n      sload\n      tag_14\n      swap2\n      swap1\n      tag_15\n      jump\t// in\n    tag_14:\n      swap3\n      pop\n      pop\n      dup2\n      swap1\n      sstore\n      pop\n        /* \"contracts/5_Desafio.sol\":203:314  function guardar(uint num) public {\r... */\n      pop\n      jump\t// out\n        /* \"contracts/5_Desafio.sol\":322:404  function leer() public view returns (Valor memory) {\r... */\n    tag_10:\n        /* \"contracts/5_Desafio.sol\":359:371  Valor memory */\n      tag_16\n      tag_17\n      jump\t// in\n    tag_16:\n        /* \"contracts/5_Desafio.sol\":391:396  valor */\n      0x00\n        /* \"contracts/5_Desafio.sol\":384:396  return valor */\n      mload(0x40)\n      dup1\n      0x40\n      add\n      0x40\n      mstore\n      swap1\n      dup2\n      0x00\n      dup3\n      add\n      sload\n      dup2\n      mstore\n      0x20\n      add\n      0x01\n      dup3\n      add\n      sload\n      dup2\n      mstore\n      pop\n      pop\n      swap1\n      pop\n        /* \"contracts/5_Desafio.sol\":322:404  function leer() public view returns (Valor memory) {\r... */\n      swap1\n      jump\t// out\n    tag_17:\n      mload(0x40)\n      dup1\n      0x40\n      add\n      0x40\n      mstore\n      dup1\n      0x00\n      dup2\n      mstore\n      0x20\n      add\n      0x00\n      dup2\n      mstore\n      pop\n      swap1\n      jump\t// out\n        /* \"#utility.yul\":7:146   */\n    tag_20:\n        /* \"#utility.yul\":53:58   */\n      0x00\n        /* \"#utility.yul\":91:97   */\n      dup2\n        /* \"#utility.yul\":78:98   */\n      calldataload\n        /* \"#utility.yul\":69:98   */\n      swap1\n      pop\n        /* \"#utility.yul\":107:140   */\n      tag_22\n        /* \"#utility.yul\":134:139   */\n      dup2\n        /* \"#utility.yul\":107:140   */\n      tag_23\n      jump\t// in\n    tag_22:\n        /* \"#utility.yul\":7:146   */\n      swap3\n      swap2\n      pop\n      pop\n      jump\t// out\n        /* \"#utility.yul\":152:481   */\n    tag_7:\n        /* \"#utility.yul\":211:217   */\n      0x00\n        /* \"#utility.yul\":260:262   */\n      0x20\n        /* \"#utility.yul\":248:257   */\n      dup3\n        /* \"#utility.yul\":239:246   */\n      dup5\n        /* \"#utility.yul\":235:258   */\n      sub\n        /* \"#utility.yul\":231:263   */\n      slt\n        /* \"#utility.yul\":228:347   */\n      iszero\n      tag_25\n      jumpi\n        /* \"#utility.yul\":266:345   */\n      tag_26\n      tag_27\n      jump\t// in\n    tag_26:\n        /* \"#utility.yul\":228:347   */\n    tag_25:\n        /* \"#utility.yul\":386:387   */\n      0x00\n        /* \"#utility.yul\":411:464   */\n      tag_28\n        /* \"#utility.yul\":456:463   */\n      dup5\n        /* \"#utility.yul\":447:453   */\n      dup3\n        /* \"#utility.yul\":436:445   */\n      dup6\n        /* \"#utility.yul\":432:454   */\n      add\n        /* \"#utility.yul\":411:464   */\n      tag_20\n      jump\t// in\n    tag_28:\n        /* \"#utility.yul\":401:464   */\n      swap2\n      pop\n        /* \"#utility.yul\":357:474   */\n      pop\n        /* \"#utility.yul\":152:481   */\n      swap3\n      swap2\n      pop\n      pop\n      jump\t// out\n        /* \"#utility.yul\":539:1050   */\n    tag_29:\n        /* \"#utility.yul\":676:680   */\n      0x40\n        /* \"#utility.yul\":671:674   */\n      dup3\n        /* \"#utility.yul\":667:681   */\n      add\n        /* \"#utility.yul\":771:775   */\n      0x00\n        /* \"#utility.yul\":764:769   */\n      dup3\n        /* \"#utility.yul\":760:776   */\n      add\n        /* \"#utility.yul\":754:777   */\n      mload\n        /* \"#utility.yul\":790:853   */\n      tag_31\n        /* \"#utility.yul\":847:851   */\n      0x00\n        /* \"#utility.yul\":842:845   */\n      dup6\n        /* \"#utility.yul\":838:852   */\n      add\n        /* \"#utility.yul\":824:836   */\n      dup3\n        /* \"#utility.yul\":790:853   */\n      tag_32\n      jump\t// in\n    tag_31:\n        /* \"#utility.yul\":691:863   */\n      pop\n        /* \"#utility.yul\":951:955   */\n      0x20\n        /* \"#utility.yul\":944:949   */\n      dup3\n        /* \"#utility.yul\":940:956   */\n      add\n        /* \"#utility.yul\":934:957   */\n      mload\n        /* \"#utility.yul\":970:1033   */\n      tag_33\n        /* \"#utility.yul\":1027:1031   */\n      0x20\n        /* \"#utility.yul\":1022:1025   */\n      dup6\n        /* \"#utility.yul\":1018:1032   */\n      add\n        /* \"#utility.yul\":1004:1016   */\n      dup3\n        /* \"#utility.yul\":970:1033   */\n      tag_32\n      jump\t// in\n    tag_33:\n        /* \"#utility.yul\":873:1043   */\n      pop\n        /* \"#utility.yul\":645:1050   */\n      pop\n        /* \"#utility.yul\":539:1050   */\n      pop\n      pop\n      jump\t// out\n        /* \"#utility.yul\":1056:1164   */\n    tag_32:\n        /* \"#utility.yul\":1133:1157   */\n      tag_35\n        /* \"#utility.yul\":1151:1156   */\n      dup2\n        /* \"#utility.yul\":1133:1157   */\n      tag_36\n      jump\t// in\n    tag_35:\n        /* \"#utility.yul\":1128:1131   */\n      dup3\n        /* \"#utility.yul\":1121:1158   */\n      mstore\n        /* \"#utility.yul\":1056:1164   */\n      pop\n      pop\n      jump\t// out\n        /* \"#utility.yul\":1170:1472   */\n    tag_12:\n        /* \"#utility.yul\":1303:1307   */\n      0x00\n        /* \"#utility.yul\":1341:1343   */\n      0x40\n        /* \"#utility.yul\":1330:1339   */\n      dup3\n        /* \"#utility.yul\":1326:1344   */\n      add\n        /* \"#utility.yul\":1318:1344   */\n      swap1\n      pop\n        /* \"#utility.yul\":1354:1465   */\n      tag_38\n        /* \"#utility.yul\":1462:1463   */\n      0x00\n        /* \"#utility.yul\":1451:1460   */\n      dup4\n        /* \"#utility.yul\":1447:1464   */\n      add\n        /* \"#utility.yul\":1438:1444   */\n      dup5\n        /* \"#utility.yul\":1354:1465   */\n      tag_29\n      jump\t// in\n    tag_38:\n        /* \"#utility.yul\":1170:1472   */\n      swap3\n      swap2\n      pop\n      pop\n      jump\t// out\n        /* \"#utility.yul\":1559:1864   */\n    tag_15:\n        /* \"#utility.yul\":1599:1602   */\n      0x00\n        /* \"#utility.yul\":1618:1638   */\n      tag_42\n        /* \"#utility.yul\":1636:1637   */\n      dup3\n        /* \"#utility.yul\":1618:1638   */\n      tag_36\n      jump\t// in\n    tag_42:\n        /* \"#utility.yul\":1613:1638   */\n      swap2\n      pop\n        /* \"#utility.yul\":1652:1672   */\n      tag_43\n        /* \"#utility.yul\":1670:1671   */\n      dup4\n        /* \"#utility.yul\":1652:1672   */\n      tag_36\n      jump\t// in\n    tag_43:\n        /* \"#utility.yul\":1647:1672   */\n      swap3\n      pop\n        /* \"#utility.yul\":1806:1807   */\n      dup3\n        /* \"#utility.yul\":1738:1804   */\n      0xffffffffffffffffffffffffffffffffffffffffffffffffffffffffffffffff\n        /* \"#utility.yul\":1734:1808   */\n      sub\n        /* \"#utility.yul\":1731:1732   */\n      dup3\n        /* \"#utility.yul\":1728:1809   */\n      gt\n        /* \"#utility.yul\":1725:1832   */\n      iszero\n      tag_44\n      jumpi\n        /* \"#utility.yul\":1812:1830   */\n      tag_45\n      tag_46\n      jump\t// in\n    tag_45:\n        /* \"#utility.yul\":1725:1832   */\n    tag_44:\n        /* \"#utility.yul\":1856:1857   */\n      dup3\n        /* \"#utility.yul\":1853:1854   */\n      dup3\n        /* \"#utility.yul\":1849:1858   */\n      add\n        /* \"#utility.yul\":1842:1858   */\n      swap1\n      pop\n        /* \"#utility.yul\":1559:1864   */\n      swap3\n      swap2\n      pop\n      pop\n      jump\t// out\n        /* \"#utility.yul\":1870:1947   */\n    tag_36:\n        /* \"#utility.yul\":1907:1914   */\n      0x00\n        /* \"#utility.yul\":1936:1941   */\n      dup2\n        /* \"#utility.yul\":1925:1941   */\n      swap1\n      pop\n        /* \"#utility.yul\":1870:1947   */\n      swap2\n      swap1\n      pop\n      jump\t// out\n        /* \"#utility.yul\":1953:2133   */\n    tag_46:\n        /* \"#utility.yul\":2001:2078   */\n      0x4e487b7100000000000000000000000000000000000000000000000000000000\n        /* \"#utility.yul\":1998:1999   */\n      0x00\n        /* \"#utility.yul\":1991:2079   */\n      mstore\n        /* \"#utility.yul\":2098:2102   */\n      0x11\n        /* \"#utility.yul\":2095:2096   */\n      0x04\n        /* \"#utility.yul\":2088:2103   */\n      mstore\n        /* \"#utility.yul\":2122:2126   */\n      0x24\n        /* \"#utility.yul\":2119:2120   */\n      0x00\n        /* \"#utility.yul\":2112:2127   */\n      revert\n        /* \"#utility.yul\":2262:2379   */\n    tag_27:\n        /* \"#utility.yul\":2371:2372   */\n      0x00\n        /* \"#utility.yul\":2368:2369   */\n      dup1\n        /* \"#utility.yul\":2361:2373   */\n      revert\n        /* \"#utility.yul\":2385:2507   */\n    tag_23:\n        /* \"#utility.yul\":2458:2482   */\n      tag_53\n        /* \"#utility.yul\":2476:2481   */\n      dup2\n        /* \"#utility.yul\":2458:2482   */\n      tag_36\n      jump\t// in\n    tag_53:\n        /* \"#utility.yul\":2451:2456   */\n      dup2\n        /* \"#utility.yul\":2448:2483   */\n      eq\n        /* \"#utility.yul\":2438:2501   */\n      tag_54\n      jumpi\n        /* \"#utility.yul\":2497:2498   */\n      0x00\n        /* \"#utility.yul\":2494:2495   */\n      dup1\n        /* \"#utility.yul\":2487:2499   */\n      revert\n        /* \"#utility.yul\":2438:2501   */\n    tag_54:\n        /* \"#utility.yul\":2385:2507   */\n      pop\n      jump\t// out\n\n    auxdata: 0xa264697066735822122040ae45f17ad4870c02cfc43c2cd82e37fc29c1ff79d74c3acfdebc8c5b28830f64736f6c63430008070033\n}\n",
				"bytecode": {
					"linkReferences": {},
					"object": "608060405234801561001057600080fd5b50610261806100206000396000f3fe608060405234801561001057600080fd5b50600436106100365760003560e01c80631667434f1461003b578063b38f9adf14610057575b600080fd5b610055600480360381019061005091906100fa565b610075565b005b61005f61009d565b60405161006c9190610165565b60405180910390f35b80600080018190555080600060010160008282546100939190610180565b9250508190555050565b6100a56100cb565b600060405180604001604052908160008201548152602001600182015481525050905090565b604051806040016040528060008152602001600081525090565b6000813590506100f481610214565b92915050565b6000602082840312156101105761010f61020f565b5b600061011e848285016100e5565b91505092915050565b60408201600082015161013d6000850182610156565b5060208201516101506020850182610156565b50505050565b61015f816101d6565b82525050565b600060408201905061017a6000830184610127565b92915050565b600061018b826101d6565b9150610196836101d6565b9250827fffffffffffffffffffffffffffffffffffffffffffffffffffffffffffffffff038211156101cb576101ca6101e0565b5b828201905092915050565b6000819050919050565b7f4e487b7100000000000000000000000000000000000000000000000000000000600052601160045260246000fd5b600080fd5b61021d816101d6565b811461022857600080fd5b5056fea264697066735822122040ae45f17ad4870c02cfc43c2cd82e37fc29c1ff79d74c3acfdebc8c5b28830f64736f6c63430008070033",
					"opcodes": "PUSH1 0x80 PUSH1 0x40 MSTORE CALLVALUE DUP1 ISZERO PUSH2 0x10 JUMPI PUSH1 0x0 DUP1 REVERT JUMPDEST POP PUSH2 0x261 DUP1 PUSH2 0x20 PUSH1 0x0 CODECOPY PUSH1 0x0 RETURN INVALID PUSH1 0x80 PUSH1 0x40 MSTORE CALLVALUE DUP1 ISZERO PUSH2 0x10 JUMPI PUSH1 0x0 DUP1 REVERT JUMPDEST POP PUSH1 0x4 CALLDATASIZE LT PUSH2 0x36 JUMPI PUSH1 0x0 CALLDATALOAD PUSH1 0xE0 SHR DUP1 PUSH4 0x1667434F EQ PUSH2 0x3B JUMPI DUP1 PUSH4 0xB38F9ADF EQ PUSH2 0x57 JUMPI JUMPDEST PUSH1 0x0 DUP1 REVERT JUMPDEST PUSH2 0x55 PUSH1 0x4 DUP1 CALLDATASIZE SUB DUP2 ADD SWAP1 PUSH2 0x50 SWAP2 SWAP1 PUSH2 0xFA JUMP JUMPDEST PUSH2 0x75 JUMP JUMPDEST STOP JUMPDEST PUSH2 0x5F PUSH2 0x9D JUMP JUMPDEST PUSH1 0x40 MLOAD PUSH2 0x6C SWAP2 SWAP1 PUSH2 0x165 JUMP JUMPDEST PUSH1 0x40 MLOAD DUP1 SWAP2 SUB SWAP1 RETURN JUMPDEST DUP1 PUSH1 0x0 DUP1 ADD DUP2 SWAP1 SSTORE POP DUP1 PUSH1 0x0 PUSH1 0x1 ADD PUSH1 0x0 DUP3 DUP3 SLOAD PUSH2 0x93 SWAP2 SWAP1 PUSH2 0x180 JUMP JUMPDEST SWAP3 POP POP DUP2 SWAP1 SSTORE POP POP JUMP JUMPDEST PUSH2 0xA5 PUSH2 0xCB JUMP JUMPDEST PUSH1 0x0 PUSH1 0x40 MLOAD DUP1 PUSH1 0x40 ADD PUSH1 0x40 MSTORE SWAP1 DUP2 PUSH1 0x0 DUP3 ADD SLOAD DUP2 MSTORE PUSH1 0x20 ADD PUSH1 0x1 DUP3 ADD SLOAD DUP2 MSTORE POP POP SWAP1 POP SWAP1 JUMP JUMPDEST PUSH1 0x40 MLOAD DUP1 PUSH1 0x40 ADD PUSH1 0x40 MSTORE DUP1 PUSH1 0x0 DUP2 MSTORE PUSH1 0x20 ADD PUSH1 0x0 DUP2 MSTORE POP SWAP1 JUMP JUMPDEST PUSH1 0x0 DUP2 CALLDATALOAD SWAP1 POP PUSH2 0xF4 DUP2 PUSH2 0x214 JUMP JUMPDEST SWAP3 SWAP2 POP POP JUMP JUMPDEST PUSH1 0x0 PUSH1 0x20 DUP3 DUP5 SUB SLT ISZERO PUSH2 0x110 JUMPI PUSH2 0x10F PUSH2 0x20F JUMP JUMPDEST JUMPDEST PUSH1 0x0 PUSH2 0x11E DUP5 DUP3 DUP6 ADD PUSH2 0xE5 JUMP JUMPDEST SWAP2 POP POP SWAP3 SWAP2 POP POP JUMP JUMPDEST PUSH1 0x40 DUP3 ADD PUSH1 0x0 DUP3 ADD MLOAD PUSH2 0x13D PUSH1 0x0 DUP6 ADD DUP3 PUSH2 0x156 JUMP JUMPDEST POP PUSH1 0x20 DUP3 ADD MLOAD PUSH2 0x150 PUSH1 0x20 DUP6 ADD DUP3 PUSH2 0x156 JUMP JUMPDEST POP POP POP POP JUMP JUMPDEST PUSH2 0x15F DUP2 PUSH2 0x1D6 JUMP JUMPDEST DUP3 MSTORE POP POP JUMP JUMPDEST PUSH1 0x0 PUSH1 0x40 DUP3 ADD SWAP1 POP PUSH2 0x17A PUSH1 0x0 DUP4 ADD DUP5 PUSH2 0x127 JUMP JUMPDEST SWAP3 SWAP2 POP POP JUMP JUMPDEST PUSH1 0x0 PUSH2 0x18B DUP3 PUSH2 0x1D6 JUMP JUMPDEST SWAP2 POP PUSH2 0x196 DUP4 PUSH2 0x1D6 JUMP JUMPDEST SWAP3 POP DUP3 PUSH32 0xFFFFFFFFFFFFFFFFFFFFFFFFFFFFFFFFFFFFFFFFFFFFFFFFFFFFFFFFFFFFFFFF SUB DUP3 GT ISZERO PUSH2 0x1CB JUMPI PUSH2 0x1CA PUSH2 0x1E0 JUMP JUMPDEST JUMPDEST DUP3 DUP3 ADD SWAP1 POP SWAP3 SWAP2 POP POP JUMP JUMPDEST PUSH1 0x0 DUP2 SWAP1 POP SWAP2 SWAP1 POP JUMP JUMPDEST PUSH32 0x4E487B7100000000000000000000000000000000000000000000000000000000 PUSH1 0x0 MSTORE PUSH1 0x11 PUSH1 0x4 MSTORE PUSH1 0x24 PUSH1 0x0 REVERT JUMPDEST PUSH1 0x0 DUP1 REVERT JUMPDEST PUSH2 0x21D DUP2 PUSH2 0x1D6 JUMP JUMPDEST DUP2 EQ PUSH2 0x228 JUMPI PUSH1 0x0 DUP1 REVERT JUMPDEST POP JUMP INVALID LOG2 PUSH5 0x6970667358 0x22 SLT KECCAK256 BLOCKHASH 0xAE GASLIMIT CALL PUSH27 0xD4870C02CFC43C2CD82E37FC29C1FF79D74C3ACFDEBC8C5B28830F PUSH5 0x736F6C6343 STOP ADDMOD SMOD STOP CALLER "
				},
				"gasEstimates": {
					"creation": {
						"codeDepositCost": "121800",
						"executionCost": "171",
						"totalCost": "121971"
					},
					"external": {
						"guardar(uint256)": "infinite",
						"leer()": "infinite"
					}
				},
				"methodIdentifiers": {
					"guardar(uint256)": "1667434f",
					"leer()": "b38f9adf"
				}
			},
			"storageLayout": {
				"storage": [
					{
						"astId": 9,
						"contract": "contracts/5_Desafio.sol:Desafio",
						"label": "valor",
						"offset": 0,
						"slot": "0",
						"type": "t_struct(Valor)6_storage"
					}
				],
				"types": {
					"t_struct(Valor)6_storage": {
						"encoding": "inplace",
						"label": "struct Desafio.Valor",
						"members": [
							{
								"astId": 3,
								"contract": "contracts/5_Desafio.sol:Desafio",
								"label": "ultimoNumero",
								"offset": 0,
								"slot": "0",
								"type": "t_uint256"
							},
							{
								"astId": 5,
								"contract": "contracts/5_Desafio.sol:Desafio",
								"label": "acumulador",
								"offset": 0,
								"slot": "1",
								"type": "t_uint256"
							}
						],
						"numberOfBytes": "64"
					},
					"t_uint256": {
						"encoding": "inplace",
						"label": "uint256",
						"numberOfBytes": "32"
					}
				}
			},
			"userdoc": {
				"kind": "user",
				"methods": {},
				"version": 1
			}
		}
	}
}