{
	"contracts/8_Instituto.sol": {
		"InstitutoDesafio": {
			"abi": [
				{
					"inputs": [],
					"stateMutability": "nonpayable",
					"type": "constructor"
				},
				{
					"anonymous": false,
					"inputs": [
						{
							"indexed": true,
							"internalType": "address",
							"name": "",
							"type": "address"
						},
						{
							"indexed": false,
							"internalType": "uint256",
							"name": "",
							"type": "uint256"
						},
						{
							"indexed": false,
							"internalType": "string",
							"name": "",
							"type": "string"
						}
					],
					"name": "NotaAgregada",
					"type": "event"
				},
				{
					"inputs": [
						{
							"internalType": "string",
							"name": "materia",
							"type": "string"
						},
						{
							"internalType": "address",
							"name": "alumno",
							"type": "address"
						},
						{
							"internalType": "uint256",
							"name": "nota",
							"type": "uint256"
						}
					],
					"name": "agregarNota",
					"outputs": [],
					"stateMutability": "nonpayable",
					"type": "function"
				},
				{
					"inputs": [
						{
							"internalType": "address",
							"name": "alumno",
							"type": "address"
						}
					],
					"name": "calcularPromedio",
					"outputs": [
						{
							"internalType": "uint256",
							"name": "",
							"type": "uint256"
						}
					],
					"stateMutability": "view",
					"type": "function"
				}
			],
			"devdoc": {
				"kind": "dev",
				"methods": {},
				"version": 1
			},
			"evm": {
				"assembly": "    /* \"contracts/8_Instituto.sol\":74:923  contract InstitutoDesafio {\r... */\n  mstore(0x40, 0x80)\n    /* \"contracts/8_Instituto.sol\":384:435  constructor() {\r... */\n  callvalue\n  dup1\n  iszero\n  tag_1\n  jumpi\n  0x00\n  dup1\n  revert\ntag_1:\n  pop\n    /* \"contracts/8_Instituto.sol\":417:427  msg.sender */\n  caller\n    /* \"contracts/8_Instituto.sol\":409:414  owner */\n  0x00\n  dup1\n    /* \"contracts/8_Instituto.sol\":409:427  owner = msg.sender */\n  0x0100\n  exp\n  dup2\n  sload\n  dup2\n  0xffffffffffffffffffffffffffffffffffffffff\n  mul\n  not\n  and\n  swap1\n  dup4\n  0xffffffffffffffffffffffffffffffffffffffff\n  and\n  mul\n  or\n  swap1\n  sstore\n  pop\n    /* \"contracts/8_Instituto.sol\":74:923  contract InstitutoDesafio {\r... */\n  dataSize(sub_0)\n  dup1\n  dataOffset(sub_0)\n  0x00\n  codecopy\n  0x00\n  return\nstop\n\nsub_0: assembly {\n        /* \"contracts/8_Instituto.sol\":74:923  contract InstitutoDesafio {\r... */\n      mstore(0x40, 0x80)\n      callvalue\n      dup1\n      iszero\n      tag_1\n      jumpi\n      0x00\n      dup1\n      revert\n    tag_1:\n      pop\n      jumpi(tag_2, lt(calldatasize, 0x04))\n      shr(0xe0, calldataload(0x00))\n      dup1\n      0x3011c49c\n      eq\n      tag_3\n      jumpi\n      dup1\n      0xd1e92c61\n      eq\n      tag_4\n      jumpi\n    tag_2:\n      0x00\n      dup1\n      revert\n        /* \"contracts/8_Instituto.sol\":642:920  function calcularPromedio(address alumno) external view returns(uint) {\r... */\n    tag_3:\n      tag_5\n      0x04\n      dup1\n      calldatasize\n      sub\n      dup2\n      add\n      swap1\n      tag_6\n      swap2\n      swap1\n      tag_7\n      jump\t// in\n    tag_6:\n      tag_8\n      jump\t// in\n    tag_5:\n      mload(0x40)\n      tag_9\n      swap2\n      swap1\n      tag_10\n      jump\t// in\n    tag_9:\n      mload(0x40)\n      dup1\n      swap2\n      sub\n      swap1\n      return\n        /* \"contracts/8_Instituto.sol\":443:634  function agregarNota(string memory materia, address alumno, uint nota) external isOwner {\r... */\n    tag_4:\n      tag_11\n      0x04\n      dup1\n      calldatasize\n      sub\n      dup2\n      add\n      swap1\n      tag_12\n      swap2\n      swap1\n      tag_13\n      jump\t// in\n    tag_12:\n      tag_14\n      jump\t// in\n    tag_11:\n      stop\n        /* \"contracts/8_Instituto.sol\":642:920  function calcularPromedio(address alumno) external view returns(uint) {\r... */\n    tag_8:\n        /* \"contracts/8_Instituto.sol\":706:710  uint */\n      0x00\n        /* \"contracts/8_Instituto.sol\":723:732  uint suma */\n      dup1\n        /* \"contracts/8_Instituto.sol\":747:753  uint i */\n      0x00\n        /* \"contracts/8_Instituto.sol\":743:859  for(uint i = 0; i < notasPorAlumno[alumno].length; i++) {\r... */\n    tag_16:\n        /* \"contracts/8_Instituto.sol\":763:777  notasPorAlumno */\n      0x01\n        /* \"contracts/8_Instituto.sol\":763:785  notasPorAlumno[alumno] */\n      0x00\n        /* \"contracts/8_Instituto.sol\":778:784  alumno */\n      dup6\n        /* \"contracts/8_Instituto.sol\":763:785  notasPorAlumno[alumno] */\n      0xffffffffffffffffffffffffffffffffffffffff\n      and\n      0xffffffffffffffffffffffffffffffffffffffff\n      and\n      dup2\n      mstore\n      0x20\n      add\n      swap1\n      dup2\n      mstore\n      0x20\n      add\n      0x00\n      keccak256\n        /* \"contracts/8_Instituto.sol\":763:792  notasPorAlumno[alumno].length */\n      dup1\n      sload\n      swap1\n      pop\n        /* \"contracts/8_Instituto.sol\":759:760  i */\n      dup2\n        /* \"contracts/8_Instituto.sol\":759:792  i < notasPorAlumno[alumno].length */\n      lt\n        /* \"contracts/8_Instituto.sol\":743:859  for(uint i = 0; i < notasPorAlumno[alumno].length; i++) {\r... */\n      iszero\n      tag_17\n      jumpi\n        /* \"contracts/8_Instituto.sol\":822:836  notasPorAlumno */\n      0x01\n        /* \"contracts/8_Instituto.sol\":822:844  notasPorAlumno[alumno] */\n      0x00\n        /* \"contracts/8_Instituto.sol\":837:843  alumno */\n      dup6\n        /* \"contracts/8_Instituto.sol\":822:844  notasPorAlumno[alumno] */\n      0xffffffffffffffffffffffffffffffffffffffff\n      and\n      0xffffffffffffffffffffffffffffffffffffffff\n      and\n      dup2\n      mstore\n      0x20\n      add\n      swap1\n      dup2\n      mstore\n      0x20\n      add\n      0x00\n      keccak256\n        /* \"contracts/8_Instituto.sol\":845:846  i */\n      dup2\n        /* \"contracts/8_Instituto.sol\":822:847  notasPorAlumno[alumno][i] */\n      dup2\n      sload\n      dup2\n      lt\n      tag_19\n      jumpi\n      tag_20\n      tag_21\n      jump\t// in\n    tag_20:\n    tag_19:\n      swap1\n      0x00\n      mstore\n      keccak256(0x00, 0x20)\n      add\n      sload\n        /* \"contracts/8_Instituto.sol\":814:847  suma += notasPorAlumno[alumno][i] */\n      dup3\n      tag_23\n      swap2\n      swap1\n      tag_24\n      jump\t// in\n    tag_23:\n      swap2\n      pop\n        /* \"contracts/8_Instituto.sol\":794:797  i++ */\n      dup1\n      dup1\n      tag_25\n      swap1\n      tag_26\n      jump\t// in\n    tag_25:\n      swap2\n      pop\n      pop\n        /* \"contracts/8_Instituto.sol\":743:859  for(uint i = 0; i < notasPorAlumno[alumno].length; i++) {\r... */\n      jump(tag_16)\n    tag_17:\n      pop\n        /* \"contracts/8_Instituto.sol\":882:896  notasPorAlumno */\n      0x01\n        /* \"contracts/8_Instituto.sol\":882:904  notasPorAlumno[alumno] */\n      0x00\n        /* \"contracts/8_Instituto.sol\":897:903  alumno */\n      dup5\n        /* \"contracts/8_Instituto.sol\":882:904  notasPorAlumno[alumno] */\n      0xffffffffffffffffffffffffffffffffffffffff\n      and\n      0xffffffffffffffffffffffffffffffffffffffff\n      and\n      dup2\n      mstore\n      0x20\n      add\n      swap1\n      dup2\n      mstore\n      0x20\n      add\n      0x00\n      keccak256\n        /* \"contracts/8_Instituto.sol\":882:911  notasPorAlumno[alumno].length */\n      dup1\n      sload\n      swap1\n      pop\n        /* \"contracts/8_Instituto.sol\":877:881  suma */\n      dup2\n        /* \"contracts/8_Instituto.sol\":877:911  suma/notasPorAlumno[alumno].length */\n      tag_27\n      swap2\n      swap1\n      tag_28\n      jump\t// in\n    tag_27:\n        /* \"contracts/8_Instituto.sol\":869:912  return (suma/notasPorAlumno[alumno].length) */\n      swap2\n      pop\n      pop\n        /* \"contracts/8_Instituto.sol\":642:920  function calcularPromedio(address alumno) external view returns(uint) {\r... */\n      swap2\n      swap1\n      pop\n      jump\t// out\n        /* \"contracts/8_Instituto.sol\":443:634  function agregarNota(string memory materia, address alumno, uint nota) external isOwner {\r... */\n    tag_14:\n        /* \"contracts/8_Instituto.sol\":331:336  owner */\n      0x00\n      dup1\n      sload\n      swap1\n      0x0100\n      exp\n      swap1\n      div\n      0xffffffffffffffffffffffffffffffffffffffff\n      and\n        /* \"contracts/8_Instituto.sol\":317:336  msg.sender == owner */\n      0xffffffffffffffffffffffffffffffffffffffff\n      and\n        /* \"contracts/8_Instituto.sol\":317:327  msg.sender */\n      caller\n        /* \"contracts/8_Instituto.sol\":317:336  msg.sender == owner */\n      0xffffffffffffffffffffffffffffffffffffffff\n      and\n      eq\n        /* \"contracts/8_Instituto.sol\":309:355  require(msg.sender == owner, \"No es el owner\") */\n      tag_30\n      jumpi\n      mload(0x40)\n      0x08c379a000000000000000000000000000000000000000000000000000000000\n      dup2\n      mstore\n      0x04\n      add\n      tag_31\n      swap1\n      tag_32\n      jump\t// in\n    tag_31:\n      mload(0x40)\n      dup1\n      swap2\n      sub\n      swap1\n      revert\n    tag_30:\n        /* \"contracts/8_Instituto.sol\":542:556  notasPorAlumno */\n      0x01\n        /* \"contracts/8_Instituto.sol\":542:564  notasPorAlumno[alumno] */\n      0x00\n        /* \"contracts/8_Instituto.sol\":557:563  alumno */\n      dup4\n        /* \"contracts/8_Instituto.sol\":542:564  notasPorAlumno[alumno] */\n      0xffffffffffffffffffffffffffffffffffffffff\n      and\n      0xffffffffffffffffffffffffffffffffffffffff\n      and\n      dup2\n      mstore\n      0x20\n      add\n      swap1\n      dup2\n      mstore\n      0x20\n      add\n      0x00\n      keccak256\n        /* \"contracts/8_Instituto.sol\":570:574  nota */\n      dup2\n        /* \"contracts/8_Instituto.sol\":542:575  notasPorAlumno[alumno].push(nota) */\n      swap1\n      dup1\n      0x01\n      dup2\n      sload\n      add\n      dup1\n      dup3\n      sstore\n      dup1\n      swap2\n      pop\n      pop\n      0x01\n      swap1\n      sub\n      swap1\n      0x00\n      mstore\n      keccak256(0x00, 0x20)\n      add\n      0x00\n      swap1\n      swap2\n      swap1\n      swap2\n      swap1\n      swap2\n      pop\n      sstore\n        /* \"contracts/8_Instituto.sol\":604:610  alumno */\n      dup2\n        /* \"contracts/8_Instituto.sol\":591:626  NotaAgregada(alumno, nota, materia) */\n      0xffffffffffffffffffffffffffffffffffffffff\n      and\n      0xa8a5c0b97950e3287386c89fb830242f4dda204cf3457cc20b171d474a3bb918\n        /* \"contracts/8_Instituto.sol\":612:616  nota */\n      dup3\n        /* \"contracts/8_Instituto.sol\":618:625  materia */\n      dup6\n        /* \"contracts/8_Instituto.sol\":591:626  NotaAgregada(alumno, nota, materia) */\n      mload(0x40)\n      tag_35\n      swap3\n      swap2\n      swap1\n      tag_36\n      jump\t// in\n    tag_35:\n      mload(0x40)\n      dup1\n      swap2\n      sub\n      swap1\n      log2\n        /* \"contracts/8_Instituto.sol\":443:634  function agregarNota(string memory materia, address alumno, uint nota) external isOwner {\r... */\n      pop\n      pop\n      pop\n      jump\t// out\n        /* \"#utility.yul\":7:419   */\n    tag_38:\n        /* \"#utility.yul\":85:90   */\n      0x00\n        /* \"#utility.yul\":110:176   */\n      tag_40\n        /* \"#utility.yul\":126:175   */\n      tag_41\n        /* \"#utility.yul\":168:174   */\n      dup5\n        /* \"#utility.yul\":126:175   */\n      tag_42\n      jump\t// in\n    tag_41:\n        /* \"#utility.yul\":110:176   */\n      tag_43\n      jump\t// in\n    tag_40:\n        /* \"#utility.yul\":101:176   */\n      swap1\n      pop\n        /* \"#utility.yul\":199:205   */\n      dup3\n        /* \"#utility.yul\":192:197   */\n      dup2\n        /* \"#utility.yul\":185:206   */\n      mstore\n        /* \"#utility.yul\":237:241   */\n      0x20\n        /* \"#utility.yul\":230:235   */\n      dup2\n        /* \"#utility.yul\":226:242   */\n      add\n        /* \"#utility.yul\":275:278   */\n      dup5\n        /* \"#utility.yul\":266:272   */\n      dup5\n        /* \"#utility.yul\":261:264   */\n      dup5\n        /* \"#utility.yul\":257:273   */\n      add\n        /* \"#utility.yul\":254:279   */\n      gt\n        /* \"#utility.yul\":251:363   */\n      iszero\n      tag_44\n      jumpi\n        /* \"#utility.yul\":282:361   */\n      tag_45\n      tag_46\n      jump\t// in\n    tag_45:\n        /* \"#utility.yul\":251:363   */\n    tag_44:\n        /* \"#utility.yul\":372:413   */\n      tag_47\n        /* \"#utility.yul\":406:412   */\n      dup5\n        /* \"#utility.yul\":401:404   */\n      dup3\n        /* \"#utility.yul\":396:399   */\n      dup6\n        /* \"#utility.yul\":372:413   */\n      tag_48\n      jump\t// in\n    tag_47:\n        /* \"#utility.yul\":91:419   */\n      pop\n        /* \"#utility.yul\":7:419   */\n      swap4\n      swap3\n      pop\n      pop\n      pop\n      jump\t// out\n        /* \"#utility.yul\":425:564   */\n    tag_49:\n        /* \"#utility.yul\":471:476   */\n      0x00\n        /* \"#utility.yul\":509:515   */\n      dup2\n        /* \"#utility.yul\":496:516   */\n      calldataload\n        /* \"#utility.yul\":487:516   */\n      swap1\n      pop\n        /* \"#utility.yul\":525:558   */\n      tag_51\n        /* \"#utility.yul\":552:557   */\n      dup2\n        /* \"#utility.yul\":525:558   */\n      tag_52\n      jump\t// in\n    tag_51:\n        /* \"#utility.yul\":425:564   */\n      swap3\n      swap2\n      pop\n      pop\n      jump\t// out\n        /* \"#utility.yul\":584:924   */\n    tag_53:\n        /* \"#utility.yul\":640:645   */\n      0x00\n        /* \"#utility.yul\":689:692   */\n      dup3\n        /* \"#utility.yul\":682:686   */\n      0x1f\n        /* \"#utility.yul\":674:680   */\n      dup4\n        /* \"#utility.yul\":670:687   */\n      add\n        /* \"#utility.yul\":666:693   */\n      slt\n        /* \"#utility.yul\":656:778   */\n      tag_55\n      jumpi\n        /* \"#utility.yul\":697:776   */\n      tag_56\n      tag_57\n      jump\t// in\n    tag_56:\n        /* \"#utility.yul\":656:778   */\n    tag_55:\n        /* \"#utility.yul\":814:820   */\n      dup2\n        /* \"#utility.yul\":801:821   */\n      calldataload\n        /* \"#utility.yul\":839:918   */\n      tag_58\n        /* \"#utility.yul\":914:917   */\n      dup5\n        /* \"#utility.yul\":906:912   */\n      dup3\n        /* \"#utility.yul\":899:903   */\n      0x20\n        /* \"#utility.yul\":891:897   */\n      dup7\n        /* \"#utility.yul\":887:904   */\n      add\n        /* \"#utility.yul\":839:918   */\n      tag_38\n      jump\t// in\n    tag_58:\n        /* \"#utility.yul\":830:918   */\n      swap2\n      pop\n        /* \"#utility.yul\":646:924   */\n      pop\n        /* \"#utility.yul\":584:924   */\n      swap3\n      swap2\n      pop\n      pop\n      jump\t// out\n        /* \"#utility.yul\":930:1069   */\n    tag_59:\n        /* \"#utility.yul\":976:981   */\n      0x00\n        /* \"#utility.yul\":1014:1020   */\n      dup2\n        /* \"#utility.yul\":1001:1021   */\n      calldataload\n        /* \"#utility.yul\":992:1021   */\n      swap1\n      pop\n        /* \"#utility.yul\":1030:1063   */\n      tag_61\n        /* \"#utility.yul\":1057:1062   */\n      dup2\n        /* \"#utility.yul\":1030:1063   */\n      tag_62\n      jump\t// in\n    tag_61:\n        /* \"#utility.yul\":930:1069   */\n      swap3\n      swap2\n      pop\n      pop\n      jump\t// out\n        /* \"#utility.yul\":1075:1404   */\n    tag_7:\n        /* \"#utility.yul\":1134:1140   */\n      0x00\n        /* \"#utility.yul\":1183:1185   */\n      0x20\n        /* \"#utility.yul\":1171:1180   */\n      dup3\n        /* \"#utility.yul\":1162:1169   */\n      dup5\n        /* \"#utility.yul\":1158:1181   */\n      sub\n        /* \"#utility.yul\":1154:1186   */\n      slt\n        /* \"#utility.yul\":1151:1270   */\n      iszero\n      tag_64\n      jumpi\n        /* \"#utility.yul\":1189:1268   */\n      tag_65\n      tag_66\n      jump\t// in\n    tag_65:\n        /* \"#utility.yul\":1151:1270   */\n    tag_64:\n        /* \"#utility.yul\":1309:1310   */\n      0x00\n        /* \"#utility.yul\":1334:1387   */\n      tag_67\n        /* \"#utility.yul\":1379:1386   */\n      dup5\n        /* \"#utility.yul\":1370:1376   */\n      dup3\n        /* \"#utility.yul\":1359:1368   */\n      dup6\n        /* \"#utility.yul\":1355:1377   */\n      add\n        /* \"#utility.yul\":1334:1387   */\n      tag_49\n      jump\t// in\n    tag_67:\n        /* \"#utility.yul\":1324:1387   */\n      swap2\n      pop\n        /* \"#utility.yul\":1280:1397   */\n      pop\n        /* \"#utility.yul\":1075:1404   */\n      swap3\n      swap2\n      pop\n      pop\n      jump\t// out\n        /* \"#utility.yul\":1410:2209   */\n    tag_13:\n        /* \"#utility.yul\":1497:1503   */\n      0x00\n        /* \"#utility.yul\":1505:1511   */\n      dup1\n        /* \"#utility.yul\":1513:1519   */\n      0x00\n        /* \"#utility.yul\":1562:1564   */\n      0x60\n        /* \"#utility.yul\":1550:1559   */\n      dup5\n        /* \"#utility.yul\":1541:1548   */\n      dup7\n        /* \"#utility.yul\":1537:1560   */\n      sub\n        /* \"#utility.yul\":1533:1565   */\n      slt\n        /* \"#utility.yul\":1530:1649   */\n      iszero\n      tag_69\n      jumpi\n        /* \"#utility.yul\":1568:1647   */\n      tag_70\n      tag_66\n      jump\t// in\n    tag_70:\n        /* \"#utility.yul\":1530:1649   */\n    tag_69:\n        /* \"#utility.yul\":1716:1717   */\n      0x00\n        /* \"#utility.yul\":1705:1714   */\n      dup5\n        /* \"#utility.yul\":1701:1718   */\n      add\n        /* \"#utility.yul\":1688:1719   */\n      calldataload\n        /* \"#utility.yul\":1746:1764   */\n      0xffffffffffffffff\n        /* \"#utility.yul\":1738:1744   */\n      dup2\n        /* \"#utility.yul\":1735:1765   */\n      gt\n        /* \"#utility.yul\":1732:1849   */\n      iszero\n      tag_71\n      jumpi\n        /* \"#utility.yul\":1768:1847   */\n      tag_72\n      tag_73\n      jump\t// in\n    tag_72:\n        /* \"#utility.yul\":1732:1849   */\n    tag_71:\n        /* \"#utility.yul\":1873:1936   */\n      tag_74\n        /* \"#utility.yul\":1928:1935   */\n      dup7\n        /* \"#utility.yul\":1919:1925   */\n      dup3\n        /* \"#utility.yul\":1908:1917   */\n      dup8\n        /* \"#utility.yul\":1904:1926   */\n      add\n        /* \"#utility.yul\":1873:1936   */\n      tag_53\n      jump\t// in\n    tag_74:\n        /* \"#utility.yul\":1863:1936   */\n      swap4\n      pop\n        /* \"#utility.yul\":1659:1946   */\n      pop\n        /* \"#utility.yul\":1985:1987   */\n      0x20\n        /* \"#utility.yul\":2011:2064   */\n      tag_75\n        /* \"#utility.yul\":2056:2063   */\n      dup7\n        /* \"#utility.yul\":2047:2053   */\n      dup3\n        /* \"#utility.yul\":2036:2045   */\n      dup8\n        /* \"#utility.yul\":2032:2054   */\n      add\n        /* \"#utility.yul\":2011:2064   */\n      tag_49\n      jump\t// in\n    tag_75:\n        /* \"#utility.yul\":2001:2064   */\n      swap3\n      pop\n        /* \"#utility.yul\":1956:2074   */\n      pop\n        /* \"#utility.yul\":2113:2115   */\n      0x40\n        /* \"#utility.yul\":2139:2192   */\n      tag_76\n        /* \"#utility.yul\":2184:2191   */\n      dup7\n        /* \"#utility.yul\":2175:2181   */\n      dup3\n        /* \"#utility.yul\":2164:2173   */\n      dup8\n        /* \"#utility.yul\":2160:2182   */\n      add\n        /* \"#utility.yul\":2139:2192   */\n      tag_59\n      jump\t// in\n    tag_76:\n        /* \"#utility.yul\":2129:2192   */\n      swap2\n      pop\n        /* \"#utility.yul\":2084:2202   */\n      pop\n        /* \"#utility.yul\":1410:2209   */\n      swap3\n      pop\n      swap3\n      pop\n      swap3\n      jump\t// out\n        /* \"#utility.yul\":2215:2579   */\n    tag_77:\n        /* \"#utility.yul\":2303:2306   */\n      0x00\n        /* \"#utility.yul\":2331:2370   */\n      tag_79\n        /* \"#utility.yul\":2364:2369   */\n      dup3\n        /* \"#utility.yul\":2331:2370   */\n      tag_80\n      jump\t// in\n    tag_79:\n        /* \"#utility.yul\":2386:2457   */\n      tag_81\n        /* \"#utility.yul\":2450:2456   */\n      dup2\n        /* \"#utility.yul\":2445:2448   */\n      dup6\n        /* \"#utility.yul\":2386:2457   */\n      tag_82\n      jump\t// in\n    tag_81:\n        /* \"#utility.yul\":2379:2457   */\n      swap4\n      pop\n        /* \"#utility.yul\":2466:2518   */\n      tag_83\n        /* \"#utility.yul\":2511:2517   */\n      dup2\n        /* \"#utility.yul\":2506:2509   */\n      dup6\n        /* \"#utility.yul\":2499:2503   */\n      0x20\n        /* \"#utility.yul\":2492:2497   */\n      dup7\n        /* \"#utility.yul\":2488:2504   */\n      add\n        /* \"#utility.yul\":2466:2518   */\n      tag_84\n      jump\t// in\n    tag_83:\n        /* \"#utility.yul\":2543:2572   */\n      tag_85\n        /* \"#utility.yul\":2565:2571   */\n      dup2\n        /* \"#utility.yul\":2543:2572   */\n      tag_86\n      jump\t// in\n    tag_85:\n        /* \"#utility.yul\":2538:2541   */\n      dup5\n        /* \"#utility.yul\":2534:2573   */\n      add\n        /* \"#utility.yul\":2527:2573   */\n      swap2\n      pop\n        /* \"#utility.yul\":2307:2579   */\n      pop\n        /* \"#utility.yul\":2215:2579   */\n      swap3\n      swap2\n      pop\n      pop\n      jump\t// out\n        /* \"#utility.yul\":2585:2951   */\n    tag_87:\n        /* \"#utility.yul\":2727:2730   */\n      0x00\n        /* \"#utility.yul\":2748:2815   */\n      tag_89\n        /* \"#utility.yul\":2812:2814   */\n      0x0e\n        /* \"#utility.yul\":2807:2810   */\n      dup4\n        /* \"#utility.yul\":2748:2815   */\n      tag_82\n      jump\t// in\n    tag_89:\n        /* \"#utility.yul\":2741:2815   */\n      swap2\n      pop\n        /* \"#utility.yul\":2824:2917   */\n      tag_90\n        /* \"#utility.yul\":2913:2916   */\n      dup3\n        /* \"#utility.yul\":2824:2917   */\n      tag_91\n      jump\t// in\n    tag_90:\n        /* \"#utility.yul\":2942:2944   */\n      0x20\n        /* \"#utility.yul\":2937:2940   */\n      dup3\n        /* \"#utility.yul\":2933:2945   */\n      add\n        /* \"#utility.yul\":2926:2945   */\n      swap1\n      pop\n        /* \"#utility.yul\":2585:2951   */\n      swap2\n      swap1\n      pop\n      jump\t// out\n        /* \"#utility.yul\":2957:3075   */\n    tag_92:\n        /* \"#utility.yul\":3044:3068   */\n      tag_94\n        /* \"#utility.yul\":3062:3067   */\n      dup2\n        /* \"#utility.yul\":3044:3068   */\n      tag_95\n      jump\t// in\n    tag_94:\n        /* \"#utility.yul\":3039:3042   */\n      dup3\n        /* \"#utility.yul\":3032:3069   */\n      mstore\n        /* \"#utility.yul\":2957:3075   */\n      pop\n      pop\n      jump\t// out\n        /* \"#utility.yul\":3081:3500   */\n    tag_32:\n        /* \"#utility.yul\":3247:3251   */\n      0x00\n        /* \"#utility.yul\":3285:3287   */\n      0x20\n        /* \"#utility.yul\":3274:3283   */\n      dup3\n        /* \"#utility.yul\":3270:3288   */\n      add\n        /* \"#utility.yul\":3262:3288   */\n      swap1\n      pop\n        /* \"#utility.yul\":3334:3343   */\n      dup2\n        /* \"#utility.yul\":3328:3332   */\n      dup2\n        /* \"#utility.yul\":3324:3344   */\n      sub\n        /* \"#utility.yul\":3320:3321   */\n      0x00\n        /* \"#utility.yul\":3309:3318   */\n      dup4\n        /* \"#utility.yul\":3305:3322   */\n      add\n        /* \"#utility.yul\":3298:3345   */\n      mstore\n        /* \"#utility.yul\":3362:3493   */\n      tag_97\n        /* \"#utility.yul\":3488:3492   */\n      dup2\n        /* \"#utility.yul\":3362:3493   */\n      tag_87\n      jump\t// in\n    tag_97:\n        /* \"#utility.yul\":3354:3493   */\n      swap1\n      pop\n        /* \"#utility.yul\":3081:3500   */\n      swap2\n      swap1\n      pop\n      jump\t// out\n        /* \"#utility.yul\":3506:3728   */\n    tag_10:\n        /* \"#utility.yul\":3599:3603   */\n      0x00\n        /* \"#utility.yul\":3637:3639   */\n      0x20\n        /* \"#utility.yul\":3626:3635   */\n      dup3\n        /* \"#utility.yul\":3622:3640   */\n      add\n        /* \"#utility.yul\":3614:3640   */\n      swap1\n      pop\n        /* \"#utility.yul\":3650:3721   */\n      tag_99\n        /* \"#utility.yul\":3718:3719   */\n      0x00\n        /* \"#utility.yul\":3707:3716   */\n      dup4\n        /* \"#utility.yul\":3703:3720   */\n      add\n        /* \"#utility.yul\":3694:3700   */\n      dup5\n        /* \"#utility.yul\":3650:3721   */\n      tag_92\n      jump\t// in\n    tag_99:\n        /* \"#utility.yul\":3506:3728   */\n      swap3\n      swap2\n      pop\n      pop\n      jump\t// out\n        /* \"#utility.yul\":3734:4157   */\n    tag_36:\n        /* \"#utility.yul\":3875:3879   */\n      0x00\n        /* \"#utility.yul\":3913:3915   */\n      0x40\n        /* \"#utility.yul\":3902:3911   */\n      dup3\n        /* \"#utility.yul\":3898:3916   */\n      add\n        /* \"#utility.yul\":3890:3916   */\n      swap1\n      pop\n        /* \"#utility.yul\":3926:3997   */\n      tag_101\n        /* \"#utility.yul\":3994:3995   */\n      0x00\n        /* \"#utility.yul\":3983:3992   */\n      dup4\n        /* \"#utility.yul\":3979:3996   */\n      add\n        /* \"#utility.yul\":3970:3976   */\n      dup6\n        /* \"#utility.yul\":3926:3997   */\n      tag_92\n      jump\t// in\n    tag_101:\n        /* \"#utility.yul\":4044:4053   */\n      dup2\n        /* \"#utility.yul\":4038:4042   */\n      dup2\n        /* \"#utility.yul\":4034:4054   */\n      sub\n        /* \"#utility.yul\":4029:4031   */\n      0x20\n        /* \"#utility.yul\":4018:4027   */\n      dup4\n        /* \"#utility.yul\":4014:4032   */\n      add\n        /* \"#utility.yul\":4007:4055   */\n      mstore\n        /* \"#utility.yul\":4072:4150   */\n      tag_102\n        /* \"#utility.yul\":4145:4149   */\n      dup2\n        /* \"#utility.yul\":4136:4142   */\n      dup5\n        /* \"#utility.yul\":4072:4150   */\n      tag_77\n      jump\t// in\n    tag_102:\n        /* \"#utility.yul\":4064:4150   */\n      swap1\n      pop\n        /* \"#utility.yul\":3734:4157   */\n      swap4\n      swap3\n      pop\n      pop\n      pop\n      jump\t// out\n        /* \"#utility.yul\":4163:4292   */\n    tag_43:\n        /* \"#utility.yul\":4197:4203   */\n      0x00\n        /* \"#utility.yul\":4224:4244   */\n      tag_104\n      tag_105\n      jump\t// in\n    tag_104:\n        /* \"#utility.yul\":4214:4244   */\n      swap1\n      pop\n        /* \"#utility.yul\":4253:4286   */\n      tag_106\n        /* \"#utility.yul\":4281:4285   */\n      dup3\n        /* \"#utility.yul\":4273:4279   */\n      dup3\n        /* \"#utility.yul\":4253:4286   */\n      tag_107\n      jump\t// in\n    tag_106:\n        /* \"#utility.yul\":4163:4292   */\n      swap2\n      swap1\n      pop\n      jump\t// out\n        /* \"#utility.yul\":4298:4373   */\n    tag_105:\n        /* \"#utility.yul\":4331:4337   */\n      0x00\n        /* \"#utility.yul\":4364:4366   */\n      0x40\n        /* \"#utility.yul\":4358:4367   */\n      mload\n        /* \"#utility.yul\":4348:4367   */\n      swap1\n      pop\n        /* \"#utility.yul\":4298:4373   */\n      swap1\n      jump\t// out\n        /* \"#utility.yul\":4379:4687   */\n    tag_42:\n        /* \"#utility.yul\":4441:4445   */\n      0x00\n        /* \"#utility.yul\":4531:4549   */\n      0xffffffffffffffff\n        /* \"#utility.yul\":4523:4529   */\n      dup3\n        /* \"#utility.yul\":4520:4550   */\n      gt\n        /* \"#utility.yul\":4517:4573   */\n      iszero\n      tag_110\n      jumpi\n        /* \"#utility.yul\":4553:4571   */\n      tag_111\n      tag_112\n      jump\t// in\n    tag_111:\n        /* \"#utility.yul\":4517:4573   */\n    tag_110:\n        /* \"#utility.yul\":4591:4620   */\n      tag_113\n        /* \"#utility.yul\":4613:4619   */\n      dup3\n        /* \"#utility.yul\":4591:4620   */\n      tag_86\n      jump\t// in\n    tag_113:\n        /* \"#utility.yul\":4583:4620   */\n      swap1\n      pop\n        /* \"#utility.yul\":4675:4679   */\n      0x20\n        /* \"#utility.yul\":4669:4673   */\n      dup2\n        /* \"#utility.yul\":4665:4680   */\n      add\n        /* \"#utility.yul\":4657:4680   */\n      swap1\n      pop\n        /* \"#utility.yul\":4379:4687   */\n      swap2\n      swap1\n      pop\n      jump\t// out\n        /* \"#utility.yul\":4693:4792   */\n    tag_80:\n        /* \"#utility.yul\":4745:4751   */\n      0x00\n        /* \"#utility.yul\":4779:4784   */\n      dup2\n        /* \"#utility.yul\":4773:4785   */\n      mload\n        /* \"#utility.yul\":4763:4785   */\n      swap1\n      pop\n        /* \"#utility.yul\":4693:4792   */\n      swap2\n      swap1\n      pop\n      jump\t// out\n        /* \"#utility.yul\":4798:4967   */\n    tag_82:\n        /* \"#utility.yul\":4882:4893   */\n      0x00\n        /* \"#utility.yul\":4916:4922   */\n      dup3\n        /* \"#utility.yul\":4911:4914   */\n      dup3\n        /* \"#utility.yul\":4904:4923   */\n      mstore\n        /* \"#utility.yul\":4956:4960   */\n      0x20\n        /* \"#utility.yul\":4951:4954   */\n      dup3\n        /* \"#utility.yul\":4947:4961   */\n      add\n        /* \"#utility.yul\":4932:4961   */\n      swap1\n      pop\n        /* \"#utility.yul\":4798:4967   */\n      swap3\n      swap2\n      pop\n      pop\n      jump\t// out\n        /* \"#utility.yul\":4973:5278   */\n    tag_24:\n        /* \"#utility.yul\":5013:5016   */\n      0x00\n        /* \"#utility.yul\":5032:5052   */\n      tag_117\n        /* \"#utility.yul\":5050:5051   */\n      dup3\n        /* \"#utility.yul\":5032:5052   */\n      tag_95\n      jump\t// in\n    tag_117:\n        /* \"#utility.yul\":5027:5052   */\n      swap2\n      pop\n        /* \"#utility.yul\":5066:5086   */\n      tag_118\n        /* \"#utility.yul\":5084:5085   */\n      dup4\n        /* \"#utility.yul\":5066:5086   */\n      tag_95\n      jump\t// in\n    tag_118:\n        /* \"#utility.yul\":5061:5086   */\n      swap3\n      pop\n        /* \"#utility.yul\":5220:5221   */\n      dup3\n        /* \"#utility.yul\":5152:5218   */\n      0xffffffffffffffffffffffffffffffffffffffffffffffffffffffffffffffff\n        /* \"#utility.yul\":5148:5222   */\n      sub\n        /* \"#utility.yul\":5145:5146   */\n      dup3\n        /* \"#utility.yul\":5142:5223   */\n      gt\n        /* \"#utility.yul\":5139:5246   */\n      iszero\n      tag_119\n      jumpi\n        /* \"#utility.yul\":5226:5244   */\n      tag_120\n      tag_121\n      jump\t// in\n    tag_120:\n        /* \"#utility.yul\":5139:5246   */\n    tag_119:\n        /* \"#utility.yul\":5270:5271   */\n      dup3\n        /* \"#utility.yul\":5267:5268   */\n      dup3\n        /* \"#utility.yul\":5263:5272   */\n      add\n        /* \"#utility.yul\":5256:5272   */\n      swap1\n      pop\n        /* \"#utility.yul\":4973:5278   */\n      swap3\n      swap2\n      pop\n      pop\n      jump\t// out\n        /* \"#utility.yul\":5284:5469   */\n    tag_28:\n        /* \"#utility.yul\":5324:5325   */\n      0x00\n        /* \"#utility.yul\":5341:5361   */\n      tag_123\n        /* \"#utility.yul\":5359:5360   */\n      dup3\n        /* \"#utility.yul\":5341:5361   */\n      tag_95\n      jump\t// in\n    tag_123:\n        /* \"#utility.yul\":5336:5361   */\n      swap2\n      pop\n        /* \"#utility.yul\":5375:5395   */\n      tag_124\n        /* \"#utility.yul\":5393:5394   */\n      dup4\n        /* \"#utility.yul\":5375:5395   */\n      tag_95\n      jump\t// in\n    tag_124:\n        /* \"#utility.yul\":5370:5395   */\n      swap3\n      pop\n        /* \"#utility.yul\":5414:5415   */\n      dup3\n        /* \"#utility.yul\":5404:5439   */\n      tag_125\n      jumpi\n        /* \"#utility.yul\":5419:5437   */\n      tag_126\n      tag_127\n      jump\t// in\n    tag_126:\n        /* \"#utility.yul\":5404:5439   */\n    tag_125:\n        /* \"#utility.yul\":5461:5462   */\n      dup3\n        /* \"#utility.yul\":5458:5459   */\n      dup3\n        /* \"#utility.yul\":5454:5463   */\n      div\n        /* \"#utility.yul\":5449:5463   */\n      swap1\n      pop\n        /* \"#utility.yul\":5284:5469   */\n      swap3\n      swap2\n      pop\n      pop\n      jump\t// out\n        /* \"#utility.yul\":5475:5571   */\n    tag_128:\n        /* \"#utility.yul\":5512:5519   */\n      0x00\n        /* \"#utility.yul\":5541:5565   */\n      tag_130\n        /* \"#utility.yul\":5559:5564   */\n      dup3\n        /* \"#utility.yul\":5541:5565   */\n      tag_131\n      jump\t// in\n    tag_130:\n        /* \"#utility.yul\":5530:5565   */\n      swap1\n      pop\n        /* \"#utility.yul\":5475:5571   */\n      swap2\n      swap1\n      pop\n      jump\t// out\n        /* \"#utility.yul\":5577:5703   */\n    tag_131:\n        /* \"#utility.yul\":5614:5621   */\n      0x00\n        /* \"#utility.yul\":5654:5696   */\n      0xffffffffffffffffffffffffffffffffffffffff\n        /* \"#utility.yul\":5647:5652   */\n      dup3\n        /* \"#utility.yul\":5643:5697   */\n      and\n        /* \"#utility.yul\":5632:5697   */\n      swap1\n      pop\n        /* \"#utility.yul\":5577:5703   */\n      swap2\n      swap1\n      pop\n      jump\t// out\n        /* \"#utility.yul\":5709:5786   */\n    tag_95:\n        /* \"#utility.yul\":5746:5753   */\n      0x00\n        /* \"#utility.yul\":5775:5780   */\n      dup2\n        /* \"#utility.yul\":5764:5780   */\n      swap1\n      pop\n        /* \"#utility.yul\":5709:5786   */\n      swap2\n      swap1\n      pop\n      jump\t// out\n        /* \"#utility.yul\":5792:5946   */\n    tag_48:\n        /* \"#utility.yul\":5876:5882   */\n      dup3\n        /* \"#utility.yul\":5871:5874   */\n      dup2\n        /* \"#utility.yul\":5866:5869   */\n      dup4\n        /* \"#utility.yul\":5853:5883   */\n      calldatacopy\n        /* \"#utility.yul\":5938:5939   */\n      0x00\n        /* \"#utility.yul\":5929:5935   */\n      dup4\n        /* \"#utility.yul\":5924:5927   */\n      dup4\n        /* \"#utility.yul\":5920:5936   */\n      add\n        /* \"#utility.yul\":5913:5940   */\n      mstore\n        /* \"#utility.yul\":5792:5946   */\n      pop\n      pop\n      pop\n      jump\t// out\n        /* \"#utility.yul\":5952:6259   */\n    tag_84:\n        /* \"#utility.yul\":6020:6021   */\n      0x00\n        /* \"#utility.yul\":6030:6143   */\n    tag_136:\n        /* \"#utility.yul\":6044:6050   */\n      dup4\n        /* \"#utility.yul\":6041:6042   */\n      dup2\n        /* \"#utility.yul\":6038:6051   */\n      lt\n        /* \"#utility.yul\":6030:6143   */\n      iszero\n      tag_138\n      jumpi\n        /* \"#utility.yul\":6129:6130   */\n      dup1\n        /* \"#utility.yul\":6124:6127   */\n      dup3\n        /* \"#utility.yul\":6120:6131   */\n      add\n        /* \"#utility.yul\":6114:6132   */\n      mload\n        /* \"#utility.yul\":6110:6111   */\n      dup2\n        /* \"#utility.yul\":6105:6108   */\n      dup5\n        /* \"#utility.yul\":6101:6112   */\n      add\n        /* \"#utility.yul\":6094:6133   */\n      mstore\n        /* \"#utility.yul\":6066:6068   */\n      0x20\n        /* \"#utility.yul\":6063:6064   */\n      dup2\n        /* \"#utility.yul\":6059:6069   */\n      add\n        /* \"#utility.yul\":6054:6069   */\n      swap1\n      pop\n        /* \"#utility.yul\":6030:6143   */\n      jump(tag_136)\n    tag_138:\n        /* \"#utility.yul\":6161:6167   */\n      dup4\n        /* \"#utility.yul\":6158:6159   */\n      dup2\n        /* \"#utility.yul\":6155:6168   */\n      gt\n        /* \"#utility.yul\":6152:6253   */\n      iszero\n      tag_139\n      jumpi\n        /* \"#utility.yul\":6241:6242   */\n      0x00\n        /* \"#utility.yul\":6232:6238   */\n      dup5\n        /* \"#utility.yul\":6227:6230   */\n      dup5\n        /* \"#utility.yul\":6223:6239   */\n      add\n        /* \"#utility.yul\":6216:6243   */\n      mstore\n        /* \"#utility.yul\":6152:6253   */\n    tag_139:\n        /* \"#utility.yul\":6001:6259   */\n      pop\n        /* \"#utility.yul\":5952:6259   */\n      pop\n      pop\n      pop\n      jump\t// out\n        /* \"#utility.yul\":6265:6546   */\n    tag_107:\n        /* \"#utility.yul\":6348:6375   */\n      tag_141\n        /* \"#utility.yul\":6370:6374   */\n      dup3\n        /* \"#utility.yul\":6348:6375   */\n      tag_86\n      jump\t// in\n    tag_141:\n        /* \"#utility.yul\":6340:6346   */\n      dup2\n        /* \"#utility.yul\":6336:6376   */\n      add\n        /* \"#utility.yul\":6478:6484   */\n      dup2\n        /* \"#utility.yul\":6466:6476   */\n      dup2\n        /* \"#utility.yul\":6463:6485   */\n      lt\n        /* \"#utility.yul\":6442:6460   */\n      0xffffffffffffffff\n        /* \"#utility.yul\":6430:6440   */\n      dup3\n        /* \"#utility.yul\":6427:6461   */\n      gt\n        /* \"#utility.yul\":6424:6486   */\n      or\n        /* \"#utility.yul\":6421:6509   */\n      iszero\n      tag_142\n      jumpi\n        /* \"#utility.yul\":6489:6507   */\n      tag_143\n      tag_112\n      jump\t// in\n    tag_143:\n        /* \"#utility.yul\":6421:6509   */\n    tag_142:\n        /* \"#utility.yul\":6529:6539   */\n      dup1\n        /* \"#utility.yul\":6525:6527   */\n      0x40\n        /* \"#utility.yul\":6518:6540   */\n      mstore\n        /* \"#utility.yul\":6308:6546   */\n      pop\n        /* \"#utility.yul\":6265:6546   */\n      pop\n      pop\n      jump\t// out\n        /* \"#utility.yul\":6552:6785   */\n    tag_26:\n        /* \"#utility.yul\":6591:6594   */\n      0x00\n        /* \"#utility.yul\":6614:6638   */\n      tag_145\n        /* \"#utility.yul\":6632:6637   */\n      dup3\n        /* \"#utility.yul\":6614:6638   */\n      tag_95\n      jump\t// in\n    tag_145:\n        /* \"#utility.yul\":6605:6638   */\n      swap2\n      pop\n        /* \"#utility.yul\":6660:6726   */\n      0xffffffffffffffffffffffffffffffffffffffffffffffffffffffffffffffff\n        /* \"#utility.yul\":6653:6658   */\n      dup3\n        /* \"#utility.yul\":6650:6727   */\n      eq\n        /* \"#utility.yul\":6647:6750   */\n      iszero\n      tag_146\n      jumpi\n        /* \"#utility.yul\":6730:6748   */\n      tag_147\n      tag_121\n      jump\t// in\n    tag_147:\n        /* \"#utility.yul\":6647:6750   */\n    tag_146:\n        /* \"#utility.yul\":6777:6778   */\n      0x01\n        /* \"#utility.yul\":6770:6775   */\n      dup3\n        /* \"#utility.yul\":6766:6779   */\n      add\n        /* \"#utility.yul\":6759:6779   */\n      swap1\n      pop\n        /* \"#utility.yul\":6552:6785   */\n      swap2\n      swap1\n      pop\n      jump\t// out\n        /* \"#utility.yul\":6791:6971   */\n    tag_121:\n        /* \"#utility.yul\":6839:6916   */\n      0x4e487b7100000000000000000000000000000000000000000000000000000000\n        /* \"#utility.yul\":6836:6837   */\n      0x00\n        /* \"#utility.yul\":6829:6917   */\n      mstore\n        /* \"#utility.yul\":6936:6940   */\n      0x11\n        /* \"#utility.yul\":6933:6934   */\n      0x04\n        /* \"#utility.yul\":6926:6941   */\n      mstore\n        /* \"#utility.yul\":6960:6964   */\n      0x24\n        /* \"#utility.yul\":6957:6958   */\n      0x00\n        /* \"#utility.yul\":6950:6965   */\n      revert\n        /* \"#utility.yul\":6977:7157   */\n    tag_127:\n        /* \"#utility.yul\":7025:7102   */\n      0x4e487b7100000000000000000000000000000000000000000000000000000000\n        /* \"#utility.yul\":7022:7023   */\n      0x00\n        /* \"#utility.yul\":7015:7103   */\n      mstore\n        /* \"#utility.yul\":7122:7126   */\n      0x12\n        /* \"#utility.yul\":7119:7120   */\n      0x04\n        /* \"#utility.yul\":7112:7127   */\n      mstore\n        /* \"#utility.yul\":7146:7150   */\n      0x24\n        /* \"#utility.yul\":7143:7144   */\n      0x00\n        /* \"#utility.yul\":7136:7151   */\n      revert\n        /* \"#utility.yul\":7163:7343   */\n    tag_21:\n        /* \"#utility.yul\":7211:7288   */\n      0x4e487b7100000000000000000000000000000000000000000000000000000000\n        /* \"#utility.yul\":7208:7209   */\n      0x00\n        /* \"#utility.yul\":7201:7289   */\n      mstore\n        /* \"#utility.yul\":7308:7312   */\n      0x32\n        /* \"#utility.yul\":7305:7306   */\n      0x04\n        /* \"#utility.yul\":7298:7313   */\n      mstore\n        /* \"#utility.yul\":7332:7336   */\n      0x24\n        /* \"#utility.yul\":7329:7330   */\n      0x00\n        /* \"#utility.yul\":7322:7337   */\n      revert\n        /* \"#utility.yul\":7349:7529   */\n    tag_112:\n        /* \"#utility.yul\":7397:7474   */\n      0x4e487b7100000000000000000000000000000000000000000000000000000000\n        /* \"#utility.yul\":7394:7395   */\n      0x00\n        /* \"#utility.yul\":7387:7475   */\n      mstore\n        /* \"#utility.yul\":7494:7498   */\n      0x41\n        /* \"#utility.yul\":7491:7492   */\n      0x04\n        /* \"#utility.yul\":7484:7499   */\n      mstore\n        /* \"#utility.yul\":7518:7522   */\n      0x24\n        /* \"#utility.yul\":7515:7516   */\n      0x00\n        /* \"#utility.yul\":7508:7523   */\n      revert\n        /* \"#utility.yul\":7535:7652   */\n    tag_57:\n        /* \"#utility.yul\":7644:7645   */\n      0x00\n        /* \"#utility.yul\":7641:7642   */\n      dup1\n        /* \"#utility.yul\":7634:7646   */\n      revert\n        /* \"#utility.yul\":7658:7775   */\n    tag_46:\n        /* \"#utility.yul\":7767:7768   */\n      0x00\n        /* \"#utility.yul\":7764:7765   */\n      dup1\n        /* \"#utility.yul\":7757:7769   */\n      revert\n        /* \"#utility.yul\":7781:7898   */\n    tag_73:\n        /* \"#utility.yul\":7890:7891   */\n      0x00\n        /* \"#utility.yul\":7887:7888   */\n      dup1\n        /* \"#utility.yul\":7880:7892   */\n      revert\n        /* \"#utility.yul\":7904:8021   */\n    tag_66:\n        /* \"#utility.yul\":8013:8014   */\n      0x00\n        /* \"#utility.yul\":8010:8011   */\n      dup1\n        /* \"#utility.yul\":8003:8015   */\n      revert\n        /* \"#utility.yul\":8027:8129   */\n    tag_86:\n        /* \"#utility.yul\":8068:8074   */\n      0x00\n        /* \"#utility.yul\":8119:8121   */\n      0x1f\n        /* \"#utility.yul\":8115:8122   */\n      not\n        /* \"#utility.yul\":8110:8112   */\n      0x1f\n        /* \"#utility.yul\":8103:8108   */\n      dup4\n        /* \"#utility.yul\":8099:8113   */\n      add\n        /* \"#utility.yul\":8095:8123   */\n      and\n        /* \"#utility.yul\":8085:8123   */\n      swap1\n      pop\n        /* \"#utility.yul\":8027:8129   */\n      swap2\n      swap1\n      pop\n      jump\t// out\n        /* \"#utility.yul\":8135:8299   */\n    tag_91:\n        /* \"#utility.yul\":8275:8291   */\n      0x4e6f20657320656c206f776e6572000000000000000000000000000000000000\n        /* \"#utility.yul\":8271:8272   */\n      0x00\n        /* \"#utility.yul\":8263:8269   */\n      dup3\n        /* \"#utility.yul\":8259:8273   */\n      add\n        /* \"#utility.yul\":8252:8292   */\n      mstore\n        /* \"#utility.yul\":8135:8299   */\n      pop\n      jump\t// out\n        /* \"#utility.yul\":8305:8427   */\n    tag_52:\n        /* \"#utility.yul\":8378:8402   */\n      tag_159\n        /* \"#utility.yul\":8396:8401   */\n      dup2\n        /* \"#utility.yul\":8378:8402   */\n      tag_128\n      jump\t// in\n    tag_159:\n        /* \"#utility.yul\":8371:8376   */\n      dup2\n        /* \"#utility.yul\":8368:8403   */\n      eq\n        /* \"#utility.yul\":8358:8421   */\n      tag_160\n      jumpi\n        /* \"#utility.yul\":8417:8418   */\n      0x00\n        /* \"#utility.yul\":8414:8415   */\n      dup1\n        /* \"#utility.yul\":8407:8419   */\n      revert\n        /* \"#utility.yul\":8358:8421   */\n    tag_160:\n        /* \"#utility.yul\":8305:8427   */\n      pop\n      jump\t// out\n        /* \"#utility.yul\":8433:8555   */\n    tag_62:\n        /* \"#utility.yul\":8506:8530   */\n      tag_162\n        /* \"#utility.yul\":8524:8529   */\n      dup2\n        /* \"#utility.yul\":8506:8530   */\n      tag_95\n      jump\t// in\n    tag_162:\n        /* \"#utility.yul\":8499:8504   */\n      dup2\n        /* \"#utility.yul\":8496:8531   */\n      eq\n        /* \"#utility.yul\":8486:8549   */\n      tag_163\n      jumpi\n        /* \"#utility.yul\":8545:8546   */\n      0x00\n        /* \"#utility.yul\":8542:8543   */\n      dup1\n        /* \"#utility.yul\":8535:8547   */\n      revert\n        /* \"#utility.yul\":8486:8549   */\n    tag_163:\n        /* \"#utility.yul\":8433:8555   */\n      pop\n      jump\t// out\n\n    auxdata: 0xa2646970667358221220a73ec0ed699dc558d2f30d8c6d1c07b404374e788fcd67ec7cc40df20fdc6e5064736f6c63430008070033\n}\n",
				"bytecode": {
					"linkReferences": {},
					"object": "608060405234801561001057600080fd5b50336000806101000a81548173ffffffffffffffffffffffffffffffffffffffff021916908373ffffffffffffffffffffffffffffffffffffffff16021790555061085e806100606000396000f3fe608060405234801561001057600080fd5b50600436106100365760003560e01c80633011c49c1461003b578063d1e92c611461006b575b600080fd5b6100556004803603810190610050919061038d565b610087565b60405161006291906104b4565b60405180910390f35b610085600480360381019061008091906103ba565b6101aa565b005b60008060005b600160008573ffffffffffffffffffffffffffffffffffffffff1673ffffffffffffffffffffffffffffffffffffffff1681526020019081526020016000208054905081101561015357600160008573ffffffffffffffffffffffffffffffffffffffff1673ffffffffffffffffffffffffffffffffffffffff16815260200190815260200160002081815481106101285761012761074e565b5b90600052602060002001548261013e9190610571565b9150808061014b906106a7565b91505061008d565b50600160008473ffffffffffffffffffffffffffffffffffffffff1673ffffffffffffffffffffffffffffffffffffffff16815260200190815260200160002080549050816101a291906105c7565b915050919050565b60008054906101000a900473ffffffffffffffffffffffffffffffffffffffff1673ffffffffffffffffffffffffffffffffffffffff163373ffffffffffffffffffffffffffffffffffffffff1614610238576040517f08c379a000000000000000000000000000000000000000000000000000000000815260040161022f90610494565b60405180910390fd5b600160008373ffffffffffffffffffffffffffffffffffffffff1673ffffffffffffffffffffffffffffffffffffffff1681526020019081526020016000208190806001815401808255809150506001900390600052602060002001600090919091909150558173ffffffffffffffffffffffffffffffffffffffff167fa8a5c0b97950e3287386c89fb830242f4dda204cf3457cc20b171d474a3bb91882856040516102e69291906104cf565b60405180910390a2505050565b600061030661030184610524565b6104ff565b905082815260208101848484011115610322576103216107b1565b5b61032d848285610634565b509392505050565b600081359050610344816107fa565b92915050565b600082601f83011261035f5761035e6107ac565b5b813561036f8482602086016102f3565b91505092915050565b60008135905061038781610811565b92915050565b6000602082840312156103a3576103a26107bb565b5b60006103b184828501610335565b91505092915050565b6000806000606084860312156103d3576103d26107bb565b5b600084013567ffffffffffffffff8111156103f1576103f06107b6565b5b6103fd8682870161034a565b935050602061040e86828701610335565b925050604061041f86828701610378565b9150509250925092565b600061043482610555565b61043e8185610560565b935061044e818560208601610643565b610457816107c0565b840191505092915050565b600061046f600e83610560565b915061047a826107d1565b602082019050919050565b61048e8161062a565b82525050565b600060208201905081810360008301526104ad81610462565b9050919050565b60006020820190506104c96000830184610485565b92915050565b60006040820190506104e46000830185610485565b81810360208301526104f68184610429565b90509392505050565b600061050961051a565b90506105158282610676565b919050565b6000604051905090565b600067ffffffffffffffff82111561053f5761053e61077d565b5b610548826107c0565b9050602081019050919050565b600081519050919050565b600082825260208201905092915050565b600061057c8261062a565b91506105878361062a565b9250827fffffffffffffffffffffffffffffffffffffffffffffffffffffffffffffffff038211156105bc576105bb6106f0565b5b828201905092915050565b60006105d28261062a565b91506105dd8361062a565b9250826105ed576105ec61071f565b5b828204905092915050565b60006106038261060a565b9050919050565b600073ffffffffffffffffffffffffffffffffffffffff82169050919050565b6000819050919050565b82818337600083830152505050565b60005b83811015610661578082015181840152602081019050610646565b83811115610670576000848401525b50505050565b61067f826107c0565b810181811067ffffffffffffffff8211171561069e5761069d61077d565b5b80604052505050565b60006106b28261062a565b91507fffffffffffffffffffffffffffffffffffffffffffffffffffffffffffffffff8214156106e5576106e46106f0565b5b600182019050919050565b7f4e487b7100000000000000000000000000000000000000000000000000000000600052601160045260246000fd5b7f4e487b7100000000000000000000000000000000000000000000000000000000600052601260045260246000fd5b7f4e487b7100000000000000000000000000000000000000000000000000000000600052603260045260246000fd5b7f4e487b7100000000000000000000000000000000000000000000000000000000600052604160045260246000fd5b600080fd5b600080fd5b600080fd5b600080fd5b6000601f19601f8301169050919050565b7f4e6f20657320656c206f776e6572000000000000000000000000000000000000600082015250565b610803816105f8565b811461080e57600080fd5b50565b61081a8161062a565b811461082557600080fd5b5056fea2646970667358221220a73ec0ed699dc558d2f30d8c6d1c07b404374e788fcd67ec7cc40df20fdc6e5064736f6c63430008070033",
					"opcodes": "PUSH1 0x80 PUSH1 0x40 MSTORE CALLVALUE DUP1 ISZERO PUSH2 0x10 JUMPI PUSH1 0x0 DUP1 REVERT JUMPDEST POP CALLER PUSH1 0x0 DUP1 PUSH2 0x100 EXP DUP2 SLOAD DUP2 PUSH20 0xFFFFFFFFFFFFFFFFFFFFFFFFFFFFFFFFFFFFFFFF MUL NOT AND SWAP1 DUP4 PUSH20 0xFFFFFFFFFFFFFFFFFFFFFFFFFFFFFFFFFFFFFFFF AND MUL OR SWAP1 SSTORE POP PUSH2 0x85E DUP1 PUSH2 0x60 PUSH1 0x0 CODECOPY PUSH1 0x0 RETURN INVALID PUSH1 0x80 PUSH1 0x40 MSTORE CALLVALUE DUP1 ISZERO PUSH2 0x10 JUMPI PUSH1 0x0 DUP1 REVERT JUMPDEST POP PUSH1 0x4 CALLDATASIZE LT PUSH2 0x36 JUMPI PUSH1 0x0 CALLDATALOAD PUSH1 0xE0 SHR DUP1 PUSH4 0x3011C49C EQ PUSH2 0x3B JUMPI DUP1 PUSH4 0xD1E92C61 EQ PUSH2 0x6B JUMPI JUMPDEST PUSH1 0x0 DUP1 REVERT JUMPDEST PUSH2 0x55 PUSH1 0x4 DUP1 CALLDATASIZE SUB DUP2 ADD SWAP1 PUSH2 0x50 SWAP2 SWAP1 PUSH2 0x38D JUMP JUMPDEST PUSH2 0x87 JUMP JUMPDEST PUSH1 0x40 MLOAD PUSH2 0x62 SWAP2 SWAP1 PUSH2 0x4B4 JUMP JUMPDEST PUSH1 0x40 MLOAD DUP1 SWAP2 SUB SWAP1 RETURN JUMPDEST PUSH2 0x85 PUSH1 0x4 DUP1 CALLDATASIZE SUB DUP2 ADD SWAP1 PUSH2 0x80 SWAP2 SWAP1 PUSH2 0x3BA JUMP JUMPDEST PUSH2 0x1AA JUMP JUMPDEST STOP JUMPDEST PUSH1 0x0 DUP1 PUSH1 0x0 JUMPDEST PUSH1 0x1 PUSH1 0x0 DUP6 PUSH20 0xFFFFFFFFFFFFFFFFFFFFFFFFFFFFFFFFFFFFFFFF AND PUSH20 0xFFFFFFFFFFFFFFFFFFFFFFFFFFFFFFFFFFFFFFFF AND DUP2 MSTORE PUSH1 0x20 ADD SWAP1 DUP2 MSTORE PUSH1 0x20 ADD PUSH1 0x0 KECCAK256 DUP1 SLOAD SWAP1 POP DUP2 LT ISZERO PUSH2 0x153 JUMPI PUSH1 0x1 PUSH1 0x0 DUP6 PUSH20 0xFFFFFFFFFFFFFFFFFFFFFFFFFFFFFFFFFFFFFFFF AND PUSH20 0xFFFFFFFFFFFFFFFFFFFFFFFFFFFFFFFFFFFFFFFF AND DUP2 MSTORE PUSH1 0x20 ADD SWAP1 DUP2 MSTORE PUSH1 0x20 ADD PUSH1 0x0 KECCAK256 DUP2 DUP2 SLOAD DUP2 LT PUSH2 0x128 JUMPI PUSH2 0x127 PUSH2 0x74E JUMP JUMPDEST JUMPDEST SWAP1 PUSH1 0x0 MSTORE PUSH1 0x20 PUSH1 0x0 KECCAK256 ADD SLOAD DUP3 PUSH2 0x13E SWAP2 SWAP1 PUSH2 0x571 JUMP JUMPDEST SWAP2 POP DUP1 DUP1 PUSH2 0x14B SWAP1 PUSH2 0x6A7 JUMP JUMPDEST SWAP2 POP POP PUSH2 0x8D JUMP JUMPDEST POP PUSH1 0x1 PUSH1 0x0 DUP5 PUSH20 0xFFFFFFFFFFFFFFFFFFFFFFFFFFFFFFFFFFFFFFFF AND PUSH20 0xFFFFFFFFFFFFFFFFFFFFFFFFFFFFFFFFFFFFFFFF AND DUP2 MSTORE PUSH1 0x20 ADD SWAP1 DUP2 MSTORE PUSH1 0x20 ADD PUSH1 0x0 KECCAK256 DUP1 SLOAD SWAP1 POP DUP2 PUSH2 0x1A2 SWAP2 SWAP1 PUSH2 0x5C7 JUMP JUMPDEST SWAP2 POP POP SWAP2 SWAP1 POP JUMP JUMPDEST PUSH1 0x0 DUP1 SLOAD SWAP1 PUSH2 0x100 EXP SWAP1 DIV PUSH20 0xFFFFFFFFFFFFFFFFFFFFFFFFFFFFFFFFFFFFFFFF AND PUSH20 0xFFFFFFFFFFFFFFFFFFFFFFFFFFFFFFFFFFFFFFFF AND CALLER PUSH20 0xFFFFFFFFFFFFFFFFFFFFFFFFFFFFFFFFFFFFFFFF AND EQ PUSH2 0x238 JUMPI PUSH1 0x40 MLOAD PUSH32 0x8C379A000000000000000000000000000000000000000000000000000000000 DUP2 MSTORE PUSH1 0x4 ADD PUSH2 0x22F SWAP1 PUSH2 0x494 JUMP JUMPDEST PUSH1 0x40 MLOAD DUP1 SWAP2 SUB SWAP1 REVERT JUMPDEST PUSH1 0x1 PUSH1 0x0 DUP4 PUSH20 0xFFFFFFFFFFFFFFFFFFFFFFFFFFFFFFFFFFFFFFFF AND PUSH20 0xFFFFFFFFFFFFFFFFFFFFFFFFFFFFFFFFFFFFFFFF AND DUP2 MSTORE PUSH1 0x20 ADD SWAP1 DUP2 MSTORE PUSH1 0x20 ADD PUSH1 0x0 KECCAK256 DUP2 SWAP1 DUP1 PUSH1 0x1 DUP2 SLOAD ADD DUP1 DUP3 SSTORE DUP1 SWAP2 POP POP PUSH1 0x1 SWAP1 SUB SWAP1 PUSH1 0x0 MSTORE PUSH1 0x20 PUSH1 0x0 KECCAK256 ADD PUSH1 0x0 SWAP1 SWAP2 SWAP1 SWAP2 SWAP1 SWAP2 POP SSTORE DUP2 PUSH20 0xFFFFFFFFFFFFFFFFFFFFFFFFFFFFFFFFFFFFFFFF AND PUSH32 0xA8A5C0B97950E3287386C89FB830242F4DDA204CF3457CC20B171D474A3BB918 DUP3 DUP6 PUSH1 0x40 MLOAD PUSH2 0x2E6 SWAP3 SWAP2 SWAP1 PUSH2 0x4CF JUMP JUMPDEST PUSH1 0x40 MLOAD DUP1 SWAP2 SUB SWAP1 LOG2 POP POP POP JUMP JUMPDEST PUSH1 0x0 PUSH2 0x306 PUSH2 0x301 DUP5 PUSH2 0x524 JUMP JUMPDEST PUSH2 0x4FF JUMP JUMPDEST SWAP1 POP DUP3 DUP2 MSTORE PUSH1 0x20 DUP2 ADD DUP5 DUP5 DUP5 ADD GT ISZERO PUSH2 0x322 JUMPI PUSH2 0x321 PUSH2 0x7B1 JUMP JUMPDEST JUMPDEST PUSH2 0x32D DUP5 DUP3 DUP6 PUSH2 0x634 JUMP JUMPDEST POP SWAP4 SWAP3 POP POP POP JUMP JUMPDEST PUSH1 0x0 DUP2 CALLDATALOAD SWAP1 POP PUSH2 0x344 DUP2 PUSH2 0x7FA JUMP JUMPDEST SWAP3 SWAP2 POP POP JUMP JUMPDEST PUSH1 0x0 DUP3 PUSH1 0x1F DUP4 ADD SLT PUSH2 0x35F JUMPI PUSH2 0x35E PUSH2 0x7AC JUMP JUMPDEST JUMPDEST DUP2 CALLDATALOAD PUSH2 0x36F DUP5 DUP3 PUSH1 0x20 DUP7 ADD PUSH2 0x2F3 JUMP JUMPDEST SWAP2 POP POP SWAP3 SWAP2 POP POP JUMP JUMPDEST PUSH1 0x0 DUP2 CALLDATALOAD SWAP1 POP PUSH2 0x387 DUP2 PUSH2 0x811 JUMP JUMPDEST SWAP3 SWAP2 POP POP JUMP JUMPDEST PUSH1 0x0 PUSH1 0x20 DUP3 DUP5 SUB SLT ISZERO PUSH2 0x3A3 JUMPI PUSH2 0x3A2 PUSH2 0x7BB JUMP JUMPDEST JUMPDEST PUSH1 0x0 PUSH2 0x3B1 DUP5 DUP3 DUP6 ADD PUSH2 0x335 JUMP JUMPDEST SWAP2 POP POP SWAP3 SWAP2 POP POP JUMP JUMPDEST PUSH1 0x0 DUP1 PUSH1 0x0 PUSH1 0x60 DUP5 DUP7 SUB SLT ISZERO PUSH2 0x3D3 JUMPI PUSH2 0x3D2 PUSH2 0x7BB JUMP JUMPDEST JUMPDEST PUSH1 0x0 DUP5 ADD CALLDATALOAD PUSH8 0xFFFFFFFFFFFFFFFF DUP2 GT ISZERO PUSH2 0x3F1 JUMPI PUSH2 0x3F0 PUSH2 0x7B6 JUMP JUMPDEST JUMPDEST PUSH2 0x3FD DUP7 DUP3 DUP8 ADD PUSH2 0x34A JUMP JUMPDEST SWAP4 POP POP PUSH1 0x20 PUSH2 0x40E DUP7 DUP3 DUP8 ADD PUSH2 0x335 JUMP JUMPDEST SWAP3 POP POP PUSH1 0x40 PUSH2 0x41F DUP7 DUP3 DUP8 ADD PUSH2 0x378 JUMP JUMPDEST SWAP2 POP POP SWAP3 POP SWAP3 POP SWAP3 JUMP JUMPDEST PUSH1 0x0 PUSH2 0x434 DUP3 PUSH2 0x555 JUMP JUMPDEST PUSH2 0x43E DUP2 DUP6 PUSH2 0x560 JUMP JUMPDEST SWAP4 POP PUSH2 0x44E DUP2 DUP6 PUSH1 0x20 DUP7 ADD PUSH2 0x643 JUMP JUMPDEST PUSH2 0x457 DUP2 PUSH2 0x7C0 JUMP JUMPDEST DUP5 ADD SWAP2 POP POP SWAP3 SWAP2 POP POP JUMP JUMPDEST PUSH1 0x0 PUSH2 0x46F PUSH1 0xE DUP4 PUSH2 0x560 JUMP JUMPDEST SWAP2 POP PUSH2 0x47A DUP3 PUSH2 0x7D1 JUMP JUMPDEST PUSH1 0x20 DUP3 ADD SWAP1 POP SWAP2 SWAP1 POP JUMP JUMPDEST PUSH2 0x48E DUP2 PUSH2 0x62A JUMP JUMPDEST DUP3 MSTORE POP POP JUMP JUMPDEST PUSH1 0x0 PUSH1 0x20 DUP3 ADD SWAP1 POP DUP2 DUP2 SUB PUSH1 0x0 DUP4 ADD MSTORE PUSH2 0x4AD DUP2 PUSH2 0x462 JUMP JUMPDEST SWAP1 POP SWAP2 SWAP1 POP JUMP JUMPDEST PUSH1 0x0 PUSH1 0x20 DUP3 ADD SWAP1 POP PUSH2 0x4C9 PUSH1 0x0 DUP4 ADD DUP5 PUSH2 0x485 JUMP JUMPDEST SWAP3 SWAP2 POP POP JUMP JUMPDEST PUSH1 0x0 PUSH1 0x40 DUP3 ADD SWAP1 POP PUSH2 0x4E4 PUSH1 0x0 DUP4 ADD DUP6 PUSH2 0x485 JUMP JUMPDEST DUP2 DUP2 SUB PUSH1 0x20 DUP4 ADD MSTORE PUSH2 0x4F6 DUP2 DUP5 PUSH2 0x429 JUMP JUMPDEST SWAP1 POP SWAP4 SWAP3 POP POP POP JUMP JUMPDEST PUSH1 0x0 PUSH2 0x509 PUSH2 0x51A JUMP JUMPDEST SWAP1 POP PUSH2 0x515 DUP3 DUP3 PUSH2 0x676 JUMP JUMPDEST SWAP2 SWAP1 POP JUMP JUMPDEST PUSH1 0x0 PUSH1 0x40 MLOAD SWAP1 POP SWAP1 JUMP JUMPDEST PUSH1 0x0 PUSH8 0xFFFFFFFFFFFFFFFF DUP3 GT ISZERO PUSH2 0x53F JUMPI PUSH2 0x53E PUSH2 0x77D JUMP JUMPDEST JUMPDEST PUSH2 0x548 DUP3 PUSH2 0x7C0 JUMP JUMPDEST SWAP1 POP PUSH1 0x20 DUP2 ADD SWAP1 POP SWAP2 SWAP1 POP JUMP JUMPDEST PUSH1 0x0 DUP2 MLOAD SWAP1 POP SWAP2 SWAP1 POP JUMP JUMPDEST PUSH1 0x0 DUP3 DUP3 MSTORE PUSH1 0x20 DUP3 ADD SWAP1 POP SWAP3 SWAP2 POP POP JUMP JUMPDEST PUSH1 0x0 PUSH2 0x57C DUP3 PUSH2 0x62A JUMP JUMPDEST SWAP2 POP PUSH2 0x587 DUP4 PUSH2 0x62A JUMP JUMPDEST SWAP3 POP DUP3 PUSH32 0xFFFFFFFFFFFFFFFFFFFFFFFFFFFFFFFFFFFFFFFFFFFFFFFFFFFFFFFFFFFFFFFF SUB DUP3 GT ISZERO PUSH2 0x5BC JUMPI PUSH2 0x5BB PUSH2 0x6F0 JUMP JUMPDEST JUMPDEST DUP3 DUP3 ADD SWAP1 POP SWAP3 SWAP2 POP POP JUMP JUMPDEST PUSH1 0x0 PUSH2 0x5D2 DUP3 PUSH2 0x62A JUMP JUMPDEST SWAP2 POP PUSH2 0x5DD DUP4 PUSH2 0x62A JUMP JUMPDEST SWAP3 POP DUP3 PUSH2 0x5ED JUMPI PUSH2 0x5EC PUSH2 0x71F JUMP JUMPDEST JUMPDEST DUP3 DUP3 DIV SWAP1 POP SWAP3 SWAP2 POP POP JUMP JUMPDEST PUSH1 0x0 PUSH2 0x603 DUP3 PUSH2 0x60A JUMP JUMPDEST SWAP1 POP SWAP2 SWAP1 POP JUMP JUMPDEST PUSH1 0x0 PUSH20 0xFFFFFFFFFFFFFFFFFFFFFFFFFFFFFFFFFFFFFFFF DUP3 AND SWAP1 POP SWAP2 SWAP1 POP JUMP JUMPDEST PUSH1 0x0 DUP2 SWAP1 POP SWAP2 SWAP1 POP JUMP JUMPDEST DUP3 DUP2 DUP4 CALLDATACOPY PUSH1 0x0 DUP4 DUP4 ADD MSTORE POP POP POP JUMP JUMPDEST PUSH1 0x0 JUMPDEST DUP4 DUP2 LT ISZERO PUSH2 0x661 JUMPI DUP1 DUP3 ADD MLOAD DUP2 DUP5 ADD MSTORE PUSH1 0x20 DUP2 ADD SWAP1 POP PUSH2 0x646 JUMP JUMPDEST DUP4 DUP2 GT ISZERO PUSH2 0x670 JUMPI PUSH1 0x0 DUP5 DUP5 ADD MSTORE JUMPDEST POP POP POP POP JUMP JUMPDEST PUSH2 0x67F DUP3 PUSH2 0x7C0 JUMP JUMPDEST DUP2 ADD DUP2 DUP2 LT PUSH8 0xFFFFFFFFFFFFFFFF DUP3 GT OR ISZERO PUSH2 0x69E JUMPI PUSH2 0x69D PUSH2 0x77D JUMP JUMPDEST JUMPDEST DUP1 PUSH1 0x40 MSTORE POP POP POP JUMP JUMPDEST PUSH1 0x0 PUSH2 0x6B2 DUP3 PUSH2 0x62A JUMP JUMPDEST SWAP2 POP PUSH32 0xFFFFFFFFFFFFFFFFFFFFFFFFFFFFFFFFFFFFFFFFFFFFFFFFFFFFFFFFFFFFFFFF DUP3 EQ ISZERO PUSH2 0x6E5 JUMPI PUSH2 0x6E4 PUSH2 0x6F0 JUMP JUMPDEST JUMPDEST PUSH1 0x1 DUP3 ADD SWAP1 POP SWAP2 SWAP1 POP JUMP JUMPDEST PUSH32 0x4E487B7100000000000000000000000000000000000000000000000000000000 PUSH1 0x0 MSTORE PUSH1 0x11 PUSH1 0x4 MSTORE PUSH1 0x24 PUSH1 0x0 REVERT JUMPDEST PUSH32 0x4E487B7100000000000000000000000000000000000000000000000000000000 PUSH1 0x0 MSTORE PUSH1 0x12 PUSH1 0x4 MSTORE PUSH1 0x24 PUSH1 0x0 REVERT JUMPDEST PUSH32 0x4E487B7100000000000000000000000000000000000000000000000000000000 PUSH1 0x0 MSTORE PUSH1 0x32 PUSH1 0x4 MSTORE PUSH1 0x24 PUSH1 0x0 REVERT JUMPDEST PUSH32 0x4E487B7100000000000000000000000000000000000000000000000000000000 PUSH1 0x0 MSTORE PUSH1 0x41 PUSH1 0x4 MSTORE PUSH1 0x24 PUSH1 0x0 REVERT JUMPDEST PUSH1 0x0 DUP1 REVERT JUMPDEST PUSH1 0x0 DUP1 REVERT JUMPDEST PUSH1 0x0 DUP1 REVERT JUMPDEST PUSH1 0x0 DUP1 REVERT JUMPDEST PUSH1 0x0 PUSH1 0x1F NOT PUSH1 0x1F DUP4 ADD AND SWAP1 POP SWAP2 SWAP1 POP JUMP JUMPDEST PUSH32 0x4E6F20657320656C206F776E6572000000000000000000000000000000000000 PUSH1 0x0 DUP3 ADD MSTORE POP JUMP JUMPDEST PUSH2 0x803 DUP2 PUSH2 0x5F8 JUMP JUMPDEST DUP2 EQ PUSH2 0x80E JUMPI PUSH1 0x0 DUP1 REVERT JUMPDEST POP JUMP JUMPDEST PUSH2 0x81A DUP2 PUSH2 0x62A JUMP JUMPDEST DUP2 EQ PUSH2 0x825 JUMPI PUSH1 0x0 DUP1 REVERT JUMPDEST POP JUMP INVALID LOG2 PUSH5 0x6970667358 0x22 SLT KECCAK256 0xA7 RETURNDATACOPY 0xC0 0xED PUSH10 0x9DC558D2F30D8C6D1C07 0xB4 DIV CALLDATACOPY 0x4E PUSH25 0x8FCD67EC7CC40DF20FDC6E5064736F6C634300080700330000 "
				},
				"gasEstimates": {
					"creation": {
						"codeDepositCost": "428400",
						"executionCost": "24727",
						"totalCost": "453127"
					},
					"external": {
						"agregarNota(string,address,uint256)": "infinite",
						"calcularPromedio(address)": "infinite"
					}
				},
				"methodIdentifiers": {
					"agregarNota(string,address,uint256)": "d1e92c61",
					"calcularPromedio(address)": "3011c49c"
				}
			},
			"storageLayout": {
				"storage": [
					{
						"astId": 3,
						"contract": "contracts/8_Instituto.sol:InstitutoDesafio",
						"label": "owner",
						"offset": 0,
						"slot": "0",
						"type": "t_address"
					},
					{
						"astId": 8,
						"contract": "contracts/8_Instituto.sol:InstitutoDesafio",
						"label": "notasPorAlumno",
						"offset": 0,
						"slot": "1",
						"type": "t_mapping(t_address,t_array(t_uint256)dyn_storage)"
					}
				],
				"types": {
					"t_address": {
						"encoding": "inplace",
						"label": "address",
						"numberOfBytes": "20"
					},
					"t_array(t_uint256)dyn_storage": {
						"base": "t_uint256",
						"encoding": "dynamic_array",
						"label": "uint256[]",
						"numberOfBytes": "32"
					},
					"t_mapping(t_address,t_array(t_uint256)dyn_storage)": {
						"encoding": "mapping",
						"key": "t_address",
						"label": "mapping(address => uint256[])",
						"numberOfBytes": "32",
						"value": "t_array(t_uint256)dyn_storage"
					},
					"t_uint256": {
						"encoding": "inplace",
						"label": "uint256",
						"numberOfBytes": "32"
					}
				}
			},
			"userdoc": {
				"kind": "user",
				"methods": {},
				"version": 1
			}
		}
	}
}