{
	"data": {
		"bytecode": {
			"linkReferences": {},
			"object": "608060405234801561001057600080fd5b506040516102e53803806102e583398181016040528101906100329190610054565b80600081905550506100a7565b60008151905061004e81610090565b92915050565b60006020828403121561006a5761006961008b565b5b60006100788482850161003f565b91505092915050565b6000819050919050565b600080fd5b61009981610081565b81146100a457600080fd5b50565b61022f806100b66000396000f3fe608060405234801561001057600080fd5b50600436106100365760003560e01c80631acf33631461003b578063721e241614610059575b600080fd5b610043610077565b60405161005091906100eb565b60405180910390f35b6100616100a9565b60405161006e91906100eb565b60405180910390f35b6000620186a06000546204cb2f60026100909190610137565b61009a9190610137565b6100a49190610106565b905090565b6000620186a06000546000546204cb2f6100c39190610137565b6100cd9190610137565b6100d79190610106565b905090565b6100e581610191565b82525050565b600060208201905061010060008301846100dc565b92915050565b600061011182610191565b915061011c83610191565b92508261012c5761012b6101ca565b5b828204905092915050565b600061014282610191565b915061014d83610191565b9250817fffffffffffffffffffffffffffffffffffffffffffffffffffffffffffffffff04831182151516156101865761018561019b565b5b828202905092915050565b6000819050919050565b7f4e487b7100000000000000000000000000000000000000000000000000000000600052601160045260246000fd5b7f4e487b7100000000000000000000000000000000000000000000000000000000600052601260045260246000fdfea264697066735822122052afa0840b8887ac90c2ce7f0ea7bd4849a9d7a220062cd2025b5964c633569164736f6c63430008070033",
			"opcodes": "PUSH1 0x80 PUSH1 0x40 MSTORE CALLVALUE DUP1 ISZERO PUSH2 0x10 JUMPI PUSH1 0x0 DUP1 REVERT JUMPDEST POP PUSH1 0x40 MLOAD PUSH2 0x2E5 CODESIZE SUB DUP1 PUSH2 0x2E5 DUP4 CODECOPY DUP2 DUP2 ADD PUSH1 0x40 MSTORE DUP2 ADD SWAP1 PUSH2 0x32 SWAP2 SWAP1 PUSH2 0x54 JUMP JUMPDEST DUP1 PUSH1 0x0 DUP2 SWAP1 SSTORE POP POP PUSH2 0xA7 JUMP JUMPDEST PUSH1 0x0 DUP2 MLOAD SWAP1 POP PUSH2 0x4E DUP2 PUSH2 0x90 JUMP JUMPDEST SWAP3 SWAP2 POP POP JUMP JUMPDEST PUSH1 0x0 PUSH1 0x20 DUP3 DUP5 SUB SLT ISZERO PUSH2 0x6A JUMPI PUSH2 0x69 PUSH2 0x8B JUMP JUMPDEST JUMPDEST PUSH1 0x0 PUSH2 0x78 DUP5 DUP3 DUP6 ADD PUSH2 0x3F JUMP JUMPDEST SWAP2 POP POP SWAP3 SWAP2 POP POP JUMP JUMPDEST PUSH1 0x0 DUP2 SWAP1 POP SWAP2 SWAP1 POP JUMP JUMPDEST PUSH1 0x0 DUP1 REVERT JUMPDEST PUSH2 0x99 DUP2 PUSH2 0x81 JUMP JUMPDEST DUP2 EQ PUSH2 0xA4 JUMPI PUSH1 0x0 DUP1 REVERT JUMPDEST POP JUMP JUMPDEST PUSH2 0x22F DUP1 PUSH2 0xB6 PUSH1 0x0 CODECOPY PUSH1 0x0 RETURN INVALID PUSH1 0x80 PUSH1 0x40 MSTORE CALLVALUE DUP1 ISZERO PUSH2 0x10 JUMPI PUSH1 0x0 DUP1 REVERT JUMPDEST POP PUSH1 0x4 CALLDATASIZE LT PUSH2 0x36 JUMPI PUSH1 0x0 CALLDATALOAD PUSH1 0xE0 SHR DUP1 PUSH4 0x1ACF3363 EQ PUSH2 0x3B JUMPI DUP1 PUSH4 0x721E2416 EQ PUSH2 0x59 JUMPI JUMPDEST PUSH1 0x0 DUP1 REVERT JUMPDEST PUSH2 0x43 PUSH2 0x77 JUMP JUMPDEST PUSH1 0x40 MLOAD PUSH2 0x50 SWAP2 SWAP1 PUSH2 0xEB JUMP JUMPDEST PUSH1 0x40 MLOAD DUP1 SWAP2 SUB SWAP1 RETURN JUMPDEST PUSH2 0x61 PUSH2 0xA9 JUMP JUMPDEST PUSH1 0x40 MLOAD PUSH2 0x6E SWAP2 SWAP1 PUSH2 0xEB JUMP JUMPDEST PUSH1 0x40 MLOAD DUP1 SWAP2 SUB SWAP1 RETURN JUMPDEST PUSH1 0x0 PUSH3 0x186A0 PUSH1 0x0 SLOAD PUSH3 0x4CB2F PUSH1 0x2 PUSH2 0x90 SWAP2 SWAP1 PUSH2 0x137 JUMP JUMPDEST PUSH2 0x9A SWAP2 SWAP1 PUSH2 0x137 JUMP JUMPDEST PUSH2 0xA4 SWAP2 SWAP1 PUSH2 0x106 JUMP JUMPDEST SWAP1 POP SWAP1 JUMP JUMPDEST PUSH1 0x0 PUSH3 0x186A0 PUSH1 0x0 SLOAD PUSH1 0x0 SLOAD PUSH3 0x4CB2F PUSH2 0xC3 SWAP2 SWAP1 PUSH2 0x137 JUMP JUMPDEST PUSH2 0xCD SWAP2 SWAP1 PUSH2 0x137 JUMP JUMPDEST PUSH2 0xD7 SWAP2 SWAP1 PUSH2 0x106 JUMP JUMPDEST SWAP1 POP SWAP1 JUMP JUMPDEST PUSH2 0xE5 DUP2 PUSH2 0x191 JUMP JUMPDEST DUP3 MSTORE POP POP JUMP JUMPDEST PUSH1 0x0 PUSH1 0x20 DUP3 ADD SWAP1 POP PUSH2 0x100 PUSH1 0x0 DUP4 ADD DUP5 PUSH2 0xDC JUMP JUMPDEST SWAP3 SWAP2 POP POP JUMP JUMPDEST PUSH1 0x0 PUSH2 0x111 DUP3 PUSH2 0x191 JUMP JUMPDEST SWAP2 POP PUSH2 0x11C DUP4 PUSH2 0x191 JUMP JUMPDEST SWAP3 POP DUP3 PUSH2 0x12C JUMPI PUSH2 0x12B PUSH2 0x1CA JUMP JUMPDEST JUMPDEST DUP3 DUP3 DIV SWAP1 POP SWAP3 SWAP2 POP POP JUMP JUMPDEST PUSH1 0x0 PUSH2 0x142 DUP3 PUSH2 0x191 JUMP JUMPDEST SWAP2 POP PUSH2 0x14D DUP4 PUSH2 0x191 JUMP JUMPDEST SWAP3 POP DUP2 PUSH32 0xFFFFFFFFFFFFFFFFFFFFFFFFFFFFFFFFFFFFFFFFFFFFFFFFFFFFFFFFFFFFFFFF DIV DUP4 GT DUP3 ISZERO ISZERO AND ISZERO PUSH2 0x186 JUMPI PUSH2 0x185 PUSH2 0x19B JUMP JUMPDEST JUMPDEST DUP3 DUP3 MUL SWAP1 POP SWAP3 SWAP2 POP POP JUMP JUMPDEST PUSH1 0x0 DUP2 SWAP1 POP SWAP2 SWAP1 POP JUMP JUMPDEST PUSH32 0x4E487B7100000000000000000000000000000000000000000000000000000000 PUSH1 0x0 MSTORE PUSH1 0x11 PUSH1 0x4 MSTORE PUSH1 0x24 PUSH1 0x0 REVERT JUMPDEST PUSH32 0x4E487B7100000000000000000000000000000000000000000000000000000000 PUSH1 0x0 MSTORE PUSH1 0x12 PUSH1 0x4 MSTORE PUSH1 0x24 PUSH1 0x0 REVERT INVALID LOG2 PUSH5 0x6970667358 0x22 SLT KECCAK256 MSTORE 0xAF LOG0 DUP5 SIGNEXTEND DUP9 DUP8 0xAC SWAP1 0xC2 0xCE PUSH32 0xEA7BD4849A9D7A220062CD2025B5964C633569164736F6C6343000807003300 "
		},
		"gasEstimates": {
			"creation": {
				"codeDepositCost": "111800",
				"executionCost": "infinite",
				"totalCost": "infinite"
			},
			"external": {
				"verPerimetro()": "infinite",
				"verSuperficie()": "infinite"
			}
		},
		"methodIdentifiers": {
			"verPerimetro()": "1acf3363",
			"verSuperficie()": "721e2416"
		}
	},
	"abi": [
		{
			"inputs": [
				{
					"internalType": "uint256",
					"name": "_radio",
					"type": "uint256"
				}
			],
			"stateMutability": "nonpayable",
			"type": "constructor"
		},
		{
			"inputs": [],
			"name": "verPerimetro",
			"outputs": [
				{
					"internalType": "uint256",
					"name": "",
					"type": "uint256"
				}
			],
			"stateMutability": "view",
			"type": "function"
		},
		{
			"inputs": [],
			"name": "verSuperficie",
			"outputs": [
				{
					"internalType": "uint256",
					"name": "",
					"type": "uint256"
				}
			],
			"stateMutability": "view",
			"type": "function"
		}
	]
}