{
	"data": {
		"bytecode": {
			"linkReferences": {},
			"object": "608060405234801561001057600080fd5b5060405161024b38038061024b83398181016040528101906100329190610054565b80600081905550506100a7565b60008151905061004e81610090565b92915050565b60006020828403121561006a5761006961008b565b5b60006100788482850161003f565b91505092915050565b6000819050919050565b600080fd5b61009981610081565b81146100a457600080fd5b50565b610195806100b66000396000f3fe608060405234801561001057600080fd5b50600436106100365760003560e01c80631acf33631461003b578063721e241614610059575b600080fd5b610043610077565b60405161005091906100b1565b60405180910390f35b61006161008c565b60405161006e91906100b1565b60405180910390f35b60008054600461008791906100cc565b905090565b6000805460005461009d91906100cc565b905090565b6100ab81610126565b82525050565b60006020820190506100c660008301846100a2565b92915050565b60006100d782610126565b91506100e283610126565b9250817fffffffffffffffffffffffffffffffffffffffffffffffffffffffffffffffff048311821515161561011b5761011a610130565b5b828202905092915050565b6000819050919050565b7f4e487b7100000000000000000000000000000000000000000000000000000000600052601160045260246000fdfea2646970667358221220d6d39ad100fc1a477fc49bee644cea6a8391613b72309c1ffb2e5cc50485e7af64736f6c63430008070033",
			"opcodes": "PUSH1 0x80 PUSH1 0x40 MSTORE CALLVALUE DUP1 ISZERO PUSH2 0x10 JUMPI PUSH1 0x0 DUP1 REVERT JUMPDEST POP PUSH1 0x40 MLOAD PUSH2 0x24B CODESIZE SUB DUP1 PUSH2 0x24B DUP4 CODECOPY DUP2 DUP2 ADD PUSH1 0x40 MSTORE DUP2 ADD SWAP1 PUSH2 0x32 SWAP2 SWAP1 PUSH2 0x54 JUMP JUMPDEST DUP1 PUSH1 0x0 DUP2 SWAP1 SSTORE POP POP PUSH2 0xA7 JUMP JUMPDEST PUSH1 0x0 DUP2 MLOAD SWAP1 POP PUSH2 0x4E DUP2 PUSH2 0x90 JUMP JUMPDEST SWAP3 SWAP2 POP POP JUMP JUMPDEST PUSH1 0x0 PUSH1 0x20 DUP3 DUP5 SUB SLT ISZERO PUSH2 0x6A JUMPI PUSH2 0x69 PUSH2 0x8B JUMP JUMPDEST JUMPDEST PUSH1 0x0 PUSH2 0x78 DUP5 DUP3 DUP6 ADD PUSH2 0x3F JUMP JUMPDEST SWAP2 POP POP SWAP3 SWAP2 POP POP JUMP JUMPDEST PUSH1 0x0 DUP2 SWAP1 POP SWAP2 SWAP1 POP JUMP JUMPDEST PUSH1 0x0 DUP1 REVERT JUMPDEST PUSH2 0x99 DUP2 PUSH2 0x81 JUMP JUMPDEST DUP2 EQ PUSH2 0xA4 JUMPI PUSH1 0x0 DUP1 REVERT JUMPDEST POP JUMP JUMPDEST PUSH2 0x195 DUP1 PUSH2 0xB6 PUSH1 0x0 CODECOPY PUSH1 0x0 RETURN INVALID PUSH1 0x80 PUSH1 0x40 MSTORE CALLVALUE DUP1 ISZERO PUSH2 0x10 JUMPI PUSH1 0x0 DUP1 REVERT JUMPDEST POP PUSH1 0x4 CALLDATASIZE LT PUSH2 0x36 JUMPI PUSH1 0x0 CALLDATALOAD PUSH1 0xE0 SHR DUP1 PUSH4 0x1ACF3363 EQ PUSH2 0x3B JUMPI DUP1 PUSH4 0x721E2416 EQ PUSH2 0x59 JUMPI JUMPDEST PUSH1 0x0 DUP1 REVERT JUMPDEST PUSH2 0x43 PUSH2 0x77 JUMP JUMPDEST PUSH1 0x40 MLOAD PUSH2 0x50 SWAP2 SWAP1 PUSH2 0xB1 JUMP JUMPDEST PUSH1 0x40 MLOAD DUP1 SWAP2 SUB SWAP1 RETURN JUMPDEST PUSH2 0x61 PUSH2 0x8C JUMP JUMPDEST PUSH1 0x40 MLOAD PUSH2 0x6E SWAP2 SWAP1 PUSH2 0xB1 JUMP JUMPDEST PUSH1 0x40 MLOAD DUP1 SWAP2 SUB SWAP1 RETURN JUMPDEST PUSH1 0x0 DUP1 SLOAD PUSH1 0x4 PUSH2 0x87 SWAP2 SWAP1 PUSH2 0xCC JUMP JUMPDEST SWAP1 POP SWAP1 JUMP JUMPDEST PUSH1 0x0 DUP1 SLOAD PUSH1 0x0 SLOAD PUSH2 0x9D SWAP2 SWAP1 PUSH2 0xCC JUMP JUMPDEST SWAP1 POP SWAP1 JUMP JUMPDEST PUSH2 0xAB DUP2 PUSH2 0x126 JUMP JUMPDEST DUP3 MSTORE POP POP JUMP JUMPDEST PUSH1 0x0 PUSH1 0x20 DUP3 ADD SWAP1 POP PUSH2 0xC6 PUSH1 0x0 DUP4 ADD DUP5 PUSH2 0xA2 JUMP JUMPDEST SWAP3 SWAP2 POP POP JUMP JUMPDEST PUSH1 0x0 PUSH2 0xD7 DUP3 PUSH2 0x126 JUMP JUMPDEST SWAP2 POP PUSH2 0xE2 DUP4 PUSH2 0x126 JUMP JUMPDEST SWAP3 POP DUP2 PUSH32 0xFFFFFFFFFFFFFFFFFFFFFFFFFFFFFFFFFFFFFFFFFFFFFFFFFFFFFFFFFFFFFFFF DIV DUP4 GT DUP3 ISZERO ISZERO AND ISZERO PUSH2 0x11B JUMPI PUSH2 0x11A PUSH2 0x130 JUMP JUMPDEST JUMPDEST DUP3 DUP3 MUL SWAP1 POP SWAP3 SWAP2 POP POP JUMP JUMPDEST PUSH1 0x0 DUP2 SWAP1 POP SWAP2 SWAP1 POP JUMP JUMPDEST PUSH32 0x4E487B7100000000000000000000000000000000000000000000000000000000 PUSH1 0x0 MSTORE PUSH1 0x11 PUSH1 0x4 MSTORE PUSH1 0x24 PUSH1 0x0 REVERT INVALID LOG2 PUSH5 0x6970667358 0x22 SLT KECCAK256 0xD6 0xD3 SWAP11 0xD1 STOP 0xFC BYTE SELFBALANCE PUSH32 0xC49BEE644CEA6A8391613B72309C1FFB2E5CC50485E7AF64736F6C6343000807 STOP CALLER "
		},
		"gasEstimates": {
			"creation": {
				"codeDepositCost": "81000",
				"executionCost": "infinite",
				"totalCost": "infinite"
			},
			"external": {
				"verPerimetro()": "infinite",
				"verSuperficie()": "infinite"
			}
		},
		"methodIdentifiers": {
			"verPerimetro()": "1acf3363",
			"verSuperficie()": "721e2416"
		}
	},
	"abi": [
		{
			"inputs": [
				{
					"internalType": "uint256",
					"name": "_lado",
					"type": "uint256"
				}
			],
			"stateMutability": "nonpayable",
			"type": "constructor"
		},
		{
			"inputs": [],
			"name": "verPerimetro",
			"outputs": [
				{
					"internalType": "uint256",
					"name": "",
					"type": "uint256"
				}
			],
			"stateMutability": "view",
			"type": "function"
		},
		{
			"inputs": [],
			"name": "verSuperficie",
			"outputs": [
				{
					"internalType": "uint256",
					"name": "",
					"type": "uint256"
				}
			],
			"stateMutability": "view",
			"type": "function"
		}
	]
}